{
  "_format": "hh-sol-artifact-1",
  "contractName": "IBC",
  "sourceName": "contracts/IBC.sol",
  "abi": [
    {
      "anonymous": false,
      "inputs": [
        {
          "components": [
            {
              "internalType": "uint64",
              "name": "sequence",
              "type": "uint64"
            },
            {
              "internalType": "string",
              "name": "sourcePort",
              "type": "string"
            },
            {
              "internalType": "string",
              "name": "sourceChannel",
              "type": "string"
            },
            {
              "internalType": "string",
              "name": "destinationPort",
              "type": "string"
            },
            {
              "internalType": "string",
              "name": "destinationChannel",
              "type": "string"
            },
            {
              "internalType": "bytes",
              "name": "data",
              "type": "bytes"
            },
            {
              "components": [
                {
                  "internalType": "uint64",
                  "name": "revisionNumber",
                  "type": "uint64"
                },
                {
                  "internalType": "uint64",
                  "name": "revisionHeight",
                  "type": "uint64"
                }
              ],
              "internalType": "struct Height",
              "name": "timeoutHeight",
              "type": "tuple"
            },
            {
              "internalType": "uint64",
              "name": "timeoutTimestamp",
              "type": "uint64"
            }
          ],
          "indexed": false,
          "internalType": "struct Packet",
          "name": "packet",
          "type": "tuple"
        }
      ],
      "name": "AcknowledgePacket",
      "type": "event"
    },
    {
      "anonymous": false,
      "inputs": [
        {
          "indexed": false,
          "internalType": "string",
          "name": "portId",
          "type": "string"
        },
        {
          "indexed": false,
          "internalType": "string",
          "name": "channelId",
          "type": "string"
        },
        {
          "indexed": false,
          "internalType": "string",
          "name": "connectionId",
          "type": "string"
        },
        {
          "indexed": false,
          "internalType": "string",
          "name": "counterpartyPortId",
          "type": "string"
        },
        {
          "indexed": false,
          "internalType": "string",
          "name": "counterpartyChannelId",
          "type": "string"
        }
      ],
      "name": "ChannelCloseConfirm",
      "type": "event"
    },
    {
      "anonymous": false,
      "inputs": [
        {
          "indexed": false,
          "internalType": "string",
          "name": "portId",
          "type": "string"
        },
        {
          "indexed": false,
          "internalType": "string",
          "name": "channelId",
          "type": "string"
        },
        {
          "indexed": false,
          "internalType": "string",
          "name": "connectionId",
          "type": "string"
        },
        {
          "indexed": false,
          "internalType": "string",
          "name": "counterpartyPortId",
          "type": "string"
        },
        {
          "indexed": false,
          "internalType": "string",
          "name": "counterpartyChannelId",
          "type": "string"
        }
      ],
      "name": "ChannelCloseInit",
      "type": "event"
    },
    {
      "anonymous": false,
      "inputs": [
        {
          "indexed": false,
          "internalType": "string",
          "name": "portId",
          "type": "string"
        },
        {
          "indexed": false,
          "internalType": "string",
          "name": "channelId",
          "type": "string"
        },
        {
          "indexed": false,
          "internalType": "string",
          "name": "connectionId",
          "type": "string"
        },
        {
          "indexed": false,
          "internalType": "string",
          "name": "counterpartyPortId",
          "type": "string"
        },
        {
          "indexed": false,
          "internalType": "string",
          "name": "counterpartyChannelId",
          "type": "string"
        }
      ],
      "name": "ChannelOpenAck",
      "type": "event"
    },
    {
      "anonymous": false,
      "inputs": [
        {
          "indexed": false,
          "internalType": "string",
          "name": "portId",
          "type": "string"
        },
        {
          "indexed": false,
          "internalType": "string",
          "name": "channelId",
          "type": "string"
        },
        {
          "indexed": false,
          "internalType": "string",
          "name": "connectionId",
          "type": "string"
        },
        {
          "indexed": false,
          "internalType": "string",
          "name": "counterpartyPortId",
          "type": "string"
        },
        {
          "indexed": false,
          "internalType": "string",
          "name": "counterpartyChannelId",
          "type": "string"
        }
      ],
      "name": "ChannelOpenConfirm",
      "type": "event"
    },
    {
      "anonymous": false,
      "inputs": [
        {
          "indexed": false,
          "internalType": "string",
          "name": "portId",
          "type": "string"
        },
        {
          "indexed": false,
          "internalType": "string",
          "name": "channelId",
          "type": "string"
        },
        {
          "indexed": false,
          "internalType": "string",
          "name": "connectionId",
          "type": "string"
        },
        {
          "indexed": false,
          "internalType": "string",
          "name": "counterpartyPortId",
          "type": "string"
        },
        {
          "indexed": false,
          "internalType": "string",
          "name": "counterpartyChannelId",
          "type": "string"
        }
      ],
      "name": "ChannelOpenInit",
      "type": "event"
    },
    {
      "anonymous": false,
      "inputs": [
        {
          "indexed": false,
          "internalType": "string",
          "name": "portId",
          "type": "string"
        },
        {
          "indexed": false,
          "internalType": "string",
          "name": "channelId",
          "type": "string"
        },
        {
          "indexed": false,
          "internalType": "string",
          "name": "connectionId",
          "type": "string"
        },
        {
          "indexed": false,
          "internalType": "string",
          "name": "counterpartyPortId",
          "type": "string"
        },
        {
          "indexed": false,
          "internalType": "string",
          "name": "counterpartyChannelId",
          "type": "string"
        }
      ],
      "name": "ChannelOpenTry",
      "type": "event"
    },
    {
      "anonymous": false,
      "inputs": [
        {
          "indexed": false,
          "internalType": "string",
          "name": "connectionId",
          "type": "string"
        },
        {
          "indexed": false,
          "internalType": "string",
          "name": "clientId",
          "type": "string"
        },
        {
          "indexed": false,
          "internalType": "string",
          "name": "counterpartyConnectionId",
          "type": "string"
        },
        {
          "indexed": false,
          "internalType": "string",
          "name": "counterpartyClientId",
          "type": "string"
        }
      ],
      "name": "ConnectionOpenAck",
      "type": "event"
    },
    {
      "anonymous": false,
      "inputs": [
        {
          "indexed": false,
          "internalType": "string",
          "name": "connectionId",
          "type": "string"
        },
        {
          "indexed": false,
          "internalType": "string",
          "name": "clientId",
          "type": "string"
        },
        {
          "indexed": false,
          "internalType": "string",
          "name": "counterpartyConnectionId",
          "type": "string"
        },
        {
          "indexed": false,
          "internalType": "string",
          "name": "counterpartyClientId",
          "type": "string"
        }
      ],
      "name": "ConnectionOpenConfirm",
      "type": "event"
    },
    {
      "anonymous": false,
      "inputs": [
        {
          "indexed": false,
          "internalType": "string",
          "name": "connectionId",
          "type": "string"
        },
        {
          "indexed": false,
          "internalType": "string",
          "name": "clientId",
          "type": "string"
        },
        {
          "indexed": false,
          "internalType": "string",
          "name": "counterpartyConnectionId",
          "type": "string"
        },
        {
          "indexed": false,
          "internalType": "string",
          "name": "counterpartyClientId",
          "type": "string"
        }
      ],
      "name": "ConnectionOpenInit",
      "type": "event"
    },
    {
      "anonymous": false,
      "inputs": [
        {
          "indexed": false,
          "internalType": "string",
          "name": "connectionId",
          "type": "string"
        },
        {
          "indexed": false,
          "internalType": "string",
          "name": "clientId",
          "type": "string"
        },
        {
          "indexed": false,
          "internalType": "string",
          "name": "counterpartyConnectionId",
          "type": "string"
        },
        {
          "indexed": false,
          "internalType": "string",
          "name": "counterpartyClientId",
          "type": "string"
        }
      ],
      "name": "ConnectionOpenTry",
      "type": "event"
    },
    {
      "anonymous": false,
      "inputs": [
        {
          "indexed": false,
          "internalType": "string",
          "name": "clientId",
          "type": "string"
        },
        {
          "indexed": true,
          "internalType": "uint256",
          "name": "clientType",
          "type": "uint256"
        },
        {
          "components": [
            {
              "internalType": "uint64",
              "name": "revisionNumber",
              "type": "uint64"
            },
            {
              "internalType": "uint64",
              "name": "revisionHeight",
              "type": "uint64"
            }
          ],
          "indexed": false,
          "internalType": "struct Height",
          "name": "height",
          "type": "tuple"
        }
      ],
      "name": "CreateClient",
      "type": "event"
    },
    {
      "anonymous": false,
      "inputs": [
        {
          "indexed": true,
          "internalType": "address",
          "name": "previousOwner",
          "type": "address"
        },
        {
          "indexed": true,
          "internalType": "address",
          "name": "newOwner",
          "type": "address"
        }
      ],
      "name": "OwnershipTransferred",
      "type": "event"
    },
    {
      "anonymous": false,
      "inputs": [
        {
          "components": [
            {
              "internalType": "uint64",
              "name": "sequence",
              "type": "uint64"
            },
            {
              "internalType": "string",
              "name": "sourcePort",
              "type": "string"
            },
            {
              "internalType": "string",
              "name": "sourceChannel",
              "type": "string"
            },
            {
              "internalType": "string",
              "name": "destinationPort",
              "type": "string"
            },
            {
              "internalType": "string",
              "name": "destinationChannel",
              "type": "string"
            },
            {
              "internalType": "bytes",
              "name": "data",
              "type": "bytes"
            },
            {
              "components": [
                {
                  "internalType": "uint64",
                  "name": "revisionNumber",
                  "type": "uint64"
                },
                {
                  "internalType": "uint64",
                  "name": "revisionHeight",
                  "type": "uint64"
                }
              ],
              "internalType": "struct Height",
              "name": "timeoutHeight",
              "type": "tuple"
            },
            {
              "internalType": "uint64",
              "name": "timeoutTimestamp",
              "type": "uint64"
            }
          ],
          "indexed": false,
          "internalType": "struct Packet",
          "name": "packet",
          "type": "tuple"
        }
      ],
      "name": "RecvPacket",
      "type": "event"
    },
    {
      "anonymous": false,
      "inputs": [
        {
          "components": [
            {
              "internalType": "uint64",
              "name": "sequence",
              "type": "uint64"
            },
            {
              "internalType": "string",
              "name": "sourcePort",
              "type": "string"
            },
            {
              "internalType": "string",
              "name": "sourceChannel",
              "type": "string"
            },
            {
              "internalType": "string",
              "name": "destinationPort",
              "type": "string"
            },
            {
              "internalType": "string",
              "name": "destinationChannel",
              "type": "string"
            },
            {
              "internalType": "bytes",
              "name": "data",
              "type": "bytes"
            },
            {
              "components": [
                {
                  "internalType": "uint64",
                  "name": "revisionNumber",
                  "type": "uint64"
                },
                {
                  "internalType": "uint64",
                  "name": "revisionHeight",
                  "type": "uint64"
                }
              ],
              "internalType": "struct Height",
              "name": "timeoutHeight",
              "type": "tuple"
            },
            {
              "internalType": "uint64",
              "name": "timeoutTimestamp",
              "type": "uint64"
            }
          ],
          "indexed": false,
          "internalType": "struct Packet",
          "name": "packet",
          "type": "tuple"
        }
      ],
      "name": "SendPacket",
      "type": "event"
    },
    {
      "anonymous": false,
      "inputs": [
        {
          "indexed": false,
          "internalType": "string",
          "name": "clientId",
          "type": "string"
        },
        {
          "indexed": true,
          "internalType": "uint256",
          "name": "clientType",
          "type": "uint256"
        },
        {
          "components": [
            {
              "internalType": "uint64",
              "name": "revisionNumber",
              "type": "uint64"
            },
            {
              "internalType": "uint64",
              "name": "revisionHeight",
              "type": "uint64"
            }
          ],
          "indexed": false,
          "internalType": "struct Height",
          "name": "consensusHeight",
          "type": "tuple"
        }
      ],
      "name": "UpdateClient",
      "type": "event"
    },
    {
      "anonymous": false,
      "inputs": [
        {
          "components": [
            {
              "internalType": "uint64",
              "name": "sequence",
              "type": "uint64"
            },
            {
              "internalType": "string",
              "name": "sourcePort",
              "type": "string"
            },
            {
              "internalType": "string",
              "name": "sourceChannel",
              "type": "string"
            },
            {
              "internalType": "string",
              "name": "destinationPort",
              "type": "string"
            },
            {
              "internalType": "string",
              "name": "destinationChannel",
              "type": "string"
            },
            {
              "internalType": "bytes",
              "name": "data",
              "type": "bytes"
            },
            {
              "components": [
                {
                  "internalType": "uint64",
                  "name": "revisionNumber",
                  "type": "uint64"
                },
                {
                  "internalType": "uint64",
                  "name": "revisionHeight",
                  "type": "uint64"
                }
              ],
              "internalType": "struct Height",
              "name": "timeoutHeight",
              "type": "tuple"
            },
            {
              "internalType": "uint64",
              "name": "timeoutTimestamp",
              "type": "uint64"
            }
          ],
          "indexed": false,
          "internalType": "struct Packet",
          "name": "packet",
          "type": "tuple"
        },
        {
          "indexed": false,
          "internalType": "bytes",
          "name": "ack",
          "type": "bytes"
        }
      ],
      "name": "WriteAcknowledgement",
      "type": "event"
    },
    {
      "inputs": [
        {
          "components": [
            {
              "components": [
                {
                  "internalType": "uint64",
                  "name": "sequence",
                  "type": "uint64"
                },
                {
                  "internalType": "string",
                  "name": "sourcePort",
                  "type": "string"
                },
                {
                  "internalType": "string",
                  "name": "sourceChannel",
                  "type": "string"
                },
                {
                  "internalType": "string",
                  "name": "destinationPort",
                  "type": "string"
                },
                {
                  "internalType": "string",
                  "name": "destinationChannel",
                  "type": "string"
                },
                {
                  "internalType": "bytes",
                  "name": "data",
                  "type": "bytes"
                },
                {
                  "components": [
                    {
                      "internalType": "uint64",
                      "name": "revisionNumber",
                      "type": "uint64"
                    },
                    {
                      "internalType": "uint64",
                      "name": "revisionHeight",
                      "type": "uint64"
                    }
                  ],
                  "internalType": "struct Height",
                  "name": "timeoutHeight",
                  "type": "tuple"
                },
                {
                  "internalType": "uint64",
                  "name": "timeoutTimestamp",
                  "type": "uint64"
                }
              ],
              "internalType": "struct Packet",
              "name": "packet",
              "type": "tuple"
            },
            {
              "internalType": "bytes",
              "name": "acknowledgement",
              "type": "bytes"
            },
            {
              "internalType": "bytes",
              "name": "proof",
              "type": "bytes"
            },
            {
              "components": [
                {
                  "internalType": "uint64",
                  "name": "revisionNumber",
                  "type": "uint64"
                },
                {
                  "internalType": "uint64",
                  "name": "revisionHeight",
                  "type": "uint64"
                }
              ],
              "internalType": "struct Height",
              "name": "proofHeight",
              "type": "tuple"
            }
          ],
          "internalType": "struct MsgPacketAcknowledgement",
          "name": "message",
          "type": "tuple"
        }
      ],
      "name": "acknowledgePacket",
      "outputs": [],
      "stateMutability": "nonpayable",
      "type": "function"
    },
    {
      "inputs": [
        {
          "components": [
            {
              "internalType": "string",
              "name": "portId",
              "type": "string"
            },
            {
              "internalType": "string",
              "name": "channelId",
              "type": "string"
            },
            {
              "internalType": "bytes",
              "name": "proofInit",
              "type": "bytes"
            },
            {
              "components": [
                {
                  "internalType": "uint64",
                  "name": "revisionNumber",
                  "type": "uint64"
                },
                {
                  "internalType": "uint64",
                  "name": "revisionHeight",
                  "type": "uint64"
                }
              ],
              "internalType": "struct Height",
              "name": "proofHeight",
              "type": "tuple"
            }
          ],
          "internalType": "struct MsgChannelCloseConfirm",
          "name": "message",
          "type": "tuple"
        }
      ],
      "name": "channelCloseConfirm",
      "outputs": [],
      "stateMutability": "nonpayable",
      "type": "function"
    },
    {
      "inputs": [
        {
          "components": [
            {
              "internalType": "string",
              "name": "portId",
              "type": "string"
            },
            {
              "internalType": "string",
              "name": "channelId",
              "type": "string"
            }
          ],
          "internalType": "struct MsgChannelCloseInit",
          "name": "message",
          "type": "tuple"
        }
      ],
      "name": "channelCloseInit",
      "outputs": [],
      "stateMutability": "nonpayable",
      "type": "function"
    },
    {
      "inputs": [
        {
          "components": [
            {
              "internalType": "string",
              "name": "portId",
              "type": "string"
            },
            {
              "internalType": "string",
              "name": "channelId",
              "type": "string"
            },
            {
              "internalType": "string",
              "name": "counterpartyVersion",
              "type": "string"
            },
            {
              "internalType": "string",
              "name": "counterpartyChannelId",
              "type": "string"
            },
            {
              "internalType": "bytes",
              "name": "proofTry",
              "type": "bytes"
            },
            {
              "components": [
                {
                  "internalType": "uint64",
                  "name": "revisionNumber",
                  "type": "uint64"
                },
                {
                  "internalType": "uint64",
                  "name": "revisionHeight",
                  "type": "uint64"
                }
              ],
              "internalType": "struct Height",
              "name": "proofHeight",
              "type": "tuple"
            }
          ],
          "internalType": "struct MsgChannelOpenAck",
          "name": "message",
          "type": "tuple"
        }
      ],
      "name": "channelOpenAck",
      "outputs": [],
      "stateMutability": "nonpayable",
      "type": "function"
    },
    {
      "inputs": [
        {
          "components": [
            {
              "internalType": "string",
              "name": "portId",
              "type": "string"
            },
            {
              "internalType": "string",
              "name": "channelId",
              "type": "string"
            },
            {
              "internalType": "bytes",
              "name": "proofAck",
              "type": "bytes"
            },
            {
              "components": [
                {
                  "internalType": "uint64",
                  "name": "revisionNumber",
                  "type": "uint64"
                },
                {
                  "internalType": "uint64",
                  "name": "revisionHeight",
                  "type": "uint64"
                }
              ],
              "internalType": "struct Height",
              "name": "proofHeight",
              "type": "tuple"
            }
          ],
          "internalType": "struct MsgChannelOpenConfirm",
          "name": "message",
          "type": "tuple"
        }
      ],
      "name": "channelOpenConfirm",
      "outputs": [],
      "stateMutability": "nonpayable",
      "type": "function"
    },
    {
      "inputs": [
        {
          "components": [
            {
              "internalType": "string",
              "name": "portId",
              "type": "string"
            },
            {
              "components": [
                {
                  "internalType": "enum ChannelState",
                  "name": "state",
                  "type": "uint8"
                },
                {
                  "internalType": "enum Order",
                  "name": "ordering",
                  "type": "uint8"
                },
                {
                  "components": [
                    {
                      "internalType": "string",
                      "name": "portId",
                      "type": "string"
                    },
                    {
                      "internalType": "string",
                      "name": "channelId",
                      "type": "string"
                    }
                  ],
                  "internalType": "struct ChannelCounterparty",
                  "name": "counterparty",
                  "type": "tuple"
                },
                {
                  "internalType": "string[]",
                  "name": "connectionHops",
                  "type": "string[]"
                },
                {
                  "internalType": "string",
                  "name": "version",
                  "type": "string"
                }
              ],
              "internalType": "struct ChannelEnd",
              "name": "channel",
              "type": "tuple"
            }
          ],
          "internalType": "struct MsgChannelOpenInit",
          "name": "message",
          "type": "tuple"
        }
      ],
      "name": "channelOpenInit",
      "outputs": [
        {
          "internalType": "string",
          "name": "",
          "type": "string"
        }
      ],
      "stateMutability": "nonpayable",
      "type": "function"
    },
    {
      "inputs": [
        {
          "components": [
            {
              "internalType": "string",
              "name": "portId",
              "type": "string"
            },
            {
              "internalType": "string",
              "name": "previousChannelId",
              "type": "string"
            },
            {
              "components": [
                {
                  "internalType": "enum ChannelState",
                  "name": "state",
                  "type": "uint8"
                },
                {
                  "internalType": "enum Order",
                  "name": "ordering",
                  "type": "uint8"
                },
                {
                  "components": [
                    {
                      "internalType": "string",
                      "name": "portId",
                      "type": "string"
                    },
                    {
                      "internalType": "string",
                      "name": "channelId",
                      "type": "string"
                    }
                  ],
                  "internalType": "struct ChannelCounterparty",
                  "name": "counterparty",
                  "type": "tuple"
                },
                {
                  "internalType": "string[]",
                  "name": "connectionHops",
                  "type": "string[]"
                },
                {
                  "internalType": "string",
                  "name": "version",
                  "type": "string"
                }
              ],
              "internalType": "struct ChannelEnd",
              "name": "channel",
              "type": "tuple"
            },
            {
              "internalType": "string",
              "name": "counterpartyVersion",
              "type": "string"
            },
            {
              "internalType": "bytes",
              "name": "proofInit",
              "type": "bytes"
            },
            {
              "components": [
                {
                  "internalType": "uint64",
                  "name": "revisionNumber",
                  "type": "uint64"
                },
                {
                  "internalType": "uint64",
                  "name": "revisionHeight",
                  "type": "uint64"
                }
              ],
              "internalType": "struct Height",
              "name": "proofHeight",
              "type": "tuple"
            }
          ],
          "internalType": "struct MsgChannelOpenTry",
          "name": "message",
          "type": "tuple"
        }
      ],
      "name": "channelOpenTry",
      "outputs": [
        {
          "internalType": "string",
          "name": "",
          "type": "string"
        }
      ],
      "stateMutability": "nonpayable",
      "type": "function"
    },
    {
      "inputs": [
        {
          "components": [
            {
              "components": [
                {
                  "internalType": "string",
                  "name": "chainId",
                  "type": "string"
                },
                {
                  "internalType": "enum ClientType",
                  "name": "clientType",
                  "type": "uint8"
                },
                {
                  "components": [
                    {
                      "internalType": "uint64",
                      "name": "revisionNumber",
                      "type": "uint64"
                    },
                    {
                      "internalType": "uint64",
                      "name": "revisionHeight",
                      "type": "uint64"
                    }
                  ],
                  "internalType": "struct Height",
                  "name": "latestHeight",
                  "type": "tuple"
                },
                {
                  "components": [
                    {
                      "internalType": "uint64",
                      "name": "revisionNumber",
                      "type": "uint64"
                    },
                    {
                      "internalType": "uint64",
                      "name": "revisionHeight",
                      "type": "uint64"
                    }
                  ],
                  "internalType": "struct Height",
                  "name": "frozenHeight",
                  "type": "tuple"
                },
                {
                  "internalType": "uint256",
                  "name": "trustingPeriod",
                  "type": "uint256"
                },
                {
                  "internalType": "uint256",
                  "name": "maxClockDrift",
                  "type": "uint256"
                },
                {
                  "internalType": "bytes",
                  "name": "extraPayload",
                  "type": "bytes"
                }
              ],
              "internalType": "struct ClientState",
              "name": "clientState",
              "type": "tuple"
            },
            {
              "components": [
                {
                  "internalType": "uint256",
                  "name": "timestamp",
                  "type": "uint256"
                },
                {
                  "internalType": "bytes32",
                  "name": "commitmentRoot",
                  "type": "bytes32"
                },
                {
                  "internalType": "bytes",
                  "name": "extraPayload",
                  "type": "bytes"
                }
              ],
              "internalType": "struct ConsensusState",
              "name": "consensusState",
              "type": "tuple"
            }
          ],
          "internalType": "struct MsgClientCreate",
          "name": "message",
          "type": "tuple"
        }
      ],
      "name": "clientCreate",
      "outputs": [
        {
          "internalType": "string",
          "name": "clientId",
          "type": "string"
        }
      ],
      "stateMutability": "nonpayable",
      "type": "function"
    },
    {
      "inputs": [
        {
          "components": [
            {
              "internalType": "string",
              "name": "clientId",
              "type": "string"
            },
            {
              "internalType": "bytes",
              "name": "headerBytes",
              "type": "bytes"
            }
          ],
          "internalType": "struct MsgClientUpdate",
          "name": "message",
          "type": "tuple"
        }
      ],
      "name": "clientUpdate",
      "outputs": [],
      "stateMutability": "nonpayable",
      "type": "function"
    },
    {
      "inputs": [
        {
          "components": [
            {
              "internalType": "string",
              "name": "connectionId",
              "type": "string"
            },
            {
              "internalType": "bytes",
              "name": "clientStateBytes",
              "type": "bytes"
            },
            {
              "components": [
                {
                  "internalType": "string",
                  "name": "identifier",
                  "type": "string"
                },
                {
                  "internalType": "string[]",
                  "name": "features",
                  "type": "string[]"
                }
              ],
              "internalType": "struct Version",
              "name": "version",
              "type": "tuple"
            },
            {
              "internalType": "string",
              "name": "counterpartyConnectionID",
              "type": "string"
            },
            {
              "internalType": "bytes",
              "name": "proofTry",
              "type": "bytes"
            },
            {
              "internalType": "bytes",
              "name": "proofClient",
              "type": "bytes"
            },
            {
              "internalType": "bytes",
              "name": "proofConsensus",
              "type": "bytes"
            },
            {
              "components": [
                {
                  "internalType": "uint64",
                  "name": "revisionNumber",
                  "type": "uint64"
                },
                {
                  "internalType": "uint64",
                  "name": "revisionHeight",
                  "type": "uint64"
                }
              ],
              "internalType": "struct Height",
              "name": "proofHeight",
              "type": "tuple"
            },
            {
              "components": [
                {
                  "internalType": "uint64",
                  "name": "revisionNumber",
                  "type": "uint64"
                },
                {
                  "internalType": "uint64",
                  "name": "revisionHeight",
                  "type": "uint64"
                }
              ],
              "internalType": "struct Height",
              "name": "consensusHeight",
              "type": "tuple"
            }
          ],
          "internalType": "struct MsgConnectionOpenAck",
          "name": "message",
          "type": "tuple"
        }
      ],
      "name": "connectionOpenAck",
      "outputs": [],
      "stateMutability": "nonpayable",
      "type": "function"
    },
    {
      "inputs": [
        {
          "components": [
            {
              "internalType": "string",
              "name": "connectionId",
              "type": "string"
            },
            {
              "internalType": "bytes",
              "name": "proofAck",
              "type": "bytes"
            },
            {
              "components": [
                {
                  "internalType": "uint64",
                  "name": "revisionNumber",
                  "type": "uint64"
                },
                {
                  "internalType": "uint64",
                  "name": "revisionHeight",
                  "type": "uint64"
                }
              ],
              "internalType": "struct Height",
              "name": "proofHeight",
              "type": "tuple"
            }
          ],
          "internalType": "struct MsgConnectionOpenConfirm",
          "name": "message",
          "type": "tuple"
        }
      ],
      "name": "connectionOpenConfirm",
      "outputs": [],
      "stateMutability": "nonpayable",
      "type": "function"
    },
    {
      "inputs": [
        {
          "components": [
            {
              "internalType": "string",
              "name": "clientId",
              "type": "string"
            },
            {
              "components": [
                {
                  "internalType": "string",
                  "name": "clientId",
                  "type": "string"
                },
                {
                  "internalType": "string",
                  "name": "connectionId",
                  "type": "string"
                },
                {
                  "internalType": "bytes",
                  "name": "prefix",
                  "type": "bytes"
                }
              ],
              "internalType": "struct Counterparty",
              "name": "counterparty",
              "type": "tuple"
            },
            {
              "internalType": "uint64",
              "name": "delayPeriod",
              "type": "uint64"
            }
          ],
          "internalType": "struct MsgConnectionOpenInit",
          "name": "message",
          "type": "tuple"
        }
      ],
      "name": "connectionOpenInit",
      "outputs": [
        {
          "internalType": "string",
          "name": "",
          "type": "string"
        }
      ],
      "stateMutability": "nonpayable",
      "type": "function"
    },
    {
      "inputs": [
        {
          "components": [
            {
              "internalType": "string",
              "name": "previousConnectionId",
              "type": "string"
            },
            {
              "components": [
                {
                  "internalType": "string",
                  "name": "clientId",
                  "type": "string"
                },
                {
                  "internalType": "string",
                  "name": "connectionId",
                  "type": "string"
                },
                {
                  "internalType": "bytes",
                  "name": "prefix",
                  "type": "bytes"
                }
              ],
              "internalType": "struct Counterparty",
              "name": "counterparty",
              "type": "tuple"
            },
            {
              "internalType": "uint64",
              "name": "delayPeriod",
              "type": "uint64"
            },
            {
              "internalType": "string",
              "name": "clientId",
              "type": "string"
            },
            {
              "internalType": "bytes",
              "name": "clientStateBytes",
              "type": "bytes"
            },
            {
              "components": [
                {
                  "internalType": "string",
                  "name": "identifier",
                  "type": "string"
                },
                {
                  "internalType": "string[]",
                  "name": "features",
                  "type": "string[]"
                }
              ],
              "internalType": "struct Version[]",
              "name": "counterpartyVersions",
              "type": "tuple[]"
            },
            {
              "internalType": "bytes",
              "name": "proofInit",
              "type": "bytes"
            },
            {
              "internalType": "bytes",
              "name": "proofClient",
              "type": "bytes"
            },
            {
              "internalType": "bytes",
              "name": "proofConsensus",
              "type": "bytes"
            },
            {
              "components": [
                {
                  "internalType": "uint64",
                  "name": "revisionNumber",
                  "type": "uint64"
                },
                {
                  "internalType": "uint64",
                  "name": "revisionHeight",
                  "type": "uint64"
                }
              ],
              "internalType": "struct Height",
              "name": "proofHeight",
              "type": "tuple"
            },
            {
              "components": [
                {
                  "internalType": "uint64",
                  "name": "revisionNumber",
                  "type": "uint64"
                },
                {
                  "internalType": "uint64",
                  "name": "revisionHeight",
                  "type": "uint64"
                }
              ],
              "internalType": "struct Height",
              "name": "consensusHeight",
              "type": "tuple"
            }
          ],
          "internalType": "struct MsgConnectionOpenTry",
          "name": "message",
          "type": "tuple"
        }
      ],
      "name": "connectionOpenTry",
      "outputs": [
        {
          "internalType": "string",
          "name": "",
          "type": "string"
        }
      ],
      "stateMutability": "nonpayable",
      "type": "function"
    },
    {
      "inputs": [],
      "name": "owner",
      "outputs": [
        {
          "internalType": "address",
          "name": "",
          "type": "address"
        }
      ],
      "stateMutability": "view",
      "type": "function"
    },
    {
      "inputs": [
        {
          "components": [
            {
              "components": [
                {
                  "internalType": "uint64",
                  "name": "sequence",
                  "type": "uint64"
                },
                {
                  "internalType": "string",
                  "name": "sourcePort",
                  "type": "string"
                },
                {
                  "internalType": "string",
                  "name": "sourceChannel",
                  "type": "string"
                },
                {
                  "internalType": "string",
                  "name": "destinationPort",
                  "type": "string"
                },
                {
                  "internalType": "string",
                  "name": "destinationChannel",
                  "type": "string"
                },
                {
                  "internalType": "bytes",
                  "name": "data",
                  "type": "bytes"
                },
                {
                  "components": [
                    {
                      "internalType": "uint64",
                      "name": "revisionNumber",
                      "type": "uint64"
                    },
                    {
                      "internalType": "uint64",
                      "name": "revisionHeight",
                      "type": "uint64"
                    }
                  ],
                  "internalType": "struct Height",
                  "name": "timeoutHeight",
                  "type": "tuple"
                },
                {
                  "internalType": "uint64",
                  "name": "timeoutTimestamp",
                  "type": "uint64"
                }
              ],
              "internalType": "struct Packet",
              "name": "packet",
              "type": "tuple"
            },
            {
              "internalType": "bytes",
              "name": "proof",
              "type": "bytes"
            },
            {
              "components": [
                {
                  "internalType": "uint64",
                  "name": "revisionNumber",
                  "type": "uint64"
                },
                {
                  "internalType": "uint64",
                  "name": "revisionHeight",
                  "type": "uint64"
                }
              ],
              "internalType": "struct Height",
              "name": "proofHeight",
              "type": "tuple"
            }
          ],
          "internalType": "struct MsgPacketRecv",
          "name": "message",
          "type": "tuple"
        }
      ],
      "name": "recvPacket",
      "outputs": [],
      "stateMutability": "nonpayable",
      "type": "function"
    },
    {
      "inputs": [
        {
          "internalType": "enum ClientType",
          "name": "clientType",
          "type": "uint8"
        },
        {
          "internalType": "contract ILightClient",
          "name": "client",
          "type": "address"
        }
      ],
      "name": "registerClient",
      "outputs": [],
      "stateMutability": "nonpayable",
      "type": "function"
    },
    {
      "inputs": [],
      "name": "renounceOwnership",
      "outputs": [],
      "stateMutability": "nonpayable",
      "type": "function"
    },
    {
      "inputs": [
        {
          "components": [
            {
              "internalType": "uint64",
              "name": "sequence",
              "type": "uint64"
            },
            {
              "internalType": "string",
              "name": "sourcePort",
              "type": "string"
            },
            {
              "internalType": "string",
              "name": "sourceChannel",
              "type": "string"
            },
            {
              "internalType": "string",
              "name": "destinationPort",
              "type": "string"
            },
            {
              "internalType": "string",
              "name": "destinationChannel",
              "type": "string"
            },
            {
              "internalType": "bytes",
              "name": "data",
              "type": "bytes"
            },
            {
              "components": [
                {
                  "internalType": "uint64",
                  "name": "revisionNumber",
                  "type": "uint64"
                },
                {
                  "internalType": "uint64",
                  "name": "revisionHeight",
                  "type": "uint64"
                }
              ],
              "internalType": "struct Height",
              "name": "timeoutHeight",
              "type": "tuple"
            },
            {
              "internalType": "uint64",
              "name": "timeoutTimestamp",
              "type": "uint64"
            }
          ],
          "internalType": "struct Packet",
          "name": "packet",
          "type": "tuple"
        }
      ],
      "name": "sendPacket",
      "outputs": [],
      "stateMutability": "nonpayable",
      "type": "function"
    },
    {
      "inputs": [
        {
          "internalType": "address",
          "name": "newOwner",
          "type": "address"
        }
      ],
      "name": "transferOwnership",
      "outputs": [],
      "stateMutability": "nonpayable",
      "type": "function"
    },
    {
      "inputs": [
        {
          "components": [
            {
              "internalType": "uint64",
              "name": "sequence",
              "type": "uint64"
            },
            {
              "internalType": "string",
              "name": "sourcePort",
              "type": "string"
            },
            {
              "internalType": "string",
              "name": "sourceChannel",
              "type": "string"
            },
            {
              "internalType": "string",
              "name": "destinationPort",
              "type": "string"
            },
            {
              "internalType": "string",
              "name": "destinationChannel",
              "type": "string"
            },
            {
              "internalType": "bytes",
              "name": "data",
              "type": "bytes"
            },
            {
              "components": [
                {
                  "internalType": "uint64",
                  "name": "revisionNumber",
                  "type": "uint64"
                },
                {
                  "internalType": "uint64",
                  "name": "revisionHeight",
                  "type": "uint64"
                }
              ],
              "internalType": "struct Height",
              "name": "timeoutHeight",
              "type": "tuple"
            },
            {
              "internalType": "uint64",
              "name": "timeoutTimestamp",
              "type": "uint64"
            }
          ],
          "internalType": "struct Packet",
          "name": "packet",
          "type": "tuple"
        },
        {
          "internalType": "bytes",
          "name": "acknowledgement",
          "type": "bytes"
        }
      ],
      "name": "writeAcknowledgement",
      "outputs": [],
      "stateMutability": "nonpayable",
      "type": "function"
    }
  ],
  "bytecode": "0x60806040523480156200001157600080fd5b5062000032620000266200003860201b60201c565b6200004060201b60201c565b62000106565b600033905090565b6000600d60009054906101000a900473ffffffffffffffffffffffffffffffffffffffff16905081600d60006101000a81548173ffffffffffffffffffffffffffffffffffffffff021916908373ffffffffffffffffffffffffffffffffffffffff1602179055508173ffffffffffffffffffffffffffffffffffffffff168173ffffffffffffffffffffffffffffffffffffffff167f8be0079c531659141344cd1fd0a4f28419497f9722a3daafe3b4186f6b6457e060405160405180910390a35050565b61e58780620001166000396000f3fe608060405234801561001057600080fd5b506004361061012c5760003560e01c80638da5cb5b116100ad578063d9d8f95811610071578063d9d8f958146102ed578063dd3469fc1461031d578063ec6260a91461034d578063f2fde38b1461037d578063f7cc622c146103995761012c565b80638da5cb5b1461025f578063a06cb3a21461027d578063b531861f14610299578063b7e344cb146102b5578063ca956667146102d15761012c565b806359f37976116100f457806359f37976146101d15780635b147a4c146101ed5780635bd51b621461021d5780636a728f2c14610239578063715018a6146102555761012c565b8063236ebd7014610131578063256c41991461014d57806325cbc3a614610169578063279415681461018557806340835e44146101b5575b600080fd5b61014b600480360381019061014691906186bc565b6103b5565b005b61016760048036038101906101629190618724565b611084565b005b610183600480360381019061017e919061878c565b61179b565b005b61019f600480360381019061019a91906187f5565b611ea0565b6040516101ac91906188ce565b60405180910390f35b6101cf60048036038101906101ca9190618910565b612584565b005b6101eb60048036038101906101e69190618978565b612f75565b005b610207600480360381019061020291906189e0565b613aba565b60405161021491906188ce565b60405180910390f35b61023760048036038101906102329190618a48565b613d97565b005b610253600480360381019061024e9190618ab0565b61449e565b005b61025d614b56565b005b610267614b6a565b6040516102749190618b3a565b60405180910390f35b61029760048036038101906102929190618b74565b614b94565b005b6102b360048036038101906102ae9190618bdd565b614e8d565b005b6102cf60048036038101906102ca9190618c89565b615907565b005b6102eb60048036038101906102e69190618d2e565b615a47565b005b61030760048036038101906103029190618dc9565b615d49565b60405161031491906188ce565b60405180910390f35b61033760048036038101906103329190618e31565b615f0b565b60405161034491906188ce565b60405180910390f35b61036760048036038101906103629190618e99565b6163c6565b60405161037491906188ce565b60405180910390f35b61039760048036038101906103929190618f0e565b616bd8565b005b6103b360048036038101906103ae9190618f5a565b616c5b565b005b600060078280600001906103c99190618fb2565b80606001906103d89190618fdb565b6040516103e692919061907d565b90815260200160405180910390208280600001906104049190618fb2565b80608001906104139190618fdb565b60405161042192919061907d565b908152602001604051809103902090506003600481111561044557610444619096565b5b8160000160009054906101000a900460ff16600481111561046957610468619096565b5b146104a9576040517f08c379a00000000000000000000000000000000000000000000000000000000081526004016104a090619111565b60405180910390fd5b6105418160010160000180546104be90619160565b80601f01602080910402602001604051908101604052809291908181526020018280546104ea90619160565b80156105375780601f1061050c57610100808354040283529160200191610537565b820191906000526020600020905b81548152906001019060200180831161051a57829003601f168201915b5050505050616ed4565b6105ab8380600001906105549190618fb2565b80602001906105639190618fdb565b8080601f016020809104026020016040519081016040528093929190818152602001838380828437600081840152601f19601f82011690508083019250505050505050616ed4565b146105eb576040517f08c379a00000000000000000000000000000000000000000000000000000000081526004016105e290619203565b60405180910390fd5b61068381600101600101805461060090619160565b80601f016020809104026020016040519081016040528092919081815260200182805461062c90619160565b80156106795780601f1061064e57610100808354040283529160200191610679565b820191906000526020600020905b81548152906001019060200180831161065c57829003601f168201915b5050505050616ed4565b6106ed8380600001906106969190618fb2565b80604001906106a59190618fdb565b8080601f016020809104026020016040519081016040528093929190818152602001838380828437600081840152601f19601f82011690508083019250505050505050616ed4565b1461072d576040517f08c379a0000000000000000000000000000000000000000000000000000000008152600401610724906192bb565b60405180910390fd5b6000600682600301600081548110610748576107476192db565b5b9060005260206000200160405161075f91906193a2565b9081526020016040518091039020905060038081111561078257610781619096565b5b8160020160009054906101000a900460ff1660038111156107a6576107a5619096565b5b146107e6576040517f08c379a00000000000000000000000000000000000000000000000000000000081526004016107dd90619405565b60405180910390fd5b60008380600001906107f89190618fb2565b60c001602001602081019061080d9190619465565b67ffffffffffffffff161480610850575082806000019061082e9190618fb2565b60c00160200160208101906108439190619465565b67ffffffffffffffff1643105b61088f576040517f08c379a000000000000000000000000000000000000000000000000000000000815260040161088690619504565b60405180910390fd5b60008380600001906108a19190618fb2565b6101000160208101906108b49190619465565b67ffffffffffffffff1614806108f557508280600001906108d59190618fb2565b6101000160208101906108e89190619465565b67ffffffffffffffff1642105b610934576040517f08c379a000000000000000000000000000000000000000000000000000000000815260040161092b90619596565b60405180910390fd5b610b8c818460400185806020019061094c91906195b6565b610a3a88806000019061095f9190618fb2565b806020019061096e9190618fdb565b8080601f016020809104026020016040519081016040528093929190818152602001838380828437600081840152601f19601f820116905080830192505050505050508980600001906109c19190618fb2565b80604001906109d09190618fdb565b8080601f016020809104026020016040519081016040528093929190818152602001838380828437600081840152601f19601f820116905080830192505050505050508a8060000190610a239190618fb2565b6000016020810190610a359190619465565b616f04565b6002898060000190610a4c9190618fb2565b610100016020810190610a5f9190619465565b8a8060000190610a6f9190618fb2565b60c0016000016020810190610a849190619465565b8b8060000190610a949190618fb2565b60c0016020016020810190610aa99190619465565b60028d8060000190610abb9190618fb2565b8060a00190610aca91906195b6565b604051610ad8929190619649565b602060405180830381855afa158015610af5573d6000803e3d6000fd5b5050506040513d601f19601f82011682018060405250810190610b189190619698565b604051602001610b2b94939291906196e3565b604051602081830303815290604052604051610b479190619764565b602060405180830381855afa158015610b64573d6000803e3d6000fd5b5050506040513d601f19601f82011682018060405250810190610b879190619698565b616f45565b610bcb576040517f08c379a0000000000000000000000000000000000000000000000000000000008152600401610bc2906197ed565b60405180910390fd5b60016002811115610bdf57610bde619096565b5b8260000160019054906101000a900460ff166002811115610c0357610c02619096565b5b03610df6576000600b848060000190610c1c9190618fb2565b8060600190610c2b9190618fdb565b604051610c3992919061907d565b9081526020016040518091039020848060000190610c579190618fb2565b8060800190610c669190618fdb565b604051610c7492919061907d565b90815260200160405180910390206000858060000190610c949190618fb2565b6000016020810190610ca69190619465565b67ffffffffffffffff1667ffffffffffffffff16815260200190815260200160002060009054906101000a900460ff1660ff1614610d19576040517f08c379a0000000000000000000000000000000000000000000000000000000008152600401610d109061987f565b60405180910390fd5b6001600b848060000190610d2d9190618fb2565b8060600190610d3c9190618fdb565b604051610d4a92919061907d565b9081526020016040518091039020848060000190610d689190618fb2565b8060800190610d779190618fdb565b604051610d8592919061907d565b90815260200160405180910390206000858060000190610da59190618fb2565b6000016020810190610db79190619465565b67ffffffffffffffff1667ffffffffffffffff16815260200190815260200160002060006101000a81548160ff021916908360ff160217905550611039565b600280811115610e0957610e08619096565b5b8260000160019054906101000a900460ff166002811115610e2d57610e2c619096565b5b03610ffd57828060000190610e429190618fb2565b6000016020810190610e549190619465565b67ffffffffffffffff166009848060000190610e709190618fb2565b8060600190610e7f9190618fdb565b604051610e8d92919061907d565b9081526020016040518091039020848060000190610eab9190618fb2565b8060800190610eba9190618fdb565b604051610ec892919061907d565b908152602001604051809103902060009054906101000a900467ffffffffffffffff1667ffffffffffffffff1614610f35576040517f08c379a0000000000000000000000000000000000000000000000000000000008152600401610f2c90619911565b60405180910390fd5b6009838060000190610f479190618fb2565b8060600190610f569190618fdb565b604051610f6492919061907d565b9081526020016040518091039020838060000190610f829190618fb2565b8060800190610f919190618fdb565b604051610f9f92919061907d565b9081526020016040518091039020600081819054906101000a900467ffffffffffffffff1680929190610fd190619960565b91906101000a81548167ffffffffffffffff021916908367ffffffffffffffff16021790555050611038565b6040517f08c379a000000000000000000000000000000000000000000000000000000000815260040161102f906199dc565b60405180910390fd5b5b7f346f4351ee865d86a679d00f3995f0520f803d3a227604af08430e26e9345a7a83806000019061106a9190618fb2565b6040516110779190619cd5565b60405180910390a1505050565b600060078280600001906110989190618fdb565b6040516110a692919061907d565b90815260200160405180910390208280602001906110c49190618fdb565b6040516110d292919061907d565b90815260200160405180910390209050600160048111156110f6576110f5619096565b5b8160000160009054906101000a900460ff16600481111561111a57611119619096565b5b148061115b57506002600481111561113557611134619096565b5b8160000160009054906101000a900460ff16600481111561115957611158619096565b5b145b61119a576040517f08c379a000000000000000000000000000000000000000000000000000000000815260040161119190619d43565b60405180910390fd5b60006006826003016000815481106111b5576111b46192db565b5b906000526020600020016040516111cc91906193a2565b908152602001604051809103902090506003808111156111ef576111ee619096565b5b8160020160009054906101000a900460ff16600381111561121357611212619096565b5b14611253576040517f08c379a000000000000000000000000000000000000000000000000000000000815260040161124a90619405565b60405180910390fd5b600182600301805490501461126757600080fd5b600060405180604001604052808580600001906112849190618fdb565b8080601f016020809104026020016040519081016040528093929190818152602001838380828437600081840152601f19601f8201169050808301925050505050505081526020018580602001906112dc9190618fdb565b8080601f016020809104026020016040519081016040528093929190818152602001838380828437600081840152601f19601f82011690508083019250505050505050815250905060006040518060a001604052806002600481111561134557611344619096565b5b81526020018560000160019054906101000a900460ff16600281111561136e5761136d619096565b5b815260200183815260200161142b86600301600081548110611393576113926192db565b5b9060005260206000200180546113a890619160565b80601f01602080910402602001604051908101604052809291908181526020018280546113d490619160565b80156114215780601f106113f657610100808354040283529160200191611421565b820191906000526020600020905b81548152906001019060200180831161140457829003601f168201915b50505050506170d3565b81526020018680604001906114409190618fdb565b8080601f016020809104026020016040519081016040528093929190818152602001838380828437600081840152601f19601f8201169050808301925050505050505081525090506115a8838660a0018780608001906114a091906195b6565b8860010160000180546114b290619160565b80601f01602080910402602001604051908101604052809291908181526020018280546114de90619160565b801561152b5780601f106115005761010080835404028352916020019161152b565b820191906000526020600020905b81548152906001019060200180831161150e57829003601f168201915b50505050508a80606001906115409190618fdb565b8080601f016020809104026020016040519081016040528093929190818152602001838380828437600081840152601f19601f82011690508083019250505050505050876040516020016115949190619fb6565b6040516020818303038152906040526171f7565b6115e7576040517f08c379a00000000000000000000000000000000000000000000000000000000081526004016115de9061a024565b60405180910390fd5b60038460000160006101000a81548160ff0219169083600481111561160f5761160e619096565b5b02179055508480604001906116249190618fdb565b85600401918261163592919061a21f565b508480606001906116469190618fdb565b85600101600101918261165a92919061a21f565b5061170985806000019061166e9190618fdb565b8080601f016020809104026020016040519081016040528093929190818152602001838380828437600081840152601f19601f820116905080830192505050505050508680602001906116c19190618fdb565b8080601f016020809104026020016040519081016040528093929190818152602001838380828437600081840152601f19601f82011690508083019250505050505050617339565b7fe9342577bf02f748ba783edd9094f8e93b2ef7face9bc7478d7b30358ddeef6f85806000019061173a9190618fdb565b87806020019061174a9190618fdb565b88600301600081548110611761576117606192db565b5b90600052602060002001896001016000018a60010160010160405161178c979695949392919061a3a0565b60405180910390a15050505050565b600060078280600001906117af9190618fdb565b6040516117bd92919061907d565b90815260200160405180910390208280602001906117db9190618fdb565b6040516117e992919061907d565b9081526020016040518091039020905060048081111561180c5761180b619096565b5b8160000160009054906101000a900460ff1660048111156118305761182f619096565b5b03611870576040517f08c379a00000000000000000000000000000000000000000000000000000000081526004016118679061a466565b60405180910390fd5b600181600301805490501461188457600080fd5b600060068260030160008154811061189f5761189e6192db565b5b906000526020600020016040516118b691906193a2565b908152602001604051809103902090506003808111156118d9576118d8619096565b5b8160020160009054906101000a900460ff1660038111156118fd576118fc619096565b5b1461193d576040517f08c379a000000000000000000000000000000000000000000000000000000000815260040161193490619405565b60405180910390fd5b6000604051806040016040528085806000019061195a9190618fdb565b8080601f016020809104026020016040519081016040528093929190818152602001838380828437600081840152601f19601f8201169050808301925050505050505081526020018580602001906119b29190618fdb565b8080601f016020809104026020016040519081016040528093929190818152602001838380828437600081840152601f19601f82011690508083019250505050505050815250905060006040518060a00160405280600480811115611a1a57611a19619096565b5b81526020018560000160019054906101000a900460ff166002811115611a4357611a42619096565b5b8152602001838152602001611b0086600301600081548110611a6857611a676192db565b5b906000526020600020018054611a7d90619160565b80601f0160208091040260200160405190810160405280929190818152602001828054611aa990619160565b8015611af65780601f10611acb57610100808354040283529160200191611af6565b820191906000526020600020905b815481529060010190602001808311611ad957829003601f168201915b50505050506170d3565b8152602001856004018054611b1490619160565b80601f0160208091040260200160405190810160405280929190818152602001828054611b4090619160565b8015611b8d5780601f10611b6257610100808354040283529160200191611b8d565b820191906000526020600020905b815481529060010190602001808311611b7057829003601f168201915b50505050508152509050611cf48386606001878060400190611baf91906195b6565b886001016000018054611bc190619160565b80601f0160208091040260200160405190810160405280929190818152602001828054611bed90619160565b8015611c3a5780601f10611c0f57610100808354040283529160200191611c3a565b820191906000526020600020905b815481529060010190602001808311611c1d57829003601f168201915b5050505050896001016001018054611c5190619160565b80601f0160208091040260200160405190810160405280929190818152602001828054611c7d90619160565b8015611cca5780601f10611c9f57610100808354040283529160200191611cca565b820191906000526020600020905b815481529060010190602001808311611cad57829003601f168201915b505050505087604051602001611ce09190619fb6565b6040516020818303038152906040526171f7565b611d33576040517f08c379a0000000000000000000000000000000000000000000000000000000008152600401611d2a9061a024565b60405180910390fd5b60048460000160006101000a81548160ff02191690836004811115611d5b57611d5a619096565b5b0217905550611e0e858060000190611d739190618fdb565b8080601f016020809104026020016040519081016040528093929190818152602001838380828437600081840152601f19601f82011690508083019250505050505050868060200190611dc69190618fdb565b8080601f016020809104026020016040519081016040528093929190818152602001838380828437600081840152601f19601f82011690508083019250505050505050617339565b7f1d27827947f32db531c2d0a11a83e392e9391cf32071f1716bc53c3df605b637858060000190611e3f9190618fdb565b878060200190611e4f9190618fdb565b88600301600081548110611e6657611e656192db565b5b90600052602060002001896001016000018a600101600101604051611e91979695949392919061a3a0565b60405180910390a15050505050565b6060611efd828060800190611eb591906195b6565b8080601f016020809104026020016040519081016040528093929190818152602001838380828437600081840152601f19601f820116905080830192505050505050506173bd565b611f3c576040517f08c379a0000000000000000000000000000000000000000000000000000000008152600401611f339061a4f8565b60405180910390fd5b6000828060a00190611f4e919061a518565b905011611f90576040517f08c379a0000000000000000000000000000000000000000000000000000000008152600401611f879061a5ed565b60405180910390fd5b6000611f9a6173c8565b90506000600682604051611fae919061a63e565b9081526020016040518091039020905060006003811115611fd257611fd1619096565b5b8160020160009054906101000a900460ff166003811115611ff657611ff5619096565b5b14612036576040517f08c379a000000000000000000000000000000000000000000000000000000000815260040161202d9061a6a1565b60405180910390fd5b8380606001906120469190618fdb565b82600001918261205792919061a21f565b506120648160010161746a565b60028160020160006101000a81548160ff0219169083600381111561208c5761208b619096565b5b02179055508360400160208101906120a49190619465565b8160060160006101000a81548167ffffffffffffffff021916908367ffffffffffffffff1602179055508380602001906120de919061a6c1565b8160030181816120ee919061a8d5565b90505060006040518060a0016040528086806020019061210e919061a6c1565b806000019061211d9190618fdb565b8080601f016020809104026020016040519081016040528093929190818152602001838380828437600081840152601f19601f820116905080830192505050505050508152602001868060a00190612175919061a518565b90612180919061abfb565b81526020016001600381111561219957612198619096565b5b815260200160405180606001604052808880606001906121b99190618fdb565b8080601f016020809104026020016040519081016040528093929190818152602001838380828437600081840152601f19601f8201169050808301925050505050505081526020016040518060200160405280600081525081526020016040518060400160405280600381526020017f696263000000000000000000000000000000000000000000000000000000000081525081525081526020018660400160208101906122679190619465565b67ffffffffffffffff16815250905061234a82866101200180360381019061228f919061ac60565b878060c0019061229f91906195b6565b8080601f016020809104026020016040519081016040528093929190818152602001838380828437600081840152601f19601f820116905080830192505050505050508880602001906122f2919061a6c1565b80602001906123019190618fdb565b8080601f016020809104026020016040519081016040528093929190818152602001838380828437600081840152601f19601f8201169050808301925050505050505085617668565b612389576040517f08c379a00000000000000000000000000000000000000000000000000000000081526004016123809061acff565b60405180910390fd5b6124e58286610120018036038101906123a2919061ac60565b61243a8560030160000180546123b790619160565b80601f01602080910402602001604051908101604052809291908181526020018280546123e390619160565b80156124305780601f1061240557610100808354040283529160200191612430565b820191906000526020600020905b81548152906001019060200180831161241357829003601f168201915b50505050506177c4565b888060e0019061244a91906195b6565b8080601f016020809104026020016040519081016040528093929190818152602001838380828437600081840152601f19601f8201169050808301925050505050505089806080019061249d91906195b6565b8080601f016020809104026020016040519081016040528093929190818152602001838380828437600081840152601f19601f820116905080830192505050505050506177ed565b612524576040517f08c379a000000000000000000000000000000000000000000000000000000000815260040161251b9061ad6b565b60405180910390fd5b61252d83617922565b7fa616a9aa2c65e935abbd15b07a9b5ff6c9c48b06b460a39b0b8cfda2a985869f83836000018460030160010185600301600001604051612571949392919061ad8b565b60405180910390a1829350505050919050565b60008060078380602001906125999190618fdb565b6040516125a792919061907d565b90815260200160405180910390208380604001906125c59190618fdb565b6040516125d392919061907d565b90815260200160405180910390209050600360048111156125f7576125f6619096565b5b8160000160009054906101000a900460ff16600481111561261b5761261a619096565b5b1461265b576040517f08c379a000000000000000000000000000000000000000000000000000000000815260040161265290619111565b60405180910390fd5b6126f381600101600001805461267090619160565b80601f016020809104026020016040519081016040528092919081815260200182805461269c90619160565b80156126e95780601f106126be576101008083540402835291602001916126e9565b820191906000526020600020905b8154815290600101906020018083116126cc57829003601f168201915b5050505050616ed4565b61274e8480606001906127069190618fdb565b8080601f016020809104026020016040519081016040528093929190818152602001838380828437600081840152601f19601f82011690508083019250505050505050616ed4565b1461278e576040517f08c379a00000000000000000000000000000000000000000000000000000000081526004016127859061ae5e565b60405180910390fd5b6128268160010160010180546127a390619160565b80601f01602080910402602001604051908101604052809291908181526020018280546127cf90619160565b801561281c5780601f106127f15761010080835404028352916020019161281c565b820191906000526020600020905b8154815290600101906020018083116127ff57829003601f168201915b5050505050616ed4565b6128818480608001906128399190618fdb565b8080601f016020809104026020016040519081016040528093929190818152602001838380828437600081840152601f19601f82011690508083019250505050505050616ed4565b146128c1576040517f08c379a00000000000000000000000000000000000000000000000000000000081526004016128b89061af16565b60405180910390fd5b60006006826003016000815481106128dc576128db6192db565b5b906000526020600020016040516128f391906193a2565b90815260200160405180910390209050600060058260000160405161291891906193a2565b908152602001604051809103902060009054906101000a900473ffffffffffffffffffffffffffffffffffffffff1690506000808273ffffffffffffffffffffffffffffffffffffffff1663329681d0856000016040518263ffffffff1660e01b8152600401612988919061af36565b606060405180830381865afa1580156129a5573d6000803e3d6000fd5b505050506040513d601f19601f820116820180604052508101906129c9919061aff5565b915091506129e98760c0018036038101906129e4919061ac60565b617988565b80612a165750612a158760c001803603810190612a06919061ac60565b836179bc90919063ffffffff16565b5b612a55576040517f08c379a0000000000000000000000000000000000000000000000000000000008152600401612a4c9061b0a7565b60405180910390fd5b8273ffffffffffffffffffffffffffffffffffffffff16634b0bbdc485600001846040518363ffffffff1660e01b8152600401612a9392919061b0f6565b6040805180830381865afa158015612aaf573d6000803e3d6000fd5b505050506040513d601f19601f82011682018060405250810190612ad3919061b126565b809250819750505080612b1b576040517f08c379a0000000000000000000000000000000000000000000000000000000008152600401612b129061b1b2565b60405180910390fd5b600087610100016020810190612b319190619465565b67ffffffffffffffff161480612b6d575086610100016020810190612b569190619465565b67ffffffffffffffff168667ffffffffffffffff16105b612bac576040517f08c379a0000000000000000000000000000000000000000000000000000000008152600401612ba39061b244565b60405180910390fd5b6008878060200190612bbe9190618fdb565b604051612bcc92919061907d565b9081526020016040518091039020878060400190612bea9190618fdb565b604051612bf892919061907d565b908152602001604051809103902060009054906101000a900467ffffffffffffffff1667ffffffffffffffff16876000016020810190612c389190619465565b67ffffffffffffffff1614612c82576040517f08c379a0000000000000000000000000000000000000000000000000000000008152600401612c799061b2d6565b60405180910390fd5b6008878060200190612c949190618fdb565b604051612ca292919061907d565b9081526020016040518091039020878060400190612cc09190618fdb565b604051612cce92919061907d565b9081526020016040518091039020600081819054906101000a900467ffffffffffffffff1680929190612d0090619960565b91906101000a81548167ffffffffffffffff021916908367ffffffffffffffff16021790555050600287610100016020810190612d3d9190619465565b8860c0016000016020810190612d539190619465565b8960c0016020016020810190612d699190619465565b60028b8060a00190612d7b91906195b6565b604051612d89929190619649565b602060405180830381855afa158015612da6573d6000803e3d6000fd5b5050506040513d601f19601f82011682018060405250810190612dc99190619698565b604051602001612ddc94939291906196e3565b604051602081830303815290604052604051612df89190619764565b602060405180830381855afa158015612e15573d6000803e3d6000fd5b5050506040513d601f19601f82011682018060405250810190612e389190619698565b604051602001612e48919061b2f6565b6040516020818303038152906040528051906020012060026000612f238a8060200190612e759190618fdb565b8080601f016020809104026020016040519081016040528093929190818152602001838380828437600081840152601f19601f820116905080830192505050505050508b8060400190612ec89190618fdb565b8080601f016020809104026020016040519081016040528093929190818152602001838380828437600081840152601f19601f820116905080830192505050505050508c6000016020810190612f1e9190619465565b617a32565b8152602001908152602001600020819055507fe701f25bda8992b211749f81adb9a8ea6e8cf8a3c9f2e29ed496e6c5f059154c87604051612f649190619cd5565b60405180910390a150505050505050565b60006007828060000190612f899190618fb2565b8060200190612f989190618fdb565b604051612fa692919061907d565b9081526020016040518091039020828060000190612fc49190618fb2565b8060400190612fd39190618fdb565b604051612fe192919061907d565b908152602001604051809103902090506003600481111561300557613004619096565b5b8160000160009054906101000a900460ff16600481111561302957613028619096565b5b14613069576040517f08c379a000000000000000000000000000000000000000000000000000000000815260040161306090619111565b60405180910390fd5b61310181600101600001805461307e90619160565b80601f01602080910402602001604051908101604052809291908181526020018280546130aa90619160565b80156130f75780601f106130cc576101008083540402835291602001916130f7565b820191906000526020600020905b8154815290600101906020018083116130da57829003601f168201915b5050505050616ed4565b61316b8380600001906131149190618fb2565b80606001906131239190618fdb565b8080601f016020809104026020016040519081016040528093929190818152602001838380828437600081840152601f19601f82011690508083019250505050505050616ed4565b146131ab576040517f08c379a00000000000000000000000000000000000000000000000000000000081526004016131a29061ae5e565b60405180910390fd5b6132438160010160010180546131c090619160565b80601f01602080910402602001604051908101604052809291908181526020018280546131ec90619160565b80156132395780601f1061320e57610100808354040283529160200191613239565b820191906000526020600020905b81548152906001019060200180831161321c57829003601f168201915b5050505050616ed4565b6132ad8380600001906132569190618fb2565b80608001906132659190618fdb565b8080601f016020809104026020016040519081016040528093929190818152602001838380828437600081840152601f19601f82011690508083019250505050505050616ed4565b146132ed576040517f08c379a00000000000000000000000000000000000000000000000000000000081526004016132e49061af16565b60405180910390fd5b6000600682600301600081548110613308576133076192db565b5b9060005260206000200160405161331f91906193a2565b9081526020016040518091039020905060038081111561334257613341619096565b5b8160020160009054906101000a900460ff16600381111561336657613365619096565b5b146133a6576040517f08c379a000000000000000000000000000000000000000000000000000000000815260040161339d90619405565b60405180910390fd5b60006134968480600001906133bb9190618fb2565b80602001906133ca9190618fdb565b8080601f016020809104026020016040519081016040528093929190818152602001838380828437600081840152601f19601f8201169050808301925050505050505085806000019061341d9190618fb2565b806040019061342c9190618fdb565b8080601f016020809104026020016040519081016040528093929190818152602001838380828437600081840152601f19601f8201169050808301925050505050505086806000019061347f9190618fb2565b60000160208101906134919190619465565b617a32565b90506000600260008381526020019081526020016000205490506000801b81036134f5576040517f08c379a00000000000000000000000000000000000000000000000000000000081526004016134ec9061b35d565b60405180910390fd5b60028580600001906135079190618fb2565b61010001602081019061351a9190619465565b86806000019061352a9190618fb2565b60c001600001602081019061353f9190619465565b87806000019061354f9190618fb2565b60c00160200160208101906135649190619465565b60028980600001906135769190618fb2565b8060a0019061358591906195b6565b604051613593929190619649565b602060405180830381855afa1580156135b0573d6000803e3d6000fd5b5050506040513d601f19601f820116820180604052508101906135d39190619698565b6040516020016135e694939291906196e3565b6040516020818303038152906040526040516136029190619764565b602060405180830381855afa15801561361f573d6000803e3d6000fd5b5050506040513d601f19601f820116820180604052508101906136429190619698565b604051602001613652919061b2f6565b6040516020818303038152906040528051906020012081146136a9576040517f08c379a00000000000000000000000000000000000000000000000000000000081526004016136a09061b3c9565b60405180910390fd5b61381483866060018780604001906136c191906195b6565b6137af8a80600001906136d49190618fb2565b80606001906136e39190618fdb565b8080601f016020809104026020016040519081016040528093929190818152602001838380828437600081840152601f19601f820116905080830192505050505050508b80600001906137369190618fb2565b80608001906137459190618fdb565b8080601f016020809104026020016040519081016040528093929190818152602001838380828437600081840152601f19601f820116905080830192505050505050508c80600001906137989190618fb2565b60000160208101906137aa9190619465565b617a4f565b60028b80602001906137c191906195b6565b6040516137cf929190619649565b602060405180830381855afa1580156137ec573d6000803e3d6000fd5b5050506040513d601f19601f8201168201806040525081019061380f9190619698565b617a90565b613853576040517f08c379a000000000000000000000000000000000000000000000000000000000815260040161384a9061b45b565b60405180910390fd5b60028081111561386657613865619096565b5b8460000160019054906101000a900460ff16600281111561388a57613889619096565b5b03613a5657600a8580600001906138a19190618fb2565b80602001906138b09190618fdb565b6040516138be92919061907d565b90815260200160405180910390208580600001906138dc9190618fb2565b80604001906138eb9190618fdb565b6040516138f992919061907d565b908152602001604051809103902060009054906101000a900467ffffffffffffffff1667ffffffffffffffff168580600001906139369190618fb2565b60000160208101906139489190619465565b67ffffffffffffffff1614613992576040517f08c379a00000000000000000000000000000000000000000000000000000000081526004016139899061b4ed565b60405180910390fd5b600a8580600001906139a49190618fb2565b80602001906139b39190618fdb565b6040516139c192919061907d565b90815260200160405180910390208580600001906139df9190618fb2565b80604001906139ee9190618fdb565b6040516139fc92919061907d565b9081526020016040518091039020600081819054906101000a900467ffffffffffffffff1680929190613a2e90619960565b91906101000a81548167ffffffffffffffff021916908367ffffffffffffffff160217905550505b60026000838152602001908152602001600020600090557f069766f5b245bf738d1cf115eb04b172e3cf8337db0d995eb6bcec6a4010a572858060000190613a9e9190618fb2565b604051613aab9190619cd5565b60405180910390a15050505050565b60606000828060000190613ace919061b50d565b6020016020810190613ae0919061b536565b9050600060036000836004811115613afb57613afa619096565b5b6004811115613b0d57613b0c619096565b5b815260200190815260200160002060009054906101000a900473ffffffffffffffffffffffffffffffffffffffff169050600073ffffffffffffffffffffffffffffffffffffffff168173ffffffffffffffffffffffffffffffffffffffff1603613bad576040517f08c379a0000000000000000000000000000000000000000000000000000000008152600401613ba49061b5af565b60405180910390fd5b613bb682617c1e565b925081600484604051613bc9919061a63e565b908152602001604051809103902060006101000a81548160ff02191690836004811115613bf957613bf8619096565b5b021790555080600584604051613c0f919061a63e565b908152602001604051809103902060006101000a81548173ffffffffffffffffffffffffffffffffffffffff021916908373ffffffffffffffffffffffffffffffffffffffff16021790555060008060008373ffffffffffffffffffffffffffffffffffffffff1663143517c687896040518363ffffffff1660e01b8152600401613c9b92919061b8ac565b6000604051808303816000875af1158015613cba573d6000803e3d6000fd5b505050506040513d6000823e3d601f19601f82011682018060405250810190613ce3919061bbf8565b92509250925080613d29576040517f08c379a0000000000000000000000000000000000000000000000000000000008152600401613d209061bccf565b60405180910390fd5b613d338684617cc4565b613d3d8683617d0e565b846004811115613d5057613d4f619096565b5b7fc7632e177eaf57504437a0702b7c25e6feab87af173c764e8509d7b0d6c9af6c878560400151604051613d8592919061bcef565b60405180910390a25050505050919050565b60006007828060000190613dab9190618fdb565b604051613db992919061907d565b9081526020016040518091039020828060200190613dd79190618fdb565b604051613de592919061907d565b9081526020016040518091039020905060026004811115613e0957613e08619096565b5b8160000160009054906101000a900460ff166004811115613e2d57613e2c619096565b5b14613e6d576040517f08c379a0000000000000000000000000000000000000000000000000000000008152600401613e649061bd6b565b60405180910390fd5b6000600682600301600081548110613e8857613e876192db565b5b90600052602060002001604051613e9f91906193a2565b90815260200160405180910390209050600380811115613ec257613ec1619096565b5b8160020160009054906101000a900460ff166003811115613ee657613ee5619096565b5b14613f26576040517f08c379a0000000000000000000000000000000000000000000000000000000008152600401613f1d90619405565b60405180910390fd5b6001826003018054905014613f3a57600080fd5b60006040518060400160405280858060000190613f579190618fdb565b8080601f016020809104026020016040519081016040528093929190818152602001838380828437600081840152601f19601f820116905080830192505050505050508152602001858060200190613faf9190618fdb565b8080601f016020809104026020016040519081016040528093929190818152602001838380828437600081840152601f19601f82011690508083019250505050505050815250905060006040518060a001604052806003600481111561401857614017619096565b5b81526020018560000160019054906101000a900460ff16600281111561404157614040619096565b5b81526020018381526020016140fe86600301600081548110614066576140656192db565b5b90600052602060002001805461407b90619160565b80601f01602080910402602001604051908101604052809291908181526020018280546140a790619160565b80156140f45780601f106140c9576101008083540402835291602001916140f4565b820191906000526020600020905b8154815290600101906020018083116140d757829003601f168201915b50505050506170d3565b815260200185600401805461411290619160565b80601f016020809104026020016040519081016040528092919081815260200182805461413e90619160565b801561418b5780601f106141605761010080835404028352916020019161418b565b820191906000526020600020905b81548152906001019060200180831161416e57829003601f168201915b505050505081525090506142f283866060018780604001906141ad91906195b6565b8860010160000180546141bf90619160565b80601f01602080910402602001604051908101604052809291908181526020018280546141eb90619160565b80156142385780601f1061420d57610100808354040283529160200191614238565b820191906000526020600020905b81548152906001019060200180831161421b57829003601f168201915b505050505089600101600101805461424f90619160565b80601f016020809104026020016040519081016040528092919081815260200182805461427b90619160565b80156142c85780601f1061429d576101008083540402835291602001916142c8565b820191906000526020600020905b8154815290600101906020018083116142ab57829003601f168201915b5050505050876040516020016142de9190619fb6565b6040516020818303038152906040526171f7565b614331576040517f08c379a00000000000000000000000000000000000000000000000000000000081526004016143289061a024565b60405180910390fd5b60038460000160006101000a81548160ff0219169083600481111561435957614358619096565b5b021790555061440c8580600001906143719190618fdb565b8080601f016020809104026020016040519081016040528093929190818152602001838380828437600081840152601f19601f820116905080830192505050505050508680602001906143c49190618fdb565b8080601f016020809104026020016040519081016040528093929190818152602001838380828437600081840152601f19601f82011690508083019250505050505050617339565b7fcccb79544f2a910ecd04c3bd96f870be6f5c74e0d00c18443c25ecf7b980091885806000019061443d9190618fdb565b87806020019061444d9190618fdb565b88600301600081548110614464576144636192db565b5b90600052602060002001896001016000018a60010160010160405161448f979695949392919061a3a0565b60405180910390a15050505050565b600060068280600001906144b29190618fdb565b6040516144c092919061907d565b90815260200160405180910390209050600260038111156144e4576144e3619096565b5b8160020160009054906101000a900460ff16600381111561450857614507619096565b5b14614548576040517f08c379a000000000000000000000000000000000000000000000000000000000815260040161453f9061bdd7565b60405180910390fd5b6000604051806060016040528083600001805461456490619160565b80601f016020809104026020016040519081016040528092919081815260200182805461459090619160565b80156145dd5780601f106145b2576101008083540402835291602001916145dd565b820191906000526020600020905b8154815290600101906020018083116145c057829003601f168201915b505050505081526020018480600001906145f79190618fdb565b8080601f016020809104026020016040519081016040528093929190818152602001838380828437600081840152601f19601f8201169050808301925050505050505081526020016040518060400160405280600381526020017f6962630000000000000000000000000000000000000000000000000000000000815250815250905060006040518060a0016040528084600301600001805461469990619160565b80601f01602080910402602001604051908101604052809291908181526020018280546146c590619160565b80156147125780601f106146e757610100808354040283529160200191614712565b820191906000526020600020905b8154815290600101906020018083116146f557829003601f168201915b5050505050815260200184600101805480602002602001604051908101604052809291908181526020016000905b828210156148dd578382906000526020600020906002020160405180604001604052908160008201805461477390619160565b80601f016020809104026020016040519081016040528092919081815260200182805461479f90619160565b80156147ec5780601f106147c1576101008083540402835291602001916147ec565b820191906000526020600020905b8154815290600101906020018083116147cf57829003601f168201915b5050505050815260200160018201805480602002602001604051908101604052809291908181526020016000905b828210156148c657838290600052602060002001805461483990619160565b80601f016020809104026020016040519081016040528092919081815260200182805461486590619160565b80156148b25780601f10614887576101008083540402835291602001916148b2565b820191906000526020600020905b81548152906001019060200180831161489557829003601f168201915b50505050508152602001906001019061481a565b505050508152505081526020019060010190614740565b5050505081526020016003808111156148f9576148f8619096565b5b81526020018381526020018460060160009054906101000a900467ffffffffffffffff1667ffffffffffffffff168152509050614a2d8385604001803603810190614944919061ac60565b86806020019061495491906195b6565b8080601f016020809104026020016040519081016040528093929190818152602001838380828437600081840152601f19601f820116905080830192505050505050508660030160010180546149a990619160565b80601f01602080910402602001604051908101604052809291908181526020018280546149d590619160565b8015614a225780601f106149f757610100808354040283529160200191614a22565b820191906000526020600020905b815481529060010190602001808311614a0557829003601f168201915b505050505085617668565b614a6c576040517f08c379a0000000000000000000000000000000000000000000000000000000008152600401614a639061acff565b60405180910390fd5b60038360020160006101000a81548160ff02191690836003811115614a9457614a93619096565b5b0217905550614af4848060000190614aac9190618fdb565b8080601f016020809104026020016040519081016040528093929190818152602001838380828437600081840152601f19601f82011690508083019250505050505050617922565b7f063c0e9664347d8013d3575d502050fd936d3b51035f056696a639523feaed6d848060000190614b259190618fdb565b856000018660030160010187600301600001604051614b4895949392919061bdf7565b60405180910390a150505050565b614b5e617d6e565b614b686000617dec565b565b6000600d60009054906101000a900473ffffffffffffffffffffffffffffffffffffffff16905090565b60006007828060000190614ba89190618fdb565b604051614bb692919061907d565b9081526020016040518091039020828060200190614bd49190618fdb565b604051614be292919061907d565b90815260200160405180910390209050600480811115614c0557614c04619096565b5b8160000160009054906101000a900460ff166004811115614c2957614c28619096565b5b03614c69576040517f08c379a0000000000000000000000000000000000000000000000000000000008152600401614c609061a466565b60405180910390fd5b6000600682600301600081548110614c8457614c836192db565b5b90600052602060002001604051614c9b91906193a2565b90815260200160405180910390209050600380811115614cbe57614cbd619096565b5b8160020160009054906101000a900460ff166003811115614ce257614ce1619096565b5b14614d22576040517f08c379a0000000000000000000000000000000000000000000000000000000008152600401614d1990619405565b60405180910390fd5b60048260000160006101000a81548160ff02191690836004811115614d4a57614d49619096565b5b0217905550614dfd838060000190614d629190618fdb565b8080601f016020809104026020016040519081016040528093929190818152602001838380828437600081840152601f19601f82011690508083019250505050505050848060200190614db59190618fdb565b8080601f016020809104026020016040519081016040528093929190818152602001838380828437600081840152601f19601f82011690508083019250505050505050617339565b7f645976448b76cf17132a7f0f96d505a70aa349bc7753973035352feb57901375838060000190614e2e9190618fdb565b858060200190614e3e9190618fdb565b86600301600081548110614e5557614e546192db565b5b906000526020600020018760010160000188600101600101604051614e80979695949392919061a3a0565b60405180910390a1505050565b60006006828060000190614ea19190618fdb565b604051614eaf92919061907d565b9081526020016040518091039020905060016003811115614ed357614ed2619096565b5b8160020160009054906101000a900460ff166003811115614ef757614ef6619096565b5b14158015614f3b575060026003811115614f1457614f13619096565b5b8160020160009054906101000a900460ff166003811115614f3857614f37619096565b5b14155b15614f7b576040517f08c379a0000000000000000000000000000000000000000000000000000000008152600401614f729061becc565b60405180910390fd5b60016003811115614f8f57614f8e619096565b5b8160020160009054906101000a900460ff166003811115614fb357614fb2619096565b5b148015614fde5750614fdc828060400190614fce919061beec565b614fd79061bf14565b617eb2565b155b1561501e576040517f08c379a00000000000000000000000000000000000000000000000000000000081526004016150159061bfbf565b60405180910390fd5b6002600381111561503257615031619096565b5b8160020160009054906101000a900460ff16600381111561505657615055619096565b5b14801561522f57506001816001018054905014158061522e575061522c8160010160008154811061508a576150896192db565b5b90600052602060002090600202016040518060400160405290816000820180546150b390619160565b80601f01602080910402602001604051908101604052809291908181526020018280546150df90619160565b801561512c5780601f106151015761010080835404028352916020019161512c565b820191906000526020600020905b81548152906001019060200180831161510f57829003601f168201915b5050505050815260200160018201805480602002602001604051908101604052809291908181526020016000905b8282101561520657838290600052602060002001805461517990619160565b80601f01602080910402602001604051908101604052809291908181526020018280546151a590619160565b80156151f25780601f106151c7576101008083540402835291602001916151f2565b820191906000526020600020905b8154815290600101906020018083116151d557829003601f168201915b50505050508152602001906001019061515a565b505050508152505083806040019061521e919061beec565b6152279061bf14565b617ebd565b155b5b1561526f576040517f08c379a00000000000000000000000000000000000000000000000000000000081526004016152669061c09d565b60405180910390fd5b6152ca82806020019061528291906195b6565b8080601f016020809104026020016040519081016040528093929190818152602001838380828437600081840152601f19601f820116905080830192505050505050506173bd565b615309576040517f08c379a00000000000000000000000000000000000000000000000000000000081526004016153009061a4f8565b60405180910390fd5b6000604051806060016040528083600001805461532590619160565b80601f016020809104026020016040519081016040528092919081815260200182805461535190619160565b801561539e5780601f106153735761010080835404028352916020019161539e565b820191906000526020600020905b81548152906001019060200180831161538157829003601f168201915b505050505081526020018480600001906153b89190618fdb565b8080601f016020809104026020016040519081016040528093929190818152602001838380828437600081840152601f19601f8201169050808301925050505050505081526020016040518060400160405280600381526020017f6962630000000000000000000000000000000000000000000000000000000000815250815250905060006040518060a0016040528084600301600001805461545a90619160565b80601f016020809104026020016040519081016040528092919081815260200182805461548690619160565b80156154d35780601f106154a8576101008083540402835291602001916154d3565b820191906000526020600020905b8154815290600101906020018083116154b657829003601f168201915b505050505081526020016154fe8680604001906154f0919061beec565b6154f99061bf14565b617f16565b81526020016002600381111561551757615516619096565b5b81526020018381526020018460060160009054906101000a900467ffffffffffffffff1667ffffffffffffffff16815250905061560e838560e001803603810190615562919061ac60565b86806080019061557291906195b6565b8080601f016020809104026020016040519081016040528093929190818152602001838380828437600081840152601f19601f820116905080830192505050505050508780606001906155c59190618fdb565b8080601f016020809104026020016040519081016040528093929190818152602001838380828437600081840152601f19601f8201169050808301925050505050505085617668565b61564d576040517f08c379a00000000000000000000000000000000000000000000000000000000081526004016156449061acff565b60405180910390fd5b6157a8838560e001803603810190615665919061ac60565b6156fd86600301600001805461567a90619160565b80601f01602080910402602001604051908101604052809291908181526020018280546156a690619160565b80156156f35780601f106156c8576101008083540402835291602001916156f3565b820191906000526020600020905b8154815290600101906020018083116156d657829003601f168201915b50505050506177c4565b878060a0019061570d91906195b6565b8080601f016020809104026020016040519081016040528093929190818152602001838380828437600081840152601f19601f8201169050808301925050505050505088806020019061576091906195b6565b8080601f016020809104026020016040519081016040528093929190818152602001838380828437600081840152601f19601f820116905080830192505050505050506177ed565b6157e7576040517f08c379a00000000000000000000000000000000000000000000000000000000081526004016157de9061ad6b565b60405180910390fd5b60038360020160006101000a81548160ff0219169083600381111561580f5761580e619096565b5b0217905550615825816020015184600101617f94565b8380606001906158359190618fdb565b84600301600101918261584992919061a21f565b506158a584806000019061585d9190618fdb565b8080601f016020809104026020016040519081016040528093929190818152602001838380828437600081840152601f19601f82011690508083019250505050505050617922565b7fe7615b4ebffcb930061f901cc07ee67b4d32c8f9052141eb8bce2dec3f577fe18480600001906158d69190618fdb565b8560000186600301600101876003016000016040516158f995949392919061bdf7565b60405180910390a150505050565b600073ffffffffffffffffffffffffffffffffffffffff166003600084600481111561593657615935619096565b5b600481111561594857615947619096565b5b815260200190815260200160002060009054906101000a900473ffffffffffffffffffffffffffffffffffffffff1673ffffffffffffffffffffffffffffffffffffffff16146159cd576040517f08c379a00000000000000000000000000000000000000000000000000000000081526004016159c49061c109565b60405180910390fd5b80600360008460048111156159e5576159e4619096565b5b60048111156159f7576159f6619096565b5b815260200190815260200160002060006101000a81548173ffffffffffffffffffffffffffffffffffffffff021916908373ffffffffffffffffffffffffffffffffffffffff1602179055505050565b60008282905011615a8d576040517f08c379a0000000000000000000000000000000000000000000000000000000008152600401615a849061c175565b60405180910390fd5b6000838060600190615a9f9190618fdb565b8080601f016020809104026020016040519081016040528093929190818152602001838380828437600081840152601f19601f8201169050808301925050505050505090506000848060800190615af69190618fdb565b8080601f016020809104026020016040519081016040528093929190818152602001838380828437600081840152601f19601f8201169050808301925050505050505090506000856000016020810190615b509190619465565b90506000600784604051615b64919061a63e565b908152602001604051809103902083604051615b80919061a63e565b9081526020016040518091039020905060036004811115615ba457615ba3619096565b5b8160000160009054906101000a900460ff166004811115615bc857615bc7619096565b5b14615c08576040517f08c379a0000000000000000000000000000000000000000000000000000000008152600401615bff90619111565b60405180910390fd5b6000615c15858585617ffc565b90506000600260008381526020019081526020016000205490506000801b8114615c74576040517f08c379a0000000000000000000000000000000000000000000000000000000008152600401615c6b9061c207565b60405180910390fd5b60028888604051615c86929190619649565b602060405180830381855afa158015615ca3573d6000803e3d6000fd5b5050506040513d601f19601f82011682018060405250810190615cc69190619698565b604051602001615cd6919061b2f6565b6040516020818303038152906040528051906020012060026000848152602001908152602001600020819055507f778788131273c1769406f3b42a241a266d9c5c1ca39b2b33a3b1a8efb1080bc5898989604051615d369392919061c265565b60405180910390a1505050505050505050565b60606000615d556173c8565b90506000600682604051615d69919061a63e565b9081526020016040518091039020905060006003811115615d8d57615d8c619096565b5b8160020160009054906101000a900460ff166003811115615db157615db0619096565b5b14615df1576040517f08c379a0000000000000000000000000000000000000000000000000000000008152600401615de89061a6a1565b60405180910390fd5b60018160020160006101000a81548160ff02191690836003811115615e1957615e18619096565b5b0217905550838060000190615e2e9190618fdb565b826000019182615e3f92919061a21f565b50615e4c8160010161746a565b836040016020810190615e5f9190619465565b8160060160006101000a81548167ffffffffffffffff021916908367ffffffffffffffff160217905550838060200190615e99919061a6c1565b816003018181615ea9919061a8d5565b905050615eb582617922565b7f77fdc802b8b6331cb2c8d6bd52b9872dd22a59d21350263d1bf00b702a48f6e982826000018360030160010184600301600001604051615ef9949392919061ad8b565b60405180910390a18192505050919050565b60606001828060200190615f1f919061c29e565b8060600190615f2e919061c2c6565b905014615f70576040517f08c379a0000000000000000000000000000000000000000000000000000000008152600401615f679061c375565b60405180910390fd5b60006006838060200190615f84919061c29e565b8060600190615f93919061c2c6565b6000818110615fa557615fa46192db565b5b9050602002810190615fb79190618fdb565b604051615fc592919061907d565b90815260200160405180910390209050600181600101805490501461601f576040517f08c379a00000000000000000000000000000000000000000000000000000000081526004016160169061c42d565b60405180910390fd5b6001600481111561603357616032619096565b5b838060200190616043919061c29e565b6000016020810190616055919061c472565b600481111561606757616066619096565b5b146160a7576040517f08c379a000000000000000000000000000000000000000000000000000000000815260040161609e9061c4eb565b60405180910390fd5b60006160b1618019565b90508380602001906160c3919061c29e565b60078580600001906160d59190618fdb565b6040516160e392919061907d565b9081526020016040518091039020826040516160ff919061a63e565b90815260200160405180910390208181616119919061caac565b905050600160088580600001906161309190618fdb565b60405161613e92919061907d565b90815260200160405180910390208260405161615a919061a63e565b908152602001604051809103902060006101000a81548167ffffffffffffffff021916908367ffffffffffffffff160217905550600160098580600001906161a29190618fdb565b6040516161b092919061907d565b9081526020016040518091039020826040516161cc919061a63e565b908152602001604051809103902060006101000a81548167ffffffffffffffff021916908367ffffffffffffffff1602179055506001600a8580600001906162149190618fdb565b60405161622292919061907d565b90815260200160405180910390208260405161623e919061a63e565b908152602001604051809103902060006101000a81548167ffffffffffffffff021916908367ffffffffffffffff1602179055506162ce8480600001906162859190618fdb565b8080601f016020809104026020016040519081016040528093929190818152602001838380828437600081840152601f19601f8201169050808301925050505050505082617339565b7f96be605fd502b1513c6e6e38963c9f28dc030f5e18c7a48ee2d4775b387b6fe08480600001906162ff9190618fdb565b83878060200190616310919061c29e565b806060019061631f919061c2c6565b6000818110616331576163306192db565b5b90506020028101906163439190618fdb565b898060200190616353919061c29e565b8060400190616362919061c626565b80600001906163719190618fdb565b8b8060200190616381919061c29e565b8060400190616390919061c626565b806020019061639f9190618fdb565b6040516163b49998979695949392919061caba565b60405180910390a18092505050919050565b606060018280604001906163da919061c29e565b80606001906163e9919061c2c6565b90501461642b576040517f08c379a00000000000000000000000000000000000000000000000000000000081526004016164229061c375565b60405180910390fd5b6000600683806040019061643f919061c29e565b806060019061644e919061c2c6565b60008181106164605761645f6192db565b5b90506020028101906164729190618fdb565b60405161648092919061907d565b9081526020016040518091039020905060018160010180549050146164da576040517f08c379a00000000000000000000000000000000000000000000000000000000081526004016164d19061c42d565b60405180910390fd5b600260048111156164ee576164ed619096565b5b8380604001906164fe919061c29e565b6000016020810190616510919061c472565b600481111561652257616521619096565b5b14616562576040517f08c379a00000000000000000000000000000000000000000000000000000000081526004016165599061cbaa565b60405180910390fd5b6001838060400190616574919061c29e565b8060600190616583919061c2c6565b90501461658f57600080fd5b600060405180604001604052808580600001906165ac9190618fdb565b8080601f016020809104026020016040519081016040528093929190818152602001838380828437600081840152601f19601f82011690508083019250505050505050815260200160405180602001604052806000815250815250905060006040518060a001604052806001600481111561662a57616629619096565b5b815260200186806040019061663f919061c29e565b6020016020810190616651919061cbdf565b600281111561666357616662619096565b5b81526020018381526020016166fc878060400190616681919061c29e565b8060600190616690919061c2c6565b60008181106166a2576166a16192db565b5b90506020028101906166b49190618fdb565b8080601f016020809104026020016040519081016040528093929190818152602001838380828437600081840152601f19601f820116905080830192505050505050506170d3565b81526020018680606001906167119190618fdb565b8080601f016020809104026020016040519081016040528093929190818152602001838380828437600081840152601f19601f820116905080830192505050505050508152509050616878838660a00187806080019061677191906195b6565b898060400190616781919061c29e565b8060400190616790919061c626565b806000019061679f9190618fdb565b8080601f016020809104026020016040519081016040528093929190818152602001838380828437600081840152601f19601f820116905080830192505050505050508a80604001906167f2919061c29e565b8060400190616801919061c626565b80602001906168109190618fdb565b8080601f016020809104026020016040519081016040528093929190818152602001838380828437600081840152601f19601f82011690508083019250505050505050876040516020016168649190619fb6565b6040516020818303038152906040526171f7565b6168b7576040517f08c379a00000000000000000000000000000000000000000000000000000000081526004016168ae9061a024565b60405180910390fd5b60006168c1618019565b90508580604001906168d3919061c29e565b60078780600001906168e59190618fdb565b6040516168f392919061907d565b90815260200160405180910390208260405161690f919061a63e565b90815260200160405180910390208181616929919061caac565b905050600160088780600001906169409190618fdb565b60405161694e92919061907d565b90815260200160405180910390208260405161696a919061a63e565b908152602001604051809103902060006101000a81548167ffffffffffffffff021916908367ffffffffffffffff160217905550600160098780600001906169b29190618fdb565b6040516169c092919061907d565b9081526020016040518091039020826040516169dc919061a63e565b908152602001604051809103902060006101000a81548167ffffffffffffffff021916908367ffffffffffffffff1602179055506001600a878060000190616a249190618fdb565b604051616a3292919061907d565b908152602001604051809103902082604051616a4e919061a63e565b908152602001604051809103902060006101000a81548167ffffffffffffffff021916908367ffffffffffffffff160217905550616ade868060000190616a959190618fdb565b8080601f016020809104026020016040519081016040528093929190818152602001838380828437600081840152601f19601f8201169050808301925050505050505082617339565b7f5ad841b335ecef611dec6401e924a49d2ffc5576beea3b4ae2cf0f2a6e142ab6868060000190616b0f9190618fdb565b83898060400190616b20919061c29e565b8060600190616b2f919061c2c6565b6000818110616b4157616b406192db565b5b9050602002810190616b539190618fdb565b8b8060400190616b63919061c29e565b8060400190616b72919061c626565b8060000190616b819190618fdb565b8d8060400190616b91919061c29e565b8060400190616ba0919061c626565b8060200190616baf9190618fdb565b604051616bc49998979695949392919061caba565b60405180910390a180945050505050919050565b616be0617d6e565b600073ffffffffffffffffffffffffffffffffffffffff168173ffffffffffffffffffffffffffffffffffffffff1603616c4f576040517f08c379a0000000000000000000000000000000000000000000000000000000008152600401616c469061cc7e565b60405180910390fd5b616c5881617dec565b50565b6000818060000190616c6d9190618fdb565b8080601f016020809104026020016040519081016040528093929190818152602001838380828437600081840152601f19601f8201169050808301925050505050505090506000801b60026000616cc3846180bb565b81526020019081526020016000205403616cdc57600080fd5b6000806000616cea846180d4565b73ffffffffffffffffffffffffffffffffffffffff1663ef7a162785876040518363ffffffff1660e01b8152600401616d2492919061ccf6565b6000604051808303816000875af1158015616d43573d6000803e3d6000fd5b505050506040513d6000823e3d601f19601f82011682018060405250810190616d6c919061ce0e565b92509250925080616db2576040517f08c379a0000000000000000000000000000000000000000000000000000000008152600401616da99061cee5565b60405180910390fd5b616dbc8484617cc4565b60005b8251811015616e5157616e3e868060000190616ddb9190618fdb565b8080601f016020809104026020016040519081016040528093929190818152602001838380828437600081840152601f19601f82011690508083019250505050505050848381518110616e3157616e306192db565b5b6020026020010151617d0e565b8080616e499061cf05565b915050616dbf565b50600484604051616e62919061a63e565b908152602001604051809103902060009054906101000a900460ff166004811115616e9057616e8f619096565b5b7f98ee38065cb229403274d05a5eb3957e9d38ebce4378052aa2e24c0e7707d5c4858560400151604051616ec592919061bcef565b60405180910390a25050505050565b600081604051602001616ee791906188ce565b604051602081830303815290604052805190602001209050919050565b60608383616f1b8467ffffffffffffffff1661815a565b604051602001616f2d9392919061d031565b60405160208183030381529060405290509392505050565b6000616fdc876000018054616f5990619160565b80601f0160208091040260200160405190810160405280929190818152602001828054616f8590619160565b8015616fd25780601f10616fa757610100808354040283529160200191616fd2565b820191906000526020600020905b815481529060010190602001808311616fb557829003601f168201915b50505050506180d4565b73ffffffffffffffffffffffffffffffffffffffff1663f9bb5a5188600001888a60060160009054906101000a900467ffffffffffffffff166170368c60060160009054906101000a900467ffffffffffffffff16618228565b8a8a8e6003016002018b8b604051602001617051919061b2f6565b6040516020818303038152906040526040518a63ffffffff1660e01b81526004016170849998979695949392919061d1b2565b6020604051808303816000875af11580156170a3573d6000803e3d6000fd5b505050506040513d601f19601f820116820180604052508101906170c7919061d256565b90509695505050505050565b6060600167ffffffffffffffff8111156170f0576170ef61a04f565b5b60405190808252806020026020018201604052801561712357816020015b606081526020019060019003908161710e5790505b509050600682604051617136919061a63e565b9081526020016040518091039020600301600101805461715590619160565b80601f016020809104026020016040519081016040528092919081815260200182805461718190619160565b80156171ce5780601f106171a3576101008083540402835291602001916171ce565b820191906000526020600020905b8154815290600101906020018083116171b157829003601f168201915b5050505050816000815181106171e7576171e66192db565b5b6020026020010181905250919050565b600061728e88600001805461720b90619160565b80601f016020809104026020016040519081016040528092919081815260200182805461723790619160565b80156172845780601f1061725957610100808354040283529160200191617284565b820191906000526020600020905b81548152906001019060200180831161726757829003601f168201915b50505050506180d4565b73ffffffffffffffffffffffffffffffffffffffff1663f9bb5a5189600001896000808b8b8f6003016002016172c48d8d6182b2565b8b6040518a63ffffffff1660e01b81526004016172e99998979695949392919061d2be565b6020604051808303816000875af1158015617308573d6000803e3d6000fd5b505050506040513d601f19601f8201168201806040525081019061732c919061d256565b9050979650505050505050565b600782604051617349919061a63e565b908152602001604051809103902081604051617365919061a63e565b9081526020016040518091039020604051602001617383919061d5b9565b60405160208183030381529060405280519060200120600260006173a785856182de565b8152602001908152602001600020819055505050565b600060019050919050565b606060006173f5600c60109054906101000a900467ffffffffffffffff1667ffffffffffffffff1661815a565b604051602001617405919061d627565b6040516020818303038152906040529050600c601081819054906101000a900467ffffffffffffffff168092919061743c90619960565b91906101000a81548167ffffffffffffffff021916908367ffffffffffffffff160217905550508091505090565b600081805490501461747f5761747e61d65c565b5b8060405180604001604052806040518060400160405280600181526020017f31000000000000000000000000000000000000000000000000000000000000008152508152602001600267ffffffffffffffff8111156174e1576174e061a04f565b5b60405190808252806020026020018201604052801561751457816020015b60608152602001906001900390816174ff5790505b5081525090806001815401808255809150506001900390600052602060002090600202016000909190919091506000820151816000019081617556919061d68b565b506020820151816001019080519060200190617573929190618590565b50505060008160008154811061758c5761758b6192db565b5b906000526020600020906002020190506040518060400160405280600d81526020017f4f524445525f4f52444552454400000000000000000000000000000000000000815250816001016000815481106175e9576175e86192db565b5b9060005260206000200190816175ff919061d68b565b506040518060400160405280600f81526020017f4f524445525f554e4f52444552454400000000000000000000000000000000008152508160010160018154811061764d5761764c6192db565b5b906000526020600020019081617663919061d68b565b505050565b60006176ff86600001805461767c90619160565b80601f01602080910402602001604051908101604052809291908181526020018280546176a890619160565b80156176f55780601f106176ca576101008083540402835291602001916176f5565b820191906000526020600020905b8154815290600101906020018083116176d857829003601f168201915b50505050506180d4565b73ffffffffffffffffffffffffffffffffffffffff1663f9bb5a518760000187600080898c6003016002016177338b6182f9565b8a604051602001617744919061d9c6565b6040516020818303038152906040526040518963ffffffff1660e01b815260040161777698979695949392919061d9e8565b6020604051808303816000875af1158015617795573d6000803e3d6000fd5b505050506040513d601f19601f820116820180604052508101906177b9919061d256565b905095945050505050565b6060816040516020016177d7919061db22565b6040516020818303038152906040529050919050565b600061788486600001805461780190619160565b80601f016020809104026020016040519081016040528092919081815260200182805461782d90619160565b801561787a5780601f1061784f5761010080835404028352916020019161787a565b820191906000526020600020905b81548152906001019060200180831161785d57829003601f168201915b50505050506180d4565b73ffffffffffffffffffffffffffffffffffffffff1663f9bb5a518760000187600080888c6003016002018b8a6040518963ffffffff1660e01b81526004016178d498979695949392919061d9e8565b6020604051808303816000875af11580156178f3573d6000803e3d6000fd5b505050506040513d601f19601f82011682018060405250810190617917919061d256565b905095945050505050565b600681604051617932919061a63e565b9081526020016040518091039020604051602001617950919061de32565b604051602081830303815290604052805190602001206002600061797384618322565b81526020019081526020016000208190555050565b600080826000015167ffffffffffffffff161480156179b557506000826020015167ffffffffffffffff16145b9050919050565b6000816000015167ffffffffffffffff16836000015167ffffffffffffffff161080617a2a5750816000015167ffffffffffffffff16836000015167ffffffffffffffff16148015617a295750816020015167ffffffffffffffff16836020015167ffffffffffffffff16105b5b905092915050565b6000617a3f848484616f04565b8051906020012090509392505050565b60608383617a668467ffffffffffffffff1661815a565b604051602001617a789392919061dea0565b60405160208183030381529060405290509392505050565b6000617b27876000018054617aa490619160565b80601f0160208091040260200160405190810160405280929190818152602001828054617ad090619160565b8015617b1d5780601f10617af257610100808354040283529160200191617b1d565b820191906000526020600020905b815481529060010190602001808311617b0057829003601f168201915b50505050506180d4565b73ffffffffffffffffffffffffffffffffffffffff1663f9bb5a5188600001888a60060160009054906101000a900467ffffffffffffffff16617b818c60060160009054906101000a900467ffffffffffffffff16618228565b8a8a8e6003016002018b8b604051602001617b9c919061b2f6565b6040516020818303038152906040526040518a63ffffffff1660e01b8152600401617bcf9998979695949392919061d1b2565b6020604051808303816000875af1158015617bee573d6000803e3d6000fd5b505050506040513d601f19601f82011682018060405250810190617c12919061d256565b90509695505050505050565b6060600082617c4c600c60089054906101000a900467ffffffffffffffff1667ffffffffffffffff1661815a565b604051602001617c5d92919061df80565b6040516020818303038152906040529050600c600881819054906101000a900467ffffffffffffffff1680929190617c9490619960565b91906101000a81548167ffffffffffffffff021916908367ffffffffffffffff1602179055505080915050919050565b80604051602001617cd5919061e097565b6040516020818303038152906040528051906020012060026000617cf8856180bb565b8152602001908152602001600020819055505050565b8060000151604051602001617d23919061e109565b6040516020818303038152906040528051906020012060026000617d588585602001516000015186602001516020015161833b565b8152602001908152602001600020819055505050565b617d76618358565b73ffffffffffffffffffffffffffffffffffffffff16617d94614b6a565b73ffffffffffffffffffffffffffffffffffffffff1614617dea576040517f08c379a0000000000000000000000000000000000000000000000000000000008152600401617de19061e177565b60405180910390fd5b565b6000600d60009054906101000a900473ffffffffffffffffffffffffffffffffffffffff16905081600d60006101000a81548173ffffffffffffffffffffffffffffffffffffffff021916908373ffffffffffffffffffffffffffffffffffffffff1602179055508173ffffffffffffffffffffffffffffffffffffffff168173ffffffffffffffffffffffffffffffffffffffff167f8be0079c531659141344cd1fd0a4f28419497f9722a3daafe3b4186f6b6457e060405160405180910390a35050565b600060019050919050565b600081604051602001617ed0919061e1db565b6040516020818303038152906040528051906020012083604051602001617ef7919061e1db565b6040516020818303038152906040528051906020012014905092915050565b6060600167ffffffffffffffff811115617f3357617f3261a04f565b5b604051908082528060200260200182016040528015617f6c57816020015b617f596185e9565b815260200190600190039081617f515790505b5090508181600081518110617f8457617f836192db565b5b6020026020010181905250919050565b60005b8251811015617ff757617fe4838281518110617fb657617fb56192db565b5b6020026020010151838381548110617fd157617fd06192db565b5b9060005260206000209060020201618360565b8080617fef9061cf05565b915050617f97565b505050565b6000618009848484617a4f565b8051906020012090509392505050565b60606000618046600c60189054906101000a900467ffffffffffffffff1667ffffffffffffffff1661815a565b604051602001618056919061e249565b6040516020818303038152906040529050600c601881819054906101000a900467ffffffffffffffff168092919061808d90619960565b91906101000a81548167ffffffffffffffff021916908367ffffffffffffffff160217905550508091505090565b60006180c6826177c4565b805190602001209050919050565b6000806005836040516180e7919061a63e565b908152602001604051809103902060009054906101000a900473ffffffffffffffffffffffffffffffffffffffff169050600073ffffffffffffffffffffffffffffffffffffffff168173ffffffffffffffffffffffffffffffffffffffff160361815157600080fd5b80915050919050565b606060006001618169846183ea565b01905060008167ffffffffffffffff8111156181885761818761a04f565b5b6040519080825280601f01601f1916602001820160405280156181ba5781602001600182028036833780820191505090505b509050600082602001820190505b60011561821d578080600190039150507f3031323334353637383961626364656600000000000000000000000000000000600a86061a8153600a85816182115761821061e27e565b5b049450600085036181c8575b819350505050919050565b600080600090506000600c60009054906101000a900467ffffffffffffffff1667ffffffffffffffff16146182a957600c60009054906101000a900467ffffffffffffffff166001600c60009054906101000a900467ffffffffffffffff1685618292919061e2ad565b61829c919061e2e9565b6182a6919061e325565b90505b80915050919050565b606082826040516020016182c792919061e3a2565b604051602081830303815290604052905092915050565b60006182ea83836182b2565b80519060200120905092915050565b60608160405160200161830c919061e44b565b6040516020818303038152906040529050919050565b600061832d826182f9565b805190602001209050919050565b600061834884848461853d565b8051906020012090509392505050565b600033905090565b8160000151816000019081618375919061d68b565b5060005b8260200151518110156183e5578260200151818151811061839d5761839c6192db565b5b60200260200101518260010182815481106183bb576183ba6192db565b5b9060005260206000200190816183d1919061d68b565b5080806183dd9061cf05565b915050618379565b505050565b600080600090507a184f03e93ff9f4daa797ed6e38ed64bf6a1f0100000000000000008310618448577a184f03e93ff9f4daa797ed6e38ed64bf6a1f010000000000000000838161843e5761843d61e27e565b5b0492506040810190505b6d04ee2d6d415b85acef81000000008310618485576d04ee2d6d415b85acef8100000000838161847b5761847a61e27e565b5b0492506020810190505b662386f26fc1000083106184b457662386f26fc1000083816184aa576184a961e27e565b5b0492506010810190505b6305f5e10083106184dd576305f5e10083816184d3576184d261e27e565b5b0492506008810190505b61271083106185025761271083816184f8576184f761e27e565b5b0492506004810190505b60648310618525576064838161851b5761851a61e27e565b5b0492506002810190505b600a8310618534576001810190505b80915050919050565b6060836185538467ffffffffffffffff1661815a565b6185668467ffffffffffffffff1661815a565b6040516020016185789392919061e4cc565b60405160208183030381529060405290509392505050565b8280548282559060005260206000209081019282156185d8579160200282015b828111156185d75782518290816185c7919061d68b565b50916020019190600101906185b0565b5b5090506185e59190618603565b5090565b604051806040016040528060608152602001606081525090565b5b80821115618623576000818161861a9190618627565b50600101618604565b5090565b50805461863390619160565b6000825580601f106186455750618664565b601f0160209004906000526020600020908101906186639190618667565b5b50565b5b80821115618680576000816000905550600101618668565b5090565b6000604051905090565b600080fd5b600080fd5b600080fd5b6000608082840312156186b3576186b2618698565b5b81905092915050565b6000602082840312156186d2576186d161868e565b5b600082013567ffffffffffffffff8111156186f0576186ef618693565b5b6186fc8482850161869d565b91505092915050565b600060e0828403121561871b5761871a618698565b5b81905092915050565b60006020828403121561873a5761873961868e565b5b600082013567ffffffffffffffff81111561875857618757618693565b5b61876484828501618705565b91505092915050565b600060a0828403121561878357618782618698565b5b81905092915050565b6000602082840312156187a2576187a161868e565b5b600082013567ffffffffffffffff8111156187c0576187bf618693565b5b6187cc8482850161876d565b91505092915050565b60006101a082840312156187ec576187eb618698565b5b81905092915050565b60006020828403121561880b5761880a61868e565b5b600082013567ffffffffffffffff81111561882957618828618693565b5b618835848285016187d5565b91505092915050565b600081519050919050565b600082825260208201905092915050565b60005b8381101561887857808201518184015260208101905061885d565b60008484015250505050565b6000601f19601f8301169050919050565b60006188a08261883e565b6188aa8185618849565b93506188ba81856020860161885a565b6188c381618884565b840191505092915050565b600060208201905081810360008301526188e88184618895565b905092915050565b6000610120828403121561890757618906618698565b5b81905092915050565b6000602082840312156189265761892561868e565b5b600082013567ffffffffffffffff81111561894457618943618693565b5b618950848285016188f0565b91505092915050565b600060a0828403121561896f5761896e618698565b5b81905092915050565b60006020828403121561898e5761898d61868e565b5b600082013567ffffffffffffffff8111156189ac576189ab618693565b5b6189b884828501618959565b91505092915050565b6000604082840312156189d7576189d6618698565b5b81905092915050565b6000602082840312156189f6576189f561868e565b5b600082013567ffffffffffffffff811115618a1457618a13618693565b5b618a20848285016189c1565b91505092915050565b600060a08284031215618a3f57618a3e618698565b5b81905092915050565b600060208284031215618a5e57618a5d61868e565b5b600082013567ffffffffffffffff811115618a7c57618a7b618693565b5b618a8884828501618a29565b91505092915050565b600060808284031215618aa757618aa6618698565b5b81905092915050565b600060208284031215618ac657618ac561868e565b5b600082013567ffffffffffffffff811115618ae457618ae3618693565b5b618af084828501618a91565b91505092915050565b600073ffffffffffffffffffffffffffffffffffffffff82169050919050565b6000618b2482618af9565b9050919050565b618b3481618b19565b82525050565b6000602082019050618b4f6000830184618b2b565b92915050565b600060408284031215618b6b57618b6a618698565b5b81905092915050565b600060208284031215618b8a57618b8961868e565b5b600082013567ffffffffffffffff811115618ba857618ba7618693565b5b618bb484828501618b55565b91505092915050565b60006101608284031215618bd457618bd3618698565b5b81905092915050565b600060208284031215618bf357618bf261868e565b5b600082013567ffffffffffffffff811115618c1157618c10618693565b5b618c1d84828501618bbd565b91505092915050565b60058110618c3357600080fd5b50565b600081359050618c4581618c26565b92915050565b6000618c5682618b19565b9050919050565b618c6681618c4b565b8114618c7157600080fd5b50565b600081359050618c8381618c5d565b92915050565b60008060408385031215618ca057618c9f61868e565b5b6000618cae85828601618c36565b9250506020618cbf85828601618c74565b9150509250929050565b600080fd5b600080fd5b600080fd5b60008083601f840112618cee57618ced618cc9565b5b8235905067ffffffffffffffff811115618d0b57618d0a618cce565b5b602083019150836001820283011115618d2757618d26618cd3565b5b9250929050565b600080600060408486031215618d4757618d4661868e565b5b600084013567ffffffffffffffff811115618d6557618d64618693565b5b618d71868287016188f0565b935050602084013567ffffffffffffffff811115618d9257618d91618693565b5b618d9e86828701618cd8565b92509250509250925092565b600060608284031215618dc057618dbf618698565b5b81905092915050565b600060208284031215618ddf57618dde61868e565b5b600082013567ffffffffffffffff811115618dfd57618dfc618693565b5b618e0984828501618daa565b91505092915050565b600060408284031215618e2857618e27618698565b5b81905092915050565b600060208284031215618e4757618e4661868e565b5b600082013567ffffffffffffffff811115618e6557618e64618693565b5b618e7184828501618e12565b91505092915050565b600060e08284031215618e9057618e8f618698565b5b81905092915050565b600060208284031215618eaf57618eae61868e565b5b600082013567ffffffffffffffff811115618ecd57618ecc618693565b5b618ed984828501618e7a565b91505092915050565b618eeb81618b19565b8114618ef657600080fd5b50565b600081359050618f0881618ee2565b92915050565b600060208284031215618f2457618f2361868e565b5b6000618f3284828501618ef9565b91505092915050565b600060408284031215618f5157618f50618698565b5b81905092915050565b600060208284031215618f7057618f6f61868e565b5b600082013567ffffffffffffffff811115618f8e57618f8d618693565b5b618f9a84828501618f3b565b91505092915050565b600080fd5b600080fd5b600080fd5b60008235600161012003833603038112618fcf57618fce618fa3565b5b80830191505092915050565b60008083356001602003843603038112618ff857618ff7618fa3565b5b80840192508235915067ffffffffffffffff82111561901a57619019618fa8565b5b60208301925060018202360383131561903657619035618fad565b5b509250929050565b600081905092915050565b82818337600083830152505050565b6000619064838561903e565b9350619071838584619049565b82840190509392505050565b600061908a828486619058565b91508190509392505050565b7f4e487b7100000000000000000000000000000000000000000000000000000000600052602160045260246000fd5b7f4368616e6e656c456e64207374617465206d757374206265204f50454e000000600082015250565b60006190fb601d83618849565b9150619106826190c5565b602082019050919050565b6000602082019050818103600083015261912a816190ee565b9050919050565b7f4e487b7100000000000000000000000000000000000000000000000000000000600052602260045260246000fd5b6000600282049050600182168061917857607f821691505b60208210810361918b5761918a619131565b5b50919050565b7f7061636b657420736f7572636520706f727420646f65736e2774206d6174636860008201527f2074686520636f756e7465727061727479277320706f72740000000000000000602082015250565b60006191ed603883618849565b91506191f882619191565b604082019050919050565b6000602082019050818103600083015261921c816191e0565b9050919050565b7f7061636b657420736f75726365204368616e6e656c456e6420646f65736e277460008201527f206d617463682074686520636f756e74657270617274792773206368616e6e6560208201527f6c00000000000000000000000000000000000000000000000000000000000000604082015250565b60006192a5604183618849565b91506192b082619223565b606082019050919050565b600060208201905081810360008301526192d481619298565b9050919050565b7f4e487b7100000000000000000000000000000000000000000000000000000000600052603260045260246000fd5b60008190508160005260206000209050919050565b6000815461932c81619160565b619336818661903e565b94506001821660008114619351576001811461936657619399565b60ff1983168652811515820286019350619399565b61936f8561930a565b60005b8381101561939157815481890152600182019150602081019050619372565b838801955050505b50505092915050565b60006193ae828461931f565b915081905092915050565b7f636f6e6e656374696f6e207374617465206973206e6f74204f50454e00000000600082015250565b60006193ef601c83618849565b91506193fa826193b9565b602082019050919050565b6000602082019050818103600083015261941e816193e2565b9050919050565b600067ffffffffffffffff82169050919050565b61944281619425565b811461944d57600080fd5b50565b60008135905061945f81619439565b92915050565b60006020828403121561947b5761947a61868e565b5b600061948984828501619450565b91505092915050565b7f626c6f636b20686569676874203e3d207061636b65742074696d656f7574206860008201527f6569676874000000000000000000000000000000000000000000000000000000602082015250565b60006194ee602583618849565b91506194f982619492565b604082019050919050565b6000602082019050818103600083015261951d816194e1565b9050919050565b7f626c6f636b2074696d657374616d70203e3d207061636b65742074696d656f7560008201527f742074696d657374616d70000000000000000000000000000000000000000000602082015250565b6000619580602b83618849565b915061958b82619524565b604082019050919050565b600060208201905081810360008301526195af81619573565b9050919050565b600080833560016020038436030381126195d3576195d2618fa3565b5b80840192508235915067ffffffffffffffff8211156195f5576195f4618fa8565b5b60208301925060018202360383131561961157619610618fad565b5b509250929050565b600081905092915050565b60006196308385619619565b935061963d838584619049565b82840190509392505050565b6000619656828486619624565b91508190509392505050565b6000819050919050565b61967581619662565b811461968057600080fd5b50565b6000815190506196928161966c565b92915050565b6000602082840312156196ae576196ad61868e565b5b60006196bc84828501619683565b91505092915050565b6196ce81619425565b82525050565b6196dd81619662565b82525050565b60006080820190506196f860008301876196c5565b61970560208301866196c5565b61971260408301856196c5565b61971f60608301846196d4565b95945050505050565b600081519050919050565b600061973e82619728565b6197488185619619565b935061975881856020860161885a565b80840191505092915050565b60006197708284619733565b915081905092915050565b7f6661696c656420746f20766572696679207061636b657420636f6d6d69746d6560008201527f6e74000000000000000000000000000000000000000000000000000000000000602082015250565b60006197d7602283618849565b91506197e28261977b565b604082019050919050565b60006020820190508181036000830152619806816197ca565b9050919050565b7f7061636b65742073657175656e636520616c726561647920686173206265656e60008201527f2072656365697665640000000000000000000000000000000000000000000000602082015250565b6000619869602983618849565b91506198748261980d565b604082019050919050565b600060208201905081810360008301526198988161985c565b9050919050565b7f7061636b65742073657175656e636520213d206e65787420726563656976652060008201527f73657175656e6365000000000000000000000000000000000000000000000000602082015250565b60006198fb602883618849565b91506199068261989f565b604082019050919050565b6000602082019050818103600083015261992a816198ee565b9050919050565b7f4e487b7100000000000000000000000000000000000000000000000000000000600052601160045260246000fd5b600061996b82619425565b915067ffffffffffffffff820361998557619984619931565b5b600182019050919050565b7f756e6b6e6f776e206f72646572696e6720747970650000000000000000000000600082015250565b60006199c6601583618849565b91506199d182619990565b602082019050919050565b600060208201905081810360008301526199f5816199b9565b9050919050565b6000619a0b6020840184619450565b905092915050565b619a1c81619425565b82525050565b600080fd5b600080fd5b600080fd5b60008083356001602003843603038112619a4e57619a4d619a2c565b5b83810192508235915060208301925067ffffffffffffffff821115619a7657619a75619a22565b5b600182023603831315619a8c57619a8b619a27565b5b509250929050565b600082825260208201905092915050565b6000619ab18385619a94565b9350619abe838584619049565b619ac783618884565b840190509392505050565b60008083356001602003843603038112619aef57619aee619a2c565b5b83810192508235915060208301925067ffffffffffffffff821115619b1757619b16619a22565b5b600182023603831315619b2d57619b2c619a27565b5b509250929050565b600082825260208201905092915050565b6000619b528385619b35565b9350619b5f838584619049565b619b6883618884565b840190509392505050565b600082905092915050565b60408201619b8f60008301836199fc565b619b9c6000850182619a13565b50619baa60208301836199fc565b619bb76020850182619a13565b50505050565b60006101208301619bd160008401846199fc565b619bde6000860182619a13565b50619bec6020840184619a31565b8583036020870152619bff838284619aa5565b92505050619c106040840184619a31565b8583036040870152619c23838284619aa5565b92505050619c346060840184619a31565b8583036060870152619c47838284619aa5565b92505050619c586080840184619a31565b8583036080870152619c6b838284619aa5565b92505050619c7c60a0840184619ad2565b85830360a0870152619c8f838284619b46565b92505050619ca060c0840184619b73565b619cad60c0860182619b7e565b50619cbc6101008401846199fc565b619cca610100860182619a13565b508091505092915050565b60006020820190508181036000830152619cef8184619bbd565b905092915050565b7f696e76616c6964206368616e6e656c2073746174650000000000000000000000600082015250565b6000619d2d601583618849565b9150619d3882619cf7565b602082019050919050565b60006020820190508181036000830152619d5c81619d20565b9050919050565b60058110619d7457619d73619096565b5b50565b6000819050619d8582619d63565b919050565b6000619d9582619d77565b9050919050565b619da581619d8a565b82525050565b60038110619dbc57619dbb619096565b5b50565b6000819050619dcd82619dab565b919050565b6000619ddd82619dbf565b9050919050565b619ded81619dd2565b82525050565b6000619dfe8261883e565b619e088185619a94565b9350619e1881856020860161885a565b619e2181618884565b840191505092915050565b60006040830160008301518482036000860152619e498282619df3565b91505060208301518482036020860152619e638282619df3565b9150508091505092915050565b600081519050919050565b600082825260208201905092915050565b6000819050602082019050919050565b6000619ea88383619df3565b905092915050565b6000602082019050919050565b6000619ec882619e70565b619ed28185619e7b565b935083602082028501619ee485619e8c565b8060005b85811015619f205784840389528151619f018582619e9c565b9450619f0c83619eb0565b925060208a01995050600181019050619ee8565b50829750879550505050505092915050565b600060a083016000830151619f4a6000860182619d9c565b506020830151619f5d6020860182619de4565b5060408301518482036040860152619f758282619e2c565b91505060608301518482036060860152619f8f8282619ebd565b91505060808301518482036080860152619fa98282619df3565b9150508091505092915050565b60006020820190508181036000830152619fd08184619f32565b905092915050565b7f6661696c656420746f20766572696679206368616e6e656c2073746174650000600082015250565b600061a00e601e83618849565b915061a01982619fd8565b602082019050919050565b6000602082019050818103600083015261a03d8161a001565b9050919050565b600082905092915050565b7f4e487b7100000000000000000000000000000000000000000000000000000000600052604160045260246000fd5b60006020601f8301049050919050565b600082821b905092915050565b60006008830261a0cb7fffffffffffffffffffffffffffffffffffffffffffffffffffffffffffffffff8261a08e565b61a0d5868361a08e565b95508019841693508086168417925050509392505050565b6000819050919050565b6000819050919050565b600061a11c61a11761a1128461a0ed565b61a0f7565b61a0ed565b9050919050565b6000819050919050565b61a1368361a101565b61a14a61a1428261a123565b84845461a09b565b825550505050565b600090565b61a15f61a152565b61a16a81848461a12d565b505050565b5b8181101561a18e5761a18360008261a157565b60018101905061a170565b5050565b601f82111561a1d35761a1a48161930a565b61a1ad8461a07e565b8101602085101561a1bc578190505b61a1d061a1c88561a07e565b83018261a16f565b50505b505050565b600082821c905092915050565b600061a1f66000198460080261a1d8565b1980831691505092915050565b600061a20f838361a1e5565b9150826002028217905092915050565b61a229838361a044565b67ffffffffffffffff81111561a2425761a24161a04f565b5b61a24c8254619160565b61a25782828561a192565b6000601f83116001811461a286576000841561a274578287013590505b61a27e858261a203565b86555061a2e6565b601f19841661a2948661930a565b60005b8281101561a2bc5784890135825560018201915060208501945060208101905061a297565b8683101561a2d9578489013561a2d5601f89168261a1e5565b8355505b6001600288020188555050505b50505050505050565b600061a2fb8385618849565b935061a308838584619049565b61a31183618884565b840190509392505050565b6000815461a32981619160565b61a3338186618849565b9450600182166000811461a34e576001811461a3645761a397565b60ff19831686528115156020028601935061a397565b61a36d8561930a565b60005b8381101561a38f5781548189015260018201915060208101905061a370565b808801955050505b50505092915050565b600060a082019050818103600083015261a3bb81898b61a2ef565b9050818103602083015261a3d081878961a2ef565b9050818103604083015261a3e4818661a31c565b9050818103606083015261a3f8818561a31c565b9050818103608083015261a40c818461a31c565b905098975050505050505050565b7f6368616e6e656c20737461746520697320616c726561647920434c4f53454400600082015250565b600061a450601f83618849565b915061a45b8261a41a565b602082019050919050565b6000602082019050818103600083015261a47f8161a443565b9050919050565b7f6661696c656420746f2076616c69646174652073656c6620636c69656e74207360008201527f7461746500000000000000000000000000000000000000000000000000000000602082015250565b600061a4e2602483618849565b915061a4ed8261a486565b604082019050919050565b6000602082019050818103600083015261a5118161a4d5565b9050919050565b6000808335600160200384360303811261a5355761a534618fa3565b5b80840192508235915067ffffffffffffffff82111561a5575761a556618fa8565b5b60208301925060208202360383131561a5735761a572618fad565b5b509250929050565b7f636f756e746572706172747956657273696f6e73206c656e677468206d75737460008201527f2062652067726561746572207468616e20300000000000000000000000000000602082015250565b600061a5d7603283618849565b915061a5e28261a57b565b604082019050919050565b6000602082019050818103600083015261a6068161a5ca565b9050919050565b600061a6188261883e565b61a622818561903e565b935061a63281856020860161885a565b80840191505092915050565b600061a64a828461a60d565b915081905092915050565b7f636f6e6e656374696f6e496420616c7265616479206578697374730000000000600082015250565b600061a68b601b83618849565b915061a6968261a655565b602082019050919050565b6000602082019050818103600083015261a6ba8161a67e565b9050919050565b60008235600160600383360303811261a6dd5761a6dc618fa3565b5b80830191505092915050565b7f4e487b7100000000000000000000000000000000000000000000000000000000600052600060045260246000fd5b61a72383838361a21f565b505050565b600082905092915050565b60008190508160005260206000209050919050565b601f82111561a7895761a75a8161a733565b61a7638461a07e565b8101602085101561a772578190505b61a78661a77e8561a07e565b83018261a16f565b50505b505050565b61a798838361a728565b67ffffffffffffffff81111561a7b15761a7b061a04f565b5b61a7bb8254619160565b61a7c682828561a748565b6000601f83116001811461a7f5576000841561a7e3578287013590505b61a7ed858261a203565b86555061a855565b601f19841661a8038661a733565b60005b8281101561a82b5784890135825560018201915060208501945060208101905061a806565b8683101561a848578489013561a844601f89168261a1e5565b8355505b6001600288020188555050505b50505050505050565b61a86983838361a78e565b505050565b600081016000830161a8808185618fdb565b61a88b81838661a718565b50505050600181016020830161a8a18185618fdb565b61a8ac81838661a718565b50505050600281016040830161a8c281856195b6565b61a8cd81838661a85e565b505050505050565b61a8df828261a86e565b5050565b61a8ec82618884565b810181811067ffffffffffffffff8211171561a90b5761a90a61a04f565b5b80604052505050565b600061a91e618684565b905061a92a828261a8e3565b919050565b600067ffffffffffffffff82111561a94a5761a94961a04f565b5b602082029050602081019050919050565b600080fd5b600080fd5b600080fd5b600067ffffffffffffffff82111561a9855761a98461a04f565b5b61a98e82618884565b9050602081019050919050565b600061a9ae61a9a98461a96a565b61a914565b90508281526020810184848401111561a9ca5761a9c961a965565b5b61a9d5848285619049565b509392505050565b600082601f83011261a9f25761a9f1618cc9565b5b813561aa0284826020860161a99b565b91505092915050565b600067ffffffffffffffff82111561aa265761aa2561a04f565b5b602082029050602081019050919050565b600061aa4a61aa458461aa0b565b61a914565b9050808382526020820190506020840283018581111561aa6d5761aa6c618cd3565b5b835b8181101561aab457803567ffffffffffffffff81111561aa925761aa91618cc9565b5b80860161aa9f898261a9dd565b8552602085019450505060208101905061aa6f565b5050509392505050565b600082601f83011261aad35761aad2618cc9565b5b813561aae384826020860161aa37565b91505092915050565b60006040828403121561ab025761ab0161a95b565b5b61ab0c604061a914565b9050600082013567ffffffffffffffff81111561ab2c5761ab2b61a960565b5b61ab388482850161a9dd565b600083015250602082013567ffffffffffffffff81111561ab5c5761ab5b61a960565b5b61ab688482850161aabe565b60208301525092915050565b600061ab8761ab828461a92f565b61a914565b9050808382526020820190506020840283018581111561abaa5761aba9618cd3565b5b835b8181101561abf157803567ffffffffffffffff81111561abcf5761abce618cc9565b5b80860161abdc898261aaec565b8552602085019450505060208101905061abac565b5050509392505050565b600061ac0836848461ab74565b905092915050565b60006040828403121561ac265761ac2561a95b565b5b61ac30604061a914565b9050600061ac4084828501619450565b600083015250602061ac5484828501619450565b60208301525092915050565b60006040828403121561ac765761ac7561868e565b5b600061ac848482850161ac10565b91505092915050565b7f6661696c656420746f2076657269667920636f6e6e656374696f6e207374617460008201527f6500000000000000000000000000000000000000000000000000000000000000602082015250565b600061ace9602183618849565b915061acf48261ac8d565b604082019050919050565b6000602082019050818103600083015261ad188161acdc565b9050919050565b7f6661696c656420746f2076657269667920636c69656e74537461746500000000600082015250565b600061ad55601c83618849565b915061ad608261ad1f565b602082019050919050565b6000602082019050818103600083015261ad848161ad48565b9050919050565b6000608082019050818103600083015261ada58187618895565b9050818103602083015261adb9818661a31c565b9050818103604083015261adcd818561a31c565b9050818103606083015261ade1818461a31c565b905095945050505050565b7f7061636b65742064657374696e6174696f6e20706f727420646f65736e27742060008201527f6d617463682074686520636f756e7465727061727479277320706f7274000000602082015250565b600061ae48603d83618849565b915061ae538261adec565b604082019050919050565b6000602082019050818103600083015261ae778161ae3b565b9050919050565b7f7061636b65742064657374696e6174696f6e204368616e6e656c456e6420646f60008201527f65736e2774206d617463682074686520636f756e74657270617274792773206360208201527f68616e6e656c0000000000000000000000000000000000000000000000000000604082015250565b600061af00604683618849565b915061af0b8261ae7e565b606082019050919050565b6000602082019050818103600083015261af2f8161aef3565b9050919050565b6000602082019050818103600083015261af50818461a31c565b905092915050565b60008151905061af6781619439565b92915050565b60006040828403121561af835761af8261a95b565b5b61af8d604061a914565b9050600061af9d8482850161af58565b600083015250602061afb18482850161af58565b60208301525092915050565b60008115159050919050565b61afd28161afbd565b811461afdd57600080fd5b50565b60008151905061afef8161afc9565b92915050565b6000806060838503121561b00c5761b00b61868e565b5b600061b01a8582860161af6d565b925050604061b02b8582860161afe0565b9150509250929050565b7f726563656976696e6720636861696e20626c6f636b20686569676874203e3d2060008201527f7061636b65742074696d656f7574206865696768740000000000000000000000602082015250565b600061b091603583618849565b915061b09c8261b035565b604082019050919050565b6000602082019050818103600083015261b0c08161b084565b9050919050565b60408201600082015161b0dd6000850182619a13565b50602082015161b0f06020850182619a13565b50505050565b6000606082019050818103600083015261b110818561a31c565b905061b11f602083018461b0c7565b9392505050565b6000806040838503121561b13d5761b13c61868e565b5b600061b14b8582860161af58565b925050602061b15c8582860161afe0565b9150509250929050565b7f636f6e73656e7375735374617465206e6f7420666f756e640000000000000000600082015250565b600061b19c601883618849565b915061b1a78261b166565b602082019050919050565b6000602082019050818103600083015261b1cb8161b18f565b9050919050565b7f726563656976696e6720636861696e20626c6f636b2074696d657374616d702060008201527f3e3d207061636b65742074696d656f75742074696d657374616d700000000000602082015250565b600061b22e603b83618849565b915061b2398261b1d2565b604082019050919050565b6000602082019050818103600083015261b25d8161b221565b9050919050565b7f7061636b65742073657175656e636520213d206e6578742073656e642073657160008201527f75656e6365000000000000000000000000000000000000000000000000000000602082015250565b600061b2c0602583618849565b915061b2cb8261b264565b604082019050919050565b6000602082019050818103600083015261b2ef8161b2b3565b9050919050565b600060208201905061b30b60008301846196d4565b92915050565b7f7061636b657420636f6d6d69746d656e74206e6f7420666f756e640000000000600082015250565b600061b347601b83618849565b915061b3528261b311565b602082019050919050565b6000602082019050818103600083015261b3768161b33a565b9050919050565b7f636f6d6d69746d656e7420627974657320617265206e6f7420657175616c0000600082015250565b600061b3b3601e83618849565b915061b3be8261b37d565b602082019050919050565b6000602082019050818103600083015261b3e28161b3a6565b9050919050565b7f6661696c656420746f20766572696679207061636b65742061636b6e6f776c6560008201527f6467656d656e7420636f6d6d69746d656e740000000000000000000000000000602082015250565b600061b445603283618849565b915061b4508261b3e9565b604082019050919050565b6000602082019050818103600083015261b4748161b438565b9050919050565b7f7061636b65742073657175656e636520213d206e6578742061636b207365717560008201527f656e636500000000000000000000000000000000000000000000000000000000602082015250565b600061b4d7602483618849565b915061b4e28261b47b565b604082019050919050565b6000602082019050818103600083015261b5068161b4ca565b9050919050565b6000823560016101200383360303811261b52a5761b529618fa3565b5b80830191505092915050565b60006020828403121561b54c5761b54b61868e565b5b600061b55a84828501618c36565b91505092915050565b7f756e7265676973746572656420636c69656e7420747970650000000000000000600082015250565b600061b599601883618849565b915061b5a48261b563565b602082019050919050565b6000602082019050818103600083015261b5c88161b58c565b9050919050565b6000823560016101200383360303811261b5ec5761b5eb619a2c565b5b82810191505092915050565b600061b6076020840184618c36565b905092915050565b6005811061b6205761b61f619096565b5b50565b600081905061b6318261b60f565b919050565b600061b6418261b623565b9050919050565b61b6518161b636565b82525050565b61b6608161a0ed565b811461b66b57600080fd5b50565b60008135905061b67d8161b657565b92915050565b600061b692602084018461b66e565b905092915050565b61b6a38161a0ed565b82525050565b6000610120830161b6bd6000840184619a31565b858303600087015261b6d0838284619aa5565b9250505061b6e1602084018461b5f8565b61b6ee602086018261b648565b5061b6fc6040840184619b73565b61b7096040860182619b7e565b5061b7176080840184619b73565b61b7246080860182619b7e565b5061b73260c084018461b683565b61b73f60c086018261b69a565b5061b74d60e084018461b683565b61b75a60e086018261b69a565b5061b769610100840184619ad2565b85830361010087015261b77d838284619b46565b925050508091505092915050565b60008235600160600383360303811261b7a75761b7a6619a2c565b5b82810191505092915050565b60008135905061b7c28161966c565b92915050565b600061b7d7602084018461b7b3565b905092915050565b61b7e881619662565b82525050565b60006060830161b801600084018461b683565b61b80e600086018261b69a565b5061b81c602084018461b7c8565b61b829602086018261b7df565b5061b8376040840184619ad2565b858303604087015261b84a838284619b46565b925050508091505092915050565b60006040830161b86b600084018461b5cf565b848203600086015261b87d828261b6a9565b91505061b88d602084018461b78b565b848203602086015261b89f828261b7ee565b9150508091505092915050565b6000604082019050818103600083015261b8c68185618895565b9050818103602083015261b8da818461b858565b90509392505050565b600061b8f661b8f18461a96a565b61a914565b90508281526020810184848401111561b9125761b91161a965565b5b61b91d84828561885a565b509392505050565b600082601f83011261b93a5761b939618cc9565b5b815161b94a84826020860161b8e3565b91505092915050565b60008151905061b96281618c26565b92915050565b60008151905061b9778161b657565b92915050565b600067ffffffffffffffff82111561b9985761b99761a04f565b5b61b9a182618884565b9050602081019050919050565b600061b9c161b9bc8461b97d565b61a914565b90508281526020810184848401111561b9dd5761b9dc61a965565b5b61b9e884828561885a565b509392505050565b600082601f83011261ba055761ba04618cc9565b5b815161ba1584826020860161b9ae565b91505092915050565b6000610120828403121561ba355761ba3461a95b565b5b61ba3f60e061a914565b9050600082015167ffffffffffffffff81111561ba5f5761ba5e61a960565b5b61ba6b8482850161b925565b600083015250602061ba7f8482850161b953565b602083015250604061ba938482850161af6d565b604083015250608061baa78482850161af6d565b60608301525060c061babb8482850161b968565b60808301525060e061bacf8482850161b968565b60a08301525061010082015167ffffffffffffffff81111561baf45761baf361a960565b5b61bb008482850161b9f0565b60c08301525092915050565b60006060828403121561bb225761bb2161a95b565b5b61bb2c606061a914565b9050600061bb3c8482850161b968565b600083015250602061bb5084828501619683565b602083015250604082015167ffffffffffffffff81111561bb745761bb7361a960565b5b61bb808482850161b9f0565b60408301525092915050565b60006060828403121561bba25761bba161a95b565b5b61bbac604061a914565b9050600082015167ffffffffffffffff81111561bbcc5761bbcb61a960565b5b61bbd88482850161bb0c565b600083015250602061bbec8482850161af6d565b60208301525092915050565b60008060006060848603121561bc115761bc1061868e565b5b600084015167ffffffffffffffff81111561bc2f5761bc2e618693565b5b61bc3b8682870161ba1e565b935050602084015167ffffffffffffffff81111561bc5c5761bc5b618693565b5b61bc688682870161bb8c565b925050604061bc798682870161afe0565b9150509250925092565b7f6661696c656420746f2063726561746520636c69656e74000000000000000000600082015250565b600061bcb9601783618849565b915061bcc48261bc83565b602082019050919050565b6000602082019050818103600083015261bce88161bcac565b9050919050565b6000606082019050818103600083015261bd098185618895565b905061bd18602083018461b0c7565b9392505050565b7f6368616e6e656c207374617465206973206e6f74205452594f50454e00000000600082015250565b600061bd55601c83618849565b915061bd608261bd1f565b602082019050919050565b6000602082019050818103600083015261bd848161bd48565b9050919050565b7f636f6e6e656374696f6e207374617465206973206e6f74205452594f50454e00600082015250565b600061bdc1601f83618849565b915061bdcc8261bd8b565b602082019050919050565b6000602082019050818103600083015261bdf08161bdb4565b9050919050565b6000608082019050818103600083015261be1281878961a2ef565b9050818103602083015261be26818661a31c565b9050818103604083015261be3a818561a31c565b9050818103606083015261be4e818461a31c565b90509695505050505050565b7f636f6e6e656374696f6e207374617465206973206e6f7420494e4954206f722060008201527f5452594f50454e00000000000000000000000000000000000000000000000000602082015250565b600061beb6602783618849565b915061bec18261be5a565b604082019050919050565b6000602082019050818103600083015261bee58161bea9565b9050919050565b60008235600160400383360303811261bf085761bf07618fa3565b5b80830191505092915050565b600061bf20368361aaec565b9050919050565b7f636f6e6e656374696f6e20737461746520697320696e20494e4954206275742060008201527f7468652070726f76696465642076657273696f6e206973206e6f74207375707060208201527f6f72746564000000000000000000000000000000000000000000000000000000604082015250565b600061bfa9604583618849565b915061bfb48261bf27565b606082019050919050565b6000602082019050818103600083015261bfd88161bf9c565b9050919050565b7f636f6e6e656374696f6e20737461746520697320696e205452594f50454e206260008201527f7574207468652070726f76696465642076657273696f6e206973206e6f74207360208201527f657420696e207468652070726576696f757320636f6e6e656374696f6e20766560408201527f7273696f6e730000000000000000000000000000000000000000000000000000606082015250565b600061c087606683618849565b915061c0928261bfdf565b608082019050919050565b6000602082019050818103600083015261c0b68161c07a565b9050919050565b7f636c69656e74496d706c20616c72656164792065786973747300000000000000600082015250565b600061c0f3601983618849565b915061c0fe8261c0bd565b602082019050919050565b6000602082019050818103600083015261c1228161c0e6565b9050919050565b7f61636b6e6f776c656467656d656e742063616e6e6f7420626520656d70747900600082015250565b600061c15f601f83618849565b915061c16a8261c129565b602082019050919050565b6000602082019050818103600083015261c18e8161c152565b9050919050565b7f61636b6e6f776c656467656d656e7420666f72207061636b657420616c72656160008201527f6479206578697374730000000000000000000000000000000000000000000000602082015250565b600061c1f1602983618849565b915061c1fc8261c195565b604082019050919050565b6000602082019050818103600083015261c2208161c1e4565b9050919050565b600082825260208201905092915050565b600061c244838561c227565b935061c251838584619049565b61c25a83618884565b840190509392505050565b6000604082019050818103600083015261c27f8186619bbd565b9050818103602083015261c29481848661c238565b9050949350505050565b60008235600160a00383360303811261c2ba5761c2b9618fa3565b5b80830191505092915050565b6000808335600160200384360303811261c2e35761c2e2618fa3565b5b80840192508235915067ffffffffffffffff82111561c3055761c304618fa8565b5b60208301925060208202360383131561c3215761c320618fad565b5b509250929050565b7f636f6e6e656374696f6e486f7073206c656e677468206d757374206265203100600082015250565b600061c35f601f83618849565b915061c36a8261c329565b602082019050919050565b6000602082019050818103600083015261c38e8161c352565b9050919050565b7f73696e676c652076657273696f6e206d757374206265206e65676f746961746560008201527f64206f6e20636f6e6e656374696f6e206265666f7265206f70656e696e67206360208201527f68616e6e656c0000000000000000000000000000000000000000000000000000604082015250565b600061c417604683618849565b915061c4228261c395565b606082019050919050565b6000602082019050818103600083015261c4468161c40a565b9050919050565b6005811061c45a57600080fd5b50565b60008135905061c46c8161c44d565b92915050565b60006020828403121561c4885761c48761868e565b5b600061c4968482850161c45d565b91505092915050565b7f6368616e6e656c207374617465206d7573742053544154455f494e4954000000600082015250565b600061c4d5601d83618849565b915061c4e08261c49f565b602082019050919050565b6000602082019050818103600083015261c5048161c4c8565b9050919050565b6000813561c5188161c44d565b80915050919050565b60008160001b9050919050565b600060ff61c53b8461c521565b9350801983169250808416831791505092915050565b600061c55c82619d77565b9050919050565b6000819050919050565b61c5768261c551565b61c58961c5828261c563565b835461c52e565b8255505050565b6003811061c59d57600080fd5b50565b6000813561c5ad8161c590565b80915050919050565b60008160081b9050919050565b600061ff0061c5d18461c5b6565b9350801983169250808416831791505092915050565b600061c5f282619dbf565b9050919050565b6000819050919050565b61c60c8261c5e7565b61c61f61c6188261c5f9565b835461c5c3565b8255505050565b60008235600160400383360303811261c6425761c641618fa3565b5b80830191505092915050565b600081016000830161c6608185618fdb565b61c66b81838661a718565b50505050600181016020830161c6818185618fdb565b61c68c81838661a718565b505050505050565b61c69e828261c64e565b5050565b6000819050919050565b600081549050919050565b60008190506001806001038301049050919050565b60008190508160005260206000209050919050565b61c7117fffffffffffffffffffffffffffffffffffffffffffffffffffffffffffffffff8360200360080261a1d8565b815481168255505050565b61c7258161930a565b61c73083825461a203565b8083556000825550505050565b602084106000811461c79857601f84116001811461c7665761c75f868561a203565b835561c792565b61c76f8361930a565b61c78661c77b8761a07e565b82016001830161a16f565b61c790878561c71c565b505b5061c7e5565b61c7a18261930a565b61c7aa8661a07e565b8101601f8716801561c7c45761c7c3816001840361c6e1565b5b61c7d861c7d08861a07e565b84018361a16f565b6001886002021785555050505b5050505050565b6801000000000000000084111561c8065761c80561a04f565b5b602083106000811461c85157602085106000811461c82f5761c828868561a203565b835561c84b565b8360ff191693508361c8408461930a565b556001866002020183555b5061c85b565b6001856002020182555b5050505050565b805461c86d81619160565b8084111561c8825761c8818482848661c7ec565b5b8084101561c8975761c8968482848661c73d565b5b50505050565b8181101561c8bb5761c8b060008261a157565b60018101905061c89d565b5050565b61c8ca60008261c862565b50565b6000821461c8de5761c8dd61a6e9565b5b61c8e78161c8bf565b5050565b5b8181101561c90a5761c8ff60008261c8cd565b60018101905061c8ec565b5050565b8183101561c9475761c91f8261c6b7565b61c9288461c6b7565b61c9318361c6cc565b81810183820161c941818361c8eb565b50505050505b505050565b6801000000000000000082111561c9665761c96561a04f565b5b61c96f8161c6ac565b82825561c97d83828461c90e565b505050565b600082905092915050565b61c997838361c982565b61c9a1818361c94c565b61c9aa8361c6a2565b61c9b38361c6cc565b60005b8381101561c9ec5761c9c88387618fdb565b61c9d381838661a718565b602085019450600184019350505060018101905061c9b6565b50505050505050565b61ca0083838361c98d565b505050565b60008101600083018061ca178161c50b565b905061ca23818461c56d565b50505060008101602083018061ca388161c5a0565b905061ca44818461c603565b505050600181016040830161ca59818561c626565b61ca63818461c694565b505050600381016060830161ca78818561c2c6565b61ca8381838661c9f5565b50505050600481016080830161ca998185618fdb565b61caa481838661a718565b505050505050565b61cab6828261ca05565b5050565b600060a082019050818103600083015261cad5818b8d61a2ef565b9050818103602083015261cae9818a618895565b9050818103604083015261cafe81888a61a2ef565b9050818103606083015261cb1381868861a2ef565b9050818103608083015261cb2881848661a2ef565b90509a9950505050505050505050565b7f6368616e6e656c207374617465206d7573742062652053544154455f5452594f60008201527f50454e0000000000000000000000000000000000000000000000000000000000602082015250565b600061cb94602383618849565b915061cb9f8261cb38565b604082019050919050565b6000602082019050818103600083015261cbc38161cb87565b9050919050565b60008135905061cbd98161c590565b92915050565b60006020828403121561cbf55761cbf461868e565b5b600061cc038482850161cbca565b91505092915050565b7f4f776e61626c653a206e6577206f776e657220697320746865207a65726f206160008201527f6464726573730000000000000000000000000000000000000000000000000000602082015250565b600061cc68602683618849565b915061cc738261cc0c565b604082019050919050565b6000602082019050818103600083015261cc978161cc5b565b9050919050565b60006040830161ccb16000840184619a31565b858303600087015261ccc4838284619aa5565b9250505061ccd56020840184619ad2565b858303602087015261cce8838284619b46565b925050508091505092915050565b6000604082019050818103600083015261cd108185618895565b9050818103602083015261cd24818461cc9e565b90509392505050565b600067ffffffffffffffff82111561cd485761cd4761a04f565b5b602082029050602081019050919050565b600061cd6c61cd678461cd2d565b61a914565b9050808382526020820190506020840283018581111561cd8f5761cd8e618cd3565b5b835b8181101561cdd657805167ffffffffffffffff81111561cdb45761cdb3618cc9565b5b80860161cdc1898261bb8c565b8552602085019450505060208101905061cd91565b5050509392505050565b600082601f83011261cdf55761cdf4618cc9565b5b815161ce0584826020860161cd59565b91505092915050565b60008060006060848603121561ce275761ce2661868e565b5b600084015167ffffffffffffffff81111561ce455761ce44618693565b5b61ce518682870161ba1e565b935050602084015167ffffffffffffffff81111561ce725761ce71618693565b5b61ce7e8682870161cde0565b925050604061ce8f8682870161afe0565b9150509250925092565b7f6661696c656420746f2075706461746520636c69656e74000000000000000000600082015250565b600061cecf601783618849565b915061ceda8261ce99565b602082019050919050565b6000602082019050818103600083015261cefe8161cec2565b9050919050565b600061cf108261a0ed565b91507fffffffffffffffffffffffffffffffffffffffffffffffffffffffffffffffff820361cf425761cf41619931565b5b600182019050919050565b7f636f6d6d69746d656e74732f706f7274732f0000000000000000000000000000600082015250565b600061cf83601283618849565b915061cf8e8261cf4d565b602082019050919050565b7f2f6368616e6e656c732f00000000000000000000000000000000000000000000600082015250565b600061cfcf600a83618849565b915061cfda8261cf99565b602082019050919050565b7f2f73657175656e6365732f000000000000000000000000000000000000000000600082015250565b600061d01b600b83618849565b915061d0268261cfe5565b602082019050919050565b600060c082019050818103600083015261d04a8161cf76565b9050818103602083015261d05e8186618895565b9050818103604083015261d0718161cfc2565b9050818103606083015261d0858185618895565b9050818103608083015261d0988161d00e565b905081810360a083015261d0ac8184618895565b9050949350505050565b6040820161d0c760008301836199fc565b61d0d46000850182619a13565b5061d0e260208301836199fc565b61d0ef6020850182619a13565b50505050565b6000815461d10281619160565b61d10c818661c227565b9450600182166000811461d127576001811461d13d5761d170565b60ff19831686528115156020028601935061d170565b61d1468561a733565b60005b8381101561d1685781548189015260018201915060208101905061d149565b808801955050505b50505092915050565b600061d18482619728565b61d18e818561c227565b935061d19e81856020860161885a565b61d1a781618884565b840191505092915050565b600061012082019050818103600083015261d1cd818c61a31c565b905061d1dc602083018b61d0b6565b61d1e9606083018a6196c5565b61d1f660808301896196c5565b81810360a083015261d20981878961c238565b905081810360c083015261d21d818661d0f5565b905081810360e083015261d231818561d179565b905081810361010083015261d246818461d179565b90509a9950505050505050505050565b60006020828403121561d26c5761d26b61868e565b5b600061d27a8482850161afe0565b91505092915050565b6000819050919050565b600061d2a861d2a361d29e8461d283565b61a0f7565b619425565b9050919050565b61d2b88161d28d565b82525050565b600061012082019050818103600083015261d2d9818c61a31c565b905061d2e8602083018b61d0b6565b61d2f5606083018a61d2af565b61d302608083018961d2af565b81810360a083015261d31581878961c238565b905081810360c083015261d329818661d0f5565b905081810360e083015261d33d818561d179565b905081810361010083015261d352818461d179565b90509a9950505050505050505050565b60008160001c9050919050565b600060ff82169050919050565b600061d38f61d38a8361d362565b61d36f565b9050919050565b60008160081c9050919050565b600060ff82169050919050565b600061d3c361d3be8361d396565b61d3a3565b9050919050565b6000815461d3d781619160565b61d3e18186619a94565b9450600182166000811461d3fc576001811461d4125761d445565b60ff19831686528115156020028601935061d445565b61d41b8561930a565b60005b8381101561d43d5781548189015260018201915060208101905061d41e565b808801955050505b50505092915050565b6000604083016000808401858303600087015261d46b838261d3ca565b92505060018401858303602087015261d484838261d3ca565b925050819250505092915050565b600061d49e838361d3ca565b905092915050565b6000600182019050919050565b600061d4be8261c6ac565b61d4c88185619e7b565b93508360208202850161d4da8561c6cc565b8060005b8581101561d5155784840389528161d4f6858261d492565b945061d5018361d4a6565b925060208a0199505060018101905061d4de565b50829750879550505050505092915050565b600060a08301600080840154905061d53e8161d37c565b61d54b6000870182619d9c565b5061d5558161d3b0565b61d5626020870182619de4565b5060018401858303604087015261d579838261d44e565b92505060038401858303606087015261d592838261d4b3565b92505060048401858303608087015261d5ab838261d3ca565b925050819250505092915050565b6000602082019050818103600083015261d5d3818461d527565b905092915050565b7f636f6e6e656374696f6e2d000000000000000000000000000000000000000000600082015250565b600061d611600b83618849565b915061d61c8261d5db565b602082019050919050565b6000604082019050818103600083015261d6408161d604565b9050818103602083015261d6548184618895565b905092915050565b7f4e487b7100000000000000000000000000000000000000000000000000000000600052600160045260246000fd5b61d6948261883e565b67ffffffffffffffff81111561d6ad5761d6ac61a04f565b5b61d6b78254619160565b61d6c282828561a192565b600060209050601f83116001811461d6f5576000841561d6e3578287015190505b61d6ed858261a203565b86555061d755565b601f19841661d7038661930a565b60005b8281101561d72b5784890151825560018201915060208501945060208101905061d706565b8683101561d748578489015161d744601f89168261a1e5565b8355505b6001600288020188555050505b505050505050565b600081519050919050565b600082825260208201905092915050565b6000819050602082019050919050565b6000604083016000830151848203600086015261d7a68282619df3565b9150506020830151848203602086015261d7c08282619ebd565b9150508091505092915050565b600061d7d9838361d789565b905092915050565b6000602082019050919050565b600061d7f98261d75d565b61d803818561d768565b93508360208202850161d8158561d779565b8060005b8581101561d851578484038952815161d832858261d7cd565b945061d83d8361d7e1565b925060208a0199505060018101905061d819565b50829750879550505050505092915050565b6004811061d8745761d873619096565b5b50565b600081905061d8858261d863565b919050565b600061d8958261d877565b9050919050565b61d8a58161d88a565b82525050565b600061d8b682619728565b61d8c08185619b35565b935061d8d081856020860161885a565b61d8d981618884565b840191505092915050565b6000606083016000830151848203600086015261d9018282619df3565b9150506020830151848203602086015261d91b8282619df3565b9150506040830151848203604086015261d935828261d8ab565b9150508091505092915050565b600060a083016000830151848203600086015261d95f8282619df3565b9150506020830151848203602086015261d979828261d7ee565b915050604083015161d98e604086018261d89c565b506060830151848203606086015261d9a6828261d8e4565b915050608083015161d9bb6080860182619a13565b508091505092915050565b6000602082019050818103600083015261d9e0818461d942565b905092915050565b600061012082019050818103600083015261da03818b61a31c565b905061da12602083018a61b0c7565b61da1f606083018961d2af565b61da2c608083018861d2af565b81810360a083015261da3e818761d179565b905081810360c083015261da52818661d0f5565b905081810360e083015261da66818561d179565b905081810361010083015261da7b818461d179565b90509998505050505050505050565b7f636c69656e74732f000000000000000000000000000000000000000000000000600082015250565b600061dac0600883618849565b915061dacb8261da8a565b602082019050919050565b7f2f636c69656e7453746174650000000000000000000000000000000000000000600082015250565b600061db0c600c83618849565b915061db178261dad6565b602082019050919050565b6000606082019050818103600083015261db3b8161dab3565b9050818103602083015261db4f8184618895565b9050818103604083015261db628161daff565b905092915050565b600081549050919050565b60008190508160005260206000209050919050565b6000604083016000808401858303600087015261dba7838261d3ca565b92505060018401858303602087015261dbc0838261d4b3565b925050819250505092915050565b600061dbda838361db8a565b905092915050565b6000600282019050919050565b600061dbfa8261db6a565b61dc04818561d768565b93508360208202850161dc168561db75565b8060005b8581101561dc515784840389528161dc32858261dbce565b945061dc3d8361dbe2565b925060208a0199505060018101905061dc1a565b50829750879550505050505092915050565b600060ff82169050919050565b600061dc8361dc7e8361d362565b61dc63565b9050919050565b6000815461dc9781619160565b61dca18186619b35565b9450600182166000811461dcbc576001811461dcd25761dd05565b60ff19831686528115156020028601935061dd05565b61dcdb8561a733565b60005b8381101561dcfd5781548189015260018201915060208101905061dcde565b808801955050505b50505092915050565b6000606083016000808401858303600087015261dd2b838261d3ca565b92505060018401858303602087015261dd44838261d3ca565b92505060028401858303604087015261dd5d838261dc8a565b925050819250505092915050565b600067ffffffffffffffff82169050919050565b600061dd9261dd8d8361d362565b61dd6b565b9050919050565b600060a083016000808401858303600087015261ddb6838261d3ca565b92505060018401858303602087015261ddcf838261dbef565b9250506002840154905061dde28161dc70565b61ddef604087018261d89c565b5060038401858303606087015261de06838261dd0e565b9250506006840154905061de198161dd7f565b61de266080870182619a13565b50819250505092915050565b6000602082019050818103600083015261de4c818461dd99565b905092915050565b7f61636b732f706f7274732f000000000000000000000000000000000000000000600082015250565b600061de8a600b83618849565b915061de958261de54565b602082019050919050565b600060c082019050818103600083015261deb98161de7d565b9050818103602083015261decd8186618895565b9050818103604083015261dee08161cfc2565b9050818103606083015261def48185618895565b9050818103608083015261df078161d00e565b905081810360a083015261df1b8184618895565b9050949350505050565b61df2e8161b636565b82525050565b7f2d00000000000000000000000000000000000000000000000000000000000000600082015250565b600061df6a600183618849565b915061df758261df34565b602082019050919050565b600060608201905061df95600083018561df25565b818103602083015261dfa68161df5d565b9050818103604083015261dfba8184618895565b90509392505050565b60408201600082015161dfd96000850182619a13565b50602082015161dfec6020850182619a13565b50505050565b600061012083016000830151848203600086015261e0108282619df3565b915050602083015161e025602086018261b648565b50604083015161e038604086018261dfc3565b50606083015161e04b608086018261dfc3565b50608083015161e05e60c086018261b69a565b5060a083015161e07160e086018261b69a565b5060c083015184820361010086015261e08a828261d8ab565b9150508091505092915050565b6000602082019050818103600083015261e0b1818461dff2565b905092915050565b600060608301600083015161e0d1600086018261b69a565b50602083015161e0e4602086018261b7df565b506040830151848203604086015261e0fc828261d8ab565b9150508091505092915050565b6000602082019050818103600083015261e123818461e0b9565b905092915050565b7f4f776e61626c653a2063616c6c6572206973206e6f7420746865206f776e6572600082015250565b600061e161602083618849565b915061e16c8261e12b565b602082019050919050565b6000602082019050818103600083015261e1908161e154565b9050919050565b6000604083016000830151848203600086015261e1b48282619df3565b9150506020830151848203602086015261e1ce8282619ebd565b9150508091505092915050565b6000602082019050818103600083015261e1f5818461e197565b905092915050565b7f6368616e6e656c2d000000000000000000000000000000000000000000000000600082015250565b600061e233600883618849565b915061e23e8261e1fd565b602082019050919050565b6000604082019050818103600083015261e2628161e226565b9050818103602083015261e2768184618895565b905092915050565b7f4e487b7100000000000000000000000000000000000000000000000000000000600052601260045260246000fd5b600061e2b882619425565b915061e2c383619425565b9250828201905067ffffffffffffffff81111561e2e35761e2e2619931565b5b92915050565b600061e2f482619425565b915061e2ff83619425565b9250828203905067ffffffffffffffff81111561e31f5761e31e619931565b5b92915050565b600061e33082619425565b915061e33b83619425565b92508261e34b5761e34a61e27e565b5b828204905092915050565b7f6368616e6e656c456e64732f706f7274732f0000000000000000000000000000600082015250565b600061e38c601283618849565b915061e3978261e356565b602082019050919050565b6000608082019050818103600083015261e3bb8161e37f565b9050818103602083015261e3cf8185618895565b9050818103604083015261e3e28161cfc2565b9050818103606083015261e3f68184618895565b90509392505050565b7f636f6e6e656374696f6e732f0000000000000000000000000000000000000000600082015250565b600061e435600c83618849565b915061e4408261e3ff565b602082019050919050565b6000604082019050818103600083015261e4648161e428565b9050818103602083015261e4788184618895565b905092915050565b7f2f636f6e73656e7375735374617465732f000000000000000000000000000000600082015250565b600061e4b6601183618849565b915061e4c18261e480565b602082019050919050565b600060c082019050818103600083015261e4e58161dab3565b9050818103602083015261e4f98186618895565b9050818103604083015261e50c8161e4a9565b9050818103606083015261e5208185618895565b9050818103608083015261e5338161df5d565b905081810360a083015261e5478184618895565b905094935050505056fea26469706673582212209d4fd2c6aef14b6b9f81be6bfd775479558bbaca7644f01c377ae2fd387e3e7a64736f6c63430008110033",
  "linkReferences": {},
  "deployedLinkReferences": {}
}