{
  "contractName": "MockTransfer",
  "abi": [
    {
      "inputs": [
        {
          "internalType": "contract IBCHandler",
          "name": "ibcHandler_",
          "type": "address"
        }
      ],
      "stateMutability": "nonpayable",
      "type": "constructor"
    },
    {
      "anonymous": false,
      "inputs": [
        {
          "indexed": false,
          "internalType": "address",
          "name": "",
          "type": "address"
        },
        {
          "indexed": false,
          "internalType": "string",
          "name": "",
          "type": "string"
        },
        {
          "indexed": false,
          "internalType": "uint256",
          "name": "",
          "type": "uint256"
        }
      ],
      "name": "Burn",
      "type": "event"
    },
    {
      "anonymous": false,
      "inputs": [
        {
          "indexed": false,
          "internalType": "address",
          "name": "",
          "type": "address"
        },
        {
          "indexed": false,
          "internalType": "string",
          "name": "",
          "type": "string"
        },
        {
          "indexed": false,
          "internalType": "uint256",
          "name": "",
          "type": "uint256"
        }
      ],
      "name": "Mint",
      "type": "event"
    },
    {
      "anonymous": false,
      "inputs": [
        {
          "indexed": false,
          "internalType": "address",
          "name": "",
          "type": "address"
        },
        {
          "indexed": false,
          "internalType": "address",
          "name": "",
          "type": "address"
        },
        {
          "indexed": false,
          "internalType": "string",
          "name": "",
          "type": "string"
        },
        {
          "indexed": false,
          "internalType": "uint256",
          "name": "",
          "type": "uint256"
        }
      ],
      "name": "TransferFrom",
      "type": "event"
    },
    {
      "inputs": [
        {
          "components": [
            {
              "internalType": "uint64",
              "name": "sequence",
              "type": "uint64"
            },
            {
              "internalType": "string",
              "name": "sourcePort",
              "type": "string"
            },
            {
              "internalType": "string",
              "name": "sourceChannel",
              "type": "string"
            },
            {
              "internalType": "string",
              "name": "destinationPort",
              "type": "string"
            },
            {
              "internalType": "string",
              "name": "destinationChannel",
              "type": "string"
            },
            {
              "internalType": "bytes",
              "name": "data",
              "type": "bytes"
            },
            {
              "components": [
                {
                  "internalType": "uint64",
                  "name": "revisionNumber",
                  "type": "uint64"
                },
                {
                  "internalType": "uint64",
                  "name": "revisionHeight",
                  "type": "uint64"
                }
              ],
              "internalType": "struct Height.Data",
              "name": "timeoutHeight",
              "type": "tuple"
            },
            {
              "internalType": "uint64",
              "name": "timeoutTimestamp",
              "type": "uint64"
            }
          ],
          "internalType": "struct Packet.Data",
          "name": "packet",
          "type": "tuple"
        },
        {
          "internalType": "bytes",
          "name": "acknowledgement",
          "type": "bytes"
        },
        {
          "internalType": "address",
          "name": "relayer",
          "type": "address"
        }
      ],
      "name": "onAcknowledgementPacket",
      "outputs": [],
      "stateMutability": "nonpayable",
      "type": "function"
    },
    {
      "inputs": [
        {
          "internalType": "string",
          "name": "portId",
          "type": "string"
        },
        {
          "internalType": "string",
          "name": "channelId",
          "type": "string"
        }
      ],
      "name": "onChanCloseConfirm",
      "outputs": [],
      "stateMutability": "nonpayable",
      "type": "function"
    },
    {
      "inputs": [
        {
          "internalType": "string",
          "name": "portId",
          "type": "string"
        },
        {
          "internalType": "string",
          "name": "channelId",
          "type": "string"
        }
      ],
      "name": "onChanCloseInit",
      "outputs": [],
      "stateMutability": "nonpayable",
      "type": "function"
    },
    {
      "inputs": [
        {
          "internalType": "string",
          "name": "portId",
          "type": "string"
        },
        {
          "internalType": "string",
          "name": "channelId",
          "type": "string"
        },
        {
          "internalType": "string",
          "name": "counterpartyVersion",
          "type": "string"
        }
      ],
      "name": "onChanOpenAck",
      "outputs": [],
      "stateMutability": "nonpayable",
      "type": "function"
    },
    {
      "inputs": [
        {
          "internalType": "string",
          "name": "portId",
          "type": "string"
        },
        {
          "internalType": "string",
          "name": "channelId",
          "type": "string"
        }
      ],
      "name": "onChanOpenConfirm",
      "outputs": [],
      "stateMutability": "nonpayable",
      "type": "function"
    },
    {
      "inputs": [
        {
          "internalType": "enum Channel.Order",
          "name": "",
          "type": "uint8"
        },
        {
          "internalType": "string[]",
          "name": "",
          "type": "string[]"
        },
        {
          "internalType": "string",
          "name": "",
          "type": "string"
        },
        {
          "internalType": "string",
          "name": "channelId",
          "type": "string"
        },
        {
          "components": [
            {
              "internalType": "string",
              "name": "portId",
              "type": "string"
            },
            {
              "internalType": "string",
              "name": "channelId",
              "type": "string"
            }
          ],
          "internalType": "struct ChannelCounterparty.Data",
          "name": "",
          "type": "tuple"
        },
        {
          "internalType": "string",
          "name": "",
          "type": "string"
        }
      ],
      "name": "onChanOpenInit",
      "outputs": [],
      "stateMutability": "nonpayable",
      "type": "function"
    },
    {
      "inputs": [
        {
          "internalType": "enum Channel.Order",
          "name": "",
          "type": "uint8"
        },
        {
          "internalType": "string[]",
          "name": "",
          "type": "string[]"
        },
        {
          "internalType": "string",
          "name": "",
          "type": "string"
        },
        {
          "internalType": "string",
          "name": "channelId",
          "type": "string"
        },
        {
          "components": [
            {
              "internalType": "string",
              "name": "portId",
              "type": "string"
            },
            {
              "internalType": "string",
              "name": "channelId",
              "type": "string"
            }
          ],
          "internalType": "struct ChannelCounterparty.Data",
          "name": "",
          "type": "tuple"
        },
        {
          "internalType": "string",
          "name": "",
          "type": "string"
        },
        {
          "internalType": "string",
          "name": "",
          "type": "string"
        }
      ],
      "name": "onChanOpenTry",
      "outputs": [],
      "stateMutability": "nonpayable",
      "type": "function"
    },
    {
      "inputs": [
        {
          "components": [
            {
              "internalType": "uint64",
              "name": "sequence",
              "type": "uint64"
            },
            {
              "internalType": "string",
              "name": "sourcePort",
              "type": "string"
            },
            {
              "internalType": "string",
              "name": "sourceChannel",
              "type": "string"
            },
            {
              "internalType": "string",
              "name": "destinationPort",
              "type": "string"
            },
            {
              "internalType": "string",
              "name": "destinationChannel",
              "type": "string"
            },
            {
              "internalType": "bytes",
              "name": "data",
              "type": "bytes"
            },
            {
              "components": [
                {
                  "internalType": "uint64",
                  "name": "revisionNumber",
                  "type": "uint64"
                },
                {
                  "internalType": "uint64",
                  "name": "revisionHeight",
                  "type": "uint64"
                }
              ],
              "internalType": "struct Height.Data",
              "name": "timeoutHeight",
              "type": "tuple"
            },
            {
              "internalType": "uint64",
              "name": "timeoutTimestamp",
              "type": "uint64"
            }
          ],
          "internalType": "struct Packet.Data",
          "name": "packet",
          "type": "tuple"
        },
        {
          "internalType": "address",
          "name": "relayer",
          "type": "address"
        }
      ],
      "name": "onRecvPacket",
      "outputs": [
        {
          "internalType": "bytes",
          "name": "acknowledgement",
          "type": "bytes"
        }
      ],
      "stateMutability": "nonpayable",
      "type": "function"
    },
    {
      "inputs": [
        {
          "internalType": "string",
          "name": "denom",
          "type": "string"
        },
        {
          "internalType": "uint64",
          "name": "amount",
          "type": "uint64"
        },
        {
          "internalType": "address",
          "name": "receiver",
          "type": "address"
        },
        {
          "internalType": "string",
          "name": "sourcePort",
          "type": "string"
        },
        {
          "internalType": "string",
          "name": "sourceChannel",
          "type": "string"
        },
        {
          "internalType": "uint64",
          "name": "timeoutHeight",
          "type": "uint64"
        }
      ],
      "name": "sendTransfer",
      "outputs": [],
      "stateMutability": "nonpayable",
      "type": "function"
    }
  ],
  "bytecode": "0x608060405234801562000010575f80fd5b506040516200280538038062002805833981016040819052620000339162000058565b5f80546001600160a01b0319166001600160a01b039290921691909117905562000087565b5f6020828403121562000069575f80fd5b81516001600160a01b038116811462000080575f80fd5b9392505050565b61277080620000955f395ff3fe608060405234801561000f575f80fd5b506004361061009f575f3560e01c8063a113e41111610072578063ed6cb8dd11610058578063ed6cb8dd1461011e578063ef4776d21461010a578063fb8b532e14610131575f80fd5b8063a113e4111461010a578063e74a1ac21461010a575f80fd5b80632301c6f5146100a357806344dd9638146100cc5780634942d1ac146100e1578063981389f2146100f7575b5f80fd5b6100b66100b1366004611aa1565b610144565b6040516100c39190611b39565b60405180910390f35b6100df6100da366004611bf4565b6103b4565b005b6100df6100ef366004611ce5565b505050505050565b6100df610105366004611d78565b61040f565b6100df610118366004611ebc565b50505050565b6100df61012c366004611f38565b61046c565b6100df61013f366004612002565b610756565b60605f61019061015760a0860186612078565b8080601f0160208091040260200160405190810160405280939291908181526020018383808284375f9201919091525061083292505050565b80516040805180820182525f808252602091820181905282518084019093528351835292810190820152919250505f61027d61024c6101d26020890189612078565b8080601f0160208091040260200160405190810160405280939291908181526020018383808284375f920191909152506102139250505060408a018a612078565b8080601f0160208091040260200160405190810160405280939291908181526020018383808284375f920191909152506108a892505050565b84516040805180820182525f808252602091820152815180830190925282518252918201918101919091529061099b565b90506102898282610a1f565b6103175761030d6103086102dc6102a360808a018a612078565b8080601f0160208091040260200160405190810160405280939291908181526020018383808284375f92019190915250610a3292505050565b60608601516102eb905f610a68565b6102f485610ae2565b876020015167ffffffffffffffff16610b4e565b610b96565b93505050506103ae565b5f6103738361036d61032c60608b018b612078565b8080601f0160208091040260200160405190810160405280939291908181526020018383808284375f920191909152506102139250505060808c018c612078565b90610c54565b90506103a76103086103925f8760600151610a6890919063ffffffff16565b83876020015167ffffffffffffffff16610ce1565b9450505050505b92915050565b30600186866040516103c79291906120bb565b90815260405190819003602001902080546001600160a01b039290921673ffffffffffffffffffffffffffffffffffffffff1990921691909117905550505050505050505050565b30600188886040516104229291906120bb565b90815260405190819003602001902080546001600160a01b039290921673ffffffffffffffffffffffffffffffffffffffff19909216919091179055505050505050505050505050565b6105246104e086868080601f0160208091040260200160405190810160405280939291908181526020018383808284375f9201919091525050604080516020601f8a0181900481028201810190925288815292508891508790819084018382808284375f920191909152506108a892505050565b61051e8b8b8080601f0160208091040260200160405190810160405280939291908181526020018383808284375f9201919091525061087c92505050565b90610d27565b6105bd576105b03361056a85858080601f0160208091040260200160405190810160405280939291908181526020018383808284375f92019190915250610a3292505050565b8b8b8080601f0160208091040260200160405190810160405280939291908181526020018383808284375f92019190915250505067ffffffffffffffff8c169050610b4e565b6105b8575f80fd5b61060f565b610607338a8a8080601f0160208091040260200160405190810160405280939291908181526020018383808284375f92019190915250505067ffffffffffffffff8b169050610d68565b61060f575f80fd5b6040805160a06020601f8c018190040282018101909252608081018a815261074b928291908d908d90819085018382808284375f9201919091525050509082525067ffffffffffffffff8a1660208201526040013360405160200161068c919060609190911b6bffffffffffffffffffffffff1916815260140190565b6040516020818303038152906040528152602001886040516020016106c9919060609190911b6bffffffffffffffffffffffff1916815260140190565b60405160208183030381529060405281525086868080601f0160208091040260200160405190810160405280939291908181526020018383808284375f9201919091525050604080516020601f8a0181900481028201810190925288815292508891508790819084018382808284375f92019190915250879250610d9c915050565b505050505050505050565b61079483838080601f0160208091040260200160405190810160405280939291908181526020018383808284375f92019190915250610fdf92505050565b610118576101186107ab61015760a0870187612078565b6107b86020870187612078565b8080601f0160208091040260200160405190810160405280939291908181526020018383808284375f920191909152506107f9925050506040880188612078565b8080601f0160208091040260200160405190810160405280939291908181526020018383808284375f9201919091525061104f92505050565b6108666040518060800160405280606081526020015f67ffffffffffffffff16815260200160608152602001606081525090565b5f61087460208485516110f7565b509392505050565b6040805180820182525f8082526020918201528151808301909252825182529182019181019190915290565b6040805180820182525f80825260208083018290528351808501855260018152602f60f81b818301908152855180870187528481528301939093528451808601909552518452830152906109949061087c906040805180820182525f8082526020918201528151808301909252865182528087019082015261036d9061087c9060408051808201825260018152602f60f81b6020808301918252835180850185525f808252908201528351808501909452915183529082015261036d9061087c906040805180820182525f80825260209182015281518083019092528d518252808e019082015261036d565b9392505050565b604080518082019091525f80825260208201528151835110156109bf5750816103ae565b60208083015190840151600191146109e65750815160208481015190840151829020919020145b8015610a17578251845185906109fd9083906120de565b9052508251602085018051610a139083906120f1565b9052505b509192915050565b5f610a2a83836111f9565b159392505050565b5f80600183604051610a449190612104565b908152604051908190036020019020546001600160a01b03169050806103ae575f80fd5b5f610a748260146120f1565b83511015610ac95760405162461bcd60e51b815260206004820152601560248201527f746f416464726573735f6f75744f66426f756e6473000000000000000000000060448201526064015b60405180910390fd5b5001602001516c01000000000000000000000000900490565b60605f825f015167ffffffffffffffff811115610b0157610b0161211f565b6040519080825280601f01601f191660200182016040528015610b2b576020820181803683370190505b5090505f602082019050610b47818560200151865f01516112db565b5092915050565b5f7e2f13b405289507e5b292600d30a61c92fec023b6ad05b7047c0c3b281ba11c85858585604051610b839493929190612133565b60405180910390a1506001949350505050565b6040805160018082528183019092526060915f91906020820181803683370190505090508215610c0a57600160f81b815f81518110610bd757610bd761216f565b60200101907effffffffffffffffffffffffffffffffffffffffffffffffffffffffffffff191690815f1a9053506103ae565b5f60f81b815f81518110610c2057610c2061216f565b60200101907effffffffffffffffffffffffffffffffffffffffffffffffffffffffffffff191690815f1a90535092915050565b805182516060915f91610c6791906120f1565b67ffffffffffffffff811115610c7f57610c7f61211f565b6040519080825280601f01601f191660200182016040528015610ca9576020820181803683370190505b5090505f602082019050610cc5818660200151875f01516112db565b845161087490610cd590836120f1565b602086015186516112db565b5f7fec4de1eef14af3ae5d77facf1ed7a9d3d50f6285573ee0ec155fc11217fc3442848484604051610d1593929190612183565b60405180910390a15060019392505050565b805182515f911115610d3a57505f6103ae565b8160200151836020015103610d51575060016103ae565b508051602092830151929091015181902091201490565b5f7ffdf096248d2b7b0aef506231c043107c21faacc26193881b3f0cdc8b5479692a848484604051610d1593929190612183565b5f80546040517f3000217a00000000000000000000000000000000000000000000000000000000815282916001600160a01b031690633000217a90610de790889088906004016121b4565b5f60405180830381865afa158015610e01573d5f803e3d5ffd5b505050506040513d5f823e601f3d908101601f19168201604052610e2891908101906123e5565b9150915080610e795760405162461bcd60e51b815260206004820152601160248201527f6368616e6e656c206e6f7420666f756e640000000000000000000000000000006044820152606401610ac0565b5f54604080516101008101918290527f582418b6000000000000000000000000000000000000000000000000000000009091526001600160a01b03909116906340835e4490808363582418b6610ed48b8b61010486016121b4565b602060405180830381865afa158015610eef573d5f803e3d5ffd5b505050506040513d601f19601f82011682018060405250810190610f1391906124be565b67ffffffffffffffff16815260208082018a905260408083018a905287018051516060840152510151608082015260a001610f4d8a611354565b815260200160405180604001604052805f67ffffffffffffffff1681526020018867ffffffffffffffff1681525081526020015f67ffffffffffffffff168152506040518263ffffffff1660e01b8152600401610faa91906124d9565b5f604051808303815f87803b158015610fc1575f80fd5b505af1158015610fd3573d5f803e3d5ffd5b50505050505050505050565b5f8151600114610fed575f80fd5b815f81518110610fff57610fff61216f565b6020910101517fff00000000000000000000000000000000000000000000000000000000000000167f01000000000000000000000000000000000000000000000000000000000000001492915050565b61108c61105c83836108a8565b84516040805180820182525f8082526020918201528151808301909252825182529182019181019190915261051e565b6110ce576110c161109c82610a32565b60408501516110ab905f610a68565b8551602087015167ffffffffffffffff16610b4e565b6110c9575f80fd5b505050565b60408301516110c1906110e1905f610a68565b8451602086015167ffffffffffffffff16610ce1565b61112b6040518060800160405280606081526020015f67ffffffffffffffff16815260200160608152602001606081525090565b6040805160808101825260608082525f60208301819052928201819052808201525f808088805b61115c89836120f1565b8110156111e85761116d818b6113bb565b9196509450925061117e83826120f1565b9050846001036111a457611193818b88611401565b61119d90826120f1565b9050611152565b846002036111b757611193818b8861141a565b846003036111ca57611193818b88611443565b846004036111dd57611193818b88611461565b61119384828c61147f565b509399969850959650505050505050565b815181515f919081111561120b575081515b602080850151908401515f5b838110156112c25782518251808214611292575f196020871015611271576001846112438960206120de565b61124d91906120f1565b6112589060086125d2565b6112639060026126c9565b61126d91906120de565b1990505b818116838216818103911461128f5797506103ae9650505050505050565b50505b61129d6020866120f1565b94506112aa6020856120f1565b935050506020816112bb91906120f1565b9050611217565b50845186516112d191906126d4565b9695505050505050565b6020811061131357815183526112f26020846120f1565b92506112ff6020836120f1565b915061130c6020826120de565b90506112db565b5f1981156113415760016113288360206120de565b611334906101006126c9565b61133e91906120de565b90505b9151835183169219169190911790915250565b60605f61136083611530565b67ffffffffffffffff8111156113785761137861211f565b6040519080825280601f01601f1916602001820160405280156113a2576020820181803683370190505b5090505f6113b2846020846115c2565b82525092915050565b5f805f805f6113ca87876116da565b915091505f8260071660058111156113e4576113e46126f3565b90505f6113f2600885612707565b99919850919650945050505050565b5f805f61140e86866117d9565b94525091949350505050565b5f805f61142786866117f5565b67ffffffffffffffff9091166020860152925050509392505050565b5f805f6114508686611803565b604095909501525091949350505050565b5f805f61146e8686611803565b606095909501525091949350505050565b5f6001846005811115611494576114946126f3565b036114a157506008610994565b60058460058111156114b5576114b56126f3565b036114c257506004610994565b5f8460058111156114d5576114d56126f3565b036114ef575f6114e584846116da565b9250610994915050565b6002846005811115611503576115036126f3565b1461150c575f80fd5b5f8061151885856116da565b909250905061152782826120f1565b92505050610994565b5f8061153f835f01515161181b565b61154a9060016120f1565b61155490826120f1565b9050611563836020015161182f565b61156e9060016120f1565b61157890826120f1565b905061158883604001515161181b565b6115939060016120f1565b61159d90826120f1565b90506115ad83606001515161181b565b6115b89060016120f1565b61099490826120f1565b8251515f908390819015611605576115de600160028387611843565b6115e890826120f1565b90506115f8865f01518286611858565b61160290826120f1565b90505b602086015167ffffffffffffffff161561164e5761162660025f8387611843565b61163090826120f1565b90506116418660200151828661186c565b61164b90826120f1565b90505b6040860151511561168f57611667600360028387611843565b61167190826120f1565b905061168286604001518286611882565b61168c90826120f1565b90505b606086015151156116d0576116a8600460028387611843565b6116b290826120f1565b90506116c386606001518286611882565b6116cd90826120f1565b90505b6112d182826120de565b5f805f805f602086516116ed91906120f1565b96860196905060805b608081166080036117ca5786880382116117465762461bcd60e51b5f526020600452600f6024527f6c656e677468206f766572666c6f77000000000000000000000000000000000060445260535ffd5b87515f5b602081106080841660801416156117c357888a0384116117a05762461bcd60e51b5f526020600452600f6024527f6c656e677468206f766572666c6f77000000000000000000000000000000000060445260535ffd5b6001998a019982821a607f8116600788021b97909717969581019593500161174a565b50506116f6565b509193509150505b9250929050565b60605f805f6117e886866118d5565b9097909650945050505050565b5f805f806117e886866116da565b60605f61181084846118d5565b915091509250929050565b5f61182582611994565b6103ae90836120f1565b5f6103ae8267ffffffffffffffff16611994565b5f6008850260078516176112d18185856119b0565b5f611864848484611882565b949350505050565b5f6118648467ffffffffffffffff1684846119b0565b82515f90816118928286866119b0565b90505f8186018501602088015b848310156118bd5780515f1a8253600192830192918201910161189f565b506118ca905081836120f1565b979650505050505050565b60605f805f6118e486866116da565b915091505f8267ffffffffffffffff8111156119025761190261211f565b6040519080825280601f01601f19166020018201604052801561192c576020820181803683370190505b5090505f6020875161193e91906120f1565b9050808461194c858b6120f1565b61195691906120f1565b111561196457611964612726565b8688018301602083016119788282886119f2565b8361198387876120f1565b975097505050505050509250929050565b60071c5f60015b82156103ae5760079290921c9160010161199b565b5f80828401607f86165b600787901c156119e2578060801782535060079590951c9460019182019101607f86166119ba565b8082535050600101949350505050565b805f036119fe57505050565b6020811115611a375782518252611a166020836120f1565b9150611a236020846120f1565b9250611a306020826120de565b90506119fe565b5f6001611a458360206120de565b611a51906101006126c9565b611a5b91906120de565b935183518516941916939093179091525050565b5f6101208284031215611a80575f80fd5b50919050565b80356001600160a01b0381168114611a9c575f80fd5b919050565b5f8060408385031215611ab2575f80fd5b823567ffffffffffffffff811115611ac8575f80fd5b611ad485828601611a6f565b925050611ae360208401611a86565b90509250929050565b5f5b83811015611b06578181015183820152602001611aee565b50505f910152565b5f8151808452611b25816020860160208601611aec565b601f01601f19169290920160200192915050565b602081525f6109946020830184611b0e565b60038110611b57575f80fd5b50565b8035611a9c81611b4b565b5f8083601f840112611b75575f80fd5b50813567ffffffffffffffff811115611b8c575f80fd5b6020830191508360208260051b85010111156117d2575f80fd5b5f8083601f840112611bb6575f80fd5b50813567ffffffffffffffff811115611bcd575f80fd5b6020830191508360208285010111156117d2575f80fd5b5f60408284031215611a80575f80fd5b5f805f805f805f805f8060c08b8d031215611c0d575f80fd5b611c168b611b5a565b995060208b013567ffffffffffffffff80821115611c32575f80fd5b611c3e8e838f01611b65565b909b50995060408d0135915080821115611c56575f80fd5b611c628e838f01611ba6565b909950975060608d0135915080821115611c7a575f80fd5b611c868e838f01611ba6565b909750955060808d0135915080821115611c9e575f80fd5b611caa8e838f01611be4565b945060a08d0135915080821115611cbf575f80fd5b50611ccc8d828e01611ba6565b915080935050809150509295989b9194979a5092959850565b5f805f805f8060608789031215611cfa575f80fd5b863567ffffffffffffffff80821115611d11575f80fd5b611d1d8a838b01611ba6565b90985096506020890135915080821115611d35575f80fd5b611d418a838b01611ba6565b90965094506040890135915080821115611d59575f80fd5b50611d6689828a01611ba6565b979a9699509497509295939492505050565b5f805f805f805f805f805f8060e08d8f031215611d93575f80fd5b611d9c8d611b5a565b9b5067ffffffffffffffff60208e01351115611db6575f80fd5b611dc68e60208f01358f01611b65565b909b50995067ffffffffffffffff60408e01351115611de3575f80fd5b611df38e60408f01358f01611ba6565b909950975067ffffffffffffffff60608e01351115611e10575f80fd5b611e208e60608f01358f01611ba6565b909750955067ffffffffffffffff60808e01351115611e3d575f80fd5b611e4d8e60808f01358f01611be4565b945067ffffffffffffffff60a08e01351115611e67575f80fd5b611e778e60a08f01358f01611ba6565b909450925067ffffffffffffffff60c08e01351115611e94575f80fd5b611ea48e60c08f01358f01611ba6565b81935080925050509295989b509295989b509295989b565b5f805f8060408587031215611ecf575f80fd5b843567ffffffffffffffff80821115611ee6575f80fd5b611ef288838901611ba6565b90965094506020870135915080821115611f0a575f80fd5b50611f1787828801611ba6565b95989497509550505050565b67ffffffffffffffff81168114611b57575f80fd5b5f805f805f805f805f60c08a8c031215611f50575f80fd5b893567ffffffffffffffff80821115611f67575f80fd5b611f738d838e01611ba6565b909b50995060208c01359150611f8882611f23565b819850611f9760408d01611a86565b975060608c0135915080821115611fac575f80fd5b611fb88d838e01611ba6565b909750955060808c0135915080821115611fd0575f80fd5b50611fdd8c828d01611ba6565b90945092505060a08a0135611ff181611f23565b809150509295985092959850929598565b5f805f8060608587031215612015575f80fd5b843567ffffffffffffffff8082111561202c575f80fd5b61203888838901611a6f565b9550602087013591508082111561204d575f80fd5b5061205a87828801611ba6565b909450925061206d905060408601611a86565b905092959194509250565b5f808335601e1984360301811261208d575f80fd5b83018035915067ffffffffffffffff8211156120a7575f80fd5b6020019150368190038213156117d2575f80fd5b818382375f9101908152919050565b634e487b7160e01b5f52601160045260245ffd5b818103818111156103ae576103ae6120ca565b808201808211156103ae576103ae6120ca565b5f8251612115818460208701611aec565b9190910192915050565b634e487b7160e01b5f52604160045260245ffd5b5f6001600160a01b0380871683528086166020840152506080604083015261215e6080830185611b0e565b905082606083015295945050505050565b634e487b7160e01b5f52603260045260245ffd5b6001600160a01b0384168152606060208201525f6121a46060830185611b0e565b9050826040830152949350505050565b604081525f6121c66040830185611b0e565b82810360208401526121d88185611b0e565b95945050505050565b60405160a0810167ffffffffffffffff811182821017156122045761220461211f565b60405290565b604051601f8201601f1916810167ffffffffffffffff811182821017156122335761223361211f565b604052919050565b805160058110611a9c575f80fd5b8051611a9c81611b4b565b5f82601f830112612263575f80fd5b815167ffffffffffffffff81111561227d5761227d61211f565b612290601f8201601f191660200161220a565b8181528460208386010111156122a4575f80fd5b611864826020830160208701611aec565b5f604082840312156122c5575f80fd5b6040516040810167ffffffffffffffff82821081831117156122e9576122e961211f565b816040528293508451915080821115612300575f80fd5b61230c86838701612254565b83526020850151915080821115612321575f80fd5b5061232e85828601612254565b6020830152505092915050565b5f82601f83011261234a575f80fd5b8151602067ffffffffffffffff808311156123675761236761211f565b8260051b61237683820161220a565b938452858101830193838101908886111561238f575f80fd5b84880192505b858310156123ca578251848111156123ac575f8081fd5b6123ba8a87838c0101612254565b8352509184019190840190612395565b98975050505050505050565b80518015158114611a9c575f80fd5b5f80604083850312156123f6575f80fd5b825167ffffffffffffffff8082111561240d575f80fd5b9084019060a08287031215612420575f80fd5b6124286121e1565b6124318361223b565b815261243f60208401612249565b6020820152604083015182811115612455575f80fd5b612461888286016122b5565b604083015250606083015182811115612478575f80fd5b6124848882860161233b565b60608301525060808301518281111561249b575f80fd5b6124a788828601612254565b6080830152509350611ae3915050602084016123d6565b5f602082840312156124ce575f80fd5b815161099481611f23565b602081526124f460208201835167ffffffffffffffff169052565b5f6020830151610120806040850152612511610140850183611b0e565b91506040850151601f198086850301606087015261252f8483611b0e565b9350606087015191508086850301608087015261254c8483611b0e565b935060808701519150808685030160a08701526125698483611b0e565b935060a08701519150808685030160c0870152506125878382611b0e565b92505060c08501516125b360e0860182805167ffffffffffffffff908116835260209182015116910152565b5060e085015167ffffffffffffffff8116858301525090949350505050565b80820281158282048414176103ae576103ae6120ca565b600181815b8085111561262357815f1904821115612609576126096120ca565b8085161561261657918102915b93841c93908002906125ee565b509250929050565b5f82612639575060016103ae565b8161264557505f6103ae565b816001811461265b576002811461266557612681565b60019150506103ae565b60ff841115612676576126766120ca565b50506001821b6103ae565b5060208310610133831016604e8410600b84101617156126a4575081810a6103ae565b6126ae83836125e9565b805f19048211156126c1576126c16120ca565b029392505050565b5f610994838361262b565b8181035f831280158383131683831282161715610b4757610b476120ca565b634e487b7160e01b5f52602160045260245ffd5b5f8261272157634e487b7160e01b5f52601260045260245ffd5b500490565b634e487b7160e01b5f52600160045260245ffdfea2646970667358221220ea65127aa4474a20a51d270ee7609b6b0e8c59d88a31dc7dfc866f1e9821348264736f6c63430008150033",
  "immutableReferences": {},
  "source": "// SPDX-License-Identifier: Apache-2.0\npragma solidity ^0.8.9;\n\nimport \"./ICS20Transfer.sol\";\n\ncontract MockTransfer is ICS20Transfer {\n    event TransferFrom(address, address, string, uint256);\n    event Mint(address, string, uint256);\n    event Burn(address, string, uint256);\n\n    constructor(IBCHandler ibcHandler_) ICS20Transfer(ibcHandler_) {}\n\n    function _transferFrom(\n        address sender,\n        address receiver,\n        string memory denom,\n        uint256 amount\n    ) internal override returns (bool) {\n        emit TransferFrom(sender, receiver, denom, amount);\n        return true;\n    }\n\n    function _mint(\n        address account,\n        string memory denom,\n        uint256 amount\n    ) internal override returns (bool) {\n        emit Mint(account, denom, amount);\n        return true;\n    }\n\n    function _burn(\n        address account,\n        string memory denom,\n        uint256 amount\n    ) internal override returns (bool) {\n        emit Burn(account, denom, amount);\n        return true;\n    }\n}\n",
  "sourcePath": "/home/jjy/workspace/ibc-solidity-contract/contracts/apps/20-transfer/MockTransfer.sol",
  "compiler": {
    "name": "solc",
    "version": "0.8.21+commit.d9974bed.Emscripten.clang"
  },
  "schemaVersion": "3.4.14",
  "updatedAt": "2023-09-07T09:15:06.871Z",
  "devdoc": {
    "kind": "dev",
    "methods": {},
    "version": 1
  },
  "userdoc": {
    "kind": "user",
    "methods": {
      "onRecvPacket((uint64,string,string,string,string,bytes,(uint64,uint64),uint64),address)": {
        "notice": "Module callbacks ///"
      }
    },
    "version": 1
  }
}