{
  "_format": "hh-sol-artifact-1",
  "contractName": "IBC",
  "sourceName": "contracts/ibc.sol",
  "abi": [
    {
      "anonymous": false,
      "inputs": [
        {
          "indexed": false,
          "internalType": "string",
          "name": "client_id",
          "type": "string"
        },
        {
          "indexed": true,
          "internalType": "uint256",
          "name": "client_type",
          "type": "uint256"
        },
        {
          "indexed": false,
          "internalType": "uint256",
          "name": "number",
          "type": "uint256"
        }
      ],
      "name": "CreateClient",
      "type": "event"
    },
    {
      "anonymous": false,
      "inputs": [
        {
          "indexed": true,
          "internalType": "bytes32",
          "name": "role",
          "type": "bytes32"
        },
        {
          "indexed": true,
          "internalType": "bytes32",
          "name": "previousAdminRole",
          "type": "bytes32"
        },
        {
          "indexed": true,
          "internalType": "bytes32",
          "name": "newAdminRole",
          "type": "bytes32"
        }
      ],
      "name": "RoleAdminChanged",
      "type": "event"
    },
    {
      "anonymous": false,
      "inputs": [
        {
          "indexed": true,
          "internalType": "bytes32",
          "name": "role",
          "type": "bytes32"
        },
        {
          "indexed": true,
          "internalType": "address",
          "name": "account",
          "type": "address"
        },
        {
          "indexed": true,
          "internalType": "address",
          "name": "sender",
          "type": "address"
        }
      ],
      "name": "RoleGranted",
      "type": "event"
    },
    {
      "anonymous": false,
      "inputs": [
        {
          "indexed": true,
          "internalType": "bytes32",
          "name": "role",
          "type": "bytes32"
        },
        {
          "indexed": true,
          "internalType": "address",
          "name": "account",
          "type": "address"
        },
        {
          "indexed": true,
          "internalType": "address",
          "name": "sender",
          "type": "address"
        }
      ],
      "name": "RoleRevoked",
      "type": "event"
    },
    {
      "anonymous": false,
      "inputs": [
        {
          "indexed": false,
          "internalType": "string",
          "name": "client_id",
          "type": "string"
        },
        {
          "indexed": true,
          "internalType": "uint256",
          "name": "client_type",
          "type": "uint256"
        },
        {
          "indexed": false,
          "internalType": "uint256",
          "name": "number",
          "type": "uint256"
        }
      ],
      "name": "UpdateClient",
      "type": "event"
    },
    {
      "inputs": [],
      "name": "DEFAULT_ADMIN_ROLE",
      "outputs": [
        {
          "internalType": "bytes32",
          "name": "",
          "type": "bytes32"
        }
      ],
      "stateMutability": "view",
      "type": "function"
    },
    {
      "inputs": [],
      "name": "IBC_RELAYER",
      "outputs": [
        {
          "internalType": "bytes32",
          "name": "",
          "type": "bytes32"
        }
      ],
      "stateMutability": "view",
      "type": "function"
    },
    {
      "inputs": [
        {
          "components": [
            {
              "components": [
                {
                  "internalType": "uint256",
                  "name": "sequence",
                  "type": "uint256"
                },
                {
                  "internalType": "string",
                  "name": "source_port_id",
                  "type": "string"
                },
                {
                  "internalType": "string",
                  "name": "source_channel_id",
                  "type": "string"
                },
                {
                  "internalType": "string",
                  "name": "destination_port_id",
                  "type": "string"
                },
                {
                  "internalType": "string",
                  "name": "destination_channel_id",
                  "type": "string"
                },
                {
                  "internalType": "bytes",
                  "name": "payload",
                  "type": "bytes"
                },
                {
                  "internalType": "bytes32",
                  "name": "timeout_height",
                  "type": "bytes32"
                },
                {
                  "internalType": "uint256",
                  "name": "timeout_timestamp",
                  "type": "uint256"
                }
              ],
              "internalType": "struct Packet",
              "name": "packet",
              "type": "tuple"
            },
            {
              "internalType": "bytes",
              "name": "acknowledgement",
              "type": "bytes"
            },
            {
              "components": [
                {
                  "internalType": "uint256",
                  "name": "height",
                  "type": "uint256"
                },
                {
                  "internalType": "bytes",
                  "name": "object_proof",
                  "type": "bytes"
                },
                {
                  "internalType": "bytes",
                  "name": "client_proof",
                  "type": "bytes"
                },
                {
                  "internalType": "bytes",
                  "name": "consensus_proof",
                  "type": "bytes"
                },
                {
                  "internalType": "bytes",
                  "name": "other_proof",
                  "type": "bytes"
                }
              ],
              "internalType": "struct Proofs",
              "name": "proofs",
              "type": "tuple"
            }
          ],
          "internalType": "struct MsgAckPacket",
          "name": "ackPacket",
          "type": "tuple"
        }
      ],
      "name": "ack_packet",
      "outputs": [],
      "stateMutability": "nonpayable",
      "type": "function"
    },
    {
      "inputs": [
        {
          "components": [
            {
              "internalType": "string",
              "name": "port_id",
              "type": "string"
            },
            {
              "components": [
                {
                  "internalType": "string",
                  "name": "port_id",
                  "type": "string"
                },
                {
                  "internalType": "string",
                  "name": "channel_id",
                  "type": "string"
                }
              ],
              "internalType": "struct ChannelId",
              "name": "channel_id",
              "type": "tuple"
            },
            {
              "components": [
                {
                  "internalType": "uint256",
                  "name": "height",
                  "type": "uint256"
                },
                {
                  "internalType": "bytes",
                  "name": "object_proof",
                  "type": "bytes"
                },
                {
                  "internalType": "bytes",
                  "name": "client_proof",
                  "type": "bytes"
                },
                {
                  "internalType": "bytes",
                  "name": "consensus_proof",
                  "type": "bytes"
                },
                {
                  "internalType": "bytes",
                  "name": "other_proof",
                  "type": "bytes"
                }
              ],
              "internalType": "struct Proofs",
              "name": "proofs",
              "type": "tuple"
            }
          ],
          "internalType": "struct MsgChannelCloseConfirm",
          "name": "closeConfirm",
          "type": "tuple"
        }
      ],
      "name": "channel_close_confirm",
      "outputs": [],
      "stateMutability": "nonpayable",
      "type": "function"
    },
    {
      "inputs": [
        {
          "components": [
            {
              "internalType": "string",
              "name": "port_id",
              "type": "string"
            },
            {
              "components": [
                {
                  "internalType": "string",
                  "name": "port_id",
                  "type": "string"
                },
                {
                  "internalType": "string",
                  "name": "channel_id",
                  "type": "string"
                }
              ],
              "internalType": "struct ChannelId",
              "name": "channel_id",
              "type": "tuple"
            }
          ],
          "internalType": "struct MsgChannelCloseInit",
          "name": "closeInit",
          "type": "tuple"
        }
      ],
      "name": "channel_close_init",
      "outputs": [],
      "stateMutability": "nonpayable",
      "type": "function"
    },
    {
      "inputs": [
        {
          "components": [
            {
              "internalType": "string",
              "name": "port_id",
              "type": "string"
            },
            {
              "components": [
                {
                  "internalType": "string",
                  "name": "port_id",
                  "type": "string"
                },
                {
                  "internalType": "string",
                  "name": "channel_id",
                  "type": "string"
                }
              ],
              "internalType": "struct ChannelId",
              "name": "channel_id",
              "type": "tuple"
            },
            {
              "components": [
                {
                  "internalType": "string",
                  "name": "port_id",
                  "type": "string"
                },
                {
                  "internalType": "string",
                  "name": "channel_id",
                  "type": "string"
                }
              ],
              "internalType": "struct ChannelId",
              "name": "counterparty_channel_id",
              "type": "tuple"
            },
            {
              "internalType": "string",
              "name": "counterparty_version",
              "type": "string"
            },
            {
              "components": [
                {
                  "internalType": "uint256",
                  "name": "height",
                  "type": "uint256"
                },
                {
                  "internalType": "bytes",
                  "name": "object_proof",
                  "type": "bytes"
                },
                {
                  "internalType": "bytes",
                  "name": "client_proof",
                  "type": "bytes"
                },
                {
                  "internalType": "bytes",
                  "name": "consensus_proof",
                  "type": "bytes"
                },
                {
                  "internalType": "bytes",
                  "name": "other_proof",
                  "type": "bytes"
                }
              ],
              "internalType": "struct Proofs",
              "name": "proofs",
              "type": "tuple"
            }
          ],
          "internalType": "struct MsgChannelOpenAck",
          "name": "openAck",
          "type": "tuple"
        }
      ],
      "name": "channel_open_ack",
      "outputs": [],
      "stateMutability": "nonpayable",
      "type": "function"
    },
    {
      "inputs": [
        {
          "components": [
            {
              "internalType": "string",
              "name": "port_id",
              "type": "string"
            },
            {
              "components": [
                {
                  "internalType": "string",
                  "name": "port_id",
                  "type": "string"
                },
                {
                  "internalType": "string",
                  "name": "channel_id",
                  "type": "string"
                }
              ],
              "internalType": "struct ChannelId",
              "name": "channel_id",
              "type": "tuple"
            },
            {
              "components": [
                {
                  "internalType": "uint256",
                  "name": "height",
                  "type": "uint256"
                },
                {
                  "internalType": "bytes",
                  "name": "object_proof",
                  "type": "bytes"
                },
                {
                  "internalType": "bytes",
                  "name": "client_proof",
                  "type": "bytes"
                },
                {
                  "internalType": "bytes",
                  "name": "consensus_proof",
                  "type": "bytes"
                },
                {
                  "internalType": "bytes",
                  "name": "other_proof",
                  "type": "bytes"
                }
              ],
              "internalType": "struct Proofs",
              "name": "proofs",
              "type": "tuple"
            }
          ],
          "internalType": "struct MsgChannelOpenConfirm",
          "name": "openConfirm",
          "type": "tuple"
        }
      ],
      "name": "channel_open_confirm",
      "outputs": [],
      "stateMutability": "nonpayable",
      "type": "function"
    },
    {
      "inputs": [
        {
          "components": [
            {
              "internalType": "string",
              "name": "port_id",
              "type": "string"
            },
            {
              "components": [
                {
                  "components": [
                    {
                      "internalType": "string",
                      "name": "port_id",
                      "type": "string"
                    },
                    {
                      "internalType": "string",
                      "name": "channel_id",
                      "type": "string"
                    }
                  ],
                  "internalType": "struct ChannelId",
                  "name": "channel_id",
                  "type": "tuple"
                },
                {
                  "internalType": "enum STATE",
                  "name": "state",
                  "type": "uint8"
                },
                {
                  "internalType": "enum ORDERING",
                  "name": "odering",
                  "type": "uint8"
                },
                {
                  "components": [
                    {
                      "internalType": "string",
                      "name": "port_id",
                      "type": "string"
                    },
                    {
                      "internalType": "string",
                      "name": "channel_id",
                      "type": "string"
                    }
                  ],
                  "internalType": "struct ChannelId",
                  "name": "remote",
                  "type": "tuple"
                },
                {
                  "internalType": "string[]",
                  "name": "connection_hops",
                  "type": "string[]"
                },
                {
                  "internalType": "string",
                  "name": "version",
                  "type": "string"
                }
              ],
              "internalType": "struct ChannelEnd",
              "name": "channel",
              "type": "tuple"
            }
          ],
          "internalType": "struct MsgChannelOpenInit",
          "name": "openInit",
          "type": "tuple"
        }
      ],
      "name": "channel_open_init",
      "outputs": [],
      "stateMutability": "nonpayable",
      "type": "function"
    },
    {
      "inputs": [
        {
          "components": [
            {
              "internalType": "string",
              "name": "port_id",
              "type": "string"
            },
            {
              "components": [
                {
                  "internalType": "string",
                  "name": "port_id",
                  "type": "string"
                },
                {
                  "internalType": "string",
                  "name": "channel_id",
                  "type": "string"
                }
              ],
              "internalType": "struct ChannelId",
              "name": "previous_channel_id",
              "type": "tuple"
            },
            {
              "components": [
                {
                  "components": [
                    {
                      "internalType": "string",
                      "name": "port_id",
                      "type": "string"
                    },
                    {
                      "internalType": "string",
                      "name": "channel_id",
                      "type": "string"
                    }
                  ],
                  "internalType": "struct ChannelId",
                  "name": "channel_id",
                  "type": "tuple"
                },
                {
                  "internalType": "enum STATE",
                  "name": "state",
                  "type": "uint8"
                },
                {
                  "internalType": "enum ORDERING",
                  "name": "odering",
                  "type": "uint8"
                },
                {
                  "components": [
                    {
                      "internalType": "string",
                      "name": "port_id",
                      "type": "string"
                    },
                    {
                      "internalType": "string",
                      "name": "channel_id",
                      "type": "string"
                    }
                  ],
                  "internalType": "struct ChannelId",
                  "name": "remote",
                  "type": "tuple"
                },
                {
                  "internalType": "string[]",
                  "name": "connection_hops",
                  "type": "string[]"
                },
                {
                  "internalType": "string",
                  "name": "version",
                  "type": "string"
                }
              ],
              "internalType": "struct ChannelEnd",
              "name": "channel",
              "type": "tuple"
            },
            {
              "internalType": "string",
              "name": "counterparty_version",
              "type": "string"
            },
            {
              "components": [
                {
                  "internalType": "uint256",
                  "name": "height",
                  "type": "uint256"
                },
                {
                  "internalType": "bytes",
                  "name": "object_proof",
                  "type": "bytes"
                },
                {
                  "internalType": "bytes",
                  "name": "client_proof",
                  "type": "bytes"
                },
                {
                  "internalType": "bytes",
                  "name": "consensus_proof",
                  "type": "bytes"
                },
                {
                  "internalType": "bytes",
                  "name": "other_proof",
                  "type": "bytes"
                }
              ],
              "internalType": "struct Proofs",
              "name": "proofs",
              "type": "tuple"
            }
          ],
          "internalType": "struct MsgChannelOpenTry",
          "name": "openTry",
          "type": "tuple"
        }
      ],
      "name": "channel_open_try",
      "outputs": [],
      "stateMutability": "nonpayable",
      "type": "function"
    },
    {
      "inputs": [
        {
          "components": [
            {
              "components": [
                {
                  "internalType": "string",
                  "name": "chain_id",
                  "type": "string"
                },
                {
                  "internalType": "enum CLIENT_TYPE",
                  "name": "client_type",
                  "type": "uint8"
                },
                {
                  "internalType": "bytes32",
                  "name": "latest_height",
                  "type": "bytes32"
                },
                {
                  "internalType": "bytes32",
                  "name": "frozen_height",
                  "type": "bytes32"
                },
                {
                  "internalType": "uint256",
                  "name": "trusting_period",
                  "type": "uint256"
                },
                {
                  "internalType": "uint256",
                  "name": "max_clock_drift",
                  "type": "uint256"
                },
                {
                  "internalType": "bytes",
                  "name": "extra_payload",
                  "type": "bytes"
                }
              ],
              "internalType": "struct ClientState",
              "name": "client",
              "type": "tuple"
            },
            {
              "components": [
                {
                  "internalType": "uint256",
                  "name": "timestamp",
                  "type": "uint256"
                },
                {
                  "internalType": "bytes32",
                  "name": "commitment_root",
                  "type": "bytes32"
                },
                {
                  "internalType": "bytes",
                  "name": "extra_payload",
                  "type": "bytes"
                }
              ],
              "internalType": "struct ConsensusState",
              "name": "consensus",
              "type": "tuple"
            }
          ],
          "internalType": "struct MsgClientCreate",
          "name": "create",
          "type": "tuple"
        }
      ],
      "name": "client_create",
      "outputs": [],
      "stateMutability": "nonpayable",
      "type": "function"
    },
    {
      "inputs": [
        {
          "components": [
            {
              "internalType": "string",
              "name": "client_id",
              "type": "string"
            },
            {
              "internalType": "bytes",
              "name": "header1_bytes",
              "type": "bytes"
            },
            {
              "internalType": "bytes",
              "name": "header2_bytes",
              "type": "bytes"
            }
          ],
          "internalType": "struct MsgClientMisbehaviour",
          "name": "misbehaviour",
          "type": "tuple"
        }
      ],
      "name": "client_misbehaviour",
      "outputs": [],
      "stateMutability": "nonpayable",
      "type": "function"
    },
    {
      "inputs": [
        {
          "components": [
            {
              "internalType": "string",
              "name": "client_id",
              "type": "string"
            },
            {
              "internalType": "bytes",
              "name": "header_bytes",
              "type": "bytes"
            }
          ],
          "internalType": "struct MsgClientUpdate",
          "name": "update",
          "type": "tuple"
        }
      ],
      "name": "client_update",
      "outputs": [],
      "stateMutability": "nonpayable",
      "type": "function"
    },
    {
      "inputs": [
        {
          "components": [
            {
              "components": [
                {
                  "internalType": "uint256",
                  "name": "sequence",
                  "type": "uint256"
                },
                {
                  "internalType": "string",
                  "name": "source_port_id",
                  "type": "string"
                },
                {
                  "internalType": "string",
                  "name": "source_channel_id",
                  "type": "string"
                },
                {
                  "internalType": "string",
                  "name": "destination_port_id",
                  "type": "string"
                },
                {
                  "internalType": "string",
                  "name": "destination_channel_id",
                  "type": "string"
                },
                {
                  "internalType": "bytes",
                  "name": "payload",
                  "type": "bytes"
                },
                {
                  "internalType": "bytes32",
                  "name": "timeout_height",
                  "type": "bytes32"
                },
                {
                  "internalType": "uint256",
                  "name": "timeout_timestamp",
                  "type": "uint256"
                }
              ],
              "internalType": "struct Packet",
              "name": "packet",
              "type": "tuple"
            },
            {
              "internalType": "uint256",
              "name": "next_sequence_recv",
              "type": "uint256"
            },
            {
              "components": [
                {
                  "internalType": "uint256",
                  "name": "height",
                  "type": "uint256"
                },
                {
                  "internalType": "bytes",
                  "name": "object_proof",
                  "type": "bytes"
                },
                {
                  "internalType": "bytes",
                  "name": "client_proof",
                  "type": "bytes"
                },
                {
                  "internalType": "bytes",
                  "name": "consensus_proof",
                  "type": "bytes"
                },
                {
                  "internalType": "bytes",
                  "name": "other_proof",
                  "type": "bytes"
                }
              ],
              "internalType": "struct Proofs",
              "name": "proofs",
              "type": "tuple"
            }
          ],
          "internalType": "struct MsgTimeoutPacket",
          "name": "closePacket",
          "type": "tuple"
        }
      ],
      "name": "close_packet",
      "outputs": [],
      "stateMutability": "nonpayable",
      "type": "function"
    },
    {
      "inputs": [
        {
          "components": [
            {
              "internalType": "string",
              "name": "connection_id",
              "type": "string"
            },
            {
              "internalType": "string",
              "name": "counterparty_connection_id",
              "type": "string"
            },
            {
              "components": [
                {
                  "internalType": "string",
                  "name": "chain_id",
                  "type": "string"
                },
                {
                  "internalType": "enum CLIENT_TYPE",
                  "name": "client_type",
                  "type": "uint8"
                },
                {
                  "internalType": "bytes32",
                  "name": "latest_height",
                  "type": "bytes32"
                },
                {
                  "internalType": "bytes32",
                  "name": "frozen_height",
                  "type": "bytes32"
                },
                {
                  "internalType": "uint256",
                  "name": "trusting_period",
                  "type": "uint256"
                },
                {
                  "internalType": "uint256",
                  "name": "max_clock_drift",
                  "type": "uint256"
                },
                {
                  "internalType": "bytes",
                  "name": "extra_payload",
                  "type": "bytes"
                }
              ],
              "internalType": "struct ClientState",
              "name": "client_state",
              "type": "tuple"
            },
            {
              "components": [
                {
                  "internalType": "uint256",
                  "name": "height",
                  "type": "uint256"
                },
                {
                  "internalType": "bytes",
                  "name": "object_proof",
                  "type": "bytes"
                },
                {
                  "internalType": "bytes",
                  "name": "client_proof",
                  "type": "bytes"
                },
                {
                  "internalType": "bytes",
                  "name": "consensus_proof",
                  "type": "bytes"
                },
                {
                  "internalType": "bytes",
                  "name": "other_proof",
                  "type": "bytes"
                }
              ],
              "internalType": "struct Proofs",
              "name": "proofs",
              "type": "tuple"
            },
            {
              "internalType": "string",
              "name": "version",
              "type": "string"
            }
          ],
          "internalType": "struct MsgConnectionOpenAck",
          "name": "openAck",
          "type": "tuple"
        }
      ],
      "name": "connection_open_ack",
      "outputs": [],
      "stateMutability": "nonpayable",
      "type": "function"
    },
    {
      "inputs": [
        {
          "components": [
            {
              "internalType": "string",
              "name": "connection_id",
              "type": "string"
            },
            {
              "components": [
                {
                  "internalType": "uint256",
                  "name": "height",
                  "type": "uint256"
                },
                {
                  "internalType": "bytes",
                  "name": "object_proof",
                  "type": "bytes"
                },
                {
                  "internalType": "bytes",
                  "name": "client_proof",
                  "type": "bytes"
                },
                {
                  "internalType": "bytes",
                  "name": "consensus_proof",
                  "type": "bytes"
                },
                {
                  "internalType": "bytes",
                  "name": "other_proof",
                  "type": "bytes"
                }
              ],
              "internalType": "struct Proofs",
              "name": "proofs",
              "type": "tuple"
            }
          ],
          "internalType": "struct MsgConnectionOpenConfirm",
          "name": "openConfirm",
          "type": "tuple"
        }
      ],
      "name": "connection_open_confirm",
      "outputs": [],
      "stateMutability": "nonpayable",
      "type": "function"
    },
    {
      "inputs": [
        {
          "components": [
            {
              "internalType": "string",
              "name": "client_id",
              "type": "string"
            },
            {
              "components": [
                {
                  "internalType": "string",
                  "name": "client_id",
                  "type": "string"
                },
                {
                  "internalType": "string",
                  "name": "connection_id",
                  "type": "string"
                },
                {
                  "internalType": "bytes",
                  "name": "commitment_prefix",
                  "type": "bytes"
                }
              ],
              "internalType": "struct ConnectionId",
              "name": "counterparty",
              "type": "tuple"
            },
            {
              "internalType": "string",
              "name": "version",
              "type": "string"
            },
            {
              "internalType": "uint256",
              "name": "delay_duration",
              "type": "uint256"
            }
          ],
          "internalType": "struct MsgConnectionOpenInit",
          "name": "openInit",
          "type": "tuple"
        }
      ],
      "name": "connection_open_init",
      "outputs": [],
      "stateMutability": "nonpayable",
      "type": "function"
    },
    {
      "inputs": [
        {
          "components": [
            {
              "internalType": "string",
              "name": "previous_connection_id",
              "type": "string"
            },
            {
              "internalType": "string",
              "name": "client_id",
              "type": "string"
            },
            {
              "components": [
                {
                  "internalType": "string",
                  "name": "chain_id",
                  "type": "string"
                },
                {
                  "internalType": "enum CLIENT_TYPE",
                  "name": "client_type",
                  "type": "uint8"
                },
                {
                  "internalType": "bytes32",
                  "name": "latest_height",
                  "type": "bytes32"
                },
                {
                  "internalType": "bytes32",
                  "name": "frozen_height",
                  "type": "bytes32"
                },
                {
                  "internalType": "uint256",
                  "name": "trusting_period",
                  "type": "uint256"
                },
                {
                  "internalType": "uint256",
                  "name": "max_clock_drift",
                  "type": "uint256"
                },
                {
                  "internalType": "bytes",
                  "name": "extra_payload",
                  "type": "bytes"
                }
              ],
              "internalType": "struct ClientState",
              "name": "client_state",
              "type": "tuple"
            },
            {
              "components": [
                {
                  "internalType": "string",
                  "name": "client_id",
                  "type": "string"
                },
                {
                  "internalType": "string",
                  "name": "connection_id",
                  "type": "string"
                },
                {
                  "internalType": "bytes",
                  "name": "commitment_prefix",
                  "type": "bytes"
                }
              ],
              "internalType": "struct ConnectionId",
              "name": "counterparty",
              "type": "tuple"
            },
            {
              "internalType": "string[]",
              "name": "counterparty_versions",
              "type": "string[]"
            },
            {
              "components": [
                {
                  "internalType": "uint256",
                  "name": "height",
                  "type": "uint256"
                },
                {
                  "internalType": "bytes",
                  "name": "object_proof",
                  "type": "bytes"
                },
                {
                  "internalType": "bytes",
                  "name": "client_proof",
                  "type": "bytes"
                },
                {
                  "internalType": "bytes",
                  "name": "consensus_proof",
                  "type": "bytes"
                },
                {
                  "internalType": "bytes",
                  "name": "other_proof",
                  "type": "bytes"
                }
              ],
              "internalType": "struct Proofs",
              "name": "proofs",
              "type": "tuple"
            },
            {
              "internalType": "uint256",
              "name": "delay_period",
              "type": "uint256"
            }
          ],
          "internalType": "struct MsgConnectionOpenTry",
          "name": "openTry",
          "type": "tuple"
        }
      ],
      "name": "connection_open_try",
      "outputs": [],
      "stateMutability": "nonpayable",
      "type": "function"
    },
    {
      "inputs": [],
      "name": "construct",
      "outputs": [],
      "stateMutability": "nonpayable",
      "type": "function"
    },
    {
      "inputs": [
        {
          "internalType": "bytes32",
          "name": "role",
          "type": "bytes32"
        }
      ],
      "name": "getRoleAdmin",
      "outputs": [
        {
          "internalType": "bytes32",
          "name": "",
          "type": "bytes32"
        }
      ],
      "stateMutability": "view",
      "type": "function"
    },
    {
      "inputs": [
        {
          "internalType": "string",
          "name": "client_id",
          "type": "string"
        }
      ],
      "name": "get_light_client",
      "outputs": [
        {
          "internalType": "address",
          "name": "",
          "type": "address"
        }
      ],
      "stateMutability": "view",
      "type": "function"
    },
    {
      "inputs": [
        {
          "internalType": "bytes32",
          "name": "role",
          "type": "bytes32"
        },
        {
          "internalType": "address",
          "name": "account",
          "type": "address"
        }
      ],
      "name": "grantRole",
      "outputs": [],
      "stateMutability": "nonpayable",
      "type": "function"
    },
    {
      "inputs": [
        {
          "internalType": "bytes32",
          "name": "role",
          "type": "bytes32"
        },
        {
          "internalType": "address",
          "name": "account",
          "type": "address"
        }
      ],
      "name": "hasRole",
      "outputs": [
        {
          "internalType": "bool",
          "name": "",
          "type": "bool"
        }
      ],
      "stateMutability": "view",
      "type": "function"
    },
    {
      "inputs": [
        {
          "components": [
            {
              "components": [
                {
                  "internalType": "uint256",
                  "name": "sequence",
                  "type": "uint256"
                },
                {
                  "internalType": "string",
                  "name": "source_port_id",
                  "type": "string"
                },
                {
                  "internalType": "string",
                  "name": "source_channel_id",
                  "type": "string"
                },
                {
                  "internalType": "string",
                  "name": "destination_port_id",
                  "type": "string"
                },
                {
                  "internalType": "string",
                  "name": "destination_channel_id",
                  "type": "string"
                },
                {
                  "internalType": "bytes",
                  "name": "payload",
                  "type": "bytes"
                },
                {
                  "internalType": "bytes32",
                  "name": "timeout_height",
                  "type": "bytes32"
                },
                {
                  "internalType": "uint256",
                  "name": "timeout_timestamp",
                  "type": "uint256"
                }
              ],
              "internalType": "struct Packet",
              "name": "packet",
              "type": "tuple"
            },
            {
              "components": [
                {
                  "internalType": "uint256",
                  "name": "height",
                  "type": "uint256"
                },
                {
                  "internalType": "bytes",
                  "name": "object_proof",
                  "type": "bytes"
                },
                {
                  "internalType": "bytes",
                  "name": "client_proof",
                  "type": "bytes"
                },
                {
                  "internalType": "bytes",
                  "name": "consensus_proof",
                  "type": "bytes"
                },
                {
                  "internalType": "bytes",
                  "name": "other_proof",
                  "type": "bytes"
                }
              ],
              "internalType": "struct Proofs",
              "name": "proofs",
              "type": "tuple"
            }
          ],
          "internalType": "struct MsgRecvPacket",
          "name": "recvPacket",
          "type": "tuple"
        }
      ],
      "name": "recv_packet",
      "outputs": [],
      "stateMutability": "nonpayable",
      "type": "function"
    },
    {
      "inputs": [
        {
          "internalType": "bytes32",
          "name": "role",
          "type": "bytes32"
        },
        {
          "internalType": "address",
          "name": "account",
          "type": "address"
        }
      ],
      "name": "renounceRole",
      "outputs": [],
      "stateMutability": "nonpayable",
      "type": "function"
    },
    {
      "inputs": [
        {
          "internalType": "bytes32",
          "name": "role",
          "type": "bytes32"
        },
        {
          "internalType": "address",
          "name": "account",
          "type": "address"
        }
      ],
      "name": "revokeRole",
      "outputs": [],
      "stateMutability": "nonpayable",
      "type": "function"
    },
    {
      "inputs": [
        {
          "internalType": "enum CLIENT_TYPE",
          "name": "client_type",
          "type": "uint8"
        },
        {
          "internalType": "address",
          "name": "light_client",
          "type": "address"
        }
      ],
      "name": "set_light_client",
      "outputs": [],
      "stateMutability": "nonpayable",
      "type": "function"
    },
    {
      "inputs": [
        {
          "internalType": "bool",
          "name": "pause",
          "type": "bool"
        }
      ],
      "name": "set_pause",
      "outputs": [],
      "stateMutability": "nonpayable",
      "type": "function"
    },
    {
      "inputs": [
        {
          "internalType": "bytes4",
          "name": "interfaceId",
          "type": "bytes4"
        }
      ],
      "name": "supportsInterface",
      "outputs": [
        {
          "internalType": "bool",
          "name": "",
          "type": "bool"
        }
      ],
      "stateMutability": "view",
      "type": "function"
    },
    {
      "inputs": [
        {
          "components": [
            {
              "components": [
                {
                  "internalType": "uint256",
                  "name": "sequence",
                  "type": "uint256"
                },
                {
                  "internalType": "string",
                  "name": "source_port_id",
                  "type": "string"
                },
                {
                  "internalType": "string",
                  "name": "source_channel_id",
                  "type": "string"
                },
                {
                  "internalType": "string",
                  "name": "destination_port_id",
                  "type": "string"
                },
                {
                  "internalType": "string",
                  "name": "destination_channel_id",
                  "type": "string"
                },
                {
                  "internalType": "bytes",
                  "name": "payload",
                  "type": "bytes"
                },
                {
                  "internalType": "bytes32",
                  "name": "timeout_height",
                  "type": "bytes32"
                },
                {
                  "internalType": "uint256",
                  "name": "timeout_timestamp",
                  "type": "uint256"
                }
              ],
              "internalType": "struct Packet",
              "name": "packet",
              "type": "tuple"
            },
            {
              "internalType": "uint256",
              "name": "next_sequence_recv",
              "type": "uint256"
            },
            {
              "components": [
                {
                  "internalType": "uint256",
                  "name": "height",
                  "type": "uint256"
                },
                {
                  "internalType": "bytes",
                  "name": "object_proof",
                  "type": "bytes"
                },
                {
                  "internalType": "bytes",
                  "name": "client_proof",
                  "type": "bytes"
                },
                {
                  "internalType": "bytes",
                  "name": "consensus_proof",
                  "type": "bytes"
                },
                {
                  "internalType": "bytes",
                  "name": "other_proof",
                  "type": "bytes"
                }
              ],
              "internalType": "struct Proofs",
              "name": "proofs",
              "type": "tuple"
            }
          ],
          "internalType": "struct MsgTimeoutPacket",
          "name": "timeoutPacket",
          "type": "tuple"
        }
      ],
      "name": "timeout_packet",
      "outputs": [],
      "stateMutability": "nonpayable",
      "type": "function"
    }
  ],
  "bytecode": "0x608060405234801561001057600080fd5b506158de80620000216000396000f3fe608060405234801561001057600080fd5b50600436106101cf5760003560e01c806391d1485411610104578063b3465fd9116100a2578063cd3c84ec11610071578063cd3c84ec146104d2578063d547741f146104ee578063e7227e701461050a578063eaddeb7c14610526576101cf565b8063b3465fd914610460578063c02d5e551461047c578063c1e2854a1461049a578063c449903b146104b6576101cf565b80639a356bba116100de5780639a356bba146103da578063a217fddf1461040a578063aa2d8efd14610428578063adabd8f914610444576101cf565b806391d148541461038457806394b91deb146103b45780639916d69b146103be576101cf565b80632f2ff15d1161017157806358d9f0b41161014b57806358d9f0b414610314578063613bd3aa146103305780637e449d161461034c5780638cba924514610368576101cf565b80632f2ff15d146102c0578063329df391146102dc57806336568abe146102f8576101cf565b806322744a5f116101ad57806322744a5f1461023c578063248a9ca31461025857806325f48ab6146102885780632d2ab8b4146102a4576101cf565b806301ffc9a7146101d457806302bc9c3114610204578063184c14a514610220575b600080fd5b6101ee60048036038101906101e99190612660565b610542565b6040516101fb91906126a8565b60405180910390f35b61021e60048036038101906102199190612c0e565b6105bc565b005b61023a60048036038101906102359190612e70565b6106bb565b005b61025660048036038101906102519190612ff9565b610a0e565b005b610272600480360381019061026d9190613042565b610b0d565b60405161027f919061307e565b60405180910390f35b6102a2600480360381019061029d9190613151565b610b2c565b005b6102be60048036038101906102b99190613252565b610c27565b005b6102da60048036038101906102d591906132f9565b610d26565b005b6102f660048036038101906102f19190613691565b610d47565b005b610312600480360381019061030d91906132f9565b610f3f565b005b61032e60048036038101906103299190613762565b610fc2565b005b61034a600480360381019061034591906137d7565b61113c565b005b61036660048036038101906103619190613988565b611167565b005b610382600480360381019061037d9190613a59565b6112f2565b005b61039e600480360381019061039991906132f9565b6113f1565b6040516103ab91906126a8565b60405180910390f35b6103bc61145b565b005b6103d860048036038101906103d39190613b2a565b61148c565b005b6103f460048036038101906103ef9190613b73565b61158b565b6040516104019190613bcb565b60405180910390f35b610412611767565b60405161041f919061307e565b60405180910390f35b610442600480360381019061043d9190613c9e565b61176e565b005b61045e60048036038101906104599190613dff565b61186d565b005b61047a60048036038101906104759190613fa4565b611968565b005b610484611af3565b604051610491919061307e565b60405180910390f35b6104b460048036038101906104af9190614075565b611b17565b005b6104d060048036038101906104cb9190612c0e565b611d0f565b005b6104ec60048036038101906104e791906140be565b611e0e565b005b610508600480360381019061050391906132f9565b611e96565b005b610524600480360381019061051f9190614186565b611eb7565b005b610540600480360381019061053b91906142e7565b611fb2565b005b60007f7965db0b000000000000000000000000000000000000000000000000000000007bffffffffffffffffffffffffffffffffffffffffffffffffffffffff1916827bffffffffffffffffffffffffffffffffffffffffffffffffffffffff191614806105b557506105b4826120b1565b5b9050919050565b7f5209dbb4790cad03eaff56c66179b90895c378923deea458ec000030317d84e56105e68161211b565b600160009054906101000a900460ff1615610636576040517f08c379a000000000000000000000000000000000000000000000000000000000815260040161062d9061438d565b60405180910390fd5b600061064983600001516040015161158b565b90508073ffffffffffffffffffffffffffffffffffffffff166302bc9c31846040518263ffffffff1660e01b8152600401610684919061464d565b600060405180830381600087803b15801561069e57600080fd5b505af11580156106b2573d6000803e3d6000fd5b50505050505050565b7f5209dbb4790cad03eaff56c66179b90895c378923deea458ec000030317d84e56106e58161211b565b600160009054906101000a900460ff1615610735576040517f08c379a000000000000000000000000000000000000000000000000000000000815260040161072c9061438d565b60405180910390fd5b60008260000151602001519050600073ffffffffffffffffffffffffffffffffffffffff16600260008360048111156107715761077061466f565b5b60048111156107835761078261466f565b5b815260200190815260200160002060009054906101000a900473ffffffffffffffffffffffffffffffffffffffff1673ffffffffffffffffffffffffffffffffffffffff1603610808576040517f08c379a00000000000000000000000000000000000000000000000000000000081526004016107ff906146ea565b60405180910390fd5b6000600260008360048111156108215761082061466f565b5b60048111156108335761083261466f565b5b815260200190815260200160002060009054906101000a900473ffffffffffffffffffffffffffffffffffffffff1673ffffffffffffffffffffffffffffffffffffffff1663184c14a5856040518263ffffffff1660e01b815260040161089a9190614889565b6000604051808303816000875af11580156108b9573d6000803e3d6000fd5b505050506040513d6000823e3d601f19601f820116820180604052508101906108e2919061491b565b9050600060048111156108f8576108f761466f565b5b60038260405161090891906149a0565b908152602001604051809103902060009054906101000a900460ff1660048111156109365761093561466f565b5b14610976576040517f08c379a000000000000000000000000000000000000000000000000000000000815260040161096d90614a03565b60405180910390fd5b8160038260405161098791906149a0565b908152602001604051809103902060006101000a81548160ff021916908360048111156109b7576109b661466f565b5b02179055508160048111156109cf576109ce61466f565b5b7f651617e8656ed6d7bcbc2421e29c9bb48f28cafd8f21eef11097b94c7d4eebb18243604051610a00929190614a6b565b60405180910390a250505050565b7f5209dbb4790cad03eaff56c66179b90895c378923deea458ec000030317d84e5610a388161211b565b600160009054906101000a900460ff1615610a88576040517f08c379a0000000000000000000000000000000000000000000000000000000008152600401610a7f9061438d565b60405180910390fd5b6000610a9b83602001516020015161158b565b90508073ffffffffffffffffffffffffffffffffffffffff166322744a5f846040518263ffffffff1660e01b8152600401610ad69190614b3d565b600060405180830381600087803b158015610af057600080fd5b505af1158015610b04573d6000803e3d6000fd5b50505050505050565b6000806000838152602001908152602001600020600101549050919050565b7f5209dbb4790cad03eaff56c66179b90895c378923deea458ec000030317d84e5610b568161211b565b600160009054906101000a900460ff1615610ba6576040517f08c379a0000000000000000000000000000000000000000000000000000000008152600401610b9d9061438d565b60405180910390fd5b6000610bb5836000015161158b565b90508073ffffffffffffffffffffffffffffffffffffffff166325f48ab6846040518263ffffffff1660e01b8152600401610bf09190614bbd565b600060405180830381600087803b158015610c0a57600080fd5b505af1158015610c1e573d6000803e3d6000fd5b50505050505050565b7f5209dbb4790cad03eaff56c66179b90895c378923deea458ec000030317d84e5610c518161211b565b600160009054906101000a900460ff1615610ca1576040517f08c379a0000000000000000000000000000000000000000000000000000000008152600401610c989061438d565b60405180910390fd5b6000610cb483602001516020015161158b565b90508073ffffffffffffffffffffffffffffffffffffffff16632d2ab8b4846040518263ffffffff1660e01b8152600401610cef9190614c3d565b600060405180830381600087803b158015610d0957600080fd5b505af1158015610d1d573d6000803e3d6000fd5b50505050505050565b610d2f82610b0d565b610d388161211b565b610d42838361212f565b505050565b7f5209dbb4790cad03eaff56c66179b90895c378923deea458ec000030317d84e5610d718161211b565b600160009054906101000a900460ff1615610dc1576040517f08c379a0000000000000000000000000000000000000000000000000000000008152600401610db89061438d565b60405180910390fd5b60008260400151608001515111610e0d576040517f08c379a0000000000000000000000000000000000000000000000000000000008152600401610e0490614cab565b60405180910390fd5b6000826040015160800151600081518110610e2b57610e2a614ccb565b5b602002602001015190506000610e408261158b565b905060008173ffffffffffffffffffffffffffffffffffffffff1663329df391866040518263ffffffff1660e01b8152600401610e7d9190614f7c565b6000604051808303816000875af1158015610e9c573d6000803e3d6000fd5b505050506040513d6000823e3d601f19601f82011682018060405250810190610ec5919061491b565b9050600383604051610ed791906149a0565b908152602001604051809103902060009054906101000a900460ff16600382604051610f0391906149a0565b908152602001604051809103902060006101000a81548160ff02191690836004811115610f3357610f3261466f565b5b02179055505050505050565b610f4761220f565b73ffffffffffffffffffffffffffffffffffffffff168173ffffffffffffffffffffffffffffffffffffffff1614610fb4576040517f08c379a0000000000000000000000000000000000000000000000000000000008152600401610fab90615010565b60405180910390fd5b610fbe8282612217565b5050565b7f5209dbb4790cad03eaff56c66179b90895c378923deea458ec000030317d84e5610fec8161211b565b600160009054906101000a900460ff161561103c576040517f08c379a00000000000000000000000000000000000000000000000000000000081526004016110339061438d565b60405180910390fd5b600061104b836000015161158b565b90508073ffffffffffffffffffffffffffffffffffffffff166358d9f0b4846040518263ffffffff1660e01b81526004016110869190615074565b600060405180830381600087803b1580156110a057600080fd5b505af11580156110b4573d6000803e3d6000fd5b50505050600383600001516040516110cc91906149a0565b908152602001604051809103902060009054906101000a900460ff1660048111156110fa576110f961466f565b5b7fcf0d1ec9cf04226dd4407cf4c64b2e38d0e754972d7e7ce9ec67948f4f2c79ff84600001514360405161112f929190614a6b565b60405180910390a2505050565b6000801b6111498161211b565b81600160006101000a81548160ff0219169083151502179055505050565b7f5209dbb4790cad03eaff56c66179b90895c378923deea458ec000030317d84e56111918161211b565b600160009054906101000a900460ff16156111e1576040517f08c379a00000000000000000000000000000000000000000000000000000000081526004016111d89061438d565b60405180910390fd5b60006111f0836000015161158b565b905060008173ffffffffffffffffffffffffffffffffffffffff16637e449d16856040518263ffffffff1660e01b815260040161122d9190615165565b6000604051808303816000875af115801561124c573d6000803e3d6000fd5b505050506040513d6000823e3d601f19601f82011682018060405250810190611275919061491b565b90506003846000015160405161128b91906149a0565b908152602001604051809103902060009054906101000a900460ff166003826040516112b791906149a0565b908152602001604051809103902060006101000a81548160ff021916908360048111156112e7576112e661466f565b5b021790555050505050565b7f5209dbb4790cad03eaff56c66179b90895c378923deea458ec000030317d84e561131c8161211b565b600160009054906101000a900460ff161561136c576040517f08c379a00000000000000000000000000000000000000000000000000000000081526004016113639061438d565b60405180910390fd5b600061137f83602001516020015161158b565b90508073ffffffffffffffffffffffffffffffffffffffff16638cba9245846040518263ffffffff1660e01b81526004016113ba91906151cb565b600060405180830381600087803b1580156113d457600080fd5b505af11580156113e8573d6000803e3d6000fd5b50505050505050565b600080600084815260200190815260200160002060000160008373ffffffffffffffffffffffffffffffffffffffff1673ffffffffffffffffffffffffffffffffffffffff16815260200190815260200160002060009054906101000a900460ff16905092915050565b6000600160006101000a81548160ff02191690831515021790555061148a6000801b61148561220f565b6122f8565b565b7f5209dbb4790cad03eaff56c66179b90895c378923deea458ec000030317d84e56114b68161211b565b600160009054906101000a900460ff1615611506576040517f08c379a00000000000000000000000000000000000000000000000000000000081526004016114fd9061438d565b60405180910390fd5b600061151983600001516080015161158b565b90508073ffffffffffffffffffffffffffffffffffffffff16639916d69b846040518263ffffffff1660e01b81526004016115549190615231565b600060405180830381600087803b15801561156e57600080fd5b505af1158015611582573d6000803e3d6000fd5b50505050505050565b600081600060048111156115a2576115a161466f565b5b6003826040516115b291906149a0565b908152602001604051809103902060009054906101000a900460ff1660048111156115e0576115df61466f565b5b1415801561169d5750600073ffffffffffffffffffffffffffffffffffffffff166002600060038460405161161591906149a0565b908152602001604051809103902060009054906101000a900460ff1660048111156116435761164261466f565b5b60048111156116555761165461466f565b5b815260200190815260200160002060009054906101000a900473ffffffffffffffffffffffffffffffffffffffff1673ffffffffffffffffffffffffffffffffffffffff1614155b6116dc576040517f08c379a00000000000000000000000000000000000000000000000000000000081526004016116d3906152c5565b60405180910390fd5b600260006003856040516116f091906149a0565b908152602001604051809103902060009054906101000a900460ff16600481111561171e5761171d61466f565b5b60048111156117305761172f61466f565b5b815260200190815260200160002060009054906101000a900473ffffffffffffffffffffffffffffffffffffffff16915050919050565b6000801b81565b7f5209dbb4790cad03eaff56c66179b90895c378923deea458ec000030317d84e56117988161211b565b600160009054906101000a900460ff16156117e8576040517f08c379a00000000000000000000000000000000000000000000000000000000081526004016117df9061438d565b60405180910390fd5b60006117fb83600001516040015161158b565b90508073ffffffffffffffffffffffffffffffffffffffff1663aa2d8efd846040518263ffffffff1660e01b81526004016118369190615343565b600060405180830381600087803b15801561185057600080fd5b505af1158015611864573d6000803e3d6000fd5b50505050505050565b7f5209dbb4790cad03eaff56c66179b90895c378923deea458ec000030317d84e56118978161211b565b600160009054906101000a900460ff16156118e7576040517f08c379a00000000000000000000000000000000000000000000000000000000081526004016118de9061438d565b60405180910390fd5b60006118f6836000015161158b565b90508073ffffffffffffffffffffffffffffffffffffffff1663adabd8f9846040518263ffffffff1660e01b815260040161193191906153f7565b600060405180830381600087803b15801561194b57600080fd5b505af115801561195f573d6000803e3d6000fd5b50505050505050565b7f5209dbb4790cad03eaff56c66179b90895c378923deea458ec000030317d84e56119928161211b565b600160009054906101000a900460ff16156119e2576040517f08c379a00000000000000000000000000000000000000000000000000000000081526004016119d99061438d565b60405180910390fd5b60006119f1836020015161158b565b905060008173ffffffffffffffffffffffffffffffffffffffff1663b3465fd9856040518263ffffffff1660e01b8152600401611a2e91906154d8565b6000604051808303816000875af1158015611a4d573d6000803e3d6000fd5b505050506040513d6000823e3d601f19601f82011682018060405250810190611a76919061491b565b905060038460200151604051611a8c91906149a0565b908152602001604051809103902060009054906101000a900460ff16600382604051611ab891906149a0565b908152602001604051809103902060006101000a81548160ff02191690836004811115611ae857611ae761466f565b5b021790555050505050565b7f5209dbb4790cad03eaff56c66179b90895c378923deea458ec000030317d84e581565b7f5209dbb4790cad03eaff56c66179b90895c378923deea458ec000030317d84e5611b418161211b565b600160009054906101000a900460ff1615611b91576040517f08c379a0000000000000000000000000000000000000000000000000000000008152600401611b889061438d565b60405180910390fd5b60008260200151608001515111611bdd576040517f08c379a0000000000000000000000000000000000000000000000000000000008152600401611bd490614cab565b60405180910390fd5b6000826020015160800151600081518110611bfb57611bfa614ccb565b5b602002602001015190506000611c108261158b565b905060008173ffffffffffffffffffffffffffffffffffffffff1663c1e2854a866040518263ffffffff1660e01b8152600401611c4d919061553e565b6000604051808303816000875af1158015611c6c573d6000803e3d6000fd5b505050506040513d6000823e3d601f19601f82011682018060405250810190611c95919061491b565b9050600383604051611ca791906149a0565b908152602001604051809103902060009054906101000a900460ff16600382604051611cd391906149a0565b908152602001604051809103902060006101000a81548160ff02191690836004811115611d0357611d0261466f565b5b02179055505050505050565b7f5209dbb4790cad03eaff56c66179b90895c378923deea458ec000030317d84e5611d398161211b565b600160009054906101000a900460ff1615611d89576040517f08c379a0000000000000000000000000000000000000000000000000000000008152600401611d809061438d565b60405180910390fd5b6000611d9c83600001516040015161158b565b90508073ffffffffffffffffffffffffffffffffffffffff1663c449903b846040518263ffffffff1660e01b8152600401611dd7919061464d565b600060405180830381600087803b158015611df157600080fd5b505af1158015611e05573d6000803e3d6000fd5b50505050505050565b6000801b611e1b8161211b565b8160026000856004811115611e3357611e3261466f565b5b6004811115611e4557611e4461466f565b5b815260200190815260200160002060006101000a81548173ffffffffffffffffffffffffffffffffffffffff021916908373ffffffffffffffffffffffffffffffffffffffff160217905550505050565b611e9f82610b0d565b611ea88161211b565b611eb28383612217565b505050565b7f5209dbb4790cad03eaff56c66179b90895c378923deea458ec000030317d84e5611ee18161211b565b600160009054906101000a900460ff1615611f31576040517f08c379a0000000000000000000000000000000000000000000000000000000008152600401611f289061438d565b60405180910390fd5b6000611f40836000015161158b565b90508073ffffffffffffffffffffffffffffffffffffffff1663e7227e70846040518263ffffffff1660e01b8152600401611f7b91906155a4565b600060405180830381600087803b158015611f9557600080fd5b505af1158015611fa9573d6000803e3d6000fd5b50505050505050565b7f5209dbb4790cad03eaff56c66179b90895c378923deea458ec000030317d84e5611fdc8161211b565b600160009054906101000a900460ff161561202c576040517f08c379a00000000000000000000000000000000000000000000000000000000081526004016120239061438d565b60405180910390fd5b600061203f83602001516020015161158b565b90508073ffffffffffffffffffffffffffffffffffffffff1663eaddeb7c846040518263ffffffff1660e01b815260040161207a9190615658565b600060405180830381600087803b15801561209457600080fd5b505af11580156120a8573d6000803e3d6000fd5b50505050505050565b60007f01ffc9a7000000000000000000000000000000000000000000000000000000007bffffffffffffffffffffffffffffffffffffffffffffffffffffffff1916827bffffffffffffffffffffffffffffffffffffffffffffffffffffffff1916149050919050565b61212c8161212761220f565b612306565b50565b61213982826113f1565b61220b57600160008084815260200190815260200160002060000160008373ffffffffffffffffffffffffffffffffffffffff1673ffffffffffffffffffffffffffffffffffffffff16815260200190815260200160002060006101000a81548160ff0219169083151502179055506121b061220f565b73ffffffffffffffffffffffffffffffffffffffff168173ffffffffffffffffffffffffffffffffffffffff16837f2f8788117e7eff1d82e926ec794901d17c78024a50270940304540a733656f0d60405160405180910390a45b5050565b600033905090565b61222182826113f1565b156122f457600080600084815260200190815260200160002060000160008373ffffffffffffffffffffffffffffffffffffffff1673ffffffffffffffffffffffffffffffffffffffff16815260200190815260200160002060006101000a81548160ff02191690831515021790555061229961220f565b73ffffffffffffffffffffffffffffffffffffffff168173ffffffffffffffffffffffffffffffffffffffff16837ff6391f5c32d9c69d2a47ea670b442974b53935d1edc7fd64eb21e047a839171b60405160405180910390a45b5050565b612302828261212f565b5050565b61231082826113f1565b6123875761231d8161238b565b61232b8360001c60206123b8565b60405160200161233c929190615712565b6040516020818303038152906040526040517f08c379a000000000000000000000000000000000000000000000000000000000815260040161237e919061574c565b60405180910390fd5b5050565b60606123b18273ffffffffffffffffffffffffffffffffffffffff16601460ff166123b8565b9050919050565b6060600060028360026123cb919061579d565b6123d591906157df565b67ffffffffffffffff8111156123ee576123ed6126d9565b5b6040519080825280601f01601f1916602001820160405280156124205781602001600182028036833780820191505090505b5090507f30000000000000000000000000000000000000000000000000000000000000008160008151811061245857612457614ccb565b5b60200101907effffffffffffffffffffffffffffffffffffffffffffffffffffffffffffff1916908160001a9053507f7800000000000000000000000000000000000000000000000000000000000000816001815181106124bc576124bb614ccb565b5b60200101907effffffffffffffffffffffffffffffffffffffffffffffffffffffffffffff1916908160001a905350600060018460026124fc919061579d565b61250691906157df565b90505b60018111156125a6577f3031323334353637383961626364656600000000000000000000000000000000600f86166010811061254857612547614ccb565b5b1a60f81b82828151811061255f5761255e614ccb565b5b60200101907effffffffffffffffffffffffffffffffffffffffffffffffffffffffffffff1916908160001a905350600485901c94508061259f90615813565b9050612509565b50600084146125ea576040517f08c379a00000000000000000000000000000000000000000000000000000000081526004016125e190615888565b60405180910390fd5b8091505092915050565b6000604051905090565b600080fd5b600080fd5b60007fffffffff0000000000000000000000000000000000000000000000000000000082169050919050565b61263d81612608565b811461264857600080fd5b50565b60008135905061265a81612634565b92915050565b600060208284031215612676576126756125fe565b5b60006126848482850161264b565b91505092915050565b60008115159050919050565b6126a28161268d565b82525050565b60006020820190506126bd6000830184612699565b92915050565b600080fd5b6000601f19601f8301169050919050565b7f4e487b7100000000000000000000000000000000000000000000000000000000600052604160045260246000fd5b612711826126c8565b810181811067ffffffffffffffff821117156127305761272f6126d9565b5b80604052505050565b60006127436125f4565b905061274f8282612708565b919050565b600080fd5b6000819050919050565b61276c81612759565b811461277757600080fd5b50565b60008135905061278981612763565b92915050565b600080fd5b600080fd5b600067ffffffffffffffff8211156127b4576127b36126d9565b5b6127bd826126c8565b9050602081019050919050565b82818337600083830152505050565b60006127ec6127e784612799565b612739565b90508281526020810184848401111561280857612807612794565b5b6128138482856127ca565b509392505050565b600082601f8301126128305761282f61278f565b5b81356128408482602086016127d9565b91505092915050565b600067ffffffffffffffff821115612864576128636126d9565b5b61286d826126c8565b9050602081019050919050565b600061288d61288884612849565b612739565b9050828152602081018484840111156128a9576128a8612794565b5b6128b48482856127ca565b509392505050565b600082601f8301126128d1576128d061278f565b5b81356128e184826020860161287a565b91505092915050565b6000819050919050565b6128fd816128ea565b811461290857600080fd5b50565b60008135905061291a816128f4565b92915050565b60006101008284031215612937576129366126c3565b5b612942610100612739565b905060006129528482850161277a565b600083015250602082013567ffffffffffffffff81111561297657612975612754565b5b6129828482850161281b565b602083015250604082013567ffffffffffffffff8111156129a6576129a5612754565b5b6129b28482850161281b565b604083015250606082013567ffffffffffffffff8111156129d6576129d5612754565b5b6129e28482850161281b565b606083015250608082013567ffffffffffffffff811115612a0657612a05612754565b5b612a128482850161281b565b60808301525060a082013567ffffffffffffffff811115612a3657612a35612754565b5b612a42848285016128bc565b60a08301525060c0612a568482850161290b565b60c08301525060e0612a6a8482850161277a565b60e08301525092915050565b600060a08284031215612a8c57612a8b6126c3565b5b612a9660a0612739565b90506000612aa68482850161277a565b600083015250602082013567ffffffffffffffff811115612aca57612ac9612754565b5b612ad6848285016128bc565b602083015250604082013567ffffffffffffffff811115612afa57612af9612754565b5b612b06848285016128bc565b604083015250606082013567ffffffffffffffff811115612b2a57612b29612754565b5b612b36848285016128bc565b606083015250608082013567ffffffffffffffff811115612b5a57612b59612754565b5b612b66848285016128bc565b60808301525092915050565b600060608284031215612b8857612b876126c3565b5b612b926060612739565b9050600082013567ffffffffffffffff811115612bb257612bb1612754565b5b612bbe84828501612920565b6000830152506020612bd28482850161277a565b602083015250604082013567ffffffffffffffff811115612bf657612bf5612754565b5b612c0284828501612a76565b60408301525092915050565b600060208284031215612c2457612c236125fe565b5b600082013567ffffffffffffffff811115612c4257612c41612603565b5b612c4e84828501612b72565b91505092915050565b60058110612c6457600080fd5b50565b600081359050612c7681612c57565b92915050565b600060e08284031215612c9257612c916126c3565b5b612c9c60e0612739565b9050600082013567ffffffffffffffff811115612cbc57612cbb612754565b5b612cc88482850161281b565b6000830152506020612cdc84828501612c67565b6020830152506040612cf08482850161290b565b6040830152506060612d048482850161290b565b6060830152506080612d188482850161277a565b60808301525060a0612d2c8482850161277a565b60a08301525060c082013567ffffffffffffffff811115612d5057612d4f612754565b5b612d5c848285016128bc565b60c08301525092915050565b600060608284031215612d7e57612d7d6126c3565b5b612d886060612739565b90506000612d988482850161277a565b6000830152506020612dac8482850161290b565b602083015250604082013567ffffffffffffffff811115612dd057612dcf612754565b5b612ddc848285016128bc565b60408301525092915050565b600060408284031215612dfe57612dfd6126c3565b5b612e086040612739565b9050600082013567ffffffffffffffff811115612e2857612e27612754565b5b612e3484828501612c7c565b600083015250602082013567ffffffffffffffff811115612e5857612e57612754565b5b612e6484828501612d68565b60208301525092915050565b600060208284031215612e8657612e856125fe565b5b600082013567ffffffffffffffff811115612ea457612ea3612603565b5b612eb084828501612de8565b91505092915050565b600060408284031215612ecf57612ece6126c3565b5b612ed96040612739565b9050600082013567ffffffffffffffff811115612ef957612ef8612754565b5b612f058482850161281b565b600083015250602082013567ffffffffffffffff811115612f2957612f28612754565b5b612f358482850161281b565b60208301525092915050565b600060608284031215612f5757612f566126c3565b5b612f616060612739565b9050600082013567ffffffffffffffff811115612f8157612f80612754565b5b612f8d8482850161281b565b600083015250602082013567ffffffffffffffff811115612fb157612fb0612754565b5b612fbd84828501612eb9565b602083015250604082013567ffffffffffffffff811115612fe157612fe0612754565b5b612fed84828501612a76565b60408301525092915050565b60006020828403121561300f5761300e6125fe565b5b600082013567ffffffffffffffff81111561302d5761302c612603565b5b61303984828501612f41565b91505092915050565b600060208284031215613058576130576125fe565b5b60006130668482850161290b565b91505092915050565b613078816128ea565b82525050565b6000602082019050613093600083018461306f565b92915050565b6000606082840312156130af576130ae6126c3565b5b6130b96060612739565b9050600082013567ffffffffffffffff8111156130d9576130d8612754565b5b6130e58482850161281b565b600083015250602082013567ffffffffffffffff81111561310957613108612754565b5b613115848285016128bc565b602083015250604082013567ffffffffffffffff81111561313957613138612754565b5b613145848285016128bc565b60408301525092915050565b600060208284031215613167576131666125fe565b5b600082013567ffffffffffffffff81111561318557613184612603565b5b61319184828501613099565b91505092915050565b6000606082840312156131b0576131af6126c3565b5b6131ba6060612739565b9050600082013567ffffffffffffffff8111156131da576131d9612754565b5b6131e68482850161281b565b600083015250602082013567ffffffffffffffff81111561320a57613209612754565b5b61321684828501612eb9565b602083015250604082013567ffffffffffffffff81111561323a57613239612754565b5b61324684828501612a76565b60408301525092915050565b600060208284031215613268576132676125fe565b5b600082013567ffffffffffffffff81111561328657613285612603565b5b6132928482850161319a565b91505092915050565b600073ffffffffffffffffffffffffffffffffffffffff82169050919050565b60006132c68261329b565b9050919050565b6132d6816132bb565b81146132e157600080fd5b50565b6000813590506132f3816132cd565b92915050565b600080604083850312156133105761330f6125fe565b5b600061331e8582860161290b565b925050602061332f858286016132e4565b9150509250929050565b6005811061334657600080fd5b50565b60008135905061335881613339565b92915050565b6003811061336b57600080fd5b50565b60008135905061337d8161335e565b92915050565b600067ffffffffffffffff82111561339e5761339d6126d9565b5b602082029050602081019050919050565b600080fd5b60006133c76133c284613383565b612739565b905080838252602082019050602084028301858111156133ea576133e96133af565b5b835b8181101561343157803567ffffffffffffffff81111561340f5761340e61278f565b5b80860161341c898261281b565b855260208501945050506020810190506133ec565b5050509392505050565b600082601f8301126134505761344f61278f565b5b81356134608482602086016133b4565b91505092915050565b600060c0828403121561347f5761347e6126c3565b5b61348960c0612739565b9050600082013567ffffffffffffffff8111156134a9576134a8612754565b5b6134b584828501612eb9565b60008301525060206134c984828501613349565b60208301525060406134dd8482850161336e565b604083015250606082013567ffffffffffffffff81111561350157613500612754565b5b61350d84828501612eb9565b606083015250608082013567ffffffffffffffff81111561353157613530612754565b5b61353d8482850161343b565b60808301525060a082013567ffffffffffffffff81111561356157613560612754565b5b61356d8482850161281b565b60a08301525092915050565b600060a0828403121561358f5761358e6126c3565b5b61359960a0612739565b9050600082013567ffffffffffffffff8111156135b9576135b8612754565b5b6135c58482850161281b565b600083015250602082013567ffffffffffffffff8111156135e9576135e8612754565b5b6135f584828501612eb9565b602083015250604082013567ffffffffffffffff81111561361957613618612754565b5b61362584828501613469565b604083015250606082013567ffffffffffffffff81111561364957613648612754565b5b6136558482850161281b565b606083015250608082013567ffffffffffffffff81111561367957613678612754565b5b61368584828501612a76565b60808301525092915050565b6000602082840312156136a7576136a66125fe565b5b600082013567ffffffffffffffff8111156136c5576136c4612603565b5b6136d184828501613579565b91505092915050565b6000604082840312156136f0576136ef6126c3565b5b6136fa6040612739565b9050600082013567ffffffffffffffff81111561371a57613719612754565b5b6137268482850161281b565b600083015250602082013567ffffffffffffffff81111561374a57613749612754565b5b613756848285016128bc565b60208301525092915050565b600060208284031215613778576137776125fe565b5b600082013567ffffffffffffffff81111561379657613795612603565b5b6137a2848285016136da565b91505092915050565b6137b48161268d565b81146137bf57600080fd5b50565b6000813590506137d1816137ab565b92915050565b6000602082840312156137ed576137ec6125fe565b5b60006137fb848285016137c2565b91505092915050565b60006060828403121561381a576138196126c3565b5b6138246060612739565b9050600082013567ffffffffffffffff81111561384457613843612754565b5b6138508482850161281b565b600083015250602082013567ffffffffffffffff81111561387457613873612754565b5b6138808482850161281b565b602083015250604082013567ffffffffffffffff8111156138a4576138a3612754565b5b6138b0848285016128bc565b60408301525092915050565b6000608082840312156138d2576138d16126c3565b5b6138dc6080612739565b9050600082013567ffffffffffffffff8111156138fc576138fb612754565b5b6139088482850161281b565b600083015250602082013567ffffffffffffffff81111561392c5761392b612754565b5b61393884828501613804565b602083015250604082013567ffffffffffffffff81111561395c5761395b612754565b5b6139688482850161281b565b604083015250606061397c8482850161277a565b60608301525092915050565b60006020828403121561399e5761399d6125fe565b5b600082013567ffffffffffffffff8111156139bc576139bb612603565b5b6139c8848285016138bc565b91505092915050565b6000604082840312156139e7576139e66126c3565b5b6139f16040612739565b9050600082013567ffffffffffffffff811115613a1157613a10612754565b5b613a1d8482850161281b565b600083015250602082013567ffffffffffffffff811115613a4157613a40612754565b5b613a4d84828501612eb9565b60208301525092915050565b600060208284031215613a6f57613a6e6125fe565b5b600082013567ffffffffffffffff811115613a8d57613a8c612603565b5b613a99848285016139d1565b91505092915050565b600060408284031215613ab857613ab76126c3565b5b613ac26040612739565b9050600082013567ffffffffffffffff811115613ae257613ae1612754565b5b613aee84828501612920565b600083015250602082013567ffffffffffffffff811115613b1257613b11612754565b5b613b1e84828501612a76565b60208301525092915050565b600060208284031215613b4057613b3f6125fe565b5b600082013567ffffffffffffffff811115613b5e57613b5d612603565b5b613b6a84828501613aa2565b91505092915050565b600060208284031215613b8957613b886125fe565b5b600082013567ffffffffffffffff811115613ba757613ba6612603565b5b613bb38482850161281b565b91505092915050565b613bc5816132bb565b82525050565b6000602082019050613be06000830184613bbc565b92915050565b600060608284031215613bfc57613bfb6126c3565b5b613c066060612739565b9050600082013567ffffffffffffffff811115613c2657613c25612754565b5b613c3284828501612920565b600083015250602082013567ffffffffffffffff811115613c5657613c55612754565b5b613c62848285016128bc565b602083015250604082013567ffffffffffffffff811115613c8657613c85612754565b5b613c9284828501612a76565b60408301525092915050565b600060208284031215613cb457613cb36125fe565b5b600082013567ffffffffffffffff811115613cd257613cd1612603565b5b613cde84828501613be6565b91505092915050565b600060a08284031215613cfd57613cfc6126c3565b5b613d0760a0612739565b9050600082013567ffffffffffffffff811115613d2757613d26612754565b5b613d338482850161281b565b600083015250602082013567ffffffffffffffff811115613d5757613d56612754565b5b613d638482850161281b565b602083015250604082013567ffffffffffffffff811115613d8757613d86612754565b5b613d9384828501612c7c565b604083015250606082013567ffffffffffffffff811115613db757613db6612754565b5b613dc384828501612a76565b606083015250608082013567ffffffffffffffff811115613de757613de6612754565b5b613df38482850161281b565b60808301525092915050565b600060208284031215613e1557613e146125fe565b5b600082013567ffffffffffffffff811115613e3357613e32612603565b5b613e3f84828501613ce7565b91505092915050565b600060e08284031215613e5e57613e5d6126c3565b5b613e6860e0612739565b9050600082013567ffffffffffffffff811115613e8857613e87612754565b5b613e948482850161281b565b600083015250602082013567ffffffffffffffff811115613eb857613eb7612754565b5b613ec48482850161281b565b602083015250604082013567ffffffffffffffff811115613ee857613ee7612754565b5b613ef484828501612c7c565b604083015250606082013567ffffffffffffffff811115613f1857613f17612754565b5b613f2484828501613804565b606083015250608082013567ffffffffffffffff811115613f4857613f47612754565b5b613f548482850161343b565b60808301525060a082013567ffffffffffffffff811115613f7857613f77612754565b5b613f8484828501612a76565b60a08301525060c0613f988482850161277a565b60c08301525092915050565b600060208284031215613fba57613fb96125fe565b5b600082013567ffffffffffffffff811115613fd857613fd7612603565b5b613fe484828501613e48565b91505092915050565b600060408284031215614003576140026126c3565b5b61400d6040612739565b9050600082013567ffffffffffffffff81111561402d5761402c612754565b5b6140398482850161281b565b600083015250602082013567ffffffffffffffff81111561405d5761405c612754565b5b61406984828501613469565b60208301525092915050565b60006020828403121561408b5761408a6125fe565b5b600082013567ffffffffffffffff8111156140a9576140a8612603565b5b6140b584828501613fed565b91505092915050565b600080604083850312156140d5576140d46125fe565b5b60006140e385828601612c67565b92505060206140f4858286016132e4565b9150509250929050565b600060408284031215614114576141136126c3565b5b61411e6040612739565b9050600082013567ffffffffffffffff81111561413e5761413d612754565b5b61414a8482850161281b565b600083015250602082013567ffffffffffffffff81111561416e5761416d612754565b5b61417a84828501612a76565b60208301525092915050565b60006020828403121561419c5761419b6125fe565b5b600082013567ffffffffffffffff8111156141ba576141b9612603565b5b6141c6848285016140fe565b91505092915050565b600060a082840312156141e5576141e46126c3565b5b6141ef60a0612739565b9050600082013567ffffffffffffffff81111561420f5761420e612754565b5b61421b8482850161281b565b600083015250602082013567ffffffffffffffff81111561423f5761423e612754565b5b61424b84828501612eb9565b602083015250604082013567ffffffffffffffff81111561426f5761426e612754565b5b61427b84828501612eb9565b604083015250606082013567ffffffffffffffff81111561429f5761429e612754565b5b6142ab8482850161281b565b606083015250608082013567ffffffffffffffff8111156142cf576142ce612754565b5b6142db84828501612a76565b60808301525092915050565b6000602082840312156142fd576142fc6125fe565b5b600082013567ffffffffffffffff81111561431b5761431a612603565b5b614327848285016141cf565b91505092915050565b600082825260208201905092915050565b7f4942433a20706175736564000000000000000000000000000000000000000000600082015250565b6000614377600b83614330565b915061438282614341565b602082019050919050565b600060208201905081810360008301526143a68161436a565b9050919050565b6143b681612759565b82525050565b600081519050919050565b600082825260208201905092915050565b60005b838110156143f65780820151818401526020810190506143db565b60008484015250505050565b600061440d826143bc565b61441781856143c7565b93506144278185602086016143d8565b614430816126c8565b840191505092915050565b600081519050919050565b600082825260208201905092915050565b60006144628261443b565b61446c8185614446565b935061447c8185602086016143d8565b614485816126c8565b840191505092915050565b614499816128ea565b82525050565b6000610100830160008301516144b860008601826143ad565b50602083015184820360208601526144d08282614402565b915050604083015184820360408601526144ea8282614402565b915050606083015184820360608601526145048282614402565b9150506080830151848203608086015261451e8282614402565b91505060a083015184820360a08601526145388282614457565b91505060c083015161454d60c0860182614490565b5060e083015161456060e08601826143ad565b508091505092915050565b600060a08301600083015161458360008601826143ad565b506020830151848203602086015261459b8282614457565b915050604083015184820360408601526145b58282614457565b915050606083015184820360608601526145cf8282614457565b915050608083015184820360808601526145e98282614457565b9150508091505092915050565b60006060830160008301518482036000860152614613828261449f565b915050602083015161462860208601826143ad565b5060408301518482036040860152614640828261456b565b9150508091505092915050565b6000602082019050818103600083015261466781846145f6565b905092915050565b7f4e487b7100000000000000000000000000000000000000000000000000000000600052602160045260246000fd5b7f4942433a20636c69656e745f7479706520646f65736e27742065786973740000600082015250565b60006146d4601e83614330565b91506146df8261469e565b602082019050919050565b60006020820190508181036000830152614703816146c7565b9050919050565b6005811061471b5761471a61466f565b5b50565b600081905061472c8261470a565b919050565b600061473c8261471e565b9050919050565b61474c81614731565b82525050565b600060e083016000830151848203600086015261476f8282614402565b91505060208301516147846020860182614743565b5060408301516147976040860182614490565b5060608301516147aa6060860182614490565b5060808301516147bd60808601826143ad565b5060a08301516147d060a08601826143ad565b5060c083015184820360c08601526147e88282614457565b9150508091505092915050565b600060608301600083015161480d60008601826143ad565b5060208301516148206020860182614490565b50604083015184820360408601526148388282614457565b9150508091505092915050565b600060408301600083015184820360008601526148628282614752565b9150506020830151848203602086015261487c82826147f5565b9150508091505092915050565b600060208201905081810360008301526148a38184614845565b905092915050565b60006148be6148b984612799565b612739565b9050828152602081018484840111156148da576148d9612794565b5b6148e58482856143d8565b509392505050565b600082601f8301126149025761490161278f565b5b81516149128482602086016148ab565b91505092915050565b600060208284031215614931576149306125fe565b5b600082015167ffffffffffffffff81111561494f5761494e612603565b5b61495b848285016148ed565b91505092915050565b600081905092915050565b600061497a826143bc565b6149848185614964565b93506149948185602086016143d8565b80840191505092915050565b60006149ac828461496f565b915081905092915050565b7f4942433a2067656e65726174656420636c69656e745f6964206572726f720000600082015250565b60006149ed601e83614330565b91506149f8826149b7565b602082019050919050565b60006020820190508181036000830152614a1c816149e0565b9050919050565b6000614a2e826143bc565b614a388185614330565b9350614a488185602086016143d8565b614a51816126c8565b840191505092915050565b614a6581612759565b82525050565b60006040820190508181036000830152614a858185614a23565b9050614a946020830184614a5c565b9392505050565b60006040830160008301518482036000860152614ab88282614402565b91505060208301518482036020860152614ad28282614402565b9150508091505092915050565b60006060830160008301518482036000860152614afc8282614402565b91505060208301518482036020860152614b168282614a9b565b91505060408301518482036040860152614b30828261456b565b9150508091505092915050565b60006020820190508181036000830152614b578184614adf565b905092915050565b60006060830160008301518482036000860152614b7c8282614402565b91505060208301518482036020860152614b968282614457565b91505060408301518482036040860152614bb08282614457565b9150508091505092915050565b60006020820190508181036000830152614bd78184614b5f565b905092915050565b60006060830160008301518482036000860152614bfc8282614402565b91505060208301518482036020860152614c168282614a9b565b91505060408301518482036040860152614c30828261456b565b9150508091505092915050565b60006020820190508181036000830152614c578184614bdf565b905092915050565b7f4942433a206368616e6e656c20686173206e6f20636f6e6e656374696f6e7300600082015250565b6000614c95601f83614330565b9150614ca082614c5f565b602082019050919050565b60006020820190508181036000830152614cc481614c88565b9050919050565b7f4e487b7100000000000000000000000000000000000000000000000000000000600052603260045260246000fd5b60058110614d0b57614d0a61466f565b5b50565b6000819050614d1c82614cfa565b919050565b6000614d2c82614d0e565b9050919050565b614d3c81614d21565b82525050565b60038110614d5357614d5261466f565b5b50565b6000819050614d6482614d42565b919050565b6000614d7482614d56565b9050919050565b614d8481614d69565b82525050565b600081519050919050565b600082825260208201905092915050565b6000819050602082019050919050565b6000614dc28383614402565b905092915050565b6000602082019050919050565b6000614de282614d8a565b614dec8185614d95565b935083602082028501614dfe85614da6565b8060005b85811015614e3a5784840389528151614e1b8582614db6565b9450614e2683614dca565b925060208a01995050600181019050614e02565b50829750879550505050505092915050565b600060c0830160008301518482036000860152614e698282614a9b565b9150506020830151614e7e6020860182614d33565b506040830151614e916040860182614d7b565b5060608301518482036060860152614ea98282614a9b565b91505060808301518482036080860152614ec38282614dd7565b91505060a083015184820360a0860152614edd8282614402565b9150508091505092915050565b600060a0830160008301518482036000860152614f078282614402565b91505060208301518482036020860152614f218282614a9b565b91505060408301518482036040860152614f3b8282614e4c565b91505060608301518482036060860152614f558282614402565b91505060808301518482036080860152614f6f828261456b565b9150508091505092915050565b60006020820190508181036000830152614f968184614eea565b905092915050565b7f416363657373436f6e74726f6c3a2063616e206f6e6c792072656e6f756e636560008201527f20726f6c657320666f722073656c660000000000000000000000000000000000602082015250565b6000614ffa602f83614330565b915061500582614f9e565b604082019050919050565b6000602082019050818103600083015261502981614fed565b9050919050565b6000604083016000830151848203600086015261504d8282614402565b915050602083015184820360208601526150678282614457565b9150508091505092915050565b6000602082019050818103600083015261508e8184615030565b905092915050565b600060608301600083015184820360008601526150b38282614402565b915050602083015184820360208601526150cd8282614402565b915050604083015184820360408601526150e78282614457565b9150508091505092915050565b600060808301600083015184820360008601526151118282614402565b9150506020830151848203602086015261512b8282615096565b915050604083015184820360408601526151458282614402565b915050606083015161515a60608601826143ad565b508091505092915050565b6000602082019050818103600083015261517f81846150f4565b905092915050565b600060408301600083015184820360008601526151a48282614402565b915050602083015184820360208601526151be8282614a9b565b9150508091505092915050565b600060208201905081810360008301526151e58184615187565b905092915050565b6000604083016000830151848203600086015261520a828261449f565b91505060208301518482036020860152615224828261456b565b9150508091505092915050565b6000602082019050818103600083015261524b81846151ed565b905092915050565b7f4942433a20686173436c69656e74286363635f69642920636865636b2066616960008201527f6c65640000000000000000000000000000000000000000000000000000000000602082015250565b60006152af602383614330565b91506152ba82615253565b604082019050919050565b600060208201905081810360008301526152de816152a2565b9050919050565b60006060830160008301518482036000860152615302828261449f565b9150506020830151848203602086015261531c8282614457565b91505060408301518482036040860152615336828261456b565b9150508091505092915050565b6000602082019050818103600083015261535d81846152e5565b905092915050565b600060a08301600083015184820360008601526153828282614402565b9150506020830151848203602086015261539c8282614402565b915050604083015184820360408601526153b68282614752565b915050606083015184820360608601526153d0828261456b565b915050608083015184820360808601526153ea8282614402565b9150508091505092915050565b600060208201905081810360008301526154118184615365565b905092915050565b600060e08301600083015184820360008601526154368282614402565b915050602083015184820360208601526154508282614402565b9150506040830151848203604086015261546a8282614752565b915050606083015184820360608601526154848282615096565b9150506080830151848203608086015261549e8282614dd7565b91505060a083015184820360a08601526154b8828261456b565b91505060c08301516154cd60c08601826143ad565b508091505092915050565b600060208201905081810360008301526154f28184615419565b905092915050565b600060408301600083015184820360008601526155178282614402565b915050602083015184820360208601526155318282614e4c565b9150508091505092915050565b6000602082019050818103600083015261555881846154fa565b905092915050565b6000604083016000830151848203600086015261557d8282614402565b91505060208301518482036020860152615597828261456b565b9150508091505092915050565b600060208201905081810360008301526155be8184615560565b905092915050565b600060a08301600083015184820360008601526155e38282614402565b915050602083015184820360208601526155fd8282614a9b565b915050604083015184820360408601526156178282614a9b565b915050606083015184820360608601526156318282614402565b9150506080830151848203608086015261564b828261456b565b9150508091505092915050565b6000602082019050818103600083015261567281846155c6565b905092915050565b7f416363657373436f6e74726f6c3a206163636f756e7420000000000000000000600082015250565b60006156b0601783614964565b91506156bb8261567a565b601782019050919050565b7f206973206d697373696e6720726f6c6520000000000000000000000000000000600082015250565b60006156fc601183614964565b9150615707826156c6565b601182019050919050565b600061571d826156a3565b9150615729828561496f565b9150615734826156ef565b9150615740828461496f565b91508190509392505050565b600060208201905081810360008301526157668184614a23565b905092915050565b7f4e487b7100000000000000000000000000000000000000000000000000000000600052601160045260246000fd5b60006157a882612759565b91506157b383612759565b92508282026157c181612759565b915082820484148315176157d8576157d761576e565b5b5092915050565b60006157ea82612759565b91506157f583612759565b925082820190508082111561580d5761580c61576e565b5b92915050565b600061581e82612759565b9150600082036158315761583061576e565b5b600182039050919050565b7f537472696e67733a20686578206c656e67746820696e73756666696369656e74600082015250565b6000615872602083614330565b915061587d8261583c565b602082019050919050565b600060208201905081810360008301526158a181615865565b905091905056fea2646970667358221220f5087d9caeb7a65f8ebd58d25b5e490cda34bf511b56338ff5e969cea0d623ef64736f6c63430008110033",
  "linkReferences": {},
  "deployedLinkReferences": {}
}