{
  "contractName": "OwnableIBCHandler",
  "abi": [
    {
      "inputs": [
        {
          "internalType": "address",
          "name": "ibcClient",
          "type": "address"
        },
        {
          "internalType": "address",
          "name": "ibcConnection",
          "type": "address"
        },
        {
          "internalType": "address",
          "name": "ibcChannel",
          "type": "address"
        },
        {
          "internalType": "address",
          "name": "ibcPacket",
          "type": "address"
        }
      ],
      "stateMutability": "nonpayable",
      "type": "constructor"
    },
    {
      "anonymous": false,
      "inputs": [
        {
          "components": [
            {
              "internalType": "uint64",
              "name": "sequence",
              "type": "uint64"
            },
            {
              "internalType": "string",
              "name": "sourcePort",
              "type": "string"
            },
            {
              "internalType": "string",
              "name": "sourceChannel",
              "type": "string"
            },
            {
              "internalType": "string",
              "name": "destinationPort",
              "type": "string"
            },
            {
              "internalType": "string",
              "name": "destinationChannel",
              "type": "string"
            },
            {
              "internalType": "bytes",
              "name": "data",
              "type": "bytes"
            },
            {
              "components": [
                {
                  "internalType": "uint64",
                  "name": "revisionNumber",
                  "type": "uint64"
                },
                {
                  "internalType": "uint64",
                  "name": "revisionHeight",
                  "type": "uint64"
                }
              ],
              "internalType": "struct Height.Data",
              "name": "timeoutHeight",
              "type": "tuple"
            },
            {
              "internalType": "uint64",
              "name": "timeoutTimestamp",
              "type": "uint64"
            }
          ],
          "indexed": false,
          "internalType": "struct Packet.Data",
          "name": "packet",
          "type": "tuple"
        },
        {
          "indexed": false,
          "internalType": "bytes",
          "name": "acknowledgement",
          "type": "bytes"
        }
      ],
      "name": "AcknowledgePacket",
      "type": "event"
    },
    {
      "anonymous": false,
      "inputs": [
        {
          "indexed": false,
          "internalType": "string",
          "name": "portId",
          "type": "string"
        },
        {
          "indexed": false,
          "internalType": "string",
          "name": "channelId",
          "type": "string"
        },
        {
          "indexed": false,
          "internalType": "string",
          "name": "connectionId",
          "type": "string"
        },
        {
          "indexed": false,
          "internalType": "string",
          "name": "counterpartyPortId",
          "type": "string"
        },
        {
          "indexed": false,
          "internalType": "string",
          "name": "counterpartyChannelId",
          "type": "string"
        }
      ],
      "name": "CloseConfirmChannel",
      "type": "event"
    },
    {
      "anonymous": false,
      "inputs": [
        {
          "indexed": false,
          "internalType": "string",
          "name": "portId",
          "type": "string"
        },
        {
          "indexed": false,
          "internalType": "string",
          "name": "channelId",
          "type": "string"
        },
        {
          "indexed": false,
          "internalType": "string",
          "name": "connectionId",
          "type": "string"
        },
        {
          "indexed": false,
          "internalType": "string",
          "name": "counterpartyPortId",
          "type": "string"
        },
        {
          "indexed": false,
          "internalType": "string",
          "name": "counterpartyChannelId",
          "type": "string"
        }
      ],
      "name": "CloseInitChannel",
      "type": "event"
    },
    {
      "anonymous": false,
      "inputs": [
        {
          "indexed": false,
          "internalType": "string",
          "name": "clientId",
          "type": "string"
        },
        {
          "indexed": false,
          "internalType": "string",
          "name": "clientType",
          "type": "string"
        }
      ],
      "name": "CreateClient",
      "type": "event"
    },
    {
      "anonymous": false,
      "inputs": [
        {
          "indexed": false,
          "internalType": "string",
          "name": "portId",
          "type": "string"
        },
        {
          "indexed": false,
          "internalType": "string",
          "name": "channelId",
          "type": "string"
        },
        {
          "indexed": false,
          "internalType": "string",
          "name": "connectionId",
          "type": "string"
        },
        {
          "indexed": false,
          "internalType": "string",
          "name": "counterpartyPortId",
          "type": "string"
        },
        {
          "indexed": false,
          "internalType": "string",
          "name": "counterpartyChannelId",
          "type": "string"
        }
      ],
      "name": "OpenAckChannel",
      "type": "event"
    },
    {
      "anonymous": false,
      "inputs": [
        {
          "indexed": false,
          "internalType": "string",
          "name": "connectionId",
          "type": "string"
        },
        {
          "indexed": false,
          "internalType": "string",
          "name": "clientId",
          "type": "string"
        },
        {
          "indexed": false,
          "internalType": "string",
          "name": "counterpartyConnectionId",
          "type": "string"
        },
        {
          "indexed": false,
          "internalType": "string",
          "name": "counterpartyClientId",
          "type": "string"
        }
      ],
      "name": "OpenAckConnection",
      "type": "event"
    },
    {
      "anonymous": false,
      "inputs": [
        {
          "indexed": false,
          "internalType": "string",
          "name": "portId",
          "type": "string"
        },
        {
          "indexed": false,
          "internalType": "string",
          "name": "channelId",
          "type": "string"
        },
        {
          "indexed": false,
          "internalType": "string",
          "name": "connectionId",
          "type": "string"
        },
        {
          "indexed": false,
          "internalType": "string",
          "name": "counterpartyPortId",
          "type": "string"
        },
        {
          "indexed": false,
          "internalType": "string",
          "name": "counterpartyChannelId",
          "type": "string"
        }
      ],
      "name": "OpenConfirmChannel",
      "type": "event"
    },
    {
      "anonymous": false,
      "inputs": [
        {
          "indexed": false,
          "internalType": "string",
          "name": "connectionId",
          "type": "string"
        },
        {
          "indexed": false,
          "internalType": "string",
          "name": "clientId",
          "type": "string"
        },
        {
          "indexed": false,
          "internalType": "string",
          "name": "counterpartyConnectionId",
          "type": "string"
        },
        {
          "indexed": false,
          "internalType": "string",
          "name": "counterpartyClientId",
          "type": "string"
        }
      ],
      "name": "OpenConfirmConnection",
      "type": "event"
    },
    {
      "anonymous": false,
      "inputs": [
        {
          "indexed": false,
          "internalType": "string",
          "name": "portId",
          "type": "string"
        },
        {
          "indexed": false,
          "internalType": "string",
          "name": "channelId",
          "type": "string"
        },
        {
          "indexed": false,
          "internalType": "string",
          "name": "connectionId",
          "type": "string"
        },
        {
          "indexed": false,
          "internalType": "string",
          "name": "counterpartyPortId",
          "type": "string"
        },
        {
          "indexed": false,
          "internalType": "string",
          "name": "counterpartyChannelId",
          "type": "string"
        }
      ],
      "name": "OpenInitChannel",
      "type": "event"
    },
    {
      "anonymous": false,
      "inputs": [
        {
          "indexed": false,
          "internalType": "string",
          "name": "connectionId",
          "type": "string"
        },
        {
          "indexed": false,
          "internalType": "string",
          "name": "clientId",
          "type": "string"
        },
        {
          "indexed": false,
          "internalType": "string",
          "name": "counterpartyConnectionId",
          "type": "string"
        },
        {
          "indexed": false,
          "internalType": "string",
          "name": "counterpartyClientId",
          "type": "string"
        }
      ],
      "name": "OpenInitConnection",
      "type": "event"
    },
    {
      "anonymous": false,
      "inputs": [
        {
          "indexed": false,
          "internalType": "string",
          "name": "portId",
          "type": "string"
        },
        {
          "indexed": false,
          "internalType": "string",
          "name": "channelId",
          "type": "string"
        },
        {
          "indexed": false,
          "internalType": "string",
          "name": "connectionId",
          "type": "string"
        },
        {
          "indexed": false,
          "internalType": "string",
          "name": "counterpartyPortId",
          "type": "string"
        },
        {
          "indexed": false,
          "internalType": "string",
          "name": "counterpartyChannelId",
          "type": "string"
        }
      ],
      "name": "OpenTryChannel",
      "type": "event"
    },
    {
      "anonymous": false,
      "inputs": [
        {
          "indexed": false,
          "internalType": "string",
          "name": "connectionId",
          "type": "string"
        },
        {
          "indexed": false,
          "internalType": "string",
          "name": "clientId",
          "type": "string"
        },
        {
          "indexed": false,
          "internalType": "string",
          "name": "counterpartyConnectionId",
          "type": "string"
        },
        {
          "indexed": false,
          "internalType": "string",
          "name": "counterpartyClientId",
          "type": "string"
        }
      ],
      "name": "OpenTryConnection",
      "type": "event"
    },
    {
      "anonymous": false,
      "inputs": [
        {
          "indexed": true,
          "internalType": "address",
          "name": "previousOwner",
          "type": "address"
        },
        {
          "indexed": true,
          "internalType": "address",
          "name": "newOwner",
          "type": "address"
        }
      ],
      "name": "OwnershipTransferred",
      "type": "event"
    },
    {
      "anonymous": false,
      "inputs": [
        {
          "components": [
            {
              "internalType": "uint64",
              "name": "sequence",
              "type": "uint64"
            },
            {
              "internalType": "string",
              "name": "sourcePort",
              "type": "string"
            },
            {
              "internalType": "string",
              "name": "sourceChannel",
              "type": "string"
            },
            {
              "internalType": "string",
              "name": "destinationPort",
              "type": "string"
            },
            {
              "internalType": "string",
              "name": "destinationChannel",
              "type": "string"
            },
            {
              "internalType": "bytes",
              "name": "data",
              "type": "bytes"
            },
            {
              "components": [
                {
                  "internalType": "uint64",
                  "name": "revisionNumber",
                  "type": "uint64"
                },
                {
                  "internalType": "uint64",
                  "name": "revisionHeight",
                  "type": "uint64"
                }
              ],
              "internalType": "struct Height.Data",
              "name": "timeoutHeight",
              "type": "tuple"
            },
            {
              "internalType": "uint64",
              "name": "timeoutTimestamp",
              "type": "uint64"
            }
          ],
          "indexed": false,
          "internalType": "struct Packet.Data",
          "name": "packet",
          "type": "tuple"
        }
      ],
      "name": "ReceivePacket",
      "type": "event"
    },
    {
      "anonymous": false,
      "inputs": [
        {
          "indexed": false,
          "internalType": "string",
          "name": "filter",
          "type": "string"
        }
      ],
      "name": "RegisterCellEmitterFilter",
      "type": "event"
    },
    {
      "anonymous": false,
      "inputs": [
        {
          "indexed": false,
          "internalType": "string",
          "name": "filter",
          "type": "string"
        }
      ],
      "name": "RemoveCellEmitterFilter",
      "type": "event"
    },
    {
      "anonymous": false,
      "inputs": [
        {
          "components": [
            {
              "internalType": "uint64",
              "name": "sequence",
              "type": "uint64"
            },
            {
              "internalType": "string",
              "name": "sourcePort",
              "type": "string"
            },
            {
              "internalType": "string",
              "name": "sourceChannel",
              "type": "string"
            },
            {
              "internalType": "string",
              "name": "destinationPort",
              "type": "string"
            },
            {
              "internalType": "string",
              "name": "destinationChannel",
              "type": "string"
            },
            {
              "internalType": "bytes",
              "name": "data",
              "type": "bytes"
            },
            {
              "components": [
                {
                  "internalType": "uint64",
                  "name": "revisionNumber",
                  "type": "uint64"
                },
                {
                  "internalType": "uint64",
                  "name": "revisionHeight",
                  "type": "uint64"
                }
              ],
              "internalType": "struct Height.Data",
              "name": "timeoutHeight",
              "type": "tuple"
            },
            {
              "internalType": "uint64",
              "name": "timeoutTimestamp",
              "type": "uint64"
            }
          ],
          "indexed": false,
          "internalType": "struct Packet.Data",
          "name": "packet",
          "type": "tuple"
        }
      ],
      "name": "SendPacket",
      "type": "event"
    },
    {
      "anonymous": false,
      "inputs": [
        {
          "indexed": false,
          "internalType": "string",
          "name": "clientId",
          "type": "string"
        },
        {
          "indexed": false,
          "internalType": "bytes",
          "name": "clientMessage",
          "type": "bytes"
        }
      ],
      "name": "UpdateClient",
      "type": "event"
    },
    {
      "anonymous": false,
      "inputs": [
        {
          "components": [
            {
              "internalType": "uint64",
              "name": "sequence",
              "type": "uint64"
            },
            {
              "internalType": "string",
              "name": "sourcePort",
              "type": "string"
            },
            {
              "internalType": "string",
              "name": "sourceChannel",
              "type": "string"
            },
            {
              "internalType": "string",
              "name": "destinationPort",
              "type": "string"
            },
            {
              "internalType": "string",
              "name": "destinationChannel",
              "type": "string"
            },
            {
              "internalType": "bytes",
              "name": "data",
              "type": "bytes"
            },
            {
              "components": [
                {
                  "internalType": "uint64",
                  "name": "revisionNumber",
                  "type": "uint64"
                },
                {
                  "internalType": "uint64",
                  "name": "revisionHeight",
                  "type": "uint64"
                }
              ],
              "internalType": "struct Height.Data",
              "name": "timeoutHeight",
              "type": "tuple"
            },
            {
              "internalType": "uint64",
              "name": "timeoutTimestamp",
              "type": "uint64"
            }
          ],
          "indexed": false,
          "internalType": "struct Packet.Data",
          "name": "packet",
          "type": "tuple"
        },
        {
          "indexed": false,
          "internalType": "bytes",
          "name": "acknowledgement",
          "type": "bytes"
        }
      ],
      "name": "WriteAcknowledgement",
      "type": "event"
    },
    {
      "inputs": [
        {
          "components": [
            {
              "components": [
                {
                  "internalType": "uint64",
                  "name": "sequence",
                  "type": "uint64"
                },
                {
                  "internalType": "string",
                  "name": "sourcePort",
                  "type": "string"
                },
                {
                  "internalType": "string",
                  "name": "sourceChannel",
                  "type": "string"
                },
                {
                  "internalType": "string",
                  "name": "destinationPort",
                  "type": "string"
                },
                {
                  "internalType": "string",
                  "name": "destinationChannel",
                  "type": "string"
                },
                {
                  "internalType": "bytes",
                  "name": "data",
                  "type": "bytes"
                },
                {
                  "components": [
                    {
                      "internalType": "uint64",
                      "name": "revisionNumber",
                      "type": "uint64"
                    },
                    {
                      "internalType": "uint64",
                      "name": "revisionHeight",
                      "type": "uint64"
                    }
                  ],
                  "internalType": "struct Height.Data",
                  "name": "timeoutHeight",
                  "type": "tuple"
                },
                {
                  "internalType": "uint64",
                  "name": "timeoutTimestamp",
                  "type": "uint64"
                }
              ],
              "internalType": "struct Packet.Data",
              "name": "packet",
              "type": "tuple"
            },
            {
              "internalType": "bytes",
              "name": "acknowledgement",
              "type": "bytes"
            },
            {
              "internalType": "bytes",
              "name": "proof",
              "type": "bytes"
            },
            {
              "components": [
                {
                  "internalType": "uint64",
                  "name": "revisionNumber",
                  "type": "uint64"
                },
                {
                  "internalType": "uint64",
                  "name": "revisionHeight",
                  "type": "uint64"
                }
              ],
              "internalType": "struct Height.Data",
              "name": "proofHeight",
              "type": "tuple"
            }
          ],
          "internalType": "struct IBCMsgs.MsgPacketAcknowledgement",
          "name": "msg_",
          "type": "tuple"
        }
      ],
      "name": "acknowledgePacket",
      "outputs": [],
      "stateMutability": "nonpayable",
      "type": "function"
    },
    {
      "inputs": [
        {
          "internalType": "bytes",
          "name": "",
          "type": "bytes"
        },
        {
          "internalType": "uint256",
          "name": "",
          "type": "uint256"
        }
      ],
      "name": "capabilities",
      "outputs": [
        {
          "internalType": "address",
          "name": "",
          "type": "address"
        }
      ],
      "stateMutability": "view",
      "type": "function"
    },
    {
      "inputs": [
        {
          "internalType": "string",
          "name": "portId",
          "type": "string"
        },
        {
          "internalType": "string",
          "name": "channelId",
          "type": "string"
        }
      ],
      "name": "channelCapabilityPath",
      "outputs": [
        {
          "internalType": "bytes",
          "name": "",
          "type": "bytes"
        }
      ],
      "stateMutability": "pure",
      "type": "function"
    },
    {
      "inputs": [
        {
          "components": [
            {
              "internalType": "string",
              "name": "portId",
              "type": "string"
            },
            {
              "internalType": "string",
              "name": "channelId",
              "type": "string"
            },
            {
              "internalType": "bytes",
              "name": "proofInit",
              "type": "bytes"
            },
            {
              "components": [
                {
                  "internalType": "uint64",
                  "name": "revisionNumber",
                  "type": "uint64"
                },
                {
                  "internalType": "uint64",
                  "name": "revisionHeight",
                  "type": "uint64"
                }
              ],
              "internalType": "struct Height.Data",
              "name": "proofHeight",
              "type": "tuple"
            }
          ],
          "internalType": "struct IBCMsgs.MsgChannelCloseConfirm",
          "name": "msg_",
          "type": "tuple"
        }
      ],
      "name": "channelCloseConfirm",
      "outputs": [
        {
          "components": [
            {
              "internalType": "string",
              "name": "portId",
              "type": "string"
            },
            {
              "internalType": "string",
              "name": "connectionId",
              "type": "string"
            },
            {
              "internalType": "string",
              "name": "channelId",
              "type": "string"
            },
            {
              "internalType": "string",
              "name": "counterpartyPortId",
              "type": "string"
            },
            {
              "internalType": "string",
              "name": "counterpartyChannelId",
              "type": "string"
            }
          ],
          "internalType": "struct Channel.Attributes",
          "name": "attr",
          "type": "tuple"
        }
      ],
      "stateMutability": "nonpayable",
      "type": "function"
    },
    {
      "inputs": [
        {
          "components": [
            {
              "internalType": "string",
              "name": "portId",
              "type": "string"
            },
            {
              "internalType": "string",
              "name": "channelId",
              "type": "string"
            }
          ],
          "internalType": "struct IBCMsgs.MsgChannelCloseInit",
          "name": "msg_",
          "type": "tuple"
        }
      ],
      "name": "channelCloseInit",
      "outputs": [
        {
          "components": [
            {
              "internalType": "string",
              "name": "portId",
              "type": "string"
            },
            {
              "internalType": "string",
              "name": "connectionId",
              "type": "string"
            },
            {
              "internalType": "string",
              "name": "channelId",
              "type": "string"
            },
            {
              "internalType": "string",
              "name": "counterpartyPortId",
              "type": "string"
            },
            {
              "internalType": "string",
              "name": "counterpartyChannelId",
              "type": "string"
            }
          ],
          "internalType": "struct Channel.Attributes",
          "name": "attr",
          "type": "tuple"
        }
      ],
      "stateMutability": "nonpayable",
      "type": "function"
    },
    {
      "inputs": [
        {
          "internalType": "uint256",
          "name": "",
          "type": "uint256"
        }
      ],
      "name": "channelIds",
      "outputs": [
        {
          "internalType": "string",
          "name": "",
          "type": "string"
        }
      ],
      "stateMutability": "view",
      "type": "function"
    },
    {
      "inputs": [
        {
          "components": [
            {
              "internalType": "string",
              "name": "portId",
              "type": "string"
            },
            {
              "internalType": "string",
              "name": "channelId",
              "type": "string"
            },
            {
              "internalType": "string",
              "name": "counterpartyVersion",
              "type": "string"
            },
            {
              "internalType": "string",
              "name": "counterpartyChannelId",
              "type": "string"
            },
            {
              "internalType": "bytes",
              "name": "proofTry",
              "type": "bytes"
            },
            {
              "components": [
                {
                  "internalType": "uint64",
                  "name": "revisionNumber",
                  "type": "uint64"
                },
                {
                  "internalType": "uint64",
                  "name": "revisionHeight",
                  "type": "uint64"
                }
              ],
              "internalType": "struct Height.Data",
              "name": "proofHeight",
              "type": "tuple"
            }
          ],
          "internalType": "struct IBCMsgs.MsgChannelOpenAck",
          "name": "msg_",
          "type": "tuple"
        }
      ],
      "name": "channelOpenAck",
      "outputs": [
        {
          "components": [
            {
              "internalType": "string",
              "name": "portId",
              "type": "string"
            },
            {
              "internalType": "string",
              "name": "connectionId",
              "type": "string"
            },
            {
              "internalType": "string",
              "name": "channelId",
              "type": "string"
            },
            {
              "internalType": "string",
              "name": "counterpartyPortId",
              "type": "string"
            },
            {
              "internalType": "string",
              "name": "counterpartyChannelId",
              "type": "string"
            }
          ],
          "internalType": "struct Channel.Attributes",
          "name": "attr",
          "type": "tuple"
        }
      ],
      "stateMutability": "nonpayable",
      "type": "function"
    },
    {
      "inputs": [
        {
          "components": [
            {
              "internalType": "string",
              "name": "portId",
              "type": "string"
            },
            {
              "internalType": "string",
              "name": "channelId",
              "type": "string"
            },
            {
              "internalType": "bytes",
              "name": "proofAck",
              "type": "bytes"
            },
            {
              "components": [
                {
                  "internalType": "uint64",
                  "name": "revisionNumber",
                  "type": "uint64"
                },
                {
                  "internalType": "uint64",
                  "name": "revisionHeight",
                  "type": "uint64"
                }
              ],
              "internalType": "struct Height.Data",
              "name": "proofHeight",
              "type": "tuple"
            }
          ],
          "internalType": "struct IBCMsgs.MsgChannelOpenConfirm",
          "name": "msg_",
          "type": "tuple"
        }
      ],
      "name": "channelOpenConfirm",
      "outputs": [
        {
          "components": [
            {
              "internalType": "string",
              "name": "portId",
              "type": "string"
            },
            {
              "internalType": "string",
              "name": "connectionId",
              "type": "string"
            },
            {
              "internalType": "string",
              "name": "channelId",
              "type": "string"
            },
            {
              "internalType": "string",
              "name": "counterpartyPortId",
              "type": "string"
            },
            {
              "internalType": "string",
              "name": "counterpartyChannelId",
              "type": "string"
            }
          ],
          "internalType": "struct Channel.Attributes",
          "name": "attr",
          "type": "tuple"
        }
      ],
      "stateMutability": "nonpayable",
      "type": "function"
    },
    {
      "inputs": [
        {
          "components": [
            {
              "internalType": "string",
              "name": "portId",
              "type": "string"
            },
            {
              "components": [
                {
                  "internalType": "enum Channel.State",
                  "name": "state",
                  "type": "uint8"
                },
                {
                  "internalType": "enum Channel.Order",
                  "name": "ordering",
                  "type": "uint8"
                },
                {
                  "components": [
                    {
                      "internalType": "string",
                      "name": "portId",
                      "type": "string"
                    },
                    {
                      "internalType": "string",
                      "name": "channelId",
                      "type": "string"
                    }
                  ],
                  "internalType": "struct ChannelCounterparty.Data",
                  "name": "counterparty",
                  "type": "tuple"
                },
                {
                  "internalType": "string[]",
                  "name": "connectionHops",
                  "type": "string[]"
                },
                {
                  "internalType": "string",
                  "name": "version",
                  "type": "string"
                }
              ],
              "internalType": "struct Channel.Data",
              "name": "channel",
              "type": "tuple"
            }
          ],
          "internalType": "struct IBCMsgs.MsgChannelOpenInit",
          "name": "msg_",
          "type": "tuple"
        }
      ],
      "name": "channelOpenInit",
      "outputs": [
        {
          "components": [
            {
              "internalType": "string",
              "name": "portId",
              "type": "string"
            },
            {
              "internalType": "string",
              "name": "connectionId",
              "type": "string"
            },
            {
              "internalType": "string",
              "name": "channelId",
              "type": "string"
            },
            {
              "internalType": "string",
              "name": "counterpartyPortId",
              "type": "string"
            },
            {
              "internalType": "string",
              "name": "counterpartyChannelId",
              "type": "string"
            }
          ],
          "internalType": "struct Channel.Attributes",
          "name": "attr",
          "type": "tuple"
        }
      ],
      "stateMutability": "nonpayable",
      "type": "function"
    },
    {
      "inputs": [
        {
          "components": [
            {
              "internalType": "string",
              "name": "portId",
              "type": "string"
            },
            {
              "internalType": "string",
              "name": "previousChannelId",
              "type": "string"
            },
            {
              "components": [
                {
                  "internalType": "enum Channel.State",
                  "name": "state",
                  "type": "uint8"
                },
                {
                  "internalType": "enum Channel.Order",
                  "name": "ordering",
                  "type": "uint8"
                },
                {
                  "components": [
                    {
                      "internalType": "string",
                      "name": "portId",
                      "type": "string"
                    },
                    {
                      "internalType": "string",
                      "name": "channelId",
                      "type": "string"
                    }
                  ],
                  "internalType": "struct ChannelCounterparty.Data",
                  "name": "counterparty",
                  "type": "tuple"
                },
                {
                  "internalType": "string[]",
                  "name": "connectionHops",
                  "type": "string[]"
                },
                {
                  "internalType": "string",
                  "name": "version",
                  "type": "string"
                }
              ],
              "internalType": "struct Channel.Data",
              "name": "channel",
              "type": "tuple"
            },
            {
              "internalType": "string",
              "name": "counterpartyVersion",
              "type": "string"
            },
            {
              "internalType": "bytes",
              "name": "proofInit",
              "type": "bytes"
            },
            {
              "components": [
                {
                  "internalType": "uint64",
                  "name": "revisionNumber",
                  "type": "uint64"
                },
                {
                  "internalType": "uint64",
                  "name": "revisionHeight",
                  "type": "uint64"
                }
              ],
              "internalType": "struct Height.Data",
              "name": "proofHeight",
              "type": "tuple"
            }
          ],
          "internalType": "struct IBCMsgs.MsgChannelOpenTry",
          "name": "msg_",
          "type": "tuple"
        }
      ],
      "name": "channelOpenTry",
      "outputs": [
        {
          "components": [
            {
              "internalType": "string",
              "name": "portId",
              "type": "string"
            },
            {
              "internalType": "string",
              "name": "connectionId",
              "type": "string"
            },
            {
              "internalType": "string",
              "name": "channelId",
              "type": "string"
            },
            {
              "internalType": "string",
              "name": "counterpartyPortId",
              "type": "string"
            },
            {
              "internalType": "string",
              "name": "counterpartyChannelId",
              "type": "string"
            }
          ],
          "internalType": "struct Channel.Attributes",
          "name": "attr",
          "type": "tuple"
        }
      ],
      "stateMutability": "nonpayable",
      "type": "function"
    },
    {
      "inputs": [
        {
          "internalType": "string",
          "name": "",
          "type": "string"
        },
        {
          "internalType": "string",
          "name": "",
          "type": "string"
        }
      ],
      "name": "channels",
      "outputs": [
        {
          "internalType": "enum Channel.State",
          "name": "state",
          "type": "uint8"
        },
        {
          "internalType": "enum Channel.Order",
          "name": "ordering",
          "type": "uint8"
        },
        {
          "components": [
            {
              "internalType": "string",
              "name": "portId",
              "type": "string"
            },
            {
              "internalType": "string",
              "name": "channelId",
              "type": "string"
            }
          ],
          "internalType": "struct ChannelCounterparty.Data",
          "name": "counterparty",
          "type": "tuple"
        },
        {
          "internalType": "string",
          "name": "version",
          "type": "string"
        }
      ],
      "stateMutability": "view",
      "type": "function"
    },
    {
      "inputs": [
        {
          "internalType": "string",
          "name": "",
          "type": "string"
        },
        {
          "internalType": "uint256",
          "name": "",
          "type": "uint256"
        }
      ],
      "name": "clientConnectionIds",
      "outputs": [
        {
          "internalType": "string",
          "name": "",
          "type": "string"
        }
      ],
      "stateMutability": "view",
      "type": "function"
    },
    {
      "inputs": [
        {
          "internalType": "uint256",
          "name": "",
          "type": "uint256"
        }
      ],
      "name": "clientIds",
      "outputs": [
        {
          "internalType": "string",
          "name": "",
          "type": "string"
        }
      ],
      "stateMutability": "view",
      "type": "function"
    },
    {
      "inputs": [
        {
          "internalType": "string",
          "name": "",
          "type": "string"
        }
      ],
      "name": "clientImpls",
      "outputs": [
        {
          "internalType": "address",
          "name": "",
          "type": "address"
        }
      ],
      "stateMutability": "view",
      "type": "function"
    },
    {
      "inputs": [
        {
          "internalType": "string",
          "name": "",
          "type": "string"
        }
      ],
      "name": "clientRegistry",
      "outputs": [
        {
          "internalType": "address",
          "name": "",
          "type": "address"
        }
      ],
      "stateMutability": "view",
      "type": "function"
    },
    {
      "inputs": [
        {
          "internalType": "string",
          "name": "",
          "type": "string"
        }
      ],
      "name": "clientTypes",
      "outputs": [
        {
          "internalType": "string",
          "name": "",
          "type": "string"
        }
      ],
      "stateMutability": "view",
      "type": "function"
    },
    {
      "inputs": [
        {
          "internalType": "bytes32",
          "name": "",
          "type": "bytes32"
        }
      ],
      "name": "commitments",
      "outputs": [
        {
          "internalType": "bytes32",
          "name": "",
          "type": "bytes32"
        }
      ],
      "stateMutability": "view",
      "type": "function"
    },
    {
      "inputs": [
        {
          "internalType": "uint256",
          "name": "",
          "type": "uint256"
        }
      ],
      "name": "connectionIds",
      "outputs": [
        {
          "internalType": "string",
          "name": "",
          "type": "string"
        }
      ],
      "stateMutability": "view",
      "type": "function"
    },
    {
      "inputs": [
        {
          "components": [
            {
              "internalType": "string",
              "name": "connectionId",
              "type": "string"
            },
            {
              "internalType": "bytes",
              "name": "clientState",
              "type": "bytes"
            },
            {
              "components": [
                {
                  "internalType": "string",
                  "name": "identifier",
                  "type": "string"
                },
                {
                  "internalType": "string[]",
                  "name": "features",
                  "type": "string[]"
                }
              ],
              "internalType": "struct Version.Data",
              "name": "version",
              "type": "tuple"
            },
            {
              "internalType": "string",
              "name": "counterpartyConnectionId",
              "type": "string"
            },
            {
              "internalType": "bytes",
              "name": "proofTry",
              "type": "bytes"
            },
            {
              "internalType": "bytes",
              "name": "proofClient",
              "type": "bytes"
            },
            {
              "internalType": "bytes",
              "name": "proofConsensus",
              "type": "bytes"
            },
            {
              "components": [
                {
                  "internalType": "uint64",
                  "name": "revisionNumber",
                  "type": "uint64"
                },
                {
                  "internalType": "uint64",
                  "name": "revisionHeight",
                  "type": "uint64"
                }
              ],
              "internalType": "struct Height.Data",
              "name": "proofHeight",
              "type": "tuple"
            },
            {
              "components": [
                {
                  "internalType": "uint64",
                  "name": "revisionNumber",
                  "type": "uint64"
                },
                {
                  "internalType": "uint64",
                  "name": "revisionHeight",
                  "type": "uint64"
                }
              ],
              "internalType": "struct Height.Data",
              "name": "consensusHeight",
              "type": "tuple"
            }
          ],
          "internalType": "struct IBCMsgs.MsgConnectionOpenAck",
          "name": "msg_",
          "type": "tuple"
        }
      ],
      "name": "connectionOpenAck",
      "outputs": [
        {
          "components": [
            {
              "internalType": "string",
              "name": "connectionId",
              "type": "string"
            },
            {
              "internalType": "string",
              "name": "clientId",
              "type": "string"
            },
            {
              "internalType": "string",
              "name": "counterpartyConnectionId",
              "type": "string"
            },
            {
              "internalType": "string",
              "name": "counterpartyClientId",
              "type": "string"
            }
          ],
          "internalType": "struct ConnectionEnd.Attributes",
          "name": "attr",
          "type": "tuple"
        }
      ],
      "stateMutability": "nonpayable",
      "type": "function"
    },
    {
      "inputs": [
        {
          "components": [
            {
              "internalType": "string",
              "name": "connectionId",
              "type": "string"
            },
            {
              "internalType": "bytes",
              "name": "proofAck",
              "type": "bytes"
            },
            {
              "components": [
                {
                  "internalType": "uint64",
                  "name": "revisionNumber",
                  "type": "uint64"
                },
                {
                  "internalType": "uint64",
                  "name": "revisionHeight",
                  "type": "uint64"
                }
              ],
              "internalType": "struct Height.Data",
              "name": "proofHeight",
              "type": "tuple"
            }
          ],
          "internalType": "struct IBCMsgs.MsgConnectionOpenConfirm",
          "name": "msg_",
          "type": "tuple"
        }
      ],
      "name": "connectionOpenConfirm",
      "outputs": [
        {
          "components": [
            {
              "internalType": "string",
              "name": "connectionId",
              "type": "string"
            },
            {
              "internalType": "string",
              "name": "clientId",
              "type": "string"
            },
            {
              "internalType": "string",
              "name": "counterpartyConnectionId",
              "type": "string"
            },
            {
              "internalType": "string",
              "name": "counterpartyClientId",
              "type": "string"
            }
          ],
          "internalType": "struct ConnectionEnd.Attributes",
          "name": "attr",
          "type": "tuple"
        }
      ],
      "stateMutability": "nonpayable",
      "type": "function"
    },
    {
      "inputs": [
        {
          "components": [
            {
              "internalType": "string",
              "name": "clientId",
              "type": "string"
            },
            {
              "components": [
                {
                  "internalType": "string",
                  "name": "clientId",
                  "type": "string"
                },
                {
                  "internalType": "string",
                  "name": "connectionId",
                  "type": "string"
                },
                {
                  "components": [
                    {
                      "internalType": "bytes",
                      "name": "keyPrefix",
                      "type": "bytes"
                    }
                  ],
                  "internalType": "struct MerklePrefix.Data",
                  "name": "prefix",
                  "type": "tuple"
                }
              ],
              "internalType": "struct Counterparty.Data",
              "name": "counterparty",
              "type": "tuple"
            },
            {
              "internalType": "uint64",
              "name": "delayPeriod",
              "type": "uint64"
            }
          ],
          "internalType": "struct IBCMsgs.MsgConnectionOpenInit",
          "name": "msg_",
          "type": "tuple"
        }
      ],
      "name": "connectionOpenInit",
      "outputs": [
        {
          "components": [
            {
              "internalType": "string",
              "name": "connectionId",
              "type": "string"
            },
            {
              "internalType": "string",
              "name": "clientId",
              "type": "string"
            },
            {
              "internalType": "string",
              "name": "counterpartyConnectionId",
              "type": "string"
            },
            {
              "internalType": "string",
              "name": "counterpartyClientId",
              "type": "string"
            }
          ],
          "internalType": "struct ConnectionEnd.Attributes",
          "name": "attr",
          "type": "tuple"
        }
      ],
      "stateMutability": "nonpayable",
      "type": "function"
    },
    {
      "inputs": [
        {
          "components": [
            {
              "internalType": "string",
              "name": "previousConnectionId",
              "type": "string"
            },
            {
              "components": [
                {
                  "internalType": "string",
                  "name": "clientId",
                  "type": "string"
                },
                {
                  "internalType": "string",
                  "name": "connectionId",
                  "type": "string"
                },
                {
                  "components": [
                    {
                      "internalType": "bytes",
                      "name": "keyPrefix",
                      "type": "bytes"
                    }
                  ],
                  "internalType": "struct MerklePrefix.Data",
                  "name": "prefix",
                  "type": "tuple"
                }
              ],
              "internalType": "struct Counterparty.Data",
              "name": "counterparty",
              "type": "tuple"
            },
            {
              "internalType": "uint64",
              "name": "delayPeriod",
              "type": "uint64"
            },
            {
              "internalType": "string",
              "name": "clientId",
              "type": "string"
            },
            {
              "internalType": "bytes",
              "name": "clientState",
              "type": "bytes"
            },
            {
              "components": [
                {
                  "internalType": "string",
                  "name": "identifier",
                  "type": "string"
                },
                {
                  "internalType": "string[]",
                  "name": "features",
                  "type": "string[]"
                }
              ],
              "internalType": "struct Version.Data[]",
              "name": "counterpartyVersions",
              "type": "tuple[]"
            },
            {
              "internalType": "bytes",
              "name": "proofInit",
              "type": "bytes"
            },
            {
              "internalType": "bytes",
              "name": "proofClient",
              "type": "bytes"
            },
            {
              "internalType": "bytes",
              "name": "proofConsensus",
              "type": "bytes"
            },
            {
              "components": [
                {
                  "internalType": "uint64",
                  "name": "revisionNumber",
                  "type": "uint64"
                },
                {
                  "internalType": "uint64",
                  "name": "revisionHeight",
                  "type": "uint64"
                }
              ],
              "internalType": "struct Height.Data",
              "name": "proofHeight",
              "type": "tuple"
            },
            {
              "components": [
                {
                  "internalType": "uint64",
                  "name": "revisionNumber",
                  "type": "uint64"
                },
                {
                  "internalType": "uint64",
                  "name": "revisionHeight",
                  "type": "uint64"
                }
              ],
              "internalType": "struct Height.Data",
              "name": "consensusHeight",
              "type": "tuple"
            }
          ],
          "internalType": "struct IBCMsgs.MsgConnectionOpenTry",
          "name": "msg_",
          "type": "tuple"
        }
      ],
      "name": "connectionOpenTry",
      "outputs": [
        {
          "components": [
            {
              "internalType": "string",
              "name": "connectionId",
              "type": "string"
            },
            {
              "internalType": "string",
              "name": "clientId",
              "type": "string"
            },
            {
              "internalType": "string",
              "name": "counterpartyConnectionId",
              "type": "string"
            },
            {
              "internalType": "string",
              "name": "counterpartyClientId",
              "type": "string"
            }
          ],
          "internalType": "struct ConnectionEnd.Attributes",
          "name": "attr",
          "type": "tuple"
        }
      ],
      "stateMutability": "nonpayable",
      "type": "function"
    },
    {
      "inputs": [
        {
          "internalType": "string",
          "name": "",
          "type": "string"
        },
        {
          "internalType": "uint256",
          "name": "",
          "type": "uint256"
        }
      ],
      "name": "connectionPortIds",
      "outputs": [
        {
          "internalType": "string",
          "name": "",
          "type": "string"
        }
      ],
      "stateMutability": "view",
      "type": "function"
    },
    {
      "inputs": [
        {
          "internalType": "string",
          "name": "",
          "type": "string"
        }
      ],
      "name": "connections",
      "outputs": [
        {
          "internalType": "string",
          "name": "clientId",
          "type": "string"
        },
        {
          "internalType": "enum ConnectionEnd.State",
          "name": "state",
          "type": "uint8"
        },
        {
          "components": [
            {
              "internalType": "string",
              "name": "clientId",
              "type": "string"
            },
            {
              "internalType": "string",
              "name": "connectionId",
              "type": "string"
            },
            {
              "components": [
                {
                  "internalType": "bytes",
                  "name": "keyPrefix",
                  "type": "bytes"
                }
              ],
              "internalType": "struct MerklePrefix.Data",
              "name": "prefix",
              "type": "tuple"
            }
          ],
          "internalType": "struct Counterparty.Data",
          "name": "counterparty",
          "type": "tuple"
        },
        {
          "internalType": "uint64",
          "name": "delayPeriod",
          "type": "uint64"
        }
      ],
      "stateMutability": "view",
      "type": "function"
    },
    {
      "inputs": [
        {
          "internalType": "string",
          "name": "",
          "type": "string"
        },
        {
          "internalType": "uint256",
          "name": "",
          "type": "uint256"
        }
      ],
      "name": "consensusHeights",
      "outputs": [
        {
          "internalType": "uint64",
          "name": "revisionNumber",
          "type": "uint64"
        },
        {
          "internalType": "uint64",
          "name": "revisionHeight",
          "type": "uint64"
        }
      ],
      "stateMutability": "view",
      "type": "function"
    },
    {
      "inputs": [
        {
          "components": [
            {
              "internalType": "string",
              "name": "clientType",
              "type": "string"
            },
            {
              "internalType": "bytes",
              "name": "clientState",
              "type": "bytes"
            },
            {
              "internalType": "bytes",
              "name": "consensusState",
              "type": "bytes"
            }
          ],
          "internalType": "struct IBCMsgs.MsgCreateClient",
          "name": "msg_",
          "type": "tuple"
        }
      ],
      "name": "createClient",
      "outputs": [
        {
          "internalType": "string",
          "name": "clientId",
          "type": "string"
        }
      ],
      "stateMutability": "nonpayable",
      "type": "function"
    },
    {
      "inputs": [],
      "name": "expectedTimePerBlock",
      "outputs": [
        {
          "internalType": "uint64",
          "name": "",
          "type": "uint64"
        }
      ],
      "stateMutability": "view",
      "type": "function"
    },
    {
      "inputs": [],
      "name": "getCellEmitterFilters",
      "outputs": [
        {
          "internalType": "string[]",
          "name": "",
          "type": "string[]"
        }
      ],
      "stateMutability": "view",
      "type": "function"
    },
    {
      "inputs": [
        {
          "internalType": "string",
          "name": "portId",
          "type": "string"
        },
        {
          "internalType": "string",
          "name": "channelId",
          "type": "string"
        }
      ],
      "name": "getChannel",
      "outputs": [
        {
          "components": [
            {
              "internalType": "enum Channel.State",
              "name": "state",
              "type": "uint8"
            },
            {
              "internalType": "enum Channel.Order",
              "name": "ordering",
              "type": "uint8"
            },
            {
              "components": [
                {
                  "internalType": "string",
                  "name": "portId",
                  "type": "string"
                },
                {
                  "internalType": "string",
                  "name": "channelId",
                  "type": "string"
                }
              ],
              "internalType": "struct ChannelCounterparty.Data",
              "name": "counterparty",
              "type": "tuple"
            },
            {
              "internalType": "string[]",
              "name": "connectionHops",
              "type": "string[]"
            },
            {
              "internalType": "string",
              "name": "version",
              "type": "string"
            }
          ],
          "internalType": "struct Channel.Data",
          "name": "",
          "type": "tuple"
        },
        {
          "internalType": "bool",
          "name": "",
          "type": "bool"
        }
      ],
      "stateMutability": "view",
      "type": "function"
    },
    {
      "inputs": [
        {
          "internalType": "string",
          "name": "portId",
          "type": "string"
        },
        {
          "internalType": "string",
          "name": "channelId",
          "type": "string"
        }
      ],
      "name": "getChannelClientState",
      "outputs": [
        {
          "internalType": "bytes",
          "name": "",
          "type": "bytes"
        },
        {
          "internalType": "bool",
          "name": "",
          "type": "bool"
        }
      ],
      "stateMutability": "view",
      "type": "function"
    },
    {
      "inputs": [],
      "name": "getChannels",
      "outputs": [
        {
          "components": [
            {
              "internalType": "enum Channel.State",
              "name": "state",
              "type": "uint8"
            },
            {
              "internalType": "enum Channel.Order",
              "name": "ordering",
              "type": "uint8"
            },
            {
              "components": [
                {
                  "internalType": "string",
                  "name": "portId",
                  "type": "string"
                },
                {
                  "internalType": "string",
                  "name": "channelId",
                  "type": "string"
                }
              ],
              "internalType": "struct ChannelCounterparty.Data",
              "name": "counterparty",
              "type": "tuple"
            },
            {
              "internalType": "string[]",
              "name": "connectionHops",
              "type": "string[]"
            },
            {
              "internalType": "string",
              "name": "version",
              "type": "string"
            },
            {
              "internalType": "string",
              "name": "portId",
              "type": "string"
            },
            {
              "internalType": "string",
              "name": "channelId",
              "type": "string"
            }
          ],
          "internalType": "struct IdentifiedChannel.Data[]",
          "name": "",
          "type": "tuple[]"
        }
      ],
      "stateMutability": "view",
      "type": "function"
    },
    {
      "inputs": [
        {
          "internalType": "string",
          "name": "clientId",
          "type": "string"
        }
      ],
      "name": "getClientConnections",
      "outputs": [
        {
          "internalType": "string[]",
          "name": "",
          "type": "string[]"
        }
      ],
      "stateMutability": "view",
      "type": "function"
    },
    {
      "inputs": [
        {
          "internalType": "string",
          "name": "clientId",
          "type": "string"
        }
      ],
      "name": "getClientState",
      "outputs": [
        {
          "internalType": "bytes",
          "name": "",
          "type": "bytes"
        },
        {
          "internalType": "bool",
          "name": "",
          "type": "bool"
        }
      ],
      "stateMutability": "view",
      "type": "function"
    },
    {
      "inputs": [],
      "name": "getClientStates",
      "outputs": [
        {
          "internalType": "bytes[]",
          "name": "",
          "type": "bytes[]"
        }
      ],
      "stateMutability": "view",
      "type": "function"
    },
    {
      "inputs": [
        {
          "internalType": "string",
          "name": "connectionId",
          "type": "string"
        }
      ],
      "name": "getConnection",
      "outputs": [
        {
          "components": [
            {
              "internalType": "string",
              "name": "clientId",
              "type": "string"
            },
            {
              "components": [
                {
                  "internalType": "string",
                  "name": "identifier",
                  "type": "string"
                },
                {
                  "internalType": "string[]",
                  "name": "features",
                  "type": "string[]"
                }
              ],
              "internalType": "struct Version.Data[]",
              "name": "versions",
              "type": "tuple[]"
            },
            {
              "internalType": "enum ConnectionEnd.State",
              "name": "state",
              "type": "uint8"
            },
            {
              "components": [
                {
                  "internalType": "string",
                  "name": "clientId",
                  "type": "string"
                },
                {
                  "internalType": "string",
                  "name": "connectionId",
                  "type": "string"
                },
                {
                  "components": [
                    {
                      "internalType": "bytes",
                      "name": "keyPrefix",
                      "type": "bytes"
                    }
                  ],
                  "internalType": "struct MerklePrefix.Data",
                  "name": "prefix",
                  "type": "tuple"
                }
              ],
              "internalType": "struct Counterparty.Data",
              "name": "counterparty",
              "type": "tuple"
            },
            {
              "internalType": "uint64",
              "name": "delayPeriod",
              "type": "uint64"
            }
          ],
          "internalType": "struct ConnectionEnd.Data",
          "name": "",
          "type": "tuple"
        },
        {
          "internalType": "bool",
          "name": "",
          "type": "bool"
        }
      ],
      "stateMutability": "view",
      "type": "function"
    },
    {
      "inputs": [
        {
          "internalType": "string",
          "name": "connectionId",
          "type": "string"
        }
      ],
      "name": "getConnectionChannels",
      "outputs": [
        {
          "components": [
            {
              "internalType": "enum Channel.State",
              "name": "state",
              "type": "uint8"
            },
            {
              "internalType": "enum Channel.Order",
              "name": "ordering",
              "type": "uint8"
            },
            {
              "components": [
                {
                  "internalType": "string",
                  "name": "portId",
                  "type": "string"
                },
                {
                  "internalType": "string",
                  "name": "channelId",
                  "type": "string"
                }
              ],
              "internalType": "struct ChannelCounterparty.Data",
              "name": "counterparty",
              "type": "tuple"
            },
            {
              "internalType": "string[]",
              "name": "connectionHops",
              "type": "string[]"
            },
            {
              "internalType": "string",
              "name": "version",
              "type": "string"
            },
            {
              "internalType": "string",
              "name": "portId",
              "type": "string"
            },
            {
              "internalType": "string",
              "name": "channelId",
              "type": "string"
            }
          ],
          "internalType": "struct IdentifiedChannel.Data[]",
          "name": "",
          "type": "tuple[]"
        }
      ],
      "stateMutability": "view",
      "type": "function"
    },
    {
      "inputs": [],
      "name": "getConnections",
      "outputs": [
        {
          "components": [
            {
              "internalType": "string",
              "name": "connectionId",
              "type": "string"
            },
            {
              "components": [
                {
                  "internalType": "string",
                  "name": "clientId",
                  "type": "string"
                },
                {
                  "components": [
                    {
                      "internalType": "string",
                      "name": "identifier",
                      "type": "string"
                    },
                    {
                      "internalType": "string[]",
                      "name": "features",
                      "type": "string[]"
                    }
                  ],
                  "internalType": "struct Version.Data[]",
                  "name": "versions",
                  "type": "tuple[]"
                },
                {
                  "internalType": "enum ConnectionEnd.State",
                  "name": "state",
                  "type": "uint8"
                },
                {
                  "components": [
                    {
                      "internalType": "string",
                      "name": "clientId",
                      "type": "string"
                    },
                    {
                      "internalType": "string",
                      "name": "connectionId",
                      "type": "string"
                    },
                    {
                      "components": [
                        {
                          "internalType": "bytes",
                          "name": "keyPrefix",
                          "type": "bytes"
                        }
                      ],
                      "internalType": "struct MerklePrefix.Data",
                      "name": "prefix",
                      "type": "tuple"
                    }
                  ],
                  "internalType": "struct Counterparty.Data",
                  "name": "counterparty",
                  "type": "tuple"
                },
                {
                  "internalType": "uint64",
                  "name": "delayPeriod",
                  "type": "uint64"
                }
              ],
              "internalType": "struct ConnectionEnd.Data",
              "name": "connectionEnd",
              "type": "tuple"
            }
          ],
          "internalType": "struct IdentifiedConnectionEnd.Data[]",
          "name": "",
          "type": "tuple[]"
        }
      ],
      "stateMutability": "view",
      "type": "function"
    },
    {
      "inputs": [
        {
          "internalType": "string",
          "name": "clientId",
          "type": "string"
        }
      ],
      "name": "getConsensusHeights",
      "outputs": [
        {
          "components": [
            {
              "internalType": "uint64",
              "name": "revisionNumber",
              "type": "uint64"
            },
            {
              "internalType": "uint64",
              "name": "revisionHeight",
              "type": "uint64"
            }
          ],
          "internalType": "struct Height.Data[]",
          "name": "",
          "type": "tuple[]"
        }
      ],
      "stateMutability": "view",
      "type": "function"
    },
    {
      "inputs": [
        {
          "internalType": "string",
          "name": "clientId",
          "type": "string"
        },
        {
          "components": [
            {
              "internalType": "uint64",
              "name": "revisionNumber",
              "type": "uint64"
            },
            {
              "internalType": "uint64",
              "name": "revisionHeight",
              "type": "uint64"
            }
          ],
          "internalType": "struct Height.Data",
          "name": "height",
          "type": "tuple"
        }
      ],
      "name": "getConsensusState",
      "outputs": [
        {
          "internalType": "bytes",
          "name": "consensusState",
          "type": "bytes"
        },
        {
          "internalType": "bool",
          "name": "",
          "type": "bool"
        }
      ],
      "stateMutability": "view",
      "type": "function"
    },
    {
      "inputs": [],
      "name": "getExpectedTimePerBlock",
      "outputs": [
        {
          "internalType": "uint64",
          "name": "",
          "type": "uint64"
        }
      ],
      "stateMutability": "view",
      "type": "function"
    },
    {
      "inputs": [
        {
          "internalType": "string",
          "name": "portId",
          "type": "string"
        },
        {
          "internalType": "string",
          "name": "channelId",
          "type": "string"
        },
        {
          "internalType": "uint64",
          "name": "sequence",
          "type": "uint64"
        }
      ],
      "name": "getHashedPacketAcknowledgementCommitment",
      "outputs": [
        {
          "internalType": "bytes32",
          "name": "",
          "type": "bytes32"
        },
        {
          "internalType": "bool",
          "name": "",
          "type": "bool"
        }
      ],
      "stateMutability": "view",
      "type": "function"
    },
    {
      "inputs": [
        {
          "internalType": "string",
          "name": "portId",
          "type": "string"
        },
        {
          "internalType": "string",
          "name": "channelId",
          "type": "string"
        },
        {
          "internalType": "uint64",
          "name": "sequence",
          "type": "uint64"
        }
      ],
      "name": "getHashedPacketCommitment",
      "outputs": [
        {
          "internalType": "bytes32",
          "name": "",
          "type": "bytes32"
        },
        {
          "internalType": "bool",
          "name": "",
          "type": "bool"
        }
      ],
      "stateMutability": "view",
      "type": "function"
    },
    {
      "inputs": [
        {
          "internalType": "string",
          "name": "portId",
          "type": "string"
        },
        {
          "internalType": "string",
          "name": "channelId",
          "type": "string"
        }
      ],
      "name": "getHashedPacketCommitmentSequences",
      "outputs": [
        {
          "internalType": "uint64[]",
          "name": "",
          "type": "uint64[]"
        }
      ],
      "stateMutability": "view",
      "type": "function"
    },
    {
      "inputs": [
        {
          "internalType": "string",
          "name": "clientId",
          "type": "string"
        }
      ],
      "name": "getLatestHeight",
      "outputs": [
        {
          "components": [
            {
              "internalType": "uint64",
              "name": "revisionNumber",
              "type": "uint64"
            },
            {
              "internalType": "uint64",
              "name": "revisionHeight",
              "type": "uint64"
            }
          ],
          "internalType": "struct Height.Data",
          "name": "",
          "type": "tuple"
        },
        {
          "internalType": "bool",
          "name": "",
          "type": "bool"
        }
      ],
      "stateMutability": "view",
      "type": "function"
    },
    {
      "inputs": [
        {
          "internalType": "string",
          "name": "portId",
          "type": "string"
        },
        {
          "internalType": "string",
          "name": "channelId",
          "type": "string"
        }
      ],
      "name": "getNextSequenceRecvs",
      "outputs": [
        {
          "internalType": "uint64",
          "name": "",
          "type": "uint64"
        }
      ],
      "stateMutability": "view",
      "type": "function"
    },
    {
      "inputs": [
        {
          "internalType": "string",
          "name": "portId",
          "type": "string"
        },
        {
          "internalType": "string",
          "name": "channelId",
          "type": "string"
        }
      ],
      "name": "getNextSequenceSend",
      "outputs": [
        {
          "internalType": "uint64",
          "name": "",
          "type": "uint64"
        }
      ],
      "stateMutability": "view",
      "type": "function"
    },
    {
      "inputs": [
        {
          "internalType": "string",
          "name": "portId",
          "type": "string"
        },
        {
          "internalType": "string",
          "name": "channelId",
          "type": "string"
        },
        {
          "internalType": "uint64",
          "name": "sequence",
          "type": "uint64"
        }
      ],
      "name": "hasPacketReceipt",
      "outputs": [
        {
          "internalType": "bool",
          "name": "",
          "type": "bool"
        }
      ],
      "stateMutability": "view",
      "type": "function"
    },
    {
      "inputs": [],
      "name": "nextChannelSequence",
      "outputs": [
        {
          "internalType": "uint64",
          "name": "",
          "type": "uint64"
        }
      ],
      "stateMutability": "view",
      "type": "function"
    },
    {
      "inputs": [],
      "name": "nextClientSequence",
      "outputs": [
        {
          "internalType": "uint64",
          "name": "",
          "type": "uint64"
        }
      ],
      "stateMutability": "view",
      "type": "function"
    },
    {
      "inputs": [],
      "name": "nextConnectionSequence",
      "outputs": [
        {
          "internalType": "uint64",
          "name": "",
          "type": "uint64"
        }
      ],
      "stateMutability": "view",
      "type": "function"
    },
    {
      "inputs": [
        {
          "internalType": "string",
          "name": "",
          "type": "string"
        },
        {
          "internalType": "string",
          "name": "",
          "type": "string"
        }
      ],
      "name": "nextSequenceAcks",
      "outputs": [
        {
          "internalType": "uint64",
          "name": "",
          "type": "uint64"
        }
      ],
      "stateMutability": "view",
      "type": "function"
    },
    {
      "inputs": [
        {
          "internalType": "string",
          "name": "",
          "type": "string"
        },
        {
          "internalType": "string",
          "name": "",
          "type": "string"
        }
      ],
      "name": "nextSequenceRecvs",
      "outputs": [
        {
          "internalType": "uint64",
          "name": "",
          "type": "uint64"
        }
      ],
      "stateMutability": "view",
      "type": "function"
    },
    {
      "inputs": [
        {
          "internalType": "string",
          "name": "",
          "type": "string"
        },
        {
          "internalType": "string",
          "name": "",
          "type": "string"
        }
      ],
      "name": "nextSequenceSends",
      "outputs": [
        {
          "internalType": "uint64",
          "name": "",
          "type": "uint64"
        }
      ],
      "stateMutability": "view",
      "type": "function"
    },
    {
      "inputs": [],
      "name": "owner",
      "outputs": [
        {
          "internalType": "address",
          "name": "",
          "type": "address"
        }
      ],
      "stateMutability": "view",
      "type": "function"
    },
    {
      "inputs": [
        {
          "internalType": "string",
          "name": "",
          "type": "string"
        },
        {
          "internalType": "string",
          "name": "",
          "type": "string"
        },
        {
          "internalType": "uint64",
          "name": "",
          "type": "uint64"
        }
      ],
      "name": "packetReceipts",
      "outputs": [
        {
          "internalType": "uint8",
          "name": "",
          "type": "uint8"
        }
      ],
      "stateMutability": "view",
      "type": "function"
    },
    {
      "inputs": [
        {
          "internalType": "string",
          "name": "portId",
          "type": "string"
        }
      ],
      "name": "portCapabilityPath",
      "outputs": [
        {
          "internalType": "bytes",
          "name": "",
          "type": "bytes"
        }
      ],
      "stateMutability": "pure",
      "type": "function"
    },
    {
      "inputs": [
        {
          "internalType": "string",
          "name": "",
          "type": "string"
        },
        {
          "internalType": "uint256",
          "name": "",
          "type": "uint256"
        }
      ],
      "name": "portChannelIds",
      "outputs": [
        {
          "internalType": "string",
          "name": "",
          "type": "string"
        }
      ],
      "stateMutability": "view",
      "type": "function"
    },
    {
      "inputs": [
        {
          "internalType": "uint256",
          "name": "",
          "type": "uint256"
        }
      ],
      "name": "portIds",
      "outputs": [
        {
          "internalType": "string",
          "name": "",
          "type": "string"
        }
      ],
      "stateMutability": "view",
      "type": "function"
    },
    {
      "inputs": [
        {
          "components": [
            {
              "components": [
                {
                  "internalType": "uint64",
                  "name": "sequence",
                  "type": "uint64"
                },
                {
                  "internalType": "string",
                  "name": "sourcePort",
                  "type": "string"
                },
                {
                  "internalType": "string",
                  "name": "sourceChannel",
                  "type": "string"
                },
                {
                  "internalType": "string",
                  "name": "destinationPort",
                  "type": "string"
                },
                {
                  "internalType": "string",
                  "name": "destinationChannel",
                  "type": "string"
                },
                {
                  "internalType": "bytes",
                  "name": "data",
                  "type": "bytes"
                },
                {
                  "components": [
                    {
                      "internalType": "uint64",
                      "name": "revisionNumber",
                      "type": "uint64"
                    },
                    {
                      "internalType": "uint64",
                      "name": "revisionHeight",
                      "type": "uint64"
                    }
                  ],
                  "internalType": "struct Height.Data",
                  "name": "timeoutHeight",
                  "type": "tuple"
                },
                {
                  "internalType": "uint64",
                  "name": "timeoutTimestamp",
                  "type": "uint64"
                }
              ],
              "internalType": "struct Packet.Data",
              "name": "packet",
              "type": "tuple"
            },
            {
              "internalType": "bytes",
              "name": "proof",
              "type": "bytes"
            },
            {
              "components": [
                {
                  "internalType": "uint64",
                  "name": "revisionNumber",
                  "type": "uint64"
                },
                {
                  "internalType": "uint64",
                  "name": "revisionHeight",
                  "type": "uint64"
                }
              ],
              "internalType": "struct Height.Data",
              "name": "proofHeight",
              "type": "tuple"
            }
          ],
          "internalType": "struct IBCMsgs.MsgPacketRecv",
          "name": "msg_",
          "type": "tuple"
        }
      ],
      "name": "recvPacket",
      "outputs": [],
      "stateMutability": "nonpayable",
      "type": "function"
    },
    {
      "inputs": [
        {
          "internalType": "string",
          "name": "filter",
          "type": "string"
        }
      ],
      "name": "registerCellEmitterFilter",
      "outputs": [
        {
          "internalType": "bool",
          "name": "",
          "type": "bool"
        }
      ],
      "stateMutability": "nonpayable",
      "type": "function"
    },
    {
      "inputs": [
        {
          "internalType": "string",
          "name": "filter",
          "type": "string"
        }
      ],
      "name": "removeCellEmitterFilter",
      "outputs": [
        {
          "internalType": "bool",
          "name": "",
          "type": "bool"
        }
      ],
      "stateMutability": "nonpayable",
      "type": "function"
    },
    {
      "inputs": [],
      "name": "renounceOwnership",
      "outputs": [],
      "stateMutability": "nonpayable",
      "type": "function"
    },
    {
      "inputs": [
        {
          "components": [
            {
              "internalType": "uint64",
              "name": "sequence",
              "type": "uint64"
            },
            {
              "internalType": "string",
              "name": "sourcePort",
              "type": "string"
            },
            {
              "internalType": "string",
              "name": "sourceChannel",
              "type": "string"
            },
            {
              "internalType": "string",
              "name": "destinationPort",
              "type": "string"
            },
            {
              "internalType": "string",
              "name": "destinationChannel",
              "type": "string"
            },
            {
              "internalType": "bytes",
              "name": "data",
              "type": "bytes"
            },
            {
              "components": [
                {
                  "internalType": "uint64",
                  "name": "revisionNumber",
                  "type": "uint64"
                },
                {
                  "internalType": "uint64",
                  "name": "revisionHeight",
                  "type": "uint64"
                }
              ],
              "internalType": "struct Height.Data",
              "name": "timeoutHeight",
              "type": "tuple"
            },
            {
              "internalType": "uint64",
              "name": "timeoutTimestamp",
              "type": "uint64"
            }
          ],
          "internalType": "struct Packet.Data",
          "name": "packet",
          "type": "tuple"
        }
      ],
      "name": "sendPacket",
      "outputs": [],
      "stateMutability": "nonpayable",
      "type": "function"
    },
    {
      "inputs": [
        {
          "internalType": "address",
          "name": "newOwner",
          "type": "address"
        }
      ],
      "name": "transferOwnership",
      "outputs": [],
      "stateMutability": "nonpayable",
      "type": "function"
    },
    {
      "inputs": [
        {
          "components": [
            {
              "internalType": "string",
              "name": "clientId",
              "type": "string"
            },
            {
              "internalType": "bytes",
              "name": "clientMessage",
              "type": "bytes"
            }
          ],
          "internalType": "struct IBCMsgs.MsgUpdateClient",
          "name": "msg_",
          "type": "tuple"
        }
      ],
      "name": "updateClient",
      "outputs": [],
      "stateMutability": "nonpayable",
      "type": "function"
    },
    {
      "inputs": [
        {
          "components": [
            {
              "internalType": "uint64",
              "name": "sequence",
              "type": "uint64"
            },
            {
              "internalType": "string",
              "name": "sourcePort",
              "type": "string"
            },
            {
              "internalType": "string",
              "name": "sourceChannel",
              "type": "string"
            },
            {
              "internalType": "string",
              "name": "destinationPort",
              "type": "string"
            },
            {
              "internalType": "string",
              "name": "destinationChannel",
              "type": "string"
            },
            {
              "internalType": "bytes",
              "name": "data",
              "type": "bytes"
            },
            {
              "components": [
                {
                  "internalType": "uint64",
                  "name": "revisionNumber",
                  "type": "uint64"
                },
                {
                  "internalType": "uint64",
                  "name": "revisionHeight",
                  "type": "uint64"
                }
              ],
              "internalType": "struct Height.Data",
              "name": "timeoutHeight",
              "type": "tuple"
            },
            {
              "internalType": "uint64",
              "name": "timeoutTimestamp",
              "type": "uint64"
            }
          ],
          "internalType": "struct Packet.Data",
          "name": "packet",
          "type": "tuple"
        },
        {
          "internalType": "bytes",
          "name": "acknowledgement",
          "type": "bytes"
        }
      ],
      "name": "writeAcknowledgement",
      "outputs": [],
      "stateMutability": "nonpayable",
      "type": "function"
    },
    {
      "inputs": [
        {
          "internalType": "string",
          "name": "clientType",
          "type": "string"
        },
        {
          "internalType": "contract ILightClient",
          "name": "client",
          "type": "address"
        }
      ],
      "name": "registerClient",
      "outputs": [],
      "stateMutability": "nonpayable",
      "type": "function"
    },
    {
      "inputs": [
        {
          "internalType": "string",
          "name": "portId",
          "type": "string"
        },
        {
          "internalType": "address",
          "name": "moduleAddress",
          "type": "address"
        }
      ],
      "name": "bindPort",
      "outputs": [],
      "stateMutability": "nonpayable",
      "type": "function"
    },
    {
      "inputs": [
        {
          "internalType": "uint64",
          "name": "expectedTimePerBlock_",
          "type": "uint64"
        }
      ],
      "name": "setExpectedTimePerBlock",
      "outputs": [],
      "stateMutability": "nonpayable",
      "type": "function"
    }
  ],
  "bytecode": "0x6101006040523480156200001257600080fd5b5060405162009d8438038062009d848339810160408190526200003591620000d8565b6001600160a01b0384811660805283811660a05282811660c052811660e0526200005f3362000069565b5050505062000135565b601680546001600160a01b038381166001600160a01b0319831681179093556040519116919082907f8be0079c531659141344cd1fd0a4f28419497f9722a3daafe3b4186f6b6457e090600090a35050565b80516001600160a01b0381168114620000d357600080fd5b919050565b60008060008060808587031215620000ef57600080fd5b620000fa85620000bb565b93506200010a60208601620000bb565b92506200011a60408601620000bb565b91506200012a60608601620000bb565b905092959194509250565b60805160a05160c05160e051619bb3620001d160003960008181611099015281816111ae01528181612de60152818161402f01526159780152600081816113830152818161161401528181614436015281816154ab015281816160990152616580015260008181610c4b015281816146cb015281816156ee01526163ea015260008181615b2a01528181615efc01526169f30152619bb36000f3fe608060405234801561001057600080fd5b50600436106104575760003560e01c80636a9c564611610250578063b50bb5c611610150578063d634b734116100c8578063de31034111610097578063ec6260a91161007c578063ec6260a914610be4578063ec75d82914610bf7578063f2fde38b14610c0857600080fd5b8063de31034114610bb2578063e1b17b4314610bc557600080fd5b8063d634b73414610b59578063da6cea5514610b79578063dd3469fc14610b8c578063dd5b9f4d14610b9f57600080fd5b8063ca9566671161011f578063d31407fe11610104578063d31407fe14610b00578063d39445df14610b13578063d5a2448114610b4657600080fd5b8063ca95666714610ab9578063d1297b8d14610acc57600080fd5b8063b50bb5c614610a2f578063b531861f14610a42578063c238010514610a55578063c930b1b014610a6857600080fd5b8063829fc4f9116101e35780639575f6ac116101b257806399aea9861161019757806399aea986146109e2578063a049e677146109f5578063a06cb3a214610a1c57600080fd5b80639575f6ac146109a6578063990491a5146109ae57600080fd5b8063829fc4f91461092b578063839df9451461094057806384145fec1461096e5780638da5cb5b1461098157600080fd5b806374af494e1161021f57806374af494e1461089a57806376c81c42146108ad5780637926b8a9146108c0578063821cb5d0146108da57600080fd5b80636a9c5646146108595780636cf44bf41461086c578063715018a61461087f57806373702aa21461088757600080fd5b8063329681d01161035b578063533c7c2f116102ee5780635a9afac3116102bd5780635bd51b62116102a25780635bd51b62146108205780635be164ee146108335780636a728f2c1461084657600080fd5b80635a9afac3146107ea5780635b3de260146107fd57600080fd5b8063533c7c2f1461079e57806357abd3d8146107b1578063582418b6146107c457806359f37976146107d757600080fd5b80633dd6db041161032a5780633dd6db041461073757806340835e441461074a5780634e7bc2611461075d5780634f57683b1461077d57600080fd5b8063329681d0146106cb57806333c0a427146106ec5780633b9b2567146107015780633bc3339f1461072457600080fd5b80632570dae0116103ee57806327711a69116103bd5780632d945dd3116103a25780632d945dd3146106725780633000217a1461068757806331973f00146106a857600080fd5b806327711a691461063e578063285bd03c1461065f57600080fd5b80632570dae01461059157806325cbc3a6146105b157806326078437146105c457806327184c131461062b57600080fd5b806318c198701161042a57806318c198701461052357806323402a3314610536578063236ebd701461055e578063256c41991461057157600080fd5b806301c6400f1461045c57806310e8aa6d14610485578063117e886a146104a55780631390d28d146104ba575b600080fd5b61046f61046a36600461731d565b610c1b565b60405161047c91906173a9565b60405180910390f35b610498610493366004617543565b610db9565b60405161047c9190617577565b6104b86104b3366004617630565b610e58565b005b61050b6104c8366004617686565b8151602081840181018051600f8252928201948201949094209190935281518083018401805192815290840192909301919091209152546001600160401b031681565b6040516001600160401b03909116815260200161047c565b6104b8610531366004617630565b610eae565b61054961054436600461770e565b610ec6565b6040805192835290151560208301520161047c565b6104b861056c3660046177a3565b610f6a565b61058461057f3660046177e9565b61134c565b60405161047c919061781d565b6105a461059f366004617543565b6115b4565b60405161047c91906178af565b6105846105bf3660046178d4565b6115dd565b6106196105d2366004617908565b825160208185018101805160108252928201958201959095209190945282518084018501805192815290850193850193909320925291526000908152604090205460ff1681565b60405160ff909116815260200161047c565b6104b8610639366004617974565b6117fc565b61065161064c366004617991565b611826565b60405161047c929190617b83565b6105a461066d366004617ba7565b611d0d565b61067a611dd5565b60405161047c9190617beb565b61069a610695366004617c70565b6123de565b60405161047c929190617d29565b6106bb6106b6366004617543565b61276a565b60405161047c9493929190617db8565b6106de6106d9366004617991565b612a0d565b60405161047c929190617e05565b6106f4612adb565b60405161047c9190617e38565b61071461070f366004617991565b612bb4565b604051901515815260200161047c565b6105a4610732366004617686565b612c91565b6105a4610745366004617e4b565b612cbd565b6104b8610758366004617e77565b612ce8565b61077061076b366004617991565b612f26565b60405161047c9190617eab565b61079061078b366004617c70565b6135e8565b60405161047c929190617f9a565b6105a46107ac366004617ba7565b613eb3565b6105a46107bf366004617e4b565b613ede565b61050b6107d2366004617c70565b613eee565b6104b86107e53660046178d4565b613f44565b6107146107f836600461770e565b614188565b61081061080b366004617686565b6141f2565b60405161047c9493929190617fad565b61058461082e3660046178d4565b6143ff565b61054961084136600461770e565b61461e565b61046f6108543660046177a3565b61469b565b61050b610867366004617c70565b61482a565b61079061087a366004618009565b61483e565b6104b8614901565b6105a4610895366004617e4b565b614915565b6105a46108a8366004617e4b565b614925565b6107906108bb366004617991565b614935565b60135461050b90600160c01b90046001600160401b031681565b61050b6108e8366004617686565b8151602081840181018051600d8252928201948201949094209190935281518083018401805192815290840192909301919091209152546001600160401b031681565b6109336149ea565b60405161047c919061805d565b61096061094e366004617e4b565b60006020819052908152604090205481565b60405190815260200161047c565b61071461097c366004617991565b614ba2565b6016546001600160a01b03165b6040516001600160a01b03909116815260200161047c565b610770614d24565b61098e6109bc366004617543565b80516020818301810180516008825292820191909301209152546001600160a01b031681565b6106f46109f0366004617991565b61537a565b60135461050b9070010000000000000000000000000000000090046001600160401b031681565b610584610a2a3660046180bf565b615474565b6105a4610a3d366004617ba7565b615693565b61046f610a503660046180f3565b6156be565b6105a4610a63366004617543565b61584d565b61050b610a76366004617686565b8151602081840181018051600e8252928201948201949094209190935281518083018401805192815290840192909301919091209152546001600160401b031681565b6104b8610ac736600461812e565b615871565b61098e610ada366004617543565b8051602081830181018051600a825292820191909301209152546001600160a01b031681565b60135461050b906001600160401b031681565b610b26610b21366004617ba7565b615acc565b604080516001600160401b0393841681529290911660208301520161047c565b6105a4610b5436600461731d565b615b23565b610b6c610b67366004617c70565b615c7f565b60405161047c9190618196565b6104b8610b873660046180bf565b615ef8565b610584610b9a3660046180bf565b616062565b61098e610bad3660046181e3565b616373565b61046f610bc036600461822c565b6163ba565b60135461050b906801000000000000000090046001600160401b031681565b610584610bf23660046177e9565b616549565b6013546001600160401b031661050b565b6104b8610c16366004618267565b616814565b610c466040518060800160405280606081526020016060815260200160608152602001606081525090565b6000807f00000000000000000000000000000000000000000000000000000000000000006001600160a01b03166301c6400f60e01b85604051602401610c8c919061839f565b60408051601f198184030181529181526020820180516001600160e01b03166001600160e01b0319909416939093179092529051610cca9190618414565b600060405180830381855af49150503d8060008114610d05576040519150601f19603f3d011682016040523d82523d6000602084013e610d0a565b606091505b5091509150610d4f82826040518060400160405280601281526020017f636f6e6e656374696f6e4f70656e496e697400000000000000000000000000008152506168a1565b80806020019051810190610d639190618475565b92507f6355ae836fe98f9330ac4cba9411c34badbf9a1ac7ca2723e4a4ed03b14de0288360000151846020015185604001518660600151604051610daa949392919061854d565b60405180910390a15050919050565b60606000601283604051610dcd9190618414565b9081526020016040518091039020905080805480602002602001604051908101604052809291908181526020016000905b82821015610e4c57600084815260209081902060408051808201909152908401546001600160401b038082168352680100000000000000009091041681830152825260019092019101610dfe565b50505050915050919050565b610e606168ee565b610e6b838383616948565b60048054600181018255600091909152610ea8907f8a35acfbc15ff81a39ae7d344fd709f28e8600b4aa8c65c6b64bfe7fe36bd19b01848461709c565b50505050565b610eb66168ee565b610ec18383836169ef565b505050565b6000806000806000610f438a8a8080601f01602080910402602001604051908101604052809392919081815260200183838082843760009201919091525050604080516020601f8e018190048102820181019092528c815292508c91508b90819084018382808284376000920191909152508b9250616b09915050565b80516020918201208252810191909152604001600020549889151598509650505050505050565b6000611010610f79838061859a565b610f879060608101906185b1565b8080601f016020809104026020016040519081016040528093929190818152602001838380828437600092019190915250610fc8925086915081905061859a565b610fd69060808101906185b1565b8080601f016020809104026020016040519081016040528093929190818152602001838380828437600092019190915250616b4992505050565b905060006001600160a01b038216632301c6f561102d858061859a565b336040518363ffffffff1660e01b815260040161104b929190618733565b6000604051808303816000875af115801561106a573d6000803e3d6000fd5b505050506040513d6000823e601f3d908101601f19168201604052611092919081019061875e565b90506000807f00000000000000000000000000000000000000000000000000000000000000006001600160a01b031663236ebd7060e01b866040516024016110da91906187a9565b60408051601f198184030181529181526020820180516001600160e01b03166001600160e01b03199094169390931790925290516111189190618414565b600060405180830381855af49150503d8060008114611153576040519150601f19603f3d011682016040523d82523d6000602084013e611158565b606091505b509150915061119d82826040518060400160405280600a81526020017f726563765061636b6574000000000000000000000000000000000000000000008152506168a1565b825115611305576001600160a01b037f000000000000000000000000000000000000000000000000000000000000000016635ab73cef60e11b6111e0878061859a565b6111ee9060608101906185b1565b6111f8898061859a565b6112069060808101906185b1565b6112108b8061859a565b61121e906020810190617974565b8960405160240161123496959493929190618807565b60408051601f198184030181529181526020820180516001600160e01b03166001600160e01b03199094169390931790925290516112729190618414565b600060405180830381855af49150503d80600081146112ad576040519150601f19603f3d011682016040523d82523d6000602084013e6112b2565b606091505b505080925050816112c257600080fd5b7f778788131273c1769406f3b42a241a266d9c5c1ca39b2b33a3b1a8efb1080bc56112ed868061859a565b846040516112fc92919061885e565b60405180910390a15b7fcd0facba13702ea05e05e3cdd72d0d075cbe94aa17a18d8215755eedd2a59819611330868061859a565b60405161133d9190618883565b60405180910390a15050505050565b61137e6040518060a0016040528060608152602001606081526020016060815260200160608152602001606081525090565b6000807f00000000000000000000000000000000000000000000000000000000000000006001600160a01b031663256c419960e01b856040516024016113c49190618896565b60408051601f198184030181529181526020820180516001600160e01b03166001600160e01b03199094169390931790925290516114029190618414565b600060405180830381855af49150503d806000811461143d576040519150601f19603f3d011682016040523d82523d6000602084013e611442565b606091505b509150915061148782826040518060400160405280600e81526020017f6368616e6e656c4f70656e41636b0000000000000000000000000000000000008152506168a1565b8080602001905181019061149b9190618971565b92506114e46114aa85806185b1565b8080601f016020809104026020016040519081016040528093929190818152602001838380828437600092019190915250616bd792505050565b6001600160a01b0316634942d1ac6114fc86806185b1565b61150960208901896185b1565b61151660408b018b6185b1565b6040518763ffffffff1660e01b815260040161153796959493929190618a6d565b600060405180830381600087803b15801561155157600080fd5b505af1158015611565573d6000803e3d6000fd5b505050507fe44c2c1598a2959dde639770f57626a57d286f504be90961f9cd81e7020ba1f183600001518460400151856020015186606001518760800151604051610daa959493929190618aa9565b6060816040516020016115c79190618414565b6040516020818303038152906040529050919050565b61160f6040518060a0016040528060608152602001606081526020016060815260200160608152602001606081525090565b6000807f00000000000000000000000000000000000000000000000000000000000000006001600160a01b03166325cbc3a660e01b856040516024016116559190618b8f565b60408051601f198184030181529181526020820180516001600160e01b03166001600160e01b03199094169390931790925290516116939190618414565b600060405180830381855af49150503d80600081146116ce576040519150601f19603f3d011682016040523d82523d6000602084013e6116d3565b606091505b509150915061171882826040518060400160405280601381526020017f6368616e6e656c436c6f7365436f6e6669726d000000000000000000000000008152506168a1565b8080602001905181019061172c9190618971565b925061173b6114aa85806185b1565b6001600160a01b031663ef4776d261175386806185b1565b61176060208901896185b1565b6040518563ffffffff1660e01b815260040161177f9493929190618ba2565b600060405180830381600087803b15801561179957600080fd5b505af11580156117ad573d6000803e3d6000fd5b505050507f1f264d6d27cfa930ad8902af09103b8db59e3c4569605ed8698d8618b4ea138483600001518460400151856020015186606001518760800151604051610daa959493929190618aa9565b6118046168ee565b6013805467ffffffffffffffff19166001600160401b03831617905550565b50565b61182e617120565b600080600b8585604051611843929190618bc9565b9081526040519081900360200190209050806000600283015460ff16600381111561187057611870617a24565b1415816040518060a001604052908160008201805461188e90618bd9565b80601f01602080910402602001604051908101604052809291908181526020018280546118ba90618bd9565b80156119075780601f106118dc57610100808354040283529160200191611907565b820191906000526020600020905b8154815290600101906020018083116118ea57829003601f168201915b5050505050815260200160018201805480602002602001604051908101604052809291908181526020016000905b82821015611ad2578382906000526020600020906002020160405180604001604052908160008201805461196890618bd9565b80601f016020809104026020016040519081016040528092919081815260200182805461199490618bd9565b80156119e15780601f106119b6576101008083540402835291602001916119e1565b820191906000526020600020905b8154815290600101906020018083116119c457829003601f168201915b5050505050815260200160018201805480602002602001604051908101604052809291908181526020016000905b82821015611abb578382906000526020600020018054611a2e90618bd9565b80601f0160208091040260200160405190810160405280929190818152602001828054611a5a90618bd9565b8015611aa75780601f10611a7c57610100808354040283529160200191611aa7565b820191906000526020600020905b815481529060010190602001808311611a8a57829003601f168201915b505050505081526020019060010190611a0f565b505050508152505081526020019060010190611935565b50505090825250600282015460209091019060ff166003811115611af857611af8617a24565b6003811115611b0957611b09617a24565b815260200160038201604051806060016040529081600082018054611b2d90618bd9565b80601f0160208091040260200160405190810160405280929190818152602001828054611b5990618bd9565b8015611ba65780601f10611b7b57610100808354040283529160200191611ba6565b820191906000526020600020905b815481529060010190602001808311611b8957829003601f168201915b50505050508152602001600182018054611bbf90618bd9565b80601f0160208091040260200160405190810160405280929190818152602001828054611beb90618bd9565b8015611c385780601f10611c0d57610100808354040283529160200191611c38565b820191906000526020600020905b815481529060010190602001808311611c1b57829003601f168201915b5050505050815260200160028201604051806020016040529081600082018054611c6190618bd9565b80601f0160208091040260200160405190810160405280929190818152602001828054611c8d90618bd9565b8015611cda5780601f10611caf57610100808354040283529160200191611cda565b820191906000526020600020905b815481529060010190602001808311611cbd57829003601f168201915b505050919092525050509052508152600691909101546001600160401b03166020909101529450925050505b9250929050565b81516020818401810180516007825292820191850191909120919052805482908110611d3857600080fd5b90600052602060002001600091509150508054611d5490618bd9565b80601f0160208091040260200160405190810160405280929190818152602001828054611d8090618bd9565b8015611dcd5780601f10611da257610100808354040283529160200191611dcd565b820191906000526020600020905b815481529060010190602001808311611db057829003601f168201915b505050505081565b6002546060906000906001600160401b03811115611df557611df5617427565b604051908082528060200260200182016040528015611e2e57816020015b611e1b617153565b815260200190600190039081611e135790505b50905060005b6002548110156123d857600060028281548110611e5357611e53618c0d565b906000526020600020018054611e6890618bd9565b80601f0160208091040260200160405190810160405280929190818152602001828054611e9490618bd9565b8015611ee15780601f10611eb657610100808354040283529160200191611ee1565b820191906000526020600020905b815481529060010190602001808311611ec457829003601f168201915b505050505090506040518060400160405280828152602001600b83604051611f099190618414565b90815260200160405180910390206040518060a0016040529081600082018054611f3290618bd9565b80601f0160208091040260200160405190810160405280929190818152602001828054611f5e90618bd9565b8015611fab5780601f10611f8057610100808354040283529160200191611fab565b820191906000526020600020905b815481529060010190602001808311611f8e57829003601f168201915b5050505050815260200160018201805480602002602001604051908101604052809291908181526020016000905b82821015612176578382906000526020600020906002020160405180604001604052908160008201805461200c90618bd9565b80601f016020809104026020016040519081016040528092919081815260200182805461203890618bd9565b80156120855780601f1061205a57610100808354040283529160200191612085565b820191906000526020600020905b81548152906001019060200180831161206857829003601f168201915b5050505050815260200160018201805480602002602001604051908101604052809291908181526020016000905b8282101561215f5783829060005260206000200180546120d290618bd9565b80601f01602080910402602001604051908101604052809291908181526020018280546120fe90618bd9565b801561214b5780601f106121205761010080835404028352916020019161214b565b820191906000526020600020905b81548152906001019060200180831161212e57829003601f168201915b5050505050815260200190600101906120b3565b505050508152505081526020019060010190611fd9565b50505090825250600282015460209091019060ff16600381111561219c5761219c617a24565b60038111156121ad576121ad617a24565b8152602001600382016040518060600160405290816000820180546121d190618bd9565b80601f01602080910402602001604051908101604052809291908181526020018280546121fd90618bd9565b801561224a5780601f1061221f5761010080835404028352916020019161224a565b820191906000526020600020905b81548152906001019060200180831161222d57829003601f168201915b5050505050815260200160018201805461226390618bd9565b80601f016020809104026020016040519081016040528092919081815260200182805461228f90618bd9565b80156122dc5780601f106122b1576101008083540402835291602001916122dc565b820191906000526020600020905b8154815290600101906020018083116122bf57829003601f168201915b505050505081526020016002820160405180602001604052908160008201805461230590618bd9565b80601f016020809104026020016040519081016040528092919081815260200182805461233190618bd9565b801561237e5780601f106123535761010080835404028352916020019161237e565b820191906000526020600020905b81548152906001019060200180831161236157829003601f168201915b505050919092525050509052508152600691909101546001600160401b0316602090910152905283518490849081106123b9576123b9618c0d565b60200260200101819052505080806123d090618c39565b915050611e34565b50919050565b6123e6617172565b600080600c87876040516123fb929190618bc9565b90815260200160405180910390208585604051612419929190618bc9565b9081526040519081900360200190209050806000825460ff16600481111561244357612443617a24565b6040805160a0810190915283549290911415918390829060ff16600481111561246e5761246e617a24565b600481111561247f5761247f617a24565b81528154602090910190610100900460ff1660028111156124a2576124a2617a24565b60028111156124b3576124b3617a24565b8152602001600182016040518060400160405290816000820180546124d790618bd9565b80601f016020809104026020016040519081016040528092919081815260200182805461250390618bd9565b80156125505780601f1061252557610100808354040283529160200191612550565b820191906000526020600020905b81548152906001019060200180831161253357829003601f168201915b5050505050815260200160018201805461256990618bd9565b80601f016020809104026020016040519081016040528092919081815260200182805461259590618bd9565b80156125e25780601f106125b7576101008083540402835291602001916125e2565b820191906000526020600020905b8154815290600101906020018083116125c557829003601f168201915b505050505081525050815260200160038201805480602002602001604051908101604052809291908181526020016000905b828210156126c057838290600052602060002001805461263390618bd9565b80601f016020809104026020016040519081016040528092919081815260200182805461265f90618bd9565b80156126ac5780601f10612681576101008083540402835291602001916126ac565b820191906000526020600020905b81548152906001019060200180831161268f57829003601f168201915b505050505081526020019060010190612614565b5050505081526020016004820180546126d890618bd9565b80601f016020809104026020016040519081016040528092919081815260200182805461270490618bd9565b80156127515780601f1061272657610100808354040283529160200191612751565b820191906000526020600020905b81548152906001019060200180831161273457829003601f168201915b5050505050815250509150925092505094509492505050565b8051602081830181018051600b8252928201919093012091528054819061279090618bd9565b80601f01602080910402602001604051908101604052809291908181526020018280546127bc90618bd9565b80156128095780601f106127de57610100808354040283529160200191612809565b820191906000526020600020905b8154815290600101906020018083116127ec57829003601f168201915b5050505050908060020160009054906101000a900460ff16908060030160405180606001604052908160008201805461284190618bd9565b80601f016020809104026020016040519081016040528092919081815260200182805461286d90618bd9565b80156128ba5780601f1061288f576101008083540402835291602001916128ba565b820191906000526020600020905b81548152906001019060200180831161289d57829003601f168201915b505050505081526020016001820180546128d390618bd9565b80601f01602080910402602001604051908101604052809291908181526020018280546128ff90618bd9565b801561294c5780601f106129215761010080835404028352916020019161294c565b820191906000526020600020905b81548152906001019060200180831161292f57829003601f168201915b505050505081526020016002820160405180602001604052908160008201805461297590618bd9565b80601f01602080910402602001604051908101604052809291908181526020018280546129a190618bd9565b80156129ee5780601f106129c3576101008083540402835291602001916129ee565b820191906000526020600020905b8154815290600101906020018083116129d157829003601f168201915b505050919092525050509052506006909101546001600160401b031684565b60408051808201909152600080825260208201526000612a6284848080601f016020809104026020016040519081016040528093929190818152602001838380828437600092019190915250616c5c92505050565b6001600160a01b031663329681d085856040518363ffffffff1660e01b8152600401612a8f929190618c52565b606060405180830381865afa158015612aac573d6000803e3d6000fd5b505050506040513d601f19601f82011682018060405250810190612ad09190618c76565b915091509250929050565b60606015805480602002602001604051908101604052809291908181526020016000905b82821015612bab578382906000526020600020018054612b1e90618bd9565b80601f0160208091040260200160405190810160405280929190818152602001828054612b4a90618bd9565b8015612b975780601f10612b6c57610100808354040283529160200191612b97565b820191906000526020600020905b815481529060010190602001808311612b7a57829003601f168201915b505050505081526020019060010190612aff565b50505050905090565b60008060148484604051612bc9929190618bc9565b9081526040519081900360200190205490508015612beb576000915050612c8b565b4360148585604051612bfe929190618bc9565b9081526040519081900360200190205560158054600181018255600091909152612c4b907f55f448fdea98c4d29eb340757ef0a66cd03dbb9538908a6a81d96026b71ec47501858561709c565b507fabcfc4b1113d139d3e5dd4a98aaee5591ad6bd3e5148fb3c641541b3a1c654d58484604051612c7d929190618c52565b60405180910390a160019150505b92915050565b60608282604051602001612ca6929190618cf5565b604051602081830303815290604052905092915050565b60048181548110612ccd57600080fd5b906000526020600020016000915090508054611d5490618bd9565b612d7c612d77612cfb60208401846185b1565b8080601f016020809104026020016040519081016040528093929190818152602001838380828437600092019190915250612d3d9250505060408501856185b1565b8080601f016020809104026020016040519081016040528093929190818152602001838380828437600092019190915250612c9192505050565b616c94565b612de15760405162461bcd60e51b815260206004820152602b60248201527f6368616e6e656c206361706162696c697479206661696c6564206f6e2061757460448201526a3432b73a34b1b0ba34b7b760a91b60648201526084015b60405180910390fd5b6000807f00000000000000000000000000000000000000000000000000000000000000006001600160a01b03166340835e4460e01b84604051602401612e279190618883565b60408051601f198184030181529181526020820180516001600160e01b03166001600160e01b0319909416939093179092529051612e659190618414565b600060405180830381855af49150503d8060008114612ea0576040519150601f19603f3d011682016040523d82523d6000602084013e612ea5565b606091505b5091509150612eea82826040518060400160405280600a81526020017f73656e645061636b6574000000000000000000000000000000000000000000008152506168a1565b7fe701f25bda8992b211749f81adb9a8ea6e8cf8a3c9f2e29ed496e6c5f059154c83604051612f199190618883565b60405180910390a1505050565b6060600060078484604051612f3c929190618bc9565b9081526020016040518091039020805480602002602001604051908101604052809291908181526020016000905b82821015613016578382906000526020600020018054612f8990618bd9565b80601f0160208091040260200160405190810160405280929190818152602001828054612fb590618bd9565b80156130025780601f10612fd757610100808354040283529160200191613002565b820191906000526020600020905b815481529060010190602001808311612fe557829003601f168201915b505050505081526020019060010190612f6a565b505050509050600060058054905082516130309190618d4d565b6001600160401b0381111561304757613047617427565b60405190808252806020026020018201604052801561308057816020015b61306d6171bd565b8152602001906001900390816130655790505b5090506000805b83518110156135dd5760008482815181106130a4576130a4618c0d565b6020026020010151905060006006826040516130c09190618414565b9081526020016040518091039020805480602002602001604051908101604052809291908181526020016000905b8282101561319a57838290600052602060002001805461310d90618bd9565b80601f016020809104026020016040519081016040528092919081815260200182805461313990618bd9565b80156131865780601f1061315b57610100808354040283529160200191613186565b820191906000526020600020905b81548152906001019060200180831161316957829003601f168201915b5050505050815260200190600101906130ee565b50505050905060005b81518110156135c75760008282815181106131c0576131c0618c0d565b602002602001015190506000600c856040516131dc9190618414565b9081526020016040518091039020826040516131f89190618414565b9081526040805191829003602001822060a083019091528054829060ff16600481111561322757613227617a24565b600481111561323857613238617a24565b81528154602090910190610100900460ff16600281111561325b5761325b617a24565b600281111561326c5761326c617a24565b81526020016001820160405180604001604052908160008201805461329090618bd9565b80601f01602080910402602001604051908101604052809291908181526020018280546132bc90618bd9565b80156133095780601f106132de57610100808354040283529160200191613309565b820191906000526020600020905b8154815290600101906020018083116132ec57829003601f168201915b5050505050815260200160018201805461332290618bd9565b80601f016020809104026020016040519081016040528092919081815260200182805461334e90618bd9565b801561339b5780601f106133705761010080835404028352916020019161339b565b820191906000526020600020905b81548152906001019060200180831161337e57829003601f168201915b505050505081525050815260200160038201805480602002602001604051908101604052809291908181526020016000905b828210156134795783829060005260206000200180546133ec90618bd9565b80601f016020809104026020016040519081016040528092919081815260200182805461341890618bd9565b80156134655780601f1061343a57610100808354040283529160200191613465565b820191906000526020600020905b81548152906001019060200180831161344857829003601f168201915b5050505050815260200190600101906133cd565b50505050815260200160048201805461349190618bd9565b80601f01602080910402602001604051908101604052809291908181526020018280546134bd90618bd9565b801561350a5780601f106134df5761010080835404028352916020019161350a565b820191906000526020600020905b8154815290600101906020018083116134ed57829003601f168201915b50505050508152505090506040518060e001604052808260000151600481111561353657613536617a24565b81526020018260200151600281111561355157613551617a24565b81526020018260400151815260200182606001518152602001826080015181526020018681526020018381525088886001600160401b03168151811061359957613599618c0d565b602002602001018190525086806135af90618d6c565b975050505080806135bf90618c39565b9150506131a3565b50505080806135d590618c39565b915050613087565b509095945050505050565b6060600080600c87876040516135ff929190618bc9565b9081526020016040518091039020858560405161361d929190618bc9565b9081526040805191829003602001822060a083019091528054829060ff16600481111561364c5761364c617a24565b600481111561365d5761365d617a24565b81528154602090910190610100900460ff16600281111561368057613680617a24565b600281111561369157613691617a24565b8152602001600182016040518060400160405290816000820180546136b590618bd9565b80601f01602080910402602001604051908101604052809291908181526020018280546136e190618bd9565b801561372e5780601f106137035761010080835404028352916020019161372e565b820191906000526020600020905b81548152906001019060200180831161371157829003601f168201915b5050505050815260200160018201805461374790618bd9565b80601f016020809104026020016040519081016040528092919081815260200182805461377390618bd9565b80156137c05780601f10613795576101008083540402835291602001916137c0565b820191906000526020600020905b8154815290600101906020018083116137a357829003601f168201915b505050505081525050815260200160038201805480602002602001604051908101604052809291908181526020016000905b8282101561389e57838290600052602060002001805461381190618bd9565b80601f016020809104026020016040519081016040528092919081815260200182805461383d90618bd9565b801561388a5780601f1061385f5761010080835404028352916020019161388a565b820191906000526020600020905b81548152906001019060200180831161386d57829003601f168201915b5050505050815260200190600101906137f2565b5050505081526020016004820180546138b690618bd9565b80601f01602080910402602001604051908101604052809291908181526020018280546138e290618bd9565b801561392f5780601f106139045761010080835404028352916020019161392f565b820191906000526020600020905b81548152906001019060200180831161391257829003601f168201915b50505050508152505090506000816060015160008151811061395357613953618c0d565b602002602001015190506000600b8260405161396f9190618414565b90815260200160405180910390206040518060a001604052908160008201805461399890618bd9565b80601f01602080910402602001604051908101604052809291908181526020018280546139c490618bd9565b8015613a115780601f106139e657610100808354040283529160200191613a11565b820191906000526020600020905b8154815290600101906020018083116139f457829003601f168201915b5050505050815260200160018201805480602002602001604051908101604052809291908181526020016000905b82821015613bdc5783829060005260206000209060020201604051806040016040529081600082018054613a7290618bd9565b80601f0160208091040260200160405190810160405280929190818152602001828054613a9e90618bd9565b8015613aeb5780601f10613ac057610100808354040283529160200191613aeb565b820191906000526020600020905b815481529060010190602001808311613ace57829003601f168201915b5050505050815260200160018201805480602002602001604051908101604052809291908181526020016000905b82821015613bc5578382906000526020600020018054613b3890618bd9565b80601f0160208091040260200160405190810160405280929190818152602001828054613b6490618bd9565b8015613bb15780601f10613b8657610100808354040283529160200191613bb1565b820191906000526020600020905b815481529060010190602001808311613b9457829003601f168201915b505050505081526020019060010190613b19565b505050508152505081526020019060010190613a3f565b50505090825250600282015460209091019060ff166003811115613c0257613c02617a24565b6003811115613c1357613c13617a24565b815260200160038201604051806060016040529081600082018054613c3790618bd9565b80601f0160208091040260200160405190810160405280929190818152602001828054613c6390618bd9565b8015613cb05780601f10613c8557610100808354040283529160200191613cb0565b820191906000526020600020905b815481529060010190602001808311613c9357829003601f168201915b50505050508152602001600182018054613cc990618bd9565b80601f0160208091040260200160405190810160405280929190818152602001828054613cf590618bd9565b8015613d425780601f10613d1757610100808354040283529160200191613d42565b820191906000526020600020905b815481529060010190602001808311613d2557829003601f168201915b5050505050815260200160028201604051806020016040529081600082018054613d6b90618bd9565b80601f0160208091040260200160405190810160405280929190818152602001828054613d9790618bd9565b8015613de45780601f10613db957610100808354040283529160200191613de4565b820191906000526020600020905b815481529060010190602001808311613dc757829003601f168201915b505050919092525050509052508152600691909101546001600160401b03166020909101528051909150613e1790616c5c565b81516040517f76c81c420000000000000000000000000000000000000000000000000000000081526001600160a01b0392909216916376c81c4291613e5e916004016178af565b600060405180830381865afa158015613e7b573d6000803e3d6000fd5b505050506040513d6000823e601f3d908101601f19168201604052613ea39190810190618d92565b9450945050505094509492505050565b81516020818401810180516003825292820191850191909120919052805482908110611d3857600080fd5b60058181548110612ccd57600080fd5b6000600d8585604051613f02929190618bc9565b90815260200160405180910390208383604051613f20929190618bc9565b908152604051908190036020019020546001600160401b031690505b949350505050565b6000613fb0613f53838061859a565b613f619060208101906185b1565b8080601f016020809104026020016040519081016040528093929190818152602001838380828437600092019190915250613fa2925086915081905061859a565b610fd69060408101906185b1565b90506001600160a01b03811663fb8b532e613fcb848061859a565b613fd860208601866185b1565b336040518563ffffffff1660e01b8152600401613ff89493929190618dd6565b600060405180830381600087803b15801561401257600080fd5b505af1158015614026573d6000803e3d6000fd5b505050506000807f00000000000000000000000000000000000000000000000000000000000000006001600160a01b03166359f3797660e01b856040516024016140709190618e17565b60408051601f198184030181529181526020820180516001600160e01b03166001600160e01b03199094169390931790925290516140ae9190618414565b600060405180830381855af49150503d80600081146140e9576040519150601f19603f3d011682016040523d82523d6000602084013e6140ee565b606091505b509150915061413382826040518060400160405280601181526020017f61636b6e6f776c656467655061636b65740000000000000000000000000000008152506168a1565b7f47471450765e6e1b0b055ba2a1de04d4ce71f778c92b306e725083eb120dfd8961415e858061859a565b61416b60208701876185b1565b60405161417a93929190618e9f565b60405180910390a150505050565b60006010868660405161419c929190618bc9565b908152602001604051809103902084846040516141ba929190618bc9565b908152604080519182900360209081019092206001600160401b0385166000908152925290205460ff16600114905095945050505050565b8151602081840181018051600c825292820194820194909420919093528151808301840180519281529084019290930191909120915280546040805180820190915260018301805460ff8085169561010090950416939291908290829061425890618bd9565b80601f016020809104026020016040519081016040528092919081815260200182805461428490618bd9565b80156142d15780601f106142a6576101008083540402835291602001916142d1565b820191906000526020600020905b8154815290600101906020018083116142b457829003601f168201915b505050505081526020016001820180546142ea90618bd9565b80601f016020809104026020016040519081016040528092919081815260200182805461431690618bd9565b80156143635780601f1061433857610100808354040283529160200191614363565b820191906000526020600020905b81548152906001019060200180831161434657829003601f168201915b5050505050815250509080600401805461437c90618bd9565b80601f01602080910402602001604051908101604052809291908181526020018280546143a890618bd9565b80156143f55780601f106143ca576101008083540402835291602001916143f5565b820191906000526020600020905b8154815290600101906020018083116143d857829003601f168201915b5050505050905084565b6144316040518060a0016040528060608152602001606081526020016060815260200160608152602001606081525090565b6000807f00000000000000000000000000000000000000000000000000000000000000006001600160a01b0316635bd51b6260e01b856040516024016144779190618b8f565b60408051601f198184030181529181526020820180516001600160e01b03166001600160e01b03199094169390931790925290516144b59190618414565b600060405180830381855af49150503d80600081146144f0576040519150601f19603f3d011682016040523d82523d6000602084013e6144f5565b606091505b509150915061453a82826040518060400160405280601281526020017f6368616e6e656c4f70656e436f6e6669726d00000000000000000000000000008152506168a1565b8080602001905181019061454e9190618971565b925061455d6114aa85806185b1565b6001600160a01b031663a113e41161457586806185b1565b61458260208901896185b1565b6040518563ffffffff1660e01b81526004016145a19493929190618ba2565b600060405180830381600087803b1580156145bb57600080fd5b505af11580156145cf573d6000803e3d6000fd5b505050507fb2b38f1a3f2342db58b968031409c2b47987d6604c584798230dcd3371650e5983600001518460400151856020015186606001518760800151604051610daa959493929190618aa9565b6000806000806000610f438a8a8080601f01602080910402602001604051908101604052809392919081815260200183838082843760009201919091525050604080516020601f8e018190048102820181019092528c815292508c91508b90819084018382808284376000920191909152508b9250616d45915050565b6146c66040518060800160405280606081526020016060815260200160608152602001606081525090565b6000807f00000000000000000000000000000000000000000000000000000000000000006001600160a01b0316636a728f2c60e01b8560405160240161470c9190618ec5565b60408051601f198184030181529181526020820180516001600160e01b03166001600160e01b031990941693909317909252905161474a9190618414565b600060405180830381855af49150503d8060008114614785576040519150601f19603f3d011682016040523d82523d6000602084013e61478a565b606091505b50915091506147cf82826040518060400160405280601581526020017f636f6e6e656374696f6e4f70656e436f6e6669726d00000000000000000000008152506168a1565b808060200190518101906147e39190618475565b92507f651ff677aa39f2804d4c0eae6e78ee5fc17be1a45d199eb6a51ba4e1475a76048360000151846020015185604001518660600151604051610daa949392919061854d565b6000600e8585604051613f02929190618bc9565b6060600061488185858080601f016020809104026020016040519081016040528093929190818152602001838380828437600092019190915250616c5c92505050565b6001600160a01b0316636cf44bf48686866040518463ffffffff1660e01b81526004016148b093929190618efa565b600060405180830381865afa1580156148cd573d6000803e3d6000fd5b505050506040513d6000823e601f3d908101601f191682016040526148f59190810190618d92565b91509150935093915050565b6149096168ee565b6149136000616d6d565b565b60028181548110612ccd57600080fd5b60018181548110612ccd57600080fd5b6060600061497884848080601f016020809104026020016040519081016040528093929190818152602001838380828437600092019190915250616c5c92505050565b6001600160a01b03166376c81c4285856040518363ffffffff1660e01b81526004016149a5929190618c52565b600060405180830381865afa1580156149c2573d6000803e3d6000fd5b505050506040513d6000823e601f3d908101601f19168201604052612ad09190810190618d92565b6001546060906000906001600160401b03811115614a0a57614a0a617427565b604051908082528060200260200182016040528015614a3d57816020015b6060815260200190600190039081614a285790505b50905060005b6001548110156123d857600060018281548110614a6257614a62618c0d565b906000526020600020018054614a7790618bd9565b80601f0160208091040260200160405190810160405280929190818152602001828054614aa390618bd9565b8015614af05780601f10614ac557610100808354040283529160200191614af0565b820191906000526020600020905b815481529060010190602001808311614ad357829003601f168201915b50505050509050614b0081616c5c565b6001600160a01b03166376c81c42826040518263ffffffff1660e01b8152600401614b2b91906178af565b600060405180830381865afa158015614b48573d6000803e3d6000fd5b505050506040513d6000823e601f3d908101601f19168201604052614b709190810190618d92565b50838381518110614b8357614b83618c0d565b6020026020010181905250508080614b9a90618c39565b915050614a43565b60008060148484604051614bb7929190618bc9565b908152602001604051809103902054905080600003614bda576000915050612c8b565b60148484604051614bec929190618bc9565b90815260200160405180910390206000905560005b601554811015614cf257601460158281548110614c2057614c20618c0d565b90600052602060002001604051614c379190618f1d565b908152602001604051809103902054600003614ce05760158054614c5d90600190618fb8565b81548110614c6d57614c6d618c0d565b9060005260206000200160158281548110614c8a57614c8a618c0d565b90600052602060002001908054614ca090618bd9565b614cab929190617216565b506015805480614cbd57614cbd618fcf565b600190038181906000526020600020016000614cd99190617291565b9055614cf2565b80614cea81618c39565b915050614c01565b507f896fbd30a203d9baf5386b3c524e70e765f1654f61127a1e3d4469e143f55f0d8484604051612c7d929190618c52565b6013546060906000906001600160401b03600160c01b909104811690811115614d4f57614d4f617427565b604051908082528060200260200182016040528015614d8857816020015b614d756171bd565b815260200190600190039081614d6d5790505b5090506000805b60045481101561537257600060048281548110614dae57614dae618c0d565b906000526020600020018054614dc390618bd9565b80601f0160208091040260200160405190810160405280929190818152602001828054614def90618bd9565b8015614e3c5780601f10614e1157610100808354040283529160200191614e3c565b820191906000526020600020905b815481529060010190602001808311614e1f57829003601f168201915b505050505090506000600682604051614e559190618414565b9081526020016040518091039020805480602002602001604051908101604052809291908181526020016000905b82821015614f2f578382906000526020600020018054614ea290618bd9565b80601f0160208091040260200160405190810160405280929190818152602001828054614ece90618bd9565b8015614f1b5780601f10614ef057610100808354040283529160200191614f1b565b820191906000526020600020905b815481529060010190602001808311614efe57829003601f168201915b505050505081526020019060010190614e83565b50505050905060005b815181101561535c576000828281518110614f5557614f55618c0d565b602002602001015190506000600c85604051614f719190618414565b908152602001604051809103902082604051614f8d9190618414565b9081526040805191829003602001822060a083019091528054829060ff166004811115614fbc57614fbc617a24565b6004811115614fcd57614fcd617a24565b81528154602090910190610100900460ff166002811115614ff057614ff0617a24565b600281111561500157615001617a24565b81526020016001820160405180604001604052908160008201805461502590618bd9565b80601f016020809104026020016040519081016040528092919081815260200182805461505190618bd9565b801561509e5780601f106150735761010080835404028352916020019161509e565b820191906000526020600020905b81548152906001019060200180831161508157829003601f168201915b505050505081526020016001820180546150b790618bd9565b80601f01602080910402602001604051908101604052809291908181526020018280546150e390618bd9565b80156151305780601f1061510557610100808354040283529160200191615130565b820191906000526020600020905b81548152906001019060200180831161511357829003601f168201915b505050505081525050815260200160038201805480602002602001604051908101604052809291908181526020016000905b8282101561520e57838290600052602060002001805461518190618bd9565b80601f01602080910402602001604051908101604052809291908181526020018280546151ad90618bd9565b80156151fa5780601f106151cf576101008083540402835291602001916151fa565b820191906000526020600020905b8154815290600101906020018083116151dd57829003601f168201915b505050505081526020019060010190615162565b50505050815260200160048201805461522690618bd9565b80601f016020809104026020016040519081016040528092919081815260200182805461525290618bd9565b801561529f5780601f106152745761010080835404028352916020019161529f565b820191906000526020600020905b81548152906001019060200180831161528257829003601f168201915b50505050508152505090506040518060e00160405280826000015160048111156152cb576152cb617a24565b8152602001826020015160028111156152e6576152e6617a24565b81526020018260400151815260200182606001518152602001826080015181526020018681526020018381525088886001600160401b03168151811061532e5761532e618c0d565b6020026020010181905250868061534490618d6c565b9750505050808061535490618c39565b915050614f38565b505050808061536a90618c39565b915050614d8f565b509092915050565b60606003838360405161538e929190618bc9565b9081526020016040518091039020805480602002602001604051908101604052809291908181526020016000905b828210156154685783829060005260206000200180546153db90618bd9565b80601f016020809104026020016040519081016040528092919081815260200182805461540790618bd9565b80156154545780601f1061542957610100808354040283529160200191615454565b820191906000526020600020905b81548152906001019060200180831161543757829003601f168201915b5050505050815260200190600101906153bc565b50505050905092915050565b6154a66040518060a0016040528060608152602001606081526020016060815260200160608152602001606081525090565b6000807f00000000000000000000000000000000000000000000000000000000000000006001600160a01b031663a06cb3a260e01b856040516024016154ec9190619026565b60408051601f198184030181529181526020820180516001600160e01b03166001600160e01b031990941693909317909252905161552a9190618414565b600060405180830381855af49150503d8060008114615565576040519150601f19603f3d011682016040523d82523d6000602084013e61556a565b606091505b50915091506155af82826040518060400160405280601081526020017f6368616e6e656c436c6f7365496e6974000000000000000000000000000000008152506168a1565b808060200190518101906155c39190618971565b92506155d26114aa85806185b1565b6001600160a01b031663e74a1ac26155ea86806185b1565b6155f760208901896185b1565b6040518563ffffffff1660e01b81526004016156169493929190618ba2565b600060405180830381600087803b15801561563057600080fd5b505af1158015615644573d6000803e3d6000fd5b505050507f137b8ff3192f46fcef631884ddc627cd49d32b825d053165a5415801a22af70483600001518460400151856020015186606001518760800151604051610daa959493929190618aa9565b81516020818401810180516006825292820191850191909120919052805482908110611d3857600080fd5b6156e96040518060800160405280606081526020016060815260200160608152602001606081525090565b6000807f00000000000000000000000000000000000000000000000000000000000000006001600160a01b031663b531861f60e01b8560405160240161572f919061912b565b60408051601f198184030181529181526020820180516001600160e01b03166001600160e01b031990941693909317909252905161576d9190618414565b600060405180830381855af49150503d80600081146157a8576040519150601f19603f3d011682016040523d82523d6000602084013e6157ad565b606091505b50915091506157f282826040518060400160405280601181526020017f636f6e6e656374696f6e4f70656e41636b0000000000000000000000000000008152506168a1565b808060200190518101906158069190618475565b92507f05ee18b1fcf32f67c7300cb5e5f857de4796f66895e061dd299f262de9a0372d8360000151846020015185604001518660600151604051610daa949392919061854d565b805160208183018101805160098252928201919093012091528054611d5490618bd9565b600061588060608501856185b1565b8080601f01602080910402602001604051908101604052809392919081815260200183838082843760009201829052509394506158c49250505060808601866185b1565b8080601f01602080910402602001604051908101604052809392919081815260200183838082843760009201919091525092935061590b9250612d77915084905083612c91565b61596b5760405162461bcd60e51b815260206004820152602b60248201527f6368616e6e656c206361706162696c697479206661696c6564206f6e2061757460448201526a3432b73a34b1b0ba34b7b760a91b6064820152608401612dd8565b6000806001600160a01b037f000000000000000000000000000000000000000000000000000000000000000016635ab73cef60e11b85856159af60208c018c617974565b8a8a6040516024016159c5959493929190619267565b60408051601f198184030181529181526020820180516001600160e01b03166001600160e01b0319909416939093179092529051615a039190618414565b600060405180830381855af49150503d8060008114615a3e576040519150601f19603f3d011682016040523d82523d6000602084013e615a43565b606091505b5091509150615a8882826040518060400160405280601481526020017f777269746541636b6e6f776c656467656d656e740000000000000000000000008152506168a1565b7f778788131273c1769406f3b42a241a266d9c5c1ca39b2b33a3b1a8efb1080bc5878787604051615abb93929190618e9f565b60405180910390a150505050505050565b81516020818401810180516012825292820191850191909120919052805482908110615af757600080fd5b6000918252602090912001546001600160401b0380821693506801000000000000000090910416905082565b60606000807f00000000000000000000000000000000000000000000000000000000000000006001600160a01b031663d5a2448160e01b85604051602401615b6b91906192b0565b60408051601f198184030181529181526020820180516001600160e01b03166001600160e01b0319909416939093179092529051615ba99190618414565b600060405180830381855af49150503d8060008114615be4576040519150601f19603f3d011682016040523d82523d6000602084013e615be9565b606091505b5091509150615c2e82826040518060400160405280600c81526020017f637265617465436c69656e7400000000000000000000000000000000000000008152506168a1565b80806020019051810190615c42919061875e565b92507f99c72989fdc811e2ff3a5265b08f636a887faf5cbc61a014d2ac521a77421e8a83615c7086806185b1565b604051610daa93929190619326565b60606000600d8686604051615c95929190618bc9565b90815260200160405180910390208484604051615cb3929190618bc9565b908152604051908190036020019020546001600160401b0390811691506000908290811115615ce457615ce4617427565b604051908082528060200260200182016040528015615d0d578160200160208202803683370190505b5090506000805b836001600160401b0316816001600160401b03161015615e0b576040517f23402a3300000000000000000000000000000000000000000000000000000000815260009030906323402a3390615d75908d908d908d908d908990600401619339565b6040805180830381865afa158015615d91573d6000803e3d6000fd5b505050506040513d601f19601f82011682018060405250810190615db5919061937c565b9150508084836001600160401b031681518110615dd457615dd4618c0d565b911515602092830291909101909101528015615df857615df560018461939f565b92505b5080615e0381618d6c565b915050615d14565b506000816001600160401b03811115615e2657615e26617427565b604051908082528060200260200182016040528015615e4f578160200160208202803683370190505b5090506000805b856001600160401b0316816001600160401b03161015615ee95784816001600160401b031681518110615e8b57615e8b618c0d565b602002602001015115615ed757808383615ea481618c39565b945081518110615eb657615eb6618c0d565b60200260200101906001600160401b031690816001600160401b0316815250505b80615ee181618d6c565b915050615e56565b50909998505050505050505050565b60007f00000000000000000000000000000000000000000000000000000000000000006001600160a01b031663da6cea5560e01b83604051602401615f3d91906193b7565b60408051601f198184030181529181526020820180516001600160e01b03166001600160e01b0319909416939093179092529051615f7b9190618414565b600060405180830381855af49150503d8060008114615fb6576040519150601f19603f3d011682016040523d82523d6000602084013e615fbb565b606091505b5050905061600e81604051806020016040528060008152506040518060400160405280600c81526020017f757064617465436c69656e7400000000000000000000000000000000000000008152506168a1565b7f8322bb4cdc3e8461799fe6dd6f266b50ccf3d16c0107279bf849d571cd0a41c061603983806185b1565b61604660208601866185b1565b6040516160569493929190618ba2565b60405180910390a15050565b6160946040518060a0016040528060608152602001606081526020016060815260200160608152602001606081525090565b6000807f00000000000000000000000000000000000000000000000000000000000000006001600160a01b031663dd3469fc60e01b856040516024016160da91906194c5565b60408051601f198184030181529181526020820180516001600160e01b03166001600160e01b03199094169390931790925290516161189190618414565b600060405180830381855af49150503d8060008114616153576040519150601f19603f3d011682016040523d82523d6000602084013e616158565b606091505b509150915061619d82826040518060400160405280600f81526020017f6368616e6e656c4f70656e496e697400000000000000000000000000000000008152506168a1565b808060200190518101906161b19190618971565b604081015190935060006161c86114aa87806185b1565b90506001600160a01b0381166344dd96386161e66020890189619510565b6161f7906040810190602001619526565b61620460208a018a619510565b616212906060810190619541565b61621c8b806185b1565b8861622a60208f018f619510565b61623890604081019061958a565b8e80602001906162489190619510565b6162569060808101906185b1565b6040518a63ffffffff1660e01b815260040161627a999897969594939291906195a0565b600060405180830381600087803b15801561629457600080fd5b505af11580156162a8573d6000803e3d6000fd5b5061630192506162fb91506162bf905088806185b1565b8080601f016020809104026020016040519081016040528093929190818152602001838380828437600092019190915250879250612c91915050565b82616dcc565b6163176163116162bf88806185b1565b33616dcc565b7f9ddcc8c582e3bc79ee7442846c4fc363193ebd8c95f963eb9cbf80b4ef52480a85600001518660400151876020015188606001518960800151604051616362959493929190618aa9565b60405180910390a150505050919050565b8151602081840181018051601182529282019185019190912091905280548290811061639e57600080fd5b6000918252602090912001546001600160a01b03169150829050565b6163e56040518060800160405280606081526020016060815260200160608152602001606081525090565b6000807f00000000000000000000000000000000000000000000000000000000000000006001600160a01b031663de31034160e01b8560405160240161642b919061966d565b60408051601f198184030181529181526020820180516001600160e01b03166001600160e01b03199094169390931790925290516164699190618414565b600060405180830381855af49150503d80600081146164a4576040519150601f19603f3d011682016040523d82523d6000602084013e6164a9565b606091505b50915091506164ee82826040518060400160405280601181526020017f636f6e6e656374696f6e4f70656e5472790000000000000000000000000000008152506168a1565b808060200190518101906165029190618475565b92507f6076804265ce6ac0b356acca212c481b0b863754a046d4d9844d3692543f0b958360000151846020015185604001518660600151604051610daa949392919061854d565b61657b6040518060a0016040528060608152602001606081526020016060815260200160608152602001606081525090565b6000807f00000000000000000000000000000000000000000000000000000000000000006001600160a01b031663ec6260a960e01b856040516024016165c191906197ee565b60408051601f198184030181529181526020820180516001600160e01b03166001600160e01b03199094169390931790925290516165ff9190618414565b600060405180830381855af49150503d806000811461663a576040519150601f19603f3d011682016040523d82523d6000602084013e61663f565b606091505b509150915061668482826040518060400160405280600e81526020017f6368616e6e656c4f70656e5472790000000000000000000000000000000000008152506168a1565b808060200190518101906166989190618971565b60408101519093509150600090506166b36114aa85806185b1565b90506001600160a01b03811663981389f26166d16040870187619510565b6166e2906040810190602001619526565b6166ef6040880188619510565b6166fd906060810190619541565b61670789806185b1565b8861671560408d018d619510565b61672390604081019061958a565b61673060408e018e619510565b61673e9060808101906185b1565b8e806060019061674e91906185b1565b6040518c63ffffffff1660e01b81526004016167749b9a99989796959493929190619861565b600060405180830381600087803b15801561678e57600080fd5b505af11580156167a2573d6000803e3d6000fd5b506167b992506162fb91506162bf905086806185b1565b6167c96163116162bf86806185b1565b7f0553a407d392b80f3b238a973d79e5085b9f98b08c089f184cf15fd0919be51783600001518460400151856020015186606001518760800151604051610daa959493929190618aa9565b61681c6168ee565b6001600160a01b0381166168985760405162461bcd60e51b815260206004820152602660248201527f4f776e61626c653a206e6577206f776e657220697320746865207a65726f206160448201527f64647265737300000000000000000000000000000000000000000000000000006064820152608401612dd8565b61182381616d6d565b82610ec15781516000036168e657806040516020016168c091906198f9565b60408051601f198184030181529082905262461bcd60e51b8252612dd8916004016178af565b815182602001fd5b6016546001600160a01b031633146149135760405162461bcd60e51b815260206004820181905260248201527f4f776e61626c653a2063616c6c6572206973206e6f7420746865206f776e65726044820152606401612dd8565b816002811080159061695b575060808111155b6169a75760405162461bcd60e51b815260206004820152601660248201527f696e76616c696420706f7274206964206c656e677468000000000000000000006044820152606401612dd8565b610ea86169e985858080601f0160208091040260200160405190810160405280939291908181526020018383808284376000920191909152506115b492505050565b83616dcc565b60007f00000000000000000000000000000000000000000000000000000000000000006001600160a01b03166318c1987060e01b858585604051602401616a389392919061993a565b60408051601f198184030181529181526020820180516001600160e01b03166001600160e01b0319909416939093179092529051616a769190618414565b600060405180830381855af49150503d8060008114616ab1576040519150601f19603f3d011682016040523d82523d6000602084013e616ab6565b606091505b50509050610ea881604051806020016040528060008152506040518060400160405280600e81526020017f7265676973746572436c69656e740000000000000000000000000000000000008152506168a1565b60608383616b1f846001600160401b0316616ecc565b604051602001616b3193929190619967565b60405160208183030381529060405290509392505050565b6000806000616b60616b5b8686612c91565b616f6c565b91509150808486604051602001616b78929190619a02565b60405160208183030381529060405290616ba55760405162461bcd60e51b8152600401612dd891906178af565b5081600081548110616bb957616bb9618c0d565b6000918252602090912001546001600160a01b031695945050505050565b6000806000616be8616b5b856115b4565b915091508084604051602001616bfe9190619a83565b60405160208183030381529060405290616c2b5760405162461bcd60e51b8152600401612dd891906178af565b5081600081548110616c3f57616c3f618c0d565b6000918252602090912001546001600160a01b0316949350505050565b600080600a83604051616c6f9190618414565b908152604051908190036020019020546001600160a01b0316905080612c8b57600080fd5b600033815b601184604051616ca99190618414565b9081526040519081900360200190205463ffffffff82161015616d3b57816001600160a01b0316601185604051616ce09190618414565b90815260200160405180910390208263ffffffff1681548110616d0557616d05618c0d565b6000918252602090912001546001600160a01b031603616d29575060019392505050565b80616d3381619ac8565b915050616c99565b5060009392505050565b60608383616d5b846001600160401b0316616ecc565b604051602001616b3193929190619ae1565b601680546001600160a01b0383811673ffffffffffffffffffffffffffffffffffffffff19831681179093556040519116919082907f8be0079c531659141344cd1fd0a4f28419497f9722a3daafe3b4186f6b6457e090600090a35050565b60005b601183604051616ddf9190618414565b9081526040519081900360200190205463ffffffff82161015616e6c57816001600160a01b0316601184604051616e169190618414565b90815260200160405180910390208263ffffffff1681548110616e3b57616e3b618c0d565b6000918252602090912001546001600160a01b031603616e5a57600080fd5b80616e6481619ac8565b915050616dcf565b50601182604051616e7d9190618414565b908152604051602091819003820190208054600181018255600091825291902001805473ffffffffffffffffffffffffffffffffffffffff19166001600160a01b039290921691909117905550565b60606000616ed983616fba565b60010190506000816001600160401b03811115616ef857616ef8617427565b6040519080825280601f01601f191660200182016040528015616f22576020820181803683370190505b5090508181016020015b600019017f3031323334353637383961626364656600000000000000000000000000000000600a86061a8153600a8504945084616f2c575b509392505050565b600080601183604051616f7f9190618414565b90815260200160405180910390206000601185604051616f9f9190618414565b90815260405190819003602001902054919591119350915050565b6000807a184f03e93ff9f4daa797ed6e38ed64bf6a1f0100000000000000008310617003577a184f03e93ff9f4daa797ed6e38ed64bf6a1f010000000000000000830492506040015b6d04ee2d6d415b85acef8100000000831061702f576d04ee2d6d415b85acef8100000000830492506020015b662386f26fc10000831061704d57662386f26fc10000830492506010015b6305f5e1008310617065576305f5e100830492506008015b612710831061707957612710830492506004015b6064831061708b576064830492506002015b600a8310612c8b5760010192915050565b8280546170a890618bd9565b90600052602060002090601f0160209004810192826170ca5760008555617110565b82601f106170e35782800160ff19823516178555617110565b82800160010185558215617110579182015b828111156171105782358255916020019190600101906170f5565b5061711c9291506172c7565b5090565b6040805160a08101825260608082526020820152908101600081526020016171466172dc565b8152600060209091015290565b60405180604001604052806060815260200161716d617120565b905290565b6040805160a081019091528060008152602001600081526020016171a9604051806040016040528060608152602001606081525090565b815260200160608152602001606081525090565b6040805160e081019091528060008152602001600081526020016171f4604051806040016040528060608152602001606081525090565b8152602001606081526020016060815260200160608152602001606081525090565b82805461722290618bd9565b90600052602060002090601f0160209004810192826172445760008555617110565b82601f106172555780548555617110565b8280016001018555821561711057600052602060002091601f016020900482015b82811115617110578254825591600101919060010190617276565b50805461729d90618bd9565b6000825580601f106172ad575050565b601f01602090049060005260206000209081019061182391905b5b8082111561711c57600081556001016172c8565b6040518060600160405280606081526020016060815260200161716d6040518060200160405280606081525090565b6000606082840312156123d857600080fd5b60006020828403121561732f57600080fd5b81356001600160401b0381111561734557600080fd5b613f3c8482850161730b565b60005b8381101561736c578181015183820152602001617354565b83811115610ea85750506000910152565b60008151808452617395816020860160208601617351565b601f01601f19169290920160200192915050565b6020815260008251608060208401526173c560a084018261737d565b90506020840151601f19808584030160408601526173e3838361737d565b92506040860151915080858403016060860152617400838361737d565b925060608601519150808584030160808601525061741e828261737d565b95945050505050565b634e487b7160e01b600052604160045260246000fd5b604051608081016001600160401b038111828210171561745f5761745f617427565b60405290565b60405160a081016001600160401b038111828210171561745f5761745f617427565b604051601f8201601f191681016001600160401b03811182821017156174af576174af617427565b604052919050565b60006001600160401b038211156174d0576174d0617427565b50601f01601f191660200190565b60006174f16174ec846174b7565b617487565b905082815283838301111561750557600080fd5b828260208301376000602084830101529392505050565b600082601f83011261752d57600080fd5b61753c838335602085016174de565b9392505050565b60006020828403121561755557600080fd5b81356001600160401b0381111561756b57600080fd5b613f3c8482850161751c565b602080825282518282018190526000919060409081850190868401855b828110156175cd576175bd84835180516001600160401b03908116835260209182015116910152565b9284019290850190600101617594565b5091979650505050505050565b60008083601f8401126175ec57600080fd5b5081356001600160401b0381111561760357600080fd5b602083019150836020828501011115611d0657600080fd5b6001600160a01b038116811461182357600080fd5b60008060006040848603121561764557600080fd5b83356001600160401b0381111561765b57600080fd5b617667868287016175da565b909450925050602084013561767b8161761b565b809150509250925092565b6000806040838503121561769957600080fd5b82356001600160401b03808211156176b057600080fd5b6176bc8683870161751c565b935060208501359150808211156176d257600080fd5b506176df8582860161751c565b9150509250929050565b6001600160401b038116811461182357600080fd5b8035617709816176e9565b919050565b60008060008060006060868803121561772657600080fd5b85356001600160401b038082111561773d57600080fd5b61774989838a016175da565b9097509550602088013591508082111561776257600080fd5b5061776f888289016175da565b9094509250506040860135617783816176e9565b809150509295509295909350565b6000608082840312156123d857600080fd5b6000602082840312156177b557600080fd5b81356001600160401b038111156177cb57600080fd5b613f3c84828501617791565b600060e082840312156123d857600080fd5b6000602082840312156177fb57600080fd5b81356001600160401b0381111561781157600080fd5b613f3c848285016177d7565b602081526000825160a0602084015261783960c084018261737d565b90506020840151601f1980858403016040860152617857838361737d565b92506040860151915080858403016060860152617874838361737d565b92506060860151915080858403016080860152617891838361737d565b925060808601519150808584030160a08601525061741e828261737d565b60208152600061753c602083018461737d565b600060a082840312156123d857600080fd5b6000602082840312156178e657600080fd5b81356001600160401b038111156178fc57600080fd5b613f3c848285016178c2565b60008060006060848603121561791d57600080fd5b83356001600160401b038082111561793457600080fd5b6179408783880161751c565b9450602086013591508082111561795657600080fd5b506179638682870161751c565b925050604084013561767b816176e9565b60006020828403121561798657600080fd5b813561753c816176e9565b600080602083850312156179a457600080fd5b82356001600160401b038111156179ba57600080fd5b6179c6858286016175da565b90969095509350505050565b6000815180845260208085019450848260051b860182860160005b85811015617a17578383038952617a0583835161737d565b988501989250908401906001016179ed565b5090979650505050505050565b634e487b7160e01b600052602160045260246000fd5b60048110617a4a57617a4a617a24565b9052565b6000815160608452617a63606085018261737d565b905060208301518482036020860152617a7c828261737d565b91505060408301518482036040860152805190506020825261741e602083018261737d565b6000815160a08452617ab660a085018261737d565b9050602080840151858303828701528281518085528385019150838160051b860101848401935060005b82811015617b3457601f19878303018452845160408151818552617b068286018261737d565b91505087820151915083810388850152617b2081836179d2565b968801969588019593505050600101617ae0565b5060408801519550617b4960408a0187617a3a565b6060880151955088810360608a0152617b628187617a4e565b955050505050506080830151616f6460808601826001600160401b03169052565b604081526000617b966040830185617aa1565b905082151560208301529392505050565b60008060408385031215617bba57600080fd5b82356001600160401b03811115617bd057600080fd5b617bdc8582860161751c565b95602094909401359450505050565b60006020808301818452808551808352604092508286019150828160051b87010184880160005b83811015617c6257888303603f1901855281518051878552617c368886018261737d565b91890151858303868b0152919050617c4e8183617aa1565b968901969450505090860190600101617c12565b509098975050505050505050565b60008060008060408587031215617c8657600080fd5b84356001600160401b0380821115617c9d57600080fd5b617ca9888389016175da565b90965094506020870135915080821115617cc257600080fd5b50617ccf878288016175da565b95989497509550505050565b60058110617a4a57617a4a617a24565b60038110617a4a57617a4a617a24565b6000815160408452617d10604085018261737d565b90506020830151848203602086015261741e828261737d565b60408152617d3b604082018451617cdb565b60006020840151617d4f6060840182617ceb565b50604084015160a06080840152617d6960e0840182617cfb565b90506060850151603f19808584030160a0860152617d8783836179d2565b925060808701519150808584030160c086015250617da5828261737d565b9250505082151560208301529392505050565b608081526000617dcb608083018761737d565b617dd86020840187617a3a565b8281036040840152617dea8186617a4e565b9150506001600160401b038316606083015295945050505050565b60608101617e29828580516001600160401b03908116835260209182015116910152565b82151560408301529392505050565b60208152600061753c60208301846179d2565b600060208284031215617e5d57600080fd5b5035919050565b600061012082840312156123d857600080fd5b600060208284031215617e8957600080fd5b81356001600160401b03811115617e9f57600080fd5b613f3c84828501617e64565b60006020808301818452808551808352604092508286019150828160051b87010184880160005b83811015617c6257603f19898403018552815160e0617ef2858351617cdb565b88820151617f028a870182617ceb565b50878201518189870152617f1882870182617cfb565b91505060608083015186830382880152617f3283826179d2565b9250505060808083015186830382880152617f4d838261737d565b9250505060a08083015186830382880152617f68838261737d565b9250505060c08083015192508582038187015250617f86818361737d565b968901969450505090860190600101617ed2565b604081526000617b96604083018561737d565b617fb78186617cdb565b617fc46020820185617ceb565b608060408201526000617fda6080830185617cfb565b8281036060840152617fec818561737d565b979650505050505050565b6000604082840312156123d857600080fd5b60008060006060848603121561801e57600080fd5b83356001600160401b0381111561803457600080fd5b618040868287016175da565b909450925061805490508560208601617ff7565b90509250925092565b6000602080830181845280855180835260408601915060408160051b870101925083870160005b828110156180b257603f198886030184526180a085835161737d565b94509285019290850190600101618084565b5092979650505050505050565b6000602082840312156180d157600080fd5b81356001600160401b038111156180e757600080fd5b613f3c84828501617ff7565b60006020828403121561810557600080fd5b81356001600160401b0381111561811b57600080fd5b8201610160818503121561753c57600080fd5b60008060006040848603121561814357600080fd5b83356001600160401b038082111561815a57600080fd5b61816687838801617e64565b9450602086013591508082111561817c57600080fd5b50618189868287016175da565b9497909650939450505050565b6020808252825182820181905260009190848201906040850190845b818110156181d75783516001600160401b0316835292840192918401916001016181b2565b50909695505050505050565b600080604083850312156181f657600080fd5b82356001600160401b0381111561820c57600080fd5b8301601f8101851361821d57600080fd5b617bdc858235602084016174de565b60006020828403121561823e57600080fd5b81356001600160401b0381111561825457600080fd5b82016101a0818503121561753c57600080fd5b60006020828403121561827957600080fd5b813561753c8161761b565b6000808335601e1984360301811261829b57600080fd5b83016020810192503590506001600160401b038111156182ba57600080fd5b803603831315611d0657600080fd5b81835281816020850137506000828201602090810191909152601f909101601f19169091010190565b60008235605e1983360301811261830857600080fd5b90910192915050565b600061831d8283618284565b6060855261832f6060860182846182c9565b91505061833f6020840184618284565b85830360208701526183528382846182c9565b925050506040830135601e1984360301811261836d57600080fd5b848203604086015283016183818180618284565b9150602083526183956020840183836182c9565b9695505050505050565b6020815260006183af8384618284565b606060208501526183c46080850182846182c9565b9150506183d460208501856182f2565b838203601f190160408501526183ea8282618311565b91505060408401356183fb816176e9565b6001600160401b03166060939093019290925250919050565b60008251618426818460208701617351565b9190910192915050565b600082601f83011261844157600080fd5b815161844f6174ec826174b7565b81815284602083860101111561846457600080fd5b613f3c826020830160208701617351565b60006020828403121561848757600080fd5b81516001600160401b038082111561849e57600080fd5b90830190608082860312156184b257600080fd5b6184ba61743d565b8251828111156184c957600080fd5b6184d587828601618430565b8252506020830151828111156184ea57600080fd5b6184f687828601618430565b60208301525060408301518281111561850e57600080fd5b61851a87828601618430565b60408301525060608301518281111561853257600080fd5b61853e87828601618430565b60608301525095945050505050565b608081526000618560608083018761737d565b8281036020840152618572818761737d565b90508281036040840152618586818661737d565b90508281036060840152617fec818561737d565b6000823561011e1983360301811261842657600080fd5b6000808335601e198436030181126185c857600080fd5b8301803591506001600160401b038211156185e257600080fd5b602001915036819003821315611d0657600080fd5b8035618602816176e9565b6001600160401b03908116835260208201359061861e826176e9565b808216602085015250505050565b600061012061864b8461863e856176fe565b6001600160401b03169052565b6186586020840184618284565b82602087015261866b83870182846182c9565b9250505061867c6040840184618284565b858303604087015261868f8382846182c9565b925050506186a06060840184618284565b85830360608701526186b38382846182c9565b925050506186c46080840184618284565b85830360808701526186d78382846182c9565b925050506186e860a0840184618284565b85830360a08701526186fb8382846182c9565b9250505061870f60c0850160c085016185f7565b61010061871d8185016176fe565b6001600160401b03169401939093525090919050565b604081526000618746604083018561862c565b90506001600160a01b03831660208301529392505050565b60006020828403121561877057600080fd5b81516001600160401b0381111561878657600080fd5b613f3c84828501618430565b6000823561011e1983360301811261830857600080fd5b6020815260006187b98384618792565b608060208401526187cd60a084018261862c565b90506187dc6020850185618284565b848303601f190160408601526187f38382846182c9565b9250505061753c60608401604086016185f7565b60808152600061881b60808301888a6182c9565b828103602084015261882e8187896182c9565b90506001600160401b03851660408401528281036060840152618851818561737d565b9998505050505050505050565b604081526000618871604083018561862c565b828103602084015261741e818561737d565b60208152600061753c602083018461862c565b6020815260006188a68384618284565b60e060208501526188bc610100850182846182c9565b9150506188cc6020850185618284565b601f19808685030160408701526188e48483856182c9565b93506188f36040880188618284565b935091508086850301606087015261890c8484846182c9565b935061891b6060880188618284565b93509150808685030160808701526189348484846182c9565b93506189436080880188618284565b93509150808685030160a08701525061895d8383836182c9565b9250505061753c60c0840160a086016185f7565b60006020828403121561898357600080fd5b81516001600160401b038082111561899a57600080fd5b9083019060a082860312156189ae57600080fd5b6189b6617465565b8251828111156189c557600080fd5b6189d187828601618430565b8252506020830151828111156189e657600080fd5b6189f287828601618430565b602083015250604083015182811115618a0a57600080fd5b618a1687828601618430565b604083015250606083015182811115618a2e57600080fd5b618a3a87828601618430565b606083015250608083015182811115618a5257600080fd5b618a5e87828601618430565b60808301525095945050505050565b606081526000618a8160608301888a6182c9565b8281036020840152618a948187896182c9565b905082810360408401526188518185876182c9565b60a081526000618abc60a083018861737d565b8281036020840152618ace818861737d565b90508281036040840152618ae2818761737d565b90508281036060840152618af6818661737d565b90508281036080840152618b0a818561737d565b98975050505050505050565b6000618b228283618284565b60a08552618b3460a0860182846182c9565b915050618b446020840184618284565b8583036020870152618b578382846182c9565b92505050618b686040840184618284565b8583036040870152618b7b8382846182c9565b9250505061753c60608501606085016185f7565b60208152600061753c6020830184618b16565b604081526000618bb66040830186886182c9565b8281036020840152617fec8185876182c9565b8183823760009101908152919050565b600181811c90821680618bed57607f821691505b6020821081036123d857634e487b7160e01b600052602260045260246000fd5b634e487b7160e01b600052603260045260246000fd5b634e487b7160e01b600052601160045260246000fd5b600060018201618c4b57618c4b618c23565b5060010190565b602081526000613f3c6020830184866182c9565b8051801515811461770957600080fd5b6000808284036060811215618c8a57600080fd5b6040811215618c9857600080fd5b50604051604081018181106001600160401b0382111715618cbb57618cbb617427565b6040528351618cc9816176e9565b81526020840151618cd9816176e9565b60208201529150618cec60408401618c66565b90509250929050565b60008351618d07818460208801617351565b7f2f000000000000000000000000000000000000000000000000000000000000009083019081528351618d41816001840160208801617351565b01600101949350505050565b6000816000190483118215151615618d6757618d67618c23565b500290565b60006001600160401b03808316818103618d8857618d88618c23565b6001019392505050565b60008060408385031215618da557600080fd5b82516001600160401b03811115618dbb57600080fd5b618dc785828601618430565b925050618cec60208401618c66565b606081526000618de9606083018761862c565b8281036020840152618dfc8186886182c9565b9150506001600160a01b038316604083015295945050505050565b602081526000618e278384618792565b60a06020840152618e3b60c084018261862c565b9050618e4a6020850185618284565b601f1980868503016040870152618e628483856182c9565b9350618e716040880188618284565b935091508086850301606087015250618e8b8383836182c9565b9250505061753c60808401606086016185f7565b604081526000618eb2604083018661862c565b82810360208401526183958185876182c9565b602081526000618ed58384618284565b60806020850152618eea60a0850182846182c9565b9150506187dc6020850185618284565b606081526000618f0e6060830185876182c9565b9050613f3c60208301846185f7565b600080835481600182811c915080831680618f3957607f831692505b60208084108203618f5857634e487b7160e01b86526022600452602486fd5b818015618f6c5760018114618f7d57618faa565b60ff19861689528489019650618faa565b60008a81526020902060005b86811015618fa25781548b820152908501908301618f89565b505084890196505b509498975050505050505050565b600082821015618fca57618fca618c23565b500390565b634e487b7160e01b600052603160045260246000fd5b6000618ff18283618284565b604085526190036040860182846182c9565b9150506190136020840184618284565b85830360208701526183958382846182c9565b60208152600061753c6020830184618fe5565b60008235603e1983360301811261830857600080fd5b6000808335601e1984360301811261906657600080fd5b83016020810192503590506001600160401b0381111561908557600080fd5b8060051b3603831315611d0657600080fd5b60008383855260208086019550808560051b8301018460005b87811015617a1757848303601f190189526190cb8288618284565b6190d68582846182c9565b9a86019a94505050908301906001016190b0565b60006190f68283618284565b604085526191086040860182846182c9565b915050619118602084018461904f565b8583036020870152618395838284619097565b60208152600061913b8384618284565b6101606020850152619152610180850182846182c9565b9150506191626020850185618284565b601f198086850301604087015261917a8483856182c9565b93506191896040880188619039565b92508086850301606087015261919f84846190ea565b93506191ae6060880188618284565b93509150808685030160808701526191c78484846182c9565b93506191d66080880188618284565b93509150808685030160a08701526191ef8484846182c9565b93506191fe60a0880188618284565b93509150808685030160c08701526192178484846182c9565b935061922660c0880188618284565b93509150808685030160e0870152506192408383836182c9565b92505050619255610100840160e086016185f7565b61753c610140840161012086016185f7565b60808152600061927a608083018861737d565b828103602084015261928c818861737d565b90506001600160401b03861660408401528281036060840152618b0a8185876182c9565b6020815260006192c08384618284565b606060208501526192d56080850182846182c9565b9150506192e56020850185618284565b601f19808685030160408701526192fd8483856182c9565b935061930c6040880188618284565b9350915080868503016060870152506183958383836182c9565b604081526000618eb2604083018661737d565b60608152600061934d6060830187896182c9565b82810360208401526193608186886182c9565b9150506001600160401b03831660408301529695505050505050565b6000806040838503121561938f57600080fd5b82519150618cec60208401618c66565b600082198211156193b2576193b2618c23565b500190565b6020815260006193c78384618284565b604060208501526193dc6060850182846182c9565b9150506193ec6020850185618284565b848303601f190160408601526183958382846182c9565b60008235609e1983360301811261830857600080fd5b80356003811061770957600080fd5b600081356005811061943957600080fd5b6194438482617cdb565b5061945060208301619419565b61945d6020850182617ceb565b5061946b6040830183619039565b60a0604085015261947f60a0850182618fe5565b905061948e606084018461904f565b85830360608701526194a1838284619097565b925050506194b26080840184618284565b85830360808701526183958382846182c9565b6020815260006194d58384618284565b604060208501526194ea6060850182846182c9565b9150506194fa6020850185619403565b838203601f1901604085015261741e8282619428565b60008235609e1983360301811261842657600080fd5b60006020828403121561953857600080fd5b61753c82619419565b6000808335601e1984360301811261955857600080fd5b8301803591506001600160401b0382111561957257600080fd5b6020019150600581901b3603821315611d0657600080fd5b60008235603e1983360301811261842657600080fd5b6195aa818b617ceb565b60c0602082015260006195c160c083018a8c619097565b82810360408401526195d481898b6182c9565b905082810360608401526195e8818861737d565b905082810360808401526195fc8187618fe5565b905082810360a08401526196118185876182c9565b9c9b505050505050505050505050565b81835260006020808501808196508560051b810191508460005b878110156175cd57828403895261965b84619656848a619039565b6190ea565b9885019893509084019060010161963b565b60208152600061967d8384618284565b6101a060208501526196946101c0850182846182c9565b9150506196a460208501856182f2565b601f19808584030160408601526196bb8383618311565b92506196c9604087016176fe565b6001600160401b038116606087015291506196e76060870187618284565b9250818685030160808701526196fe8484836182c9565b93505061970e6080870187618284565b9250818685030160a08701526197258484836182c9565b93505061973560a087018761904f565b9250818685030160c087015261974c848483619621565b93505061975c60c0870187618284565b9250818685030160e08701526197738484836182c9565b93505061978360e0870187618284565b925061010082878603018188015261979c8585846182c9565b94506197aa81890189618284565b94509150506101208287860301818801526197c68585846182c9565b94506197d86101408801828a016185f7565b5050505061753c610180840161016086016185f7565b6020815260006197fe8384618284565b60e06020850152619814610100850182846182c9565b9150506198246020850185618284565b601f198086850301604087015261983c8483856182c9565b935061984b6040880188619403565b92508086850301606087015261890c8484619428565b61986b818d617ceb565b60e06020820152600061988260e083018c8e619097565b8281036040840152619895818b8d6182c9565b905082810360608401526198a9818a61737d565b905082810360808401526198bd8189618fe5565b905082810360a08401526198d28187896182c9565b905082810360c08401526198e78185876182c9565b9e9d5050505050505050505050505050565b6000825161990b818460208701617351565b7f2064656c656761746563616c6c206572726f7200000000000000000000000000920191825250601301919050565b60408152600061994e6040830185876182c9565b90506001600160a01b0383166020830152949350505050565b7f636f6d6d69746d656e74732f706f7274732f000000000000000000000000000081526000845161999f816012850160208901617351565b692f6368616e6e656c732f60b01b60129184019182015284516199c981601c840160208901617351565b6a2f73657175656e6365732f60a81b601c929091019182015283516199f5816027840160208801617351565b0160270195945050505050565b7f6e6f206d6f64756c652066696e6420756e646572206368616e6e656c20000000815260008351619a3a81601d850160208801617351565b7f20616e6420706f72742000000000000000000000000000000000000000000000601d918401918201528351619a77816027840160208801617351565b01602701949350505050565b7f6e6f206d6f64756c652066696e6420756e64657220706f727420000000000000815260008251619abb81601a850160208701617351565b91909101601a0192915050565b600063ffffffff808316818103618d8857618d88618c23565b7f61636b732f706f7274732f000000000000000000000000000000000000000000815260008451619b1981600b850160208901617351565b692f6368616e6e656c732f60b01b600b918401918201528451619b43816015840160208901617351565b8082019150506a2f73657175656e6365732f60a81b60158201528351619b70816020840160208801617351565b016020019594505050505056fea2646970667358221220affe371cf3af171a3ded6d17d2b568bb6f59404944af5aac303c2c9986f0d38a64736f6c634300080d0033",
  "immutableReferences": {
    "10458": [
      {
        "length": 32,
        "start": 4995
      },
      {
        "length": 32,
        "start": 5652
      },
      {
        "length": 32,
        "start": 17462
      },
      {
        "length": 32,
        "start": 21675
      },
      {
        "length": 32,
        "start": 24729
      },
      {
        "length": 32,
        "start": 25984
      }
    ],
    "11056": [
      {
        "length": 32,
        "start": 23338
      },
      {
        "length": 32,
        "start": 24316
      },
      {
        "length": 32,
        "start": 27123
      }
    ],
    "11207": [
      {
        "length": 32,
        "start": 3147
      },
      {
        "length": 32,
        "start": 18123
      },
      {
        "length": 32,
        "start": 22254
      },
      {
        "length": 32,
        "start": 25578
      }
    ],
    "11757": [
      {
        "length": 32,
        "start": 4249
      },
      {
        "length": 32,
        "start": 4526
      },
      {
        "length": 32,
        "start": 11750
      },
      {
        "length": 32,
        "start": 16431
      },
      {
        "length": 32,
        "start": 22904
      }
    ]
  },
  "source": "// SPDX-License-Identifier: Apache-2.0\npragma solidity ^0.8.9;\n\nimport \"@openzeppelin/contracts/access/Ownable.sol\";\nimport \"./25-handler/IBCHandler.sol\";\n\n/**\n * @dev OwnableIBCHandler is a contract that implements [ICS-25](https://github.com/cosmos/ibc/tree/main/spec/core/ics-025-handler-interface).\n */\ncontract OwnableIBCHandler is IBCHandler, Ownable {\n    /**\n     * @dev The arguments of constructor must satisfy the followings:\n     * @param ibcClient is the address of a contract that implements `IIBCClient`.\n     * @param ibcConnection is the address of a contract that implements `IIBCConnectionHandshake`.\n     * @param ibcChannel is the address of a contract that implements `IIBCChannelHandshake`.\n     * @param ibcPacket is the address of a contract that implements `IIBCPacket`.\n     */\n    constructor(address ibcClient, address ibcConnection, address ibcChannel, address ibcPacket)\n        IBCHandler(ibcClient, ibcConnection, ibcChannel, ibcPacket)\n    {}\n\n    /**\n     * @dev registerClient registers a new client type into the client registry\n     */\n    function registerClient(string calldata clientType, ILightClient client) public override onlyOwner {\n        super.registerClient(clientType, client);\n    }\n\n    /**\n     * @dev bindPort binds to an unallocated port, failing if the port has already been allocated.\n     */\n    function bindPort(string calldata portId, address moduleAddress) public override onlyOwner {\n        super.bindPort(portId, moduleAddress);\n        portIds.push(portId);\n    }\n\n    /**\n     * @dev setExpectedTimePerBlock sets expected time per block.\n     */\n    function setExpectedTimePerBlock(uint64 expectedTimePerBlock_) public override onlyOwner {\n        super.setExpectedTimePerBlock(expectedTimePerBlock_);\n    }\n}\n",
  "sourcePath": "/Users/vimchain/Cryptape/forcerelay/ibc-solidity-contract/contracts/core/OwnableIBCHandler.sol",
  "compiler": {
    "name": "solc",
    "version": "0.8.13+commit.abaa5c0e.Emscripten.clang"
  },
  "schemaVersion": "3.4.14",
  "updatedAt": "2023-11-02T09:28:45.049Z",
  "devdoc": {
    "details": "OwnableIBCHandler is a contract that implements [ICS-25](https://github.com/cosmos/ibc/tree/main/spec/core/ics-025-handler-interface).",
    "kind": "dev",
    "methods": {
      "bindPort(string,address)": {
        "details": "bindPort binds to an unallocated port, failing if the port has already been allocated."
      },
      "channelCapabilityPath(string,string)": {
        "details": "channelCapabilityPath returns the path under which module address associated with a port and channel should be stored."
      },
      "constructor": {
        "details": "The arguments of constructor must satisfy the followings:",
        "params": {
          "ibcChannel": "is the address of a contract that implements `IIBCChannelHandshake`.",
          "ibcClient": "is the address of a contract that implements `IIBCClient`.",
          "ibcConnection": "is the address of a contract that implements `IIBCConnectionHandshake`.",
          "ibcPacket": "is the address of a contract that implements `IIBCPacket`."
        }
      },
      "createClient((string,bytes,bytes))": {
        "details": "createClient creates a new client state and populates it with a given consensus state"
      },
      "owner()": {
        "details": "Returns the address of the current owner."
      },
      "portCapabilityPath(string)": {
        "details": "portCapabilityPath returns the path under which owner module address associated with a port should be stored."
      },
      "registerClient(string,address)": {
        "details": "registerClient registers a new client type into the client registry"
      },
      "renounceOwnership()": {
        "details": "Leaves the contract without owner. It will not be possible to call `onlyOwner` functions. Can only be called by the current owner. NOTE: Renouncing ownership will leave the contract without an owner, thereby disabling any functionality that is only available to the owner."
      },
      "setExpectedTimePerBlock(uint64)": {
        "details": "setExpectedTimePerBlock sets expected time per block."
      },
      "transferOwnership(address)": {
        "details": "Transfers ownership of the contract to a new account (`newOwner`). Can only be called by the current owner."
      },
      "updateClient((string,bytes))": {
        "details": "updateClient updates the consensus state and the state root from a provided header"
      }
    },
    "version": 1
  },
  "userdoc": {
    "kind": "user",
    "methods": {},
    "version": 1
  }
}