{
  "contractName": "OwnableIBCHandler",
  "abi": [
    {
      "inputs": [
        {
          "internalType": "address",
          "name": "ibcClient",
          "type": "address"
        },
        {
          "internalType": "address",
          "name": "ibcConnection",
          "type": "address"
        },
        {
          "internalType": "address",
          "name": "ibcChannel",
          "type": "address"
        },
        {
          "internalType": "address",
          "name": "ibcPacket",
          "type": "address"
        }
      ],
      "stateMutability": "nonpayable",
      "type": "constructor"
    },
    {
      "anonymous": false,
      "inputs": [
        {
          "components": [
            {
              "internalType": "uint64",
              "name": "sequence",
              "type": "uint64"
            },
            {
              "internalType": "string",
              "name": "sourcePort",
              "type": "string"
            },
            {
              "internalType": "string",
              "name": "sourceChannel",
              "type": "string"
            },
            {
              "internalType": "string",
              "name": "destinationPort",
              "type": "string"
            },
            {
              "internalType": "string",
              "name": "destinationChannel",
              "type": "string"
            },
            {
              "internalType": "bytes",
              "name": "data",
              "type": "bytes"
            },
            {
              "components": [
                {
                  "internalType": "uint64",
                  "name": "revisionNumber",
                  "type": "uint64"
                },
                {
                  "internalType": "uint64",
                  "name": "revisionHeight",
                  "type": "uint64"
                }
              ],
              "internalType": "struct Height.Data",
              "name": "timeoutHeight",
              "type": "tuple"
            },
            {
              "internalType": "uint64",
              "name": "timeoutTimestamp",
              "type": "uint64"
            }
          ],
          "indexed": false,
          "internalType": "struct Packet.Data",
          "name": "packet",
          "type": "tuple"
        },
        {
          "indexed": false,
          "internalType": "bytes",
          "name": "acknowledgement",
          "type": "bytes"
        }
      ],
      "name": "AcknowledgePacket",
      "type": "event"
    },
    {
      "anonymous": false,
      "inputs": [
        {
          "indexed": false,
          "internalType": "string",
          "name": "portId",
          "type": "string"
        },
        {
          "indexed": false,
          "internalType": "string",
          "name": "channelId",
          "type": "string"
        },
        {
          "indexed": false,
          "internalType": "string",
          "name": "connectionId",
          "type": "string"
        },
        {
          "indexed": false,
          "internalType": "string",
          "name": "counterpartyPortId",
          "type": "string"
        },
        {
          "indexed": false,
          "internalType": "string",
          "name": "counterpartyChannelId",
          "type": "string"
        }
      ],
      "name": "CloseConfirmChannel",
      "type": "event"
    },
    {
      "anonymous": false,
      "inputs": [
        {
          "indexed": false,
          "internalType": "string",
          "name": "portId",
          "type": "string"
        },
        {
          "indexed": false,
          "internalType": "string",
          "name": "channelId",
          "type": "string"
        },
        {
          "indexed": false,
          "internalType": "string",
          "name": "connectionId",
          "type": "string"
        },
        {
          "indexed": false,
          "internalType": "string",
          "name": "counterpartyPortId",
          "type": "string"
        },
        {
          "indexed": false,
          "internalType": "string",
          "name": "counterpartyChannelId",
          "type": "string"
        }
      ],
      "name": "CloseInitChannel",
      "type": "event"
    },
    {
      "anonymous": false,
      "inputs": [
        {
          "indexed": false,
          "internalType": "string",
          "name": "clientId",
          "type": "string"
        },
        {
          "indexed": false,
          "internalType": "string",
          "name": "clientType",
          "type": "string"
        }
      ],
      "name": "CreateClient",
      "type": "event"
    },
    {
      "anonymous": false,
      "inputs": [
        {
          "indexed": false,
          "internalType": "string",
          "name": "portId",
          "type": "string"
        },
        {
          "indexed": false,
          "internalType": "string",
          "name": "channelId",
          "type": "string"
        },
        {
          "indexed": false,
          "internalType": "string",
          "name": "connectionId",
          "type": "string"
        },
        {
          "indexed": false,
          "internalType": "string",
          "name": "counterpartyPortId",
          "type": "string"
        },
        {
          "indexed": false,
          "internalType": "string",
          "name": "counterpartyChannelId",
          "type": "string"
        }
      ],
      "name": "OpenAckChannel",
      "type": "event"
    },
    {
      "anonymous": false,
      "inputs": [
        {
          "indexed": false,
          "internalType": "string",
          "name": "connectionId",
          "type": "string"
        },
        {
          "indexed": false,
          "internalType": "string",
          "name": "clientId",
          "type": "string"
        },
        {
          "indexed": false,
          "internalType": "string",
          "name": "counterpartyConnectionId",
          "type": "string"
        },
        {
          "indexed": false,
          "internalType": "string",
          "name": "counterpartyClientId",
          "type": "string"
        }
      ],
      "name": "OpenAckConnection",
      "type": "event"
    },
    {
      "anonymous": false,
      "inputs": [
        {
          "indexed": false,
          "internalType": "string",
          "name": "portId",
          "type": "string"
        },
        {
          "indexed": false,
          "internalType": "string",
          "name": "channelId",
          "type": "string"
        },
        {
          "indexed": false,
          "internalType": "string",
          "name": "connectionId",
          "type": "string"
        },
        {
          "indexed": false,
          "internalType": "string",
          "name": "counterpartyPortId",
          "type": "string"
        },
        {
          "indexed": false,
          "internalType": "string",
          "name": "counterpartyChannelId",
          "type": "string"
        }
      ],
      "name": "OpenConfirmChannel",
      "type": "event"
    },
    {
      "anonymous": false,
      "inputs": [
        {
          "indexed": false,
          "internalType": "string",
          "name": "connectionId",
          "type": "string"
        },
        {
          "indexed": false,
          "internalType": "string",
          "name": "clientId",
          "type": "string"
        },
        {
          "indexed": false,
          "internalType": "string",
          "name": "counterpartyConnectionId",
          "type": "string"
        },
        {
          "indexed": false,
          "internalType": "string",
          "name": "counterpartyClientId",
          "type": "string"
        }
      ],
      "name": "OpenConfirmConnection",
      "type": "event"
    },
    {
      "anonymous": false,
      "inputs": [
        {
          "indexed": false,
          "internalType": "string",
          "name": "portId",
          "type": "string"
        },
        {
          "indexed": false,
          "internalType": "string",
          "name": "channelId",
          "type": "string"
        },
        {
          "indexed": false,
          "internalType": "string",
          "name": "connectionId",
          "type": "string"
        },
        {
          "indexed": false,
          "internalType": "string",
          "name": "counterpartyPortId",
          "type": "string"
        },
        {
          "indexed": false,
          "internalType": "string",
          "name": "counterpartyChannelId",
          "type": "string"
        }
      ],
      "name": "OpenInitChannel",
      "type": "event"
    },
    {
      "anonymous": false,
      "inputs": [
        {
          "indexed": false,
          "internalType": "string",
          "name": "connectionId",
          "type": "string"
        },
        {
          "indexed": false,
          "internalType": "string",
          "name": "clientId",
          "type": "string"
        },
        {
          "indexed": false,
          "internalType": "string",
          "name": "counterpartyConnectionId",
          "type": "string"
        },
        {
          "indexed": false,
          "internalType": "string",
          "name": "counterpartyClientId",
          "type": "string"
        }
      ],
      "name": "OpenInitConnection",
      "type": "event"
    },
    {
      "anonymous": false,
      "inputs": [
        {
          "indexed": false,
          "internalType": "string",
          "name": "portId",
          "type": "string"
        },
        {
          "indexed": false,
          "internalType": "string",
          "name": "channelId",
          "type": "string"
        },
        {
          "indexed": false,
          "internalType": "string",
          "name": "connectionId",
          "type": "string"
        },
        {
          "indexed": false,
          "internalType": "string",
          "name": "counterpartyPortId",
          "type": "string"
        },
        {
          "indexed": false,
          "internalType": "string",
          "name": "counterpartyChannelId",
          "type": "string"
        }
      ],
      "name": "OpenTryChannel",
      "type": "event"
    },
    {
      "anonymous": false,
      "inputs": [
        {
          "indexed": false,
          "internalType": "string",
          "name": "connectionId",
          "type": "string"
        },
        {
          "indexed": false,
          "internalType": "string",
          "name": "clientId",
          "type": "string"
        },
        {
          "indexed": false,
          "internalType": "string",
          "name": "counterpartyConnectionId",
          "type": "string"
        },
        {
          "indexed": false,
          "internalType": "string",
          "name": "counterpartyClientId",
          "type": "string"
        }
      ],
      "name": "OpenTryConnection",
      "type": "event"
    },
    {
      "anonymous": false,
      "inputs": [
        {
          "indexed": true,
          "internalType": "address",
          "name": "previousOwner",
          "type": "address"
        },
        {
          "indexed": true,
          "internalType": "address",
          "name": "newOwner",
          "type": "address"
        }
      ],
      "name": "OwnershipTransferred",
      "type": "event"
    },
    {
      "anonymous": false,
      "inputs": [
        {
          "components": [
            {
              "internalType": "uint64",
              "name": "sequence",
              "type": "uint64"
            },
            {
              "internalType": "string",
              "name": "sourcePort",
              "type": "string"
            },
            {
              "internalType": "string",
              "name": "sourceChannel",
              "type": "string"
            },
            {
              "internalType": "string",
              "name": "destinationPort",
              "type": "string"
            },
            {
              "internalType": "string",
              "name": "destinationChannel",
              "type": "string"
            },
            {
              "internalType": "bytes",
              "name": "data",
              "type": "bytes"
            },
            {
              "components": [
                {
                  "internalType": "uint64",
                  "name": "revisionNumber",
                  "type": "uint64"
                },
                {
                  "internalType": "uint64",
                  "name": "revisionHeight",
                  "type": "uint64"
                }
              ],
              "internalType": "struct Height.Data",
              "name": "timeoutHeight",
              "type": "tuple"
            },
            {
              "internalType": "uint64",
              "name": "timeoutTimestamp",
              "type": "uint64"
            }
          ],
          "indexed": false,
          "internalType": "struct Packet.Data",
          "name": "packet",
          "type": "tuple"
        }
      ],
      "name": "ReceivePacket",
      "type": "event"
    },
    {
      "anonymous": false,
      "inputs": [
        {
          "components": [
            {
              "components": [
                {
                  "internalType": "bytes32",
                  "name": "codeHash",
                  "type": "bytes32"
                },
                {
                  "internalType": "enum CellEmitter.ScriptHashType",
                  "name": "hashType",
                  "type": "uint8"
                },
                {
                  "internalType": "bytes",
                  "name": "args",
                  "type": "bytes"
                }
              ],
              "internalType": "struct CellEmitter.Script",
              "name": "script",
              "type": "tuple"
            },
            {
              "internalType": "uint64[2]",
              "name": "scriptLenRange",
              "type": "uint64[2]"
            },
            {
              "internalType": "uint64[2]",
              "name": "outputDataLenRange",
              "type": "uint64[2]"
            },
            {
              "internalType": "uint64[2]",
              "name": "outputDataCapacityRange",
              "type": "uint64[2]"
            }
          ],
          "indexed": false,
          "internalType": "struct CellEmitter.Filter",
          "name": "filter",
          "type": "tuple"
        }
      ],
      "name": "RegisterCellEmitterFilter",
      "type": "event"
    },
    {
      "anonymous": false,
      "inputs": [
        {
          "components": [
            {
              "components": [
                {
                  "internalType": "bytes32",
                  "name": "codeHash",
                  "type": "bytes32"
                },
                {
                  "internalType": "enum CellEmitter.ScriptHashType",
                  "name": "hashType",
                  "type": "uint8"
                },
                {
                  "internalType": "bytes",
                  "name": "args",
                  "type": "bytes"
                }
              ],
              "internalType": "struct CellEmitter.Script",
              "name": "script",
              "type": "tuple"
            },
            {
              "internalType": "uint64[2]",
              "name": "scriptLenRange",
              "type": "uint64[2]"
            },
            {
              "internalType": "uint64[2]",
              "name": "outputDataLenRange",
              "type": "uint64[2]"
            },
            {
              "internalType": "uint64[2]",
              "name": "outputDataCapacityRange",
              "type": "uint64[2]"
            }
          ],
          "indexed": false,
          "internalType": "struct CellEmitter.Filter",
          "name": "filter",
          "type": "tuple"
        }
      ],
      "name": "RemoveCellEmitterFilter",
      "type": "event"
    },
    {
      "anonymous": false,
      "inputs": [
        {
          "components": [
            {
              "internalType": "uint64",
              "name": "sequence",
              "type": "uint64"
            },
            {
              "internalType": "string",
              "name": "sourcePort",
              "type": "string"
            },
            {
              "internalType": "string",
              "name": "sourceChannel",
              "type": "string"
            },
            {
              "internalType": "string",
              "name": "destinationPort",
              "type": "string"
            },
            {
              "internalType": "string",
              "name": "destinationChannel",
              "type": "string"
            },
            {
              "internalType": "bytes",
              "name": "data",
              "type": "bytes"
            },
            {
              "components": [
                {
                  "internalType": "uint64",
                  "name": "revisionNumber",
                  "type": "uint64"
                },
                {
                  "internalType": "uint64",
                  "name": "revisionHeight",
                  "type": "uint64"
                }
              ],
              "internalType": "struct Height.Data",
              "name": "timeoutHeight",
              "type": "tuple"
            },
            {
              "internalType": "uint64",
              "name": "timeoutTimestamp",
              "type": "uint64"
            }
          ],
          "indexed": false,
          "internalType": "struct Packet.Data",
          "name": "packet",
          "type": "tuple"
        }
      ],
      "name": "SendPacket",
      "type": "event"
    },
    {
      "anonymous": false,
      "inputs": [
        {
          "indexed": false,
          "internalType": "string",
          "name": "clientId",
          "type": "string"
        },
        {
          "indexed": false,
          "internalType": "bytes",
          "name": "clientMessage",
          "type": "bytes"
        }
      ],
      "name": "UpdateClient",
      "type": "event"
    },
    {
      "anonymous": false,
      "inputs": [
        {
          "components": [
            {
              "internalType": "uint64",
              "name": "sequence",
              "type": "uint64"
            },
            {
              "internalType": "string",
              "name": "sourcePort",
              "type": "string"
            },
            {
              "internalType": "string",
              "name": "sourceChannel",
              "type": "string"
            },
            {
              "internalType": "string",
              "name": "destinationPort",
              "type": "string"
            },
            {
              "internalType": "string",
              "name": "destinationChannel",
              "type": "string"
            },
            {
              "internalType": "bytes",
              "name": "data",
              "type": "bytes"
            },
            {
              "components": [
                {
                  "internalType": "uint64",
                  "name": "revisionNumber",
                  "type": "uint64"
                },
                {
                  "internalType": "uint64",
                  "name": "revisionHeight",
                  "type": "uint64"
                }
              ],
              "internalType": "struct Height.Data",
              "name": "timeoutHeight",
              "type": "tuple"
            },
            {
              "internalType": "uint64",
              "name": "timeoutTimestamp",
              "type": "uint64"
            }
          ],
          "indexed": false,
          "internalType": "struct Packet.Data",
          "name": "packet",
          "type": "tuple"
        },
        {
          "indexed": false,
          "internalType": "bytes",
          "name": "acknowledgement",
          "type": "bytes"
        }
      ],
      "name": "WriteAcknowledgement",
      "type": "event"
    },
    {
      "inputs": [
        {
          "components": [
            {
              "components": [
                {
                  "internalType": "uint64",
                  "name": "sequence",
                  "type": "uint64"
                },
                {
                  "internalType": "string",
                  "name": "sourcePort",
                  "type": "string"
                },
                {
                  "internalType": "string",
                  "name": "sourceChannel",
                  "type": "string"
                },
                {
                  "internalType": "string",
                  "name": "destinationPort",
                  "type": "string"
                },
                {
                  "internalType": "string",
                  "name": "destinationChannel",
                  "type": "string"
                },
                {
                  "internalType": "bytes",
                  "name": "data",
                  "type": "bytes"
                },
                {
                  "components": [
                    {
                      "internalType": "uint64",
                      "name": "revisionNumber",
                      "type": "uint64"
                    },
                    {
                      "internalType": "uint64",
                      "name": "revisionHeight",
                      "type": "uint64"
                    }
                  ],
                  "internalType": "struct Height.Data",
                  "name": "timeoutHeight",
                  "type": "tuple"
                },
                {
                  "internalType": "uint64",
                  "name": "timeoutTimestamp",
                  "type": "uint64"
                }
              ],
              "internalType": "struct Packet.Data",
              "name": "packet",
              "type": "tuple"
            },
            {
              "internalType": "bytes",
              "name": "acknowledgement",
              "type": "bytes"
            },
            {
              "internalType": "bytes",
              "name": "proof",
              "type": "bytes"
            },
            {
              "components": [
                {
                  "internalType": "uint64",
                  "name": "revisionNumber",
                  "type": "uint64"
                },
                {
                  "internalType": "uint64",
                  "name": "revisionHeight",
                  "type": "uint64"
                }
              ],
              "internalType": "struct Height.Data",
              "name": "proofHeight",
              "type": "tuple"
            }
          ],
          "internalType": "struct IBCMsgs.MsgPacketAcknowledgement",
          "name": "msg_",
          "type": "tuple"
        }
      ],
      "name": "acknowledgePacket",
      "outputs": [],
      "stateMutability": "nonpayable",
      "type": "function"
    },
    {
      "inputs": [
        {
          "internalType": "bytes",
          "name": "",
          "type": "bytes"
        },
        {
          "internalType": "uint256",
          "name": "",
          "type": "uint256"
        }
      ],
      "name": "capabilities",
      "outputs": [
        {
          "internalType": "address",
          "name": "",
          "type": "address"
        }
      ],
      "stateMutability": "view",
      "type": "function"
    },
    {
      "inputs": [
        {
          "internalType": "string",
          "name": "portId",
          "type": "string"
        },
        {
          "internalType": "string",
          "name": "channelId",
          "type": "string"
        }
      ],
      "name": "channelCapabilityPath",
      "outputs": [
        {
          "internalType": "bytes",
          "name": "",
          "type": "bytes"
        }
      ],
      "stateMutability": "pure",
      "type": "function"
    },
    {
      "inputs": [
        {
          "components": [
            {
              "internalType": "string",
              "name": "portId",
              "type": "string"
            },
            {
              "internalType": "string",
              "name": "channelId",
              "type": "string"
            },
            {
              "internalType": "bytes",
              "name": "proofInit",
              "type": "bytes"
            },
            {
              "components": [
                {
                  "internalType": "uint64",
                  "name": "revisionNumber",
                  "type": "uint64"
                },
                {
                  "internalType": "uint64",
                  "name": "revisionHeight",
                  "type": "uint64"
                }
              ],
              "internalType": "struct Height.Data",
              "name": "proofHeight",
              "type": "tuple"
            }
          ],
          "internalType": "struct IBCMsgs.MsgChannelCloseConfirm",
          "name": "msg_",
          "type": "tuple"
        }
      ],
      "name": "channelCloseConfirm",
      "outputs": [
        {
          "components": [
            {
              "internalType": "string",
              "name": "portId",
              "type": "string"
            },
            {
              "internalType": "string",
              "name": "connectionId",
              "type": "string"
            },
            {
              "internalType": "string",
              "name": "channelId",
              "type": "string"
            },
            {
              "internalType": "string",
              "name": "counterpartyPortId",
              "type": "string"
            },
            {
              "internalType": "string",
              "name": "counterpartyChannelId",
              "type": "string"
            }
          ],
          "internalType": "struct Channel.Attributes",
          "name": "attr",
          "type": "tuple"
        }
      ],
      "stateMutability": "nonpayable",
      "type": "function"
    },
    {
      "inputs": [
        {
          "components": [
            {
              "internalType": "string",
              "name": "portId",
              "type": "string"
            },
            {
              "internalType": "string",
              "name": "channelId",
              "type": "string"
            }
          ],
          "internalType": "struct IBCMsgs.MsgChannelCloseInit",
          "name": "msg_",
          "type": "tuple"
        }
      ],
      "name": "channelCloseInit",
      "outputs": [
        {
          "components": [
            {
              "internalType": "string",
              "name": "portId",
              "type": "string"
            },
            {
              "internalType": "string",
              "name": "connectionId",
              "type": "string"
            },
            {
              "internalType": "string",
              "name": "channelId",
              "type": "string"
            },
            {
              "internalType": "string",
              "name": "counterpartyPortId",
              "type": "string"
            },
            {
              "internalType": "string",
              "name": "counterpartyChannelId",
              "type": "string"
            }
          ],
          "internalType": "struct Channel.Attributes",
          "name": "attr",
          "type": "tuple"
        }
      ],
      "stateMutability": "nonpayable",
      "type": "function"
    },
    {
      "inputs": [
        {
          "internalType": "uint256",
          "name": "",
          "type": "uint256"
        }
      ],
      "name": "channelIds",
      "outputs": [
        {
          "internalType": "string",
          "name": "",
          "type": "string"
        }
      ],
      "stateMutability": "view",
      "type": "function"
    },
    {
      "inputs": [
        {
          "components": [
            {
              "internalType": "string",
              "name": "portId",
              "type": "string"
            },
            {
              "internalType": "string",
              "name": "channelId",
              "type": "string"
            },
            {
              "internalType": "string",
              "name": "counterpartyVersion",
              "type": "string"
            },
            {
              "internalType": "string",
              "name": "counterpartyChannelId",
              "type": "string"
            },
            {
              "internalType": "bytes",
              "name": "proofTry",
              "type": "bytes"
            },
            {
              "components": [
                {
                  "internalType": "uint64",
                  "name": "revisionNumber",
                  "type": "uint64"
                },
                {
                  "internalType": "uint64",
                  "name": "revisionHeight",
                  "type": "uint64"
                }
              ],
              "internalType": "struct Height.Data",
              "name": "proofHeight",
              "type": "tuple"
            }
          ],
          "internalType": "struct IBCMsgs.MsgChannelOpenAck",
          "name": "msg_",
          "type": "tuple"
        }
      ],
      "name": "channelOpenAck",
      "outputs": [
        {
          "components": [
            {
              "internalType": "string",
              "name": "portId",
              "type": "string"
            },
            {
              "internalType": "string",
              "name": "connectionId",
              "type": "string"
            },
            {
              "internalType": "string",
              "name": "channelId",
              "type": "string"
            },
            {
              "internalType": "string",
              "name": "counterpartyPortId",
              "type": "string"
            },
            {
              "internalType": "string",
              "name": "counterpartyChannelId",
              "type": "string"
            }
          ],
          "internalType": "struct Channel.Attributes",
          "name": "attr",
          "type": "tuple"
        }
      ],
      "stateMutability": "nonpayable",
      "type": "function"
    },
    {
      "inputs": [
        {
          "components": [
            {
              "internalType": "string",
              "name": "portId",
              "type": "string"
            },
            {
              "internalType": "string",
              "name": "channelId",
              "type": "string"
            },
            {
              "internalType": "bytes",
              "name": "proofAck",
              "type": "bytes"
            },
            {
              "components": [
                {
                  "internalType": "uint64",
                  "name": "revisionNumber",
                  "type": "uint64"
                },
                {
                  "internalType": "uint64",
                  "name": "revisionHeight",
                  "type": "uint64"
                }
              ],
              "internalType": "struct Height.Data",
              "name": "proofHeight",
              "type": "tuple"
            }
          ],
          "internalType": "struct IBCMsgs.MsgChannelOpenConfirm",
          "name": "msg_",
          "type": "tuple"
        }
      ],
      "name": "channelOpenConfirm",
      "outputs": [
        {
          "components": [
            {
              "internalType": "string",
              "name": "portId",
              "type": "string"
            },
            {
              "internalType": "string",
              "name": "connectionId",
              "type": "string"
            },
            {
              "internalType": "string",
              "name": "channelId",
              "type": "string"
            },
            {
              "internalType": "string",
              "name": "counterpartyPortId",
              "type": "string"
            },
            {
              "internalType": "string",
              "name": "counterpartyChannelId",
              "type": "string"
            }
          ],
          "internalType": "struct Channel.Attributes",
          "name": "attr",
          "type": "tuple"
        }
      ],
      "stateMutability": "nonpayable",
      "type": "function"
    },
    {
      "inputs": [
        {
          "components": [
            {
              "internalType": "string",
              "name": "portId",
              "type": "string"
            },
            {
              "components": [
                {
                  "internalType": "enum Channel.State",
                  "name": "state",
                  "type": "uint8"
                },
                {
                  "internalType": "enum Channel.Order",
                  "name": "ordering",
                  "type": "uint8"
                },
                {
                  "components": [
                    {
                      "internalType": "string",
                      "name": "portId",
                      "type": "string"
                    },
                    {
                      "internalType": "string",
                      "name": "channelId",
                      "type": "string"
                    }
                  ],
                  "internalType": "struct ChannelCounterparty.Data",
                  "name": "counterparty",
                  "type": "tuple"
                },
                {
                  "internalType": "string[]",
                  "name": "connectionHops",
                  "type": "string[]"
                },
                {
                  "internalType": "string",
                  "name": "version",
                  "type": "string"
                }
              ],
              "internalType": "struct Channel.Data",
              "name": "channel",
              "type": "tuple"
            }
          ],
          "internalType": "struct IBCMsgs.MsgChannelOpenInit",
          "name": "msg_",
          "type": "tuple"
        }
      ],
      "name": "channelOpenInit",
      "outputs": [
        {
          "components": [
            {
              "internalType": "string",
              "name": "portId",
              "type": "string"
            },
            {
              "internalType": "string",
              "name": "connectionId",
              "type": "string"
            },
            {
              "internalType": "string",
              "name": "channelId",
              "type": "string"
            },
            {
              "internalType": "string",
              "name": "counterpartyPortId",
              "type": "string"
            },
            {
              "internalType": "string",
              "name": "counterpartyChannelId",
              "type": "string"
            }
          ],
          "internalType": "struct Channel.Attributes",
          "name": "attr",
          "type": "tuple"
        }
      ],
      "stateMutability": "nonpayable",
      "type": "function"
    },
    {
      "inputs": [
        {
          "components": [
            {
              "internalType": "string",
              "name": "portId",
              "type": "string"
            },
            {
              "internalType": "string",
              "name": "previousChannelId",
              "type": "string"
            },
            {
              "components": [
                {
                  "internalType": "enum Channel.State",
                  "name": "state",
                  "type": "uint8"
                },
                {
                  "internalType": "enum Channel.Order",
                  "name": "ordering",
                  "type": "uint8"
                },
                {
                  "components": [
                    {
                      "internalType": "string",
                      "name": "portId",
                      "type": "string"
                    },
                    {
                      "internalType": "string",
                      "name": "channelId",
                      "type": "string"
                    }
                  ],
                  "internalType": "struct ChannelCounterparty.Data",
                  "name": "counterparty",
                  "type": "tuple"
                },
                {
                  "internalType": "string[]",
                  "name": "connectionHops",
                  "type": "string[]"
                },
                {
                  "internalType": "string",
                  "name": "version",
                  "type": "string"
                }
              ],
              "internalType": "struct Channel.Data",
              "name": "channel",
              "type": "tuple"
            },
            {
              "internalType": "string",
              "name": "counterpartyVersion",
              "type": "string"
            },
            {
              "internalType": "bytes",
              "name": "proofInit",
              "type": "bytes"
            },
            {
              "components": [
                {
                  "internalType": "uint64",
                  "name": "revisionNumber",
                  "type": "uint64"
                },
                {
                  "internalType": "uint64",
                  "name": "revisionHeight",
                  "type": "uint64"
                }
              ],
              "internalType": "struct Height.Data",
              "name": "proofHeight",
              "type": "tuple"
            }
          ],
          "internalType": "struct IBCMsgs.MsgChannelOpenTry",
          "name": "msg_",
          "type": "tuple"
        }
      ],
      "name": "channelOpenTry",
      "outputs": [
        {
          "components": [
            {
              "internalType": "string",
              "name": "portId",
              "type": "string"
            },
            {
              "internalType": "string",
              "name": "connectionId",
              "type": "string"
            },
            {
              "internalType": "string",
              "name": "channelId",
              "type": "string"
            },
            {
              "internalType": "string",
              "name": "counterpartyPortId",
              "type": "string"
            },
            {
              "internalType": "string",
              "name": "counterpartyChannelId",
              "type": "string"
            }
          ],
          "internalType": "struct Channel.Attributes",
          "name": "attr",
          "type": "tuple"
        }
      ],
      "stateMutability": "nonpayable",
      "type": "function"
    },
    {
      "inputs": [
        {
          "internalType": "string",
          "name": "",
          "type": "string"
        },
        {
          "internalType": "string",
          "name": "",
          "type": "string"
        }
      ],
      "name": "channels",
      "outputs": [
        {
          "internalType": "enum Channel.State",
          "name": "state",
          "type": "uint8"
        },
        {
          "internalType": "enum Channel.Order",
          "name": "ordering",
          "type": "uint8"
        },
        {
          "components": [
            {
              "internalType": "string",
              "name": "portId",
              "type": "string"
            },
            {
              "internalType": "string",
              "name": "channelId",
              "type": "string"
            }
          ],
          "internalType": "struct ChannelCounterparty.Data",
          "name": "counterparty",
          "type": "tuple"
        },
        {
          "internalType": "string",
          "name": "version",
          "type": "string"
        }
      ],
      "stateMutability": "view",
      "type": "function"
    },
    {
      "inputs": [
        {
          "internalType": "string",
          "name": "",
          "type": "string"
        },
        {
          "internalType": "uint256",
          "name": "",
          "type": "uint256"
        }
      ],
      "name": "clientConnectionIds",
      "outputs": [
        {
          "internalType": "string",
          "name": "",
          "type": "string"
        }
      ],
      "stateMutability": "view",
      "type": "function"
    },
    {
      "inputs": [
        {
          "internalType": "uint256",
          "name": "",
          "type": "uint256"
        }
      ],
      "name": "clientIds",
      "outputs": [
        {
          "internalType": "string",
          "name": "",
          "type": "string"
        }
      ],
      "stateMutability": "view",
      "type": "function"
    },
    {
      "inputs": [
        {
          "internalType": "string",
          "name": "",
          "type": "string"
        }
      ],
      "name": "clientImpls",
      "outputs": [
        {
          "internalType": "address",
          "name": "",
          "type": "address"
        }
      ],
      "stateMutability": "view",
      "type": "function"
    },
    {
      "inputs": [
        {
          "internalType": "string",
          "name": "",
          "type": "string"
        }
      ],
      "name": "clientRegistry",
      "outputs": [
        {
          "internalType": "address",
          "name": "",
          "type": "address"
        }
      ],
      "stateMutability": "view",
      "type": "function"
    },
    {
      "inputs": [
        {
          "internalType": "string",
          "name": "",
          "type": "string"
        }
      ],
      "name": "clientTypes",
      "outputs": [
        {
          "internalType": "string",
          "name": "",
          "type": "string"
        }
      ],
      "stateMutability": "view",
      "type": "function"
    },
    {
      "inputs": [
        {
          "internalType": "bytes32",
          "name": "",
          "type": "bytes32"
        }
      ],
      "name": "commitments",
      "outputs": [
        {
          "internalType": "bytes32",
          "name": "",
          "type": "bytes32"
        }
      ],
      "stateMutability": "view",
      "type": "function"
    },
    {
      "inputs": [
        {
          "internalType": "uint256",
          "name": "",
          "type": "uint256"
        }
      ],
      "name": "connectionIds",
      "outputs": [
        {
          "internalType": "string",
          "name": "",
          "type": "string"
        }
      ],
      "stateMutability": "view",
      "type": "function"
    },
    {
      "inputs": [
        {
          "components": [
            {
              "internalType": "string",
              "name": "connectionId",
              "type": "string"
            },
            {
              "internalType": "bytes",
              "name": "clientState",
              "type": "bytes"
            },
            {
              "components": [
                {
                  "internalType": "string",
                  "name": "identifier",
                  "type": "string"
                },
                {
                  "internalType": "string[]",
                  "name": "features",
                  "type": "string[]"
                }
              ],
              "internalType": "struct Version.Data",
              "name": "version",
              "type": "tuple"
            },
            {
              "internalType": "string",
              "name": "counterpartyConnectionId",
              "type": "string"
            },
            {
              "internalType": "bytes",
              "name": "proofTry",
              "type": "bytes"
            },
            {
              "internalType": "bytes",
              "name": "proofClient",
              "type": "bytes"
            },
            {
              "internalType": "bytes",
              "name": "proofConsensus",
              "type": "bytes"
            },
            {
              "components": [
                {
                  "internalType": "uint64",
                  "name": "revisionNumber",
                  "type": "uint64"
                },
                {
                  "internalType": "uint64",
                  "name": "revisionHeight",
                  "type": "uint64"
                }
              ],
              "internalType": "struct Height.Data",
              "name": "proofHeight",
              "type": "tuple"
            },
            {
              "components": [
                {
                  "internalType": "uint64",
                  "name": "revisionNumber",
                  "type": "uint64"
                },
                {
                  "internalType": "uint64",
                  "name": "revisionHeight",
                  "type": "uint64"
                }
              ],
              "internalType": "struct Height.Data",
              "name": "consensusHeight",
              "type": "tuple"
            }
          ],
          "internalType": "struct IBCMsgs.MsgConnectionOpenAck",
          "name": "msg_",
          "type": "tuple"
        }
      ],
      "name": "connectionOpenAck",
      "outputs": [
        {
          "components": [
            {
              "internalType": "string",
              "name": "connectionId",
              "type": "string"
            },
            {
              "internalType": "string",
              "name": "clientId",
              "type": "string"
            },
            {
              "internalType": "string",
              "name": "counterpartyConnectionId",
              "type": "string"
            },
            {
              "internalType": "string",
              "name": "counterpartyClientId",
              "type": "string"
            }
          ],
          "internalType": "struct ConnectionEnd.Attributes",
          "name": "attr",
          "type": "tuple"
        }
      ],
      "stateMutability": "nonpayable",
      "type": "function"
    },
    {
      "inputs": [
        {
          "components": [
            {
              "internalType": "string",
              "name": "connectionId",
              "type": "string"
            },
            {
              "internalType": "bytes",
              "name": "proofAck",
              "type": "bytes"
            },
            {
              "components": [
                {
                  "internalType": "uint64",
                  "name": "revisionNumber",
                  "type": "uint64"
                },
                {
                  "internalType": "uint64",
                  "name": "revisionHeight",
                  "type": "uint64"
                }
              ],
              "internalType": "struct Height.Data",
              "name": "proofHeight",
              "type": "tuple"
            }
          ],
          "internalType": "struct IBCMsgs.MsgConnectionOpenConfirm",
          "name": "msg_",
          "type": "tuple"
        }
      ],
      "name": "connectionOpenConfirm",
      "outputs": [
        {
          "components": [
            {
              "internalType": "string",
              "name": "connectionId",
              "type": "string"
            },
            {
              "internalType": "string",
              "name": "clientId",
              "type": "string"
            },
            {
              "internalType": "string",
              "name": "counterpartyConnectionId",
              "type": "string"
            },
            {
              "internalType": "string",
              "name": "counterpartyClientId",
              "type": "string"
            }
          ],
          "internalType": "struct ConnectionEnd.Attributes",
          "name": "attr",
          "type": "tuple"
        }
      ],
      "stateMutability": "nonpayable",
      "type": "function"
    },
    {
      "inputs": [
        {
          "components": [
            {
              "internalType": "string",
              "name": "clientId",
              "type": "string"
            },
            {
              "components": [
                {
                  "internalType": "string",
                  "name": "clientId",
                  "type": "string"
                },
                {
                  "internalType": "string",
                  "name": "connectionId",
                  "type": "string"
                },
                {
                  "components": [
                    {
                      "internalType": "bytes",
                      "name": "keyPrefix",
                      "type": "bytes"
                    }
                  ],
                  "internalType": "struct MerklePrefix.Data",
                  "name": "prefix",
                  "type": "tuple"
                }
              ],
              "internalType": "struct Counterparty.Data",
              "name": "counterparty",
              "type": "tuple"
            },
            {
              "internalType": "uint64",
              "name": "delayPeriod",
              "type": "uint64"
            }
          ],
          "internalType": "struct IBCMsgs.MsgConnectionOpenInit",
          "name": "msg_",
          "type": "tuple"
        }
      ],
      "name": "connectionOpenInit",
      "outputs": [
        {
          "components": [
            {
              "internalType": "string",
              "name": "connectionId",
              "type": "string"
            },
            {
              "internalType": "string",
              "name": "clientId",
              "type": "string"
            },
            {
              "internalType": "string",
              "name": "counterpartyConnectionId",
              "type": "string"
            },
            {
              "internalType": "string",
              "name": "counterpartyClientId",
              "type": "string"
            }
          ],
          "internalType": "struct ConnectionEnd.Attributes",
          "name": "attr",
          "type": "tuple"
        }
      ],
      "stateMutability": "nonpayable",
      "type": "function"
    },
    {
      "inputs": [
        {
          "components": [
            {
              "internalType": "string",
              "name": "previousConnectionId",
              "type": "string"
            },
            {
              "components": [
                {
                  "internalType": "string",
                  "name": "clientId",
                  "type": "string"
                },
                {
                  "internalType": "string",
                  "name": "connectionId",
                  "type": "string"
                },
                {
                  "components": [
                    {
                      "internalType": "bytes",
                      "name": "keyPrefix",
                      "type": "bytes"
                    }
                  ],
                  "internalType": "struct MerklePrefix.Data",
                  "name": "prefix",
                  "type": "tuple"
                }
              ],
              "internalType": "struct Counterparty.Data",
              "name": "counterparty",
              "type": "tuple"
            },
            {
              "internalType": "uint64",
              "name": "delayPeriod",
              "type": "uint64"
            },
            {
              "internalType": "string",
              "name": "clientId",
              "type": "string"
            },
            {
              "internalType": "bytes",
              "name": "clientState",
              "type": "bytes"
            },
            {
              "components": [
                {
                  "internalType": "string",
                  "name": "identifier",
                  "type": "string"
                },
                {
                  "internalType": "string[]",
                  "name": "features",
                  "type": "string[]"
                }
              ],
              "internalType": "struct Version.Data[]",
              "name": "counterpartyVersions",
              "type": "tuple[]"
            },
            {
              "internalType": "bytes",
              "name": "proofInit",
              "type": "bytes"
            },
            {
              "internalType": "bytes",
              "name": "proofClient",
              "type": "bytes"
            },
            {
              "internalType": "bytes",
              "name": "proofConsensus",
              "type": "bytes"
            },
            {
              "components": [
                {
                  "internalType": "uint64",
                  "name": "revisionNumber",
                  "type": "uint64"
                },
                {
                  "internalType": "uint64",
                  "name": "revisionHeight",
                  "type": "uint64"
                }
              ],
              "internalType": "struct Height.Data",
              "name": "proofHeight",
              "type": "tuple"
            },
            {
              "components": [
                {
                  "internalType": "uint64",
                  "name": "revisionNumber",
                  "type": "uint64"
                },
                {
                  "internalType": "uint64",
                  "name": "revisionHeight",
                  "type": "uint64"
                }
              ],
              "internalType": "struct Height.Data",
              "name": "consensusHeight",
              "type": "tuple"
            }
          ],
          "internalType": "struct IBCMsgs.MsgConnectionOpenTry",
          "name": "msg_",
          "type": "tuple"
        }
      ],
      "name": "connectionOpenTry",
      "outputs": [
        {
          "components": [
            {
              "internalType": "string",
              "name": "connectionId",
              "type": "string"
            },
            {
              "internalType": "string",
              "name": "clientId",
              "type": "string"
            },
            {
              "internalType": "string",
              "name": "counterpartyConnectionId",
              "type": "string"
            },
            {
              "internalType": "string",
              "name": "counterpartyClientId",
              "type": "string"
            }
          ],
          "internalType": "struct ConnectionEnd.Attributes",
          "name": "attr",
          "type": "tuple"
        }
      ],
      "stateMutability": "nonpayable",
      "type": "function"
    },
    {
      "inputs": [
        {
          "internalType": "string",
          "name": "",
          "type": "string"
        },
        {
          "internalType": "uint256",
          "name": "",
          "type": "uint256"
        }
      ],
      "name": "connectionPortIds",
      "outputs": [
        {
          "internalType": "string",
          "name": "",
          "type": "string"
        }
      ],
      "stateMutability": "view",
      "type": "function"
    },
    {
      "inputs": [
        {
          "internalType": "string",
          "name": "",
          "type": "string"
        }
      ],
      "name": "connections",
      "outputs": [
        {
          "internalType": "string",
          "name": "clientId",
          "type": "string"
        },
        {
          "internalType": "enum ConnectionEnd.State",
          "name": "state",
          "type": "uint8"
        },
        {
          "components": [
            {
              "internalType": "string",
              "name": "clientId",
              "type": "string"
            },
            {
              "internalType": "string",
              "name": "connectionId",
              "type": "string"
            },
            {
              "components": [
                {
                  "internalType": "bytes",
                  "name": "keyPrefix",
                  "type": "bytes"
                }
              ],
              "internalType": "struct MerklePrefix.Data",
              "name": "prefix",
              "type": "tuple"
            }
          ],
          "internalType": "struct Counterparty.Data",
          "name": "counterparty",
          "type": "tuple"
        },
        {
          "internalType": "uint64",
          "name": "delayPeriod",
          "type": "uint64"
        }
      ],
      "stateMutability": "view",
      "type": "function"
    },
    {
      "inputs": [
        {
          "internalType": "string",
          "name": "",
          "type": "string"
        },
        {
          "internalType": "uint256",
          "name": "",
          "type": "uint256"
        }
      ],
      "name": "consensusHeights",
      "outputs": [
        {
          "internalType": "uint64",
          "name": "revisionNumber",
          "type": "uint64"
        },
        {
          "internalType": "uint64",
          "name": "revisionHeight",
          "type": "uint64"
        }
      ],
      "stateMutability": "view",
      "type": "function"
    },
    {
      "inputs": [
        {
          "components": [
            {
              "internalType": "string",
              "name": "clientType",
              "type": "string"
            },
            {
              "internalType": "bytes",
              "name": "clientState",
              "type": "bytes"
            },
            {
              "internalType": "bytes",
              "name": "consensusState",
              "type": "bytes"
            }
          ],
          "internalType": "struct IBCMsgs.MsgCreateClient",
          "name": "msg_",
          "type": "tuple"
        }
      ],
      "name": "createClient",
      "outputs": [
        {
          "internalType": "string",
          "name": "clientId",
          "type": "string"
        }
      ],
      "stateMutability": "nonpayable",
      "type": "function"
    },
    {
      "inputs": [],
      "name": "expectedTimePerBlock",
      "outputs": [
        {
          "internalType": "uint64",
          "name": "",
          "type": "uint64"
        }
      ],
      "stateMutability": "view",
      "type": "function"
    },
    {
      "inputs": [],
      "name": "getCellEmitterFilters",
      "outputs": [
        {
          "components": [
            {
              "components": [
                {
                  "internalType": "bytes32",
                  "name": "codeHash",
                  "type": "bytes32"
                },
                {
                  "internalType": "enum CellEmitter.ScriptHashType",
                  "name": "hashType",
                  "type": "uint8"
                },
                {
                  "internalType": "bytes",
                  "name": "args",
                  "type": "bytes"
                }
              ],
              "internalType": "struct CellEmitter.Script",
              "name": "script",
              "type": "tuple"
            },
            {
              "internalType": "uint64[2]",
              "name": "scriptLenRange",
              "type": "uint64[2]"
            },
            {
              "internalType": "uint64[2]",
              "name": "outputDataLenRange",
              "type": "uint64[2]"
            },
            {
              "internalType": "uint64[2]",
              "name": "outputDataCapacityRange",
              "type": "uint64[2]"
            }
          ],
          "internalType": "struct CellEmitter.Filter[]",
          "name": "",
          "type": "tuple[]"
        }
      ],
      "stateMutability": "view",
      "type": "function"
    },
    {
      "inputs": [
        {
          "internalType": "string",
          "name": "portId",
          "type": "string"
        },
        {
          "internalType": "string",
          "name": "channelId",
          "type": "string"
        }
      ],
      "name": "getChannel",
      "outputs": [
        {
          "components": [
            {
              "internalType": "enum Channel.State",
              "name": "state",
              "type": "uint8"
            },
            {
              "internalType": "enum Channel.Order",
              "name": "ordering",
              "type": "uint8"
            },
            {
              "components": [
                {
                  "internalType": "string",
                  "name": "portId",
                  "type": "string"
                },
                {
                  "internalType": "string",
                  "name": "channelId",
                  "type": "string"
                }
              ],
              "internalType": "struct ChannelCounterparty.Data",
              "name": "counterparty",
              "type": "tuple"
            },
            {
              "internalType": "string[]",
              "name": "connectionHops",
              "type": "string[]"
            },
            {
              "internalType": "string",
              "name": "version",
              "type": "string"
            }
          ],
          "internalType": "struct Channel.Data",
          "name": "",
          "type": "tuple"
        },
        {
          "internalType": "bool",
          "name": "",
          "type": "bool"
        }
      ],
      "stateMutability": "view",
      "type": "function"
    },
    {
      "inputs": [
        {
          "internalType": "string",
          "name": "portId",
          "type": "string"
        },
        {
          "internalType": "string",
          "name": "channelId",
          "type": "string"
        }
      ],
      "name": "getChannelClientState",
      "outputs": [
        {
          "internalType": "bytes",
          "name": "",
          "type": "bytes"
        },
        {
          "internalType": "bool",
          "name": "",
          "type": "bool"
        }
      ],
      "stateMutability": "view",
      "type": "function"
    },
    {
      "inputs": [],
      "name": "getChannels",
      "outputs": [
        {
          "components": [
            {
              "internalType": "enum Channel.State",
              "name": "state",
              "type": "uint8"
            },
            {
              "internalType": "enum Channel.Order",
              "name": "ordering",
              "type": "uint8"
            },
            {
              "components": [
                {
                  "internalType": "string",
                  "name": "portId",
                  "type": "string"
                },
                {
                  "internalType": "string",
                  "name": "channelId",
                  "type": "string"
                }
              ],
              "internalType": "struct ChannelCounterparty.Data",
              "name": "counterparty",
              "type": "tuple"
            },
            {
              "internalType": "string[]",
              "name": "connectionHops",
              "type": "string[]"
            },
            {
              "internalType": "string",
              "name": "version",
              "type": "string"
            },
            {
              "internalType": "string",
              "name": "portId",
              "type": "string"
            },
            {
              "internalType": "string",
              "name": "channelId",
              "type": "string"
            }
          ],
          "internalType": "struct IdentifiedChannel.Data[]",
          "name": "",
          "type": "tuple[]"
        }
      ],
      "stateMutability": "view",
      "type": "function"
    },
    {
      "inputs": [
        {
          "internalType": "string",
          "name": "clientId",
          "type": "string"
        }
      ],
      "name": "getClientConnections",
      "outputs": [
        {
          "internalType": "string[]",
          "name": "",
          "type": "string[]"
        }
      ],
      "stateMutability": "view",
      "type": "function"
    },
    {
      "inputs": [
        {
          "internalType": "string",
          "name": "clientId",
          "type": "string"
        }
      ],
      "name": "getClientState",
      "outputs": [
        {
          "internalType": "bytes",
          "name": "",
          "type": "bytes"
        },
        {
          "internalType": "bool",
          "name": "",
          "type": "bool"
        }
      ],
      "stateMutability": "view",
      "type": "function"
    },
    {
      "inputs": [],
      "name": "getClientStates",
      "outputs": [
        {
          "internalType": "bytes[]",
          "name": "",
          "type": "bytes[]"
        }
      ],
      "stateMutability": "view",
      "type": "function"
    },
    {
      "inputs": [
        {
          "internalType": "string",
          "name": "connectionId",
          "type": "string"
        }
      ],
      "name": "getConnection",
      "outputs": [
        {
          "components": [
            {
              "internalType": "string",
              "name": "clientId",
              "type": "string"
            },
            {
              "components": [
                {
                  "internalType": "string",
                  "name": "identifier",
                  "type": "string"
                },
                {
                  "internalType": "string[]",
                  "name": "features",
                  "type": "string[]"
                }
              ],
              "internalType": "struct Version.Data[]",
              "name": "versions",
              "type": "tuple[]"
            },
            {
              "internalType": "enum ConnectionEnd.State",
              "name": "state",
              "type": "uint8"
            },
            {
              "components": [
                {
                  "internalType": "string",
                  "name": "clientId",
                  "type": "string"
                },
                {
                  "internalType": "string",
                  "name": "connectionId",
                  "type": "string"
                },
                {
                  "components": [
                    {
                      "internalType": "bytes",
                      "name": "keyPrefix",
                      "type": "bytes"
                    }
                  ],
                  "internalType": "struct MerklePrefix.Data",
                  "name": "prefix",
                  "type": "tuple"
                }
              ],
              "internalType": "struct Counterparty.Data",
              "name": "counterparty",
              "type": "tuple"
            },
            {
              "internalType": "uint64",
              "name": "delayPeriod",
              "type": "uint64"
            }
          ],
          "internalType": "struct ConnectionEnd.Data",
          "name": "",
          "type": "tuple"
        },
        {
          "internalType": "bool",
          "name": "",
          "type": "bool"
        }
      ],
      "stateMutability": "view",
      "type": "function"
    },
    {
      "inputs": [
        {
          "internalType": "string",
          "name": "connectionId",
          "type": "string"
        }
      ],
      "name": "getConnectionChannels",
      "outputs": [
        {
          "components": [
            {
              "internalType": "enum Channel.State",
              "name": "state",
              "type": "uint8"
            },
            {
              "internalType": "enum Channel.Order",
              "name": "ordering",
              "type": "uint8"
            },
            {
              "components": [
                {
                  "internalType": "string",
                  "name": "portId",
                  "type": "string"
                },
                {
                  "internalType": "string",
                  "name": "channelId",
                  "type": "string"
                }
              ],
              "internalType": "struct ChannelCounterparty.Data",
              "name": "counterparty",
              "type": "tuple"
            },
            {
              "internalType": "string[]",
              "name": "connectionHops",
              "type": "string[]"
            },
            {
              "internalType": "string",
              "name": "version",
              "type": "string"
            },
            {
              "internalType": "string",
              "name": "portId",
              "type": "string"
            },
            {
              "internalType": "string",
              "name": "channelId",
              "type": "string"
            }
          ],
          "internalType": "struct IdentifiedChannel.Data[]",
          "name": "",
          "type": "tuple[]"
        }
      ],
      "stateMutability": "view",
      "type": "function"
    },
    {
      "inputs": [],
      "name": "getConnections",
      "outputs": [
        {
          "components": [
            {
              "internalType": "string",
              "name": "connectionId",
              "type": "string"
            },
            {
              "components": [
                {
                  "internalType": "string",
                  "name": "clientId",
                  "type": "string"
                },
                {
                  "components": [
                    {
                      "internalType": "string",
                      "name": "identifier",
                      "type": "string"
                    },
                    {
                      "internalType": "string[]",
                      "name": "features",
                      "type": "string[]"
                    }
                  ],
                  "internalType": "struct Version.Data[]",
                  "name": "versions",
                  "type": "tuple[]"
                },
                {
                  "internalType": "enum ConnectionEnd.State",
                  "name": "state",
                  "type": "uint8"
                },
                {
                  "components": [
                    {
                      "internalType": "string",
                      "name": "clientId",
                      "type": "string"
                    },
                    {
                      "internalType": "string",
                      "name": "connectionId",
                      "type": "string"
                    },
                    {
                      "components": [
                        {
                          "internalType": "bytes",
                          "name": "keyPrefix",
                          "type": "bytes"
                        }
                      ],
                      "internalType": "struct MerklePrefix.Data",
                      "name": "prefix",
                      "type": "tuple"
                    }
                  ],
                  "internalType": "struct Counterparty.Data",
                  "name": "counterparty",
                  "type": "tuple"
                },
                {
                  "internalType": "uint64",
                  "name": "delayPeriod",
                  "type": "uint64"
                }
              ],
              "internalType": "struct ConnectionEnd.Data",
              "name": "connectionEnd",
              "type": "tuple"
            }
          ],
          "internalType": "struct IdentifiedConnectionEnd.Data[]",
          "name": "",
          "type": "tuple[]"
        }
      ],
      "stateMutability": "view",
      "type": "function"
    },
    {
      "inputs": [
        {
          "internalType": "string",
          "name": "clientId",
          "type": "string"
        }
      ],
      "name": "getConsensusHeights",
      "outputs": [
        {
          "components": [
            {
              "internalType": "uint64",
              "name": "revisionNumber",
              "type": "uint64"
            },
            {
              "internalType": "uint64",
              "name": "revisionHeight",
              "type": "uint64"
            }
          ],
          "internalType": "struct Height.Data[]",
          "name": "",
          "type": "tuple[]"
        }
      ],
      "stateMutability": "view",
      "type": "function"
    },
    {
      "inputs": [
        {
          "internalType": "string",
          "name": "clientId",
          "type": "string"
        },
        {
          "components": [
            {
              "internalType": "uint64",
              "name": "revisionNumber",
              "type": "uint64"
            },
            {
              "internalType": "uint64",
              "name": "revisionHeight",
              "type": "uint64"
            }
          ],
          "internalType": "struct Height.Data",
          "name": "height",
          "type": "tuple"
        }
      ],
      "name": "getConsensusState",
      "outputs": [
        {
          "internalType": "bytes",
          "name": "consensusState",
          "type": "bytes"
        },
        {
          "internalType": "bool",
          "name": "",
          "type": "bool"
        }
      ],
      "stateMutability": "view",
      "type": "function"
    },
    {
      "inputs": [],
      "name": "getExpectedTimePerBlock",
      "outputs": [
        {
          "internalType": "uint64",
          "name": "",
          "type": "uint64"
        }
      ],
      "stateMutability": "view",
      "type": "function"
    },
    {
      "inputs": [
        {
          "internalType": "string",
          "name": "portId",
          "type": "string"
        },
        {
          "internalType": "string",
          "name": "channelId",
          "type": "string"
        },
        {
          "internalType": "uint64",
          "name": "sequence",
          "type": "uint64"
        }
      ],
      "name": "getHashedPacketAcknowledgementCommitment",
      "outputs": [
        {
          "internalType": "bytes32",
          "name": "",
          "type": "bytes32"
        },
        {
          "internalType": "bool",
          "name": "",
          "type": "bool"
        }
      ],
      "stateMutability": "view",
      "type": "function"
    },
    {
      "inputs": [
        {
          "internalType": "string",
          "name": "portId",
          "type": "string"
        },
        {
          "internalType": "string",
          "name": "channelId",
          "type": "string"
        },
        {
          "internalType": "uint64",
          "name": "sequence",
          "type": "uint64"
        }
      ],
      "name": "getHashedPacketCommitment",
      "outputs": [
        {
          "internalType": "bytes32",
          "name": "",
          "type": "bytes32"
        },
        {
          "internalType": "bool",
          "name": "",
          "type": "bool"
        }
      ],
      "stateMutability": "view",
      "type": "function"
    },
    {
      "inputs": [
        {
          "internalType": "string",
          "name": "portId",
          "type": "string"
        },
        {
          "internalType": "string",
          "name": "channelId",
          "type": "string"
        }
      ],
      "name": "getHashedPacketCommitmentSequences",
      "outputs": [
        {
          "internalType": "uint64[]",
          "name": "",
          "type": "uint64[]"
        }
      ],
      "stateMutability": "view",
      "type": "function"
    },
    {
      "inputs": [
        {
          "internalType": "string",
          "name": "clientId",
          "type": "string"
        }
      ],
      "name": "getLatestHeight",
      "outputs": [
        {
          "components": [
            {
              "internalType": "uint64",
              "name": "revisionNumber",
              "type": "uint64"
            },
            {
              "internalType": "uint64",
              "name": "revisionHeight",
              "type": "uint64"
            }
          ],
          "internalType": "struct Height.Data",
          "name": "",
          "type": "tuple"
        },
        {
          "internalType": "bool",
          "name": "",
          "type": "bool"
        }
      ],
      "stateMutability": "view",
      "type": "function"
    },
    {
      "inputs": [
        {
          "internalType": "string",
          "name": "portId",
          "type": "string"
        },
        {
          "internalType": "string",
          "name": "channelId",
          "type": "string"
        }
      ],
      "name": "getNextSequenceRecvs",
      "outputs": [
        {
          "internalType": "uint64",
          "name": "",
          "type": "uint64"
        }
      ],
      "stateMutability": "view",
      "type": "function"
    },
    {
      "inputs": [
        {
          "internalType": "string",
          "name": "portId",
          "type": "string"
        },
        {
          "internalType": "string",
          "name": "channelId",
          "type": "string"
        }
      ],
      "name": "getNextSequenceSend",
      "outputs": [
        {
          "internalType": "uint64",
          "name": "",
          "type": "uint64"
        }
      ],
      "stateMutability": "view",
      "type": "function"
    },
    {
      "inputs": [
        {
          "internalType": "string",
          "name": "portId",
          "type": "string"
        },
        {
          "internalType": "string",
          "name": "channelId",
          "type": "string"
        },
        {
          "internalType": "uint64",
          "name": "sequence",
          "type": "uint64"
        }
      ],
      "name": "hasPacketReceipt",
      "outputs": [
        {
          "internalType": "bool",
          "name": "",
          "type": "bool"
        }
      ],
      "stateMutability": "view",
      "type": "function"
    },
    {
      "inputs": [],
      "name": "nextChannelSequence",
      "outputs": [
        {
          "internalType": "uint64",
          "name": "",
          "type": "uint64"
        }
      ],
      "stateMutability": "view",
      "type": "function"
    },
    {
      "inputs": [],
      "name": "nextClientSequence",
      "outputs": [
        {
          "internalType": "uint64",
          "name": "",
          "type": "uint64"
        }
      ],
      "stateMutability": "view",
      "type": "function"
    },
    {
      "inputs": [],
      "name": "nextConnectionSequence",
      "outputs": [
        {
          "internalType": "uint64",
          "name": "",
          "type": "uint64"
        }
      ],
      "stateMutability": "view",
      "type": "function"
    },
    {
      "inputs": [
        {
          "internalType": "string",
          "name": "",
          "type": "string"
        },
        {
          "internalType": "string",
          "name": "",
          "type": "string"
        }
      ],
      "name": "nextSequenceAcks",
      "outputs": [
        {
          "internalType": "uint64",
          "name": "",
          "type": "uint64"
        }
      ],
      "stateMutability": "view",
      "type": "function"
    },
    {
      "inputs": [
        {
          "internalType": "string",
          "name": "",
          "type": "string"
        },
        {
          "internalType": "string",
          "name": "",
          "type": "string"
        }
      ],
      "name": "nextSequenceRecvs",
      "outputs": [
        {
          "internalType": "uint64",
          "name": "",
          "type": "uint64"
        }
      ],
      "stateMutability": "view",
      "type": "function"
    },
    {
      "inputs": [
        {
          "internalType": "string",
          "name": "",
          "type": "string"
        },
        {
          "internalType": "string",
          "name": "",
          "type": "string"
        }
      ],
      "name": "nextSequenceSends",
      "outputs": [
        {
          "internalType": "uint64",
          "name": "",
          "type": "uint64"
        }
      ],
      "stateMutability": "view",
      "type": "function"
    },
    {
      "inputs": [],
      "name": "owner",
      "outputs": [
        {
          "internalType": "address",
          "name": "",
          "type": "address"
        }
      ],
      "stateMutability": "view",
      "type": "function"
    },
    {
      "inputs": [
        {
          "internalType": "string",
          "name": "",
          "type": "string"
        },
        {
          "internalType": "string",
          "name": "",
          "type": "string"
        },
        {
          "internalType": "uint64",
          "name": "",
          "type": "uint64"
        }
      ],
      "name": "packetReceipts",
      "outputs": [
        {
          "internalType": "uint8",
          "name": "",
          "type": "uint8"
        }
      ],
      "stateMutability": "view",
      "type": "function"
    },
    {
      "inputs": [
        {
          "internalType": "string",
          "name": "portId",
          "type": "string"
        }
      ],
      "name": "portCapabilityPath",
      "outputs": [
        {
          "internalType": "bytes",
          "name": "",
          "type": "bytes"
        }
      ],
      "stateMutability": "pure",
      "type": "function"
    },
    {
      "inputs": [
        {
          "internalType": "string",
          "name": "",
          "type": "string"
        },
        {
          "internalType": "uint256",
          "name": "",
          "type": "uint256"
        }
      ],
      "name": "portChannelIds",
      "outputs": [
        {
          "internalType": "string",
          "name": "",
          "type": "string"
        }
      ],
      "stateMutability": "view",
      "type": "function"
    },
    {
      "inputs": [
        {
          "internalType": "uint256",
          "name": "",
          "type": "uint256"
        }
      ],
      "name": "portIds",
      "outputs": [
        {
          "internalType": "string",
          "name": "",
          "type": "string"
        }
      ],
      "stateMutability": "view",
      "type": "function"
    },
    {
      "inputs": [
        {
          "components": [
            {
              "components": [
                {
                  "internalType": "uint64",
                  "name": "sequence",
                  "type": "uint64"
                },
                {
                  "internalType": "string",
                  "name": "sourcePort",
                  "type": "string"
                },
                {
                  "internalType": "string",
                  "name": "sourceChannel",
                  "type": "string"
                },
                {
                  "internalType": "string",
                  "name": "destinationPort",
                  "type": "string"
                },
                {
                  "internalType": "string",
                  "name": "destinationChannel",
                  "type": "string"
                },
                {
                  "internalType": "bytes",
                  "name": "data",
                  "type": "bytes"
                },
                {
                  "components": [
                    {
                      "internalType": "uint64",
                      "name": "revisionNumber",
                      "type": "uint64"
                    },
                    {
                      "internalType": "uint64",
                      "name": "revisionHeight",
                      "type": "uint64"
                    }
                  ],
                  "internalType": "struct Height.Data",
                  "name": "timeoutHeight",
                  "type": "tuple"
                },
                {
                  "internalType": "uint64",
                  "name": "timeoutTimestamp",
                  "type": "uint64"
                }
              ],
              "internalType": "struct Packet.Data",
              "name": "packet",
              "type": "tuple"
            },
            {
              "internalType": "bytes",
              "name": "proof",
              "type": "bytes"
            },
            {
              "components": [
                {
                  "internalType": "uint64",
                  "name": "revisionNumber",
                  "type": "uint64"
                },
                {
                  "internalType": "uint64",
                  "name": "revisionHeight",
                  "type": "uint64"
                }
              ],
              "internalType": "struct Height.Data",
              "name": "proofHeight",
              "type": "tuple"
            }
          ],
          "internalType": "struct IBCMsgs.MsgPacketRecv",
          "name": "msg_",
          "type": "tuple"
        }
      ],
      "name": "recvPacket",
      "outputs": [],
      "stateMutability": "nonpayable",
      "type": "function"
    },
    {
      "inputs": [
        {
          "components": [
            {
              "components": [
                {
                  "internalType": "bytes32",
                  "name": "codeHash",
                  "type": "bytes32"
                },
                {
                  "internalType": "enum CellEmitter.ScriptHashType",
                  "name": "hashType",
                  "type": "uint8"
                },
                {
                  "internalType": "bytes",
                  "name": "args",
                  "type": "bytes"
                }
              ],
              "internalType": "struct CellEmitter.Script",
              "name": "script",
              "type": "tuple"
            },
            {
              "internalType": "uint64[2]",
              "name": "scriptLenRange",
              "type": "uint64[2]"
            },
            {
              "internalType": "uint64[2]",
              "name": "outputDataLenRange",
              "type": "uint64[2]"
            },
            {
              "internalType": "uint64[2]",
              "name": "outputDataCapacityRange",
              "type": "uint64[2]"
            }
          ],
          "internalType": "struct CellEmitter.Filter",
          "name": "filter",
          "type": "tuple"
        }
      ],
      "name": "registerCellEmitterFilter",
      "outputs": [
        {
          "internalType": "bool",
          "name": "",
          "type": "bool"
        }
      ],
      "stateMutability": "nonpayable",
      "type": "function"
    },
    {
      "inputs": [
        {
          "components": [
            {
              "components": [
                {
                  "internalType": "bytes32",
                  "name": "codeHash",
                  "type": "bytes32"
                },
                {
                  "internalType": "enum CellEmitter.ScriptHashType",
                  "name": "hashType",
                  "type": "uint8"
                },
                {
                  "internalType": "bytes",
                  "name": "args",
                  "type": "bytes"
                }
              ],
              "internalType": "struct CellEmitter.Script",
              "name": "script",
              "type": "tuple"
            },
            {
              "internalType": "uint64[2]",
              "name": "scriptLenRange",
              "type": "uint64[2]"
            },
            {
              "internalType": "uint64[2]",
              "name": "outputDataLenRange",
              "type": "uint64[2]"
            },
            {
              "internalType": "uint64[2]",
              "name": "outputDataCapacityRange",
              "type": "uint64[2]"
            }
          ],
          "internalType": "struct CellEmitter.Filter",
          "name": "filter",
          "type": "tuple"
        }
      ],
      "name": "removeCellEmitterFilter",
      "outputs": [
        {
          "internalType": "bool",
          "name": "",
          "type": "bool"
        }
      ],
      "stateMutability": "nonpayable",
      "type": "function"
    },
    {
      "inputs": [],
      "name": "renounceOwnership",
      "outputs": [],
      "stateMutability": "nonpayable",
      "type": "function"
    },
    {
      "inputs": [
        {
          "components": [
            {
              "internalType": "uint64",
              "name": "sequence",
              "type": "uint64"
            },
            {
              "internalType": "string",
              "name": "sourcePort",
              "type": "string"
            },
            {
              "internalType": "string",
              "name": "sourceChannel",
              "type": "string"
            },
            {
              "internalType": "string",
              "name": "destinationPort",
              "type": "string"
            },
            {
              "internalType": "string",
              "name": "destinationChannel",
              "type": "string"
            },
            {
              "internalType": "bytes",
              "name": "data",
              "type": "bytes"
            },
            {
              "components": [
                {
                  "internalType": "uint64",
                  "name": "revisionNumber",
                  "type": "uint64"
                },
                {
                  "internalType": "uint64",
                  "name": "revisionHeight",
                  "type": "uint64"
                }
              ],
              "internalType": "struct Height.Data",
              "name": "timeoutHeight",
              "type": "tuple"
            },
            {
              "internalType": "uint64",
              "name": "timeoutTimestamp",
              "type": "uint64"
            }
          ],
          "internalType": "struct Packet.Data",
          "name": "packet",
          "type": "tuple"
        }
      ],
      "name": "sendPacket",
      "outputs": [],
      "stateMutability": "nonpayable",
      "type": "function"
    },
    {
      "inputs": [
        {
          "internalType": "address",
          "name": "newOwner",
          "type": "address"
        }
      ],
      "name": "transferOwnership",
      "outputs": [],
      "stateMutability": "nonpayable",
      "type": "function"
    },
    {
      "inputs": [
        {
          "components": [
            {
              "internalType": "string",
              "name": "clientId",
              "type": "string"
            },
            {
              "internalType": "bytes",
              "name": "clientMessage",
              "type": "bytes"
            }
          ],
          "internalType": "struct IBCMsgs.MsgUpdateClient",
          "name": "msg_",
          "type": "tuple"
        }
      ],
      "name": "updateClient",
      "outputs": [],
      "stateMutability": "nonpayable",
      "type": "function"
    },
    {
      "inputs": [
        {
          "components": [
            {
              "internalType": "uint64",
              "name": "sequence",
              "type": "uint64"
            },
            {
              "internalType": "string",
              "name": "sourcePort",
              "type": "string"
            },
            {
              "internalType": "string",
              "name": "sourceChannel",
              "type": "string"
            },
            {
              "internalType": "string",
              "name": "destinationPort",
              "type": "string"
            },
            {
              "internalType": "string",
              "name": "destinationChannel",
              "type": "string"
            },
            {
              "internalType": "bytes",
              "name": "data",
              "type": "bytes"
            },
            {
              "components": [
                {
                  "internalType": "uint64",
                  "name": "revisionNumber",
                  "type": "uint64"
                },
                {
                  "internalType": "uint64",
                  "name": "revisionHeight",
                  "type": "uint64"
                }
              ],
              "internalType": "struct Height.Data",
              "name": "timeoutHeight",
              "type": "tuple"
            },
            {
              "internalType": "uint64",
              "name": "timeoutTimestamp",
              "type": "uint64"
            }
          ],
          "internalType": "struct Packet.Data",
          "name": "packet",
          "type": "tuple"
        },
        {
          "internalType": "bytes",
          "name": "acknowledgement",
          "type": "bytes"
        }
      ],
      "name": "writeAcknowledgement",
      "outputs": [],
      "stateMutability": "nonpayable",
      "type": "function"
    },
    {
      "inputs": [
        {
          "internalType": "string",
          "name": "clientType",
          "type": "string"
        },
        {
          "internalType": "contract ILightClient",
          "name": "client",
          "type": "address"
        }
      ],
      "name": "registerClient",
      "outputs": [],
      "stateMutability": "nonpayable",
      "type": "function"
    },
    {
      "inputs": [
        {
          "internalType": "string",
          "name": "portId",
          "type": "string"
        },
        {
          "internalType": "address",
          "name": "moduleAddress",
          "type": "address"
        }
      ],
      "name": "bindPort",
      "outputs": [],
      "stateMutability": "nonpayable",
      "type": "function"
    },
    {
      "inputs": [
        {
          "internalType": "uint64",
          "name": "expectedTimePerBlock_",
          "type": "uint64"
        }
      ],
      "name": "setExpectedTimePerBlock",
      "outputs": [],
      "stateMutability": "nonpayable",
      "type": "function"
    }
  ],
  "bytecode": "0x6101006040523480156200001257600080fd5b506040516200a9d23803806200a9d28339810160408190526200003591620000d8565b6001600160a01b0384811660805283811660a05282811660c052811660e0526200005f3362000069565b5050505062000135565b601580546001600160a01b038381166001600160a01b0319831681179093556040519116919082907f8be0079c531659141344cd1fd0a4f28419497f9722a3daafe3b4186f6b6457e090600090a35050565b80516001600160a01b0381168114620000d357600080fd5b919050565b60008060008060808587031215620000ef57600080fd5b620000fa85620000bb565b93506200010a60208601620000bb565b92506200011a60408601620000bb565b91506200012a60608601620000bb565b905092959194509250565b60805160a05160c05160e05161a801620001d1600039600081816110a6015281816111bb01528181612eac015281816144030152615fd3015260008181611390015281816116210152818161480a015281816156fd015281816166f40152616bdb015260008181610c5801528181614a9f015281816159400152616a45015260008181616185015281816165570152617079015261a8016000f3fe608060405234801561001057600080fd5b50600436106104575760003560e01c80636a9c564611610250578063b531861f11610150578063d634b734116100c8578063de31034111610097578063ec6260a91161007c578063ec6260a914610bf1578063ec75d82914610c04578063f2fde38b14610c1557600080fd5b8063de31034114610bbf578063e1b17b4314610bd257600080fd5b8063d634b73414610b66578063da6cea5514610b86578063dd3469fc14610b99578063dd5b9f4d14610bac57600080fd5b8063ca9566671161011f578063d31407fe11610104578063d31407fe14610b0d578063d39445df14610b20578063d5a2448114610b5357600080fd5b8063ca95666714610ac6578063d1297b8d14610ad957600080fd5b8063b531861f14610a3c578063c238010514610a4f578063c70b6eb014610a62578063c930b1b014610a7557600080fd5b8063829fc4f9116101e3578063990491a5116101b2578063a049e67711610197578063a049e677146109ef578063a06cb3a214610a16578063b50bb5c614610a2957600080fd5b8063990491a51461099b57806399aea986146109cf57600080fd5b8063829fc4f91461092b578063839df945146109405780638da5cb5b1461096e5780639575f6ac1461099357600080fd5b806374af494e1161021f57806374af494e1461089a57806376c81c42146108ad5780637926b8a9146108c0578063821cb5d0146108da57600080fd5b80636a9c5646146108595780636cf44bf41461086c578063715018a61461087f57806373702aa21461088757600080fd5b8063329681d01161035b578063533c7c2f116102ee5780635a9afac3116102bd5780635bd51b62116102a25780635bd51b62146108205780635be164ee146108335780636a728f2c1461084657600080fd5b80635a9afac3146107ea5780635b3de260146107fd57600080fd5b8063533c7c2f1461079e57806357abd3d8146107b1578063582418b6146107c457806359f37976146107d757600080fd5b806340835e441161032a57806340835e44146107275780634572a8b31461073a5780634e7bc2611461075d5780634f57683b1461077d57600080fd5b8063329681d0146106cb57806333c0a427146106ec5780633bc3339f146107015780633dd6db041461071457600080fd5b80632570dae0116103ee57806327711a69116103bd5780632d945dd3116103a25780632d945dd3146106725780633000217a1461068757806331973f00146106a857600080fd5b806327711a691461063e578063285bd03c1461065f57600080fd5b80632570dae01461059157806325cbc3a6146105b157806326078437146105c457806327184c131461062b57600080fd5b806318c198701161042a57806318c198701461052357806323402a3314610536578063236ebd701461055e578063256c41991461057157600080fd5b806301c6400f1461045c57806310e8aa6d14610485578063117e886a146104a55780631390d28d146104ba575b600080fd5b61046f61046a366004617b24565b610c28565b60405161047c9190617bb0565b60405180910390f35b610498610493366004617d5d565b610dc6565b60405161047c9190617d91565b6104b86104b3366004617e4a565b610e65565b005b61050b6104c8366004617ea0565b8151602081840181018051600f8252928201948201949094209190935281518083018401805192815290840192909301919091209152546001600160401b031681565b6040516001600160401b03909116815260200161047c565b6104b8610531366004617e4a565b610ebb565b610549610544366004617f28565b610ed3565b6040805192835290151560208301520161047c565b6104b861056c366004617fbd565b610f77565b61058461057f366004618003565b611359565b60405161047c9190618037565b6105a461059f366004617d5d565b6115c1565b60405161047c91906180c9565b6105846105bf3660046180ee565b6115ea565b6106196105d2366004618122565b825160208185018101805160108252928201958201959095209190945282518084018501805192815290850193850193909320925291526000908152604090205460ff1681565b60405160ff909116815260200161047c565b6104b861063936600461818e565b611809565b61065161064c3660046181ab565b611833565b60405161047c929190618393565b6105a461066d3660046183b7565b611d1a565b61067a611de2565b60405161047c91906183fb565b61069a610695366004618480565b6123eb565b60405161047c929190618539565b6106bb6106b6366004617d5d565b612777565b60405161047c94939291906185c8565b6106de6106d93660046181ab565b612a1a565b60405161047c929190618615565b6106f4612ae8565b60405161047c9190618674565b6105a461070f366004617ea0565b612d57565b6105a4610722366004618737565b612d83565b6104b8610735366004618763565b612dae565b61074d610748366004618003565b612fec565b604051901515815260200161047c565b61077061076b3660046181ab565b61330a565b60405161047c9190618797565b61079061078b366004618480565b6139bc565b60405161047c929190618887565b6105a46107ac3660046183b7565b614287565b6105a46107bf366004618737565b6142b2565b61050b6107d2366004618480565b6142c2565b6104b86107e53660046180ee565b614318565b61074d6107f8366004617f28565b61455c565b61081061080b366004617ea0565b6145c6565b60405161047c949392919061889a565b61058461082e3660046180ee565b6147d3565b610549610841366004617f28565b6149f2565b61046f610854366004617fbd565b614a6f565b61050b610867366004618480565b614bfe565b61079061087a3660046188f8565b614c12565b6104b8614cd5565b6105a4610895366004618737565b614ce9565b6105a46108a8366004618737565b614cf9565b6107906108bb3660046181ab565b614d09565b60135461050b90600160c01b90046001600160401b031681565b61050b6108e8366004617ea0565b8151602081840181018051600d8252928201948201949094209190935281518083018401805192815290840192909301919091209152546001600160401b031681565b610933614dbe565b60405161047c919061894c565b61096061094e366004618737565b60006020819052908152604090205481565b60405190815260200161047c565b6015546001600160a01b03165b6040516001600160a01b03909116815260200161047c565b610770614f76565b61097b6109a9366004617d5d565b80516020818301810180516008825292820191909301209152546001600160a01b031681565b6109e26109dd3660046181ab565b6155cc565b60405161047c91906189ae565b60135461050b9070010000000000000000000000000000000090046001600160401b031681565b610584610a243660046189c1565b6156c6565b6105a4610a373660046183b7565b6158e5565b61046f610a4a3660046189f5565b615910565b6105a4610a5d366004617d5d565b615a9f565b61074d610a70366004618003565b615ac3565b61050b610a83366004617ea0565b8151602081840181018051600e8252928201948201949094209190935281518083018401805192815290840192909301919091209152546001600160401b031681565b6104b8610ad4366004618a30565b615ecc565b61097b610ae7366004617d5d565b8051602081830181018051600a825292820191909301209152546001600160a01b031681565b60135461050b906001600160401b031681565b610b33610b2e3660046183b7565b616127565b604080516001600160401b0393841681529290911660208301520161047c565b6105a4610b61366004617b24565b61617e565b610b79610b74366004618480565b6162da565b60405161047c9190618a98565b6104b8610b943660046189c1565b616553565b610584610ba73660046189c1565b6166bd565b61097b610bba3660046183b7565b6169ce565b61046f610bcd366004618ae5565b616a15565b60135461050b906801000000000000000090046001600160401b031681565b610584610bff366004618003565b616ba4565b6013546001600160401b031661050b565b6104b8610c23366004618b20565b616e6f565b610c536040518060800160405280606081526020016060815260200160608152602001606081525090565b6000807f00000000000000000000000000000000000000000000000000000000000000006001600160a01b03166301c6400f60e01b85604051602401610c999190618c58565b60408051601f198184030181529181526020820180516001600160e01b03166001600160e01b0319909416939093179092529051610cd79190618ccd565b600060405180830381855af49150503d8060008114610d12576040519150601f19603f3d011682016040523d82523d6000602084013e610d17565b606091505b5091509150610d5c82826040518060400160405280601281526020017f636f6e6e656374696f6e4f70656e496e69740000000000000000000000000000815250616efc565b80806020019051810190610d709190618d2e565b92507f6355ae836fe98f9330ac4cba9411c34badbf9a1ac7ca2723e4a4ed03b14de0288360000151846020015185604001518660600151604051610db79493929190618e06565b60405180910390a15050919050565b60606000601283604051610dda9190618ccd565b9081526020016040518091039020905080805480602002602001604051908101604052809291908181526020016000905b82821015610e5957600084815260209081902060408051808201909152908401546001600160401b038082168352680100000000000000009091041681830152825260019092019101610e0b565b50505050915050919050565b610e6d616f74565b610e78838383616fce565b60048054600181018255600091909152610eb5907f8a35acfbc15ff81a39ae7d344fd709f28e8600b4aa8c65c6b64bfe7fe36bd19b018484617871565b50505050565b610ec3616f74565b610ece838383617075565b505050565b6000806000806000610f508a8a8080601f01602080910402602001604051908101604052809392919081815260200183838082843760009201919091525050604080516020601f8e018190048102820181019092528c815292508c91508b90819084018382808284376000920191909152508b925061718f915050565b80516020918201208252810191909152604001600020549889151598509650505050505050565b600061101d610f868380618e53565b610f94906060810190618e6a565b8080601f016020809104026020016040519081016040528093929190818152602001838380828437600092019190915250610fd59250869150819050618e53565b610fe3906080810190618e6a565b8080601f0160208091040260200160405190810160405280939291908181526020018383808284376000920191909152506171cf92505050565b905060006001600160a01b038216632301c6f561103a8580618e53565b336040518363ffffffff1660e01b8152600401611058929190618fec565b6000604051808303816000875af1158015611077573d6000803e3d6000fd5b505050506040513d6000823e601f3d908101601f1916820160405261109f9190810190619017565b90506000807f00000000000000000000000000000000000000000000000000000000000000006001600160a01b031663236ebd7060e01b866040516024016110e79190619062565b60408051601f198184030181529181526020820180516001600160e01b03166001600160e01b03199094169390931790925290516111259190618ccd565b600060405180830381855af49150503d8060008114611160576040519150601f19603f3d011682016040523d82523d6000602084013e611165565b606091505b50915091506111aa82826040518060400160405280600a81526020017f726563765061636b657400000000000000000000000000000000000000000000815250616efc565b825115611312576001600160a01b037f000000000000000000000000000000000000000000000000000000000000000016635ab73cef60e11b6111ed8780618e53565b6111fb906060810190618e6a565b6112058980618e53565b611213906080810190618e6a565b61121d8b80618e53565b61122b90602081019061818e565b89604051602401611241969594939291906190c0565b60408051601f198184030181529181526020820180516001600160e01b03166001600160e01b031990941693909317909252905161127f9190618ccd565b600060405180830381855af49150503d80600081146112ba576040519150601f19603f3d011682016040523d82523d6000602084013e6112bf565b606091505b505080925050816112cf57600080fd5b7f778788131273c1769406f3b42a241a266d9c5c1ca39b2b33a3b1a8efb1080bc56112fa8680618e53565b84604051611309929190619117565b60405180910390a15b7fcd0facba13702ea05e05e3cdd72d0d075cbe94aa17a18d8215755eedd2a5981961133d8680618e53565b60405161134a919061913c565b60405180910390a15050505050565b61138b6040518060a0016040528060608152602001606081526020016060815260200160608152602001606081525090565b6000807f00000000000000000000000000000000000000000000000000000000000000006001600160a01b031663256c419960e01b856040516024016113d1919061914f565b60408051601f198184030181529181526020820180516001600160e01b03166001600160e01b031990941693909317909252905161140f9190618ccd565b600060405180830381855af49150503d806000811461144a576040519150601f19603f3d011682016040523d82523d6000602084013e61144f565b606091505b509150915061149482826040518060400160405280600e81526020017f6368616e6e656c4f70656e41636b000000000000000000000000000000000000815250616efc565b808060200190518101906114a8919061922a565b92506114f16114b78580618e6a565b8080601f01602080910402602001604051908101604052809392919081815260200183838082843760009201919091525061725d92505050565b6001600160a01b0316634942d1ac6115098680618e6a565b6115166020890189618e6a565b61152360408b018b618e6a565b6040518763ffffffff1660e01b815260040161154496959493929190619326565b600060405180830381600087803b15801561155e57600080fd5b505af1158015611572573d6000803e3d6000fd5b505050507fe44c2c1598a2959dde639770f57626a57d286f504be90961f9cd81e7020ba1f183600001518460400151856020015186606001518760800151604051610db7959493929190619362565b6060816040516020016115d49190618ccd565b6040516020818303038152906040529050919050565b61161c6040518060a0016040528060608152602001606081526020016060815260200160608152602001606081525090565b6000807f00000000000000000000000000000000000000000000000000000000000000006001600160a01b03166325cbc3a660e01b856040516024016116629190619448565b60408051601f198184030181529181526020820180516001600160e01b03166001600160e01b03199094169390931790925290516116a09190618ccd565b600060405180830381855af49150503d80600081146116db576040519150601f19603f3d011682016040523d82523d6000602084013e6116e0565b606091505b509150915061172582826040518060400160405280601381526020017f6368616e6e656c436c6f7365436f6e6669726d00000000000000000000000000815250616efc565b80806020019051810190611739919061922a565b92506117486114b78580618e6a565b6001600160a01b031663ef4776d26117608680618e6a565b61176d6020890189618e6a565b6040518563ffffffff1660e01b815260040161178c949392919061945b565b600060405180830381600087803b1580156117a657600080fd5b505af11580156117ba573d6000803e3d6000fd5b505050507f1f264d6d27cfa930ad8902af09103b8db59e3c4569605ed8698d8618b4ea138483600001518460400151856020015186606001518760800151604051610db7959493929190619362565b611811616f74565b6013805467ffffffffffffffff19166001600160401b03831617905550565b50565b61183b6178f5565b600080600b8585604051611850929190619482565b9081526040519081900360200190209050806000600283015460ff16600381111561187d5761187d618234565b1415816040518060a001604052908160008201805461189b90619492565b80601f01602080910402602001604051908101604052809291908181526020018280546118c790619492565b80156119145780601f106118e957610100808354040283529160200191611914565b820191906000526020600020905b8154815290600101906020018083116118f757829003601f168201915b5050505050815260200160018201805480602002602001604051908101604052809291908181526020016000905b82821015611adf578382906000526020600020906002020160405180604001604052908160008201805461197590619492565b80601f01602080910402602001604051908101604052809291908181526020018280546119a190619492565b80156119ee5780601f106119c3576101008083540402835291602001916119ee565b820191906000526020600020905b8154815290600101906020018083116119d157829003601f168201915b5050505050815260200160018201805480602002602001604051908101604052809291908181526020016000905b82821015611ac8578382906000526020600020018054611a3b90619492565b80601f0160208091040260200160405190810160405280929190818152602001828054611a6790619492565b8015611ab45780601f10611a8957610100808354040283529160200191611ab4565b820191906000526020600020905b815481529060010190602001808311611a9757829003601f168201915b505050505081526020019060010190611a1c565b505050508152505081526020019060010190611942565b50505090825250600282015460209091019060ff166003811115611b0557611b05618234565b6003811115611b1657611b16618234565b815260200160038201604051806060016040529081600082018054611b3a90619492565b80601f0160208091040260200160405190810160405280929190818152602001828054611b6690619492565b8015611bb35780601f10611b8857610100808354040283529160200191611bb3565b820191906000526020600020905b815481529060010190602001808311611b9657829003601f168201915b50505050508152602001600182018054611bcc90619492565b80601f0160208091040260200160405190810160405280929190818152602001828054611bf890619492565b8015611c455780601f10611c1a57610100808354040283529160200191611c45565b820191906000526020600020905b815481529060010190602001808311611c2857829003601f168201915b5050505050815260200160028201604051806020016040529081600082018054611c6e90619492565b80601f0160208091040260200160405190810160405280929190818152602001828054611c9a90619492565b8015611ce75780601f10611cbc57610100808354040283529160200191611ce7565b820191906000526020600020905b815481529060010190602001808311611cca57829003601f168201915b505050919092525050509052508152600691909101546001600160401b03166020909101529450925050505b9250929050565b81516020818401810180516007825292820191850191909120919052805482908110611d4557600080fd5b90600052602060002001600091509150508054611d6190619492565b80601f0160208091040260200160405190810160405280929190818152602001828054611d8d90619492565b8015611dda5780601f10611daf57610100808354040283529160200191611dda565b820191906000526020600020905b815481529060010190602001808311611dbd57829003601f168201915b505050505081565b6002546060906000906001600160401b03811115611e0257611e02617c2e565b604051908082528060200260200182016040528015611e3b57816020015b611e28617928565b815260200190600190039081611e205790505b50905060005b6002548110156123e557600060028281548110611e6057611e606194c6565b906000526020600020018054611e7590619492565b80601f0160208091040260200160405190810160405280929190818152602001828054611ea190619492565b8015611eee5780601f10611ec357610100808354040283529160200191611eee565b820191906000526020600020905b815481529060010190602001808311611ed157829003601f168201915b505050505090506040518060400160405280828152602001600b83604051611f169190618ccd565b90815260200160405180910390206040518060a0016040529081600082018054611f3f90619492565b80601f0160208091040260200160405190810160405280929190818152602001828054611f6b90619492565b8015611fb85780601f10611f8d57610100808354040283529160200191611fb8565b820191906000526020600020905b815481529060010190602001808311611f9b57829003601f168201915b5050505050815260200160018201805480602002602001604051908101604052809291908181526020016000905b82821015612183578382906000526020600020906002020160405180604001604052908160008201805461201990619492565b80601f016020809104026020016040519081016040528092919081815260200182805461204590619492565b80156120925780601f1061206757610100808354040283529160200191612092565b820191906000526020600020905b81548152906001019060200180831161207557829003601f168201915b5050505050815260200160018201805480602002602001604051908101604052809291908181526020016000905b8282101561216c5783829060005260206000200180546120df90619492565b80601f016020809104026020016040519081016040528092919081815260200182805461210b90619492565b80156121585780601f1061212d57610100808354040283529160200191612158565b820191906000526020600020905b81548152906001019060200180831161213b57829003601f168201915b5050505050815260200190600101906120c0565b505050508152505081526020019060010190611fe6565b50505090825250600282015460209091019060ff1660038111156121a9576121a9618234565b60038111156121ba576121ba618234565b8152602001600382016040518060600160405290816000820180546121de90619492565b80601f016020809104026020016040519081016040528092919081815260200182805461220a90619492565b80156122575780601f1061222c57610100808354040283529160200191612257565b820191906000526020600020905b81548152906001019060200180831161223a57829003601f168201915b5050505050815260200160018201805461227090619492565b80601f016020809104026020016040519081016040528092919081815260200182805461229c90619492565b80156122e95780601f106122be576101008083540402835291602001916122e9565b820191906000526020600020905b8154815290600101906020018083116122cc57829003601f168201915b505050505081526020016002820160405180602001604052908160008201805461231290619492565b80601f016020809104026020016040519081016040528092919081815260200182805461233e90619492565b801561238b5780601f106123605761010080835404028352916020019161238b565b820191906000526020600020905b81548152906001019060200180831161236e57829003601f168201915b505050919092525050509052508152600691909101546001600160401b0316602090910152905283518490849081106123c6576123c66194c6565b60200260200101819052505080806123dd906194f2565b915050611e41565b50919050565b6123f3617947565b600080600c8787604051612408929190619482565b90815260200160405180910390208585604051612426929190619482565b9081526040519081900360200190209050806000825460ff16600481111561245057612450618234565b6040805160a0810190915283549290911415918390829060ff16600481111561247b5761247b618234565b600481111561248c5761248c618234565b81528154602090910190610100900460ff1660028111156124af576124af618234565b60028111156124c0576124c0618234565b8152602001600182016040518060400160405290816000820180546124e490619492565b80601f016020809104026020016040519081016040528092919081815260200182805461251090619492565b801561255d5780601f106125325761010080835404028352916020019161255d565b820191906000526020600020905b81548152906001019060200180831161254057829003601f168201915b5050505050815260200160018201805461257690619492565b80601f01602080910402602001604051908101604052809291908181526020018280546125a290619492565b80156125ef5780601f106125c4576101008083540402835291602001916125ef565b820191906000526020600020905b8154815290600101906020018083116125d257829003601f168201915b505050505081525050815260200160038201805480602002602001604051908101604052809291908181526020016000905b828210156126cd57838290600052602060002001805461264090619492565b80601f016020809104026020016040519081016040528092919081815260200182805461266c90619492565b80156126b95780601f1061268e576101008083540402835291602001916126b9565b820191906000526020600020905b81548152906001019060200180831161269c57829003601f168201915b505050505081526020019060010190612621565b5050505081526020016004820180546126e590619492565b80601f016020809104026020016040519081016040528092919081815260200182805461271190619492565b801561275e5780601f106127335761010080835404028352916020019161275e565b820191906000526020600020905b81548152906001019060200180831161274157829003601f168201915b5050505050815250509150925092505094509492505050565b8051602081830181018051600b8252928201919093012091528054819061279d90619492565b80601f01602080910402602001604051908101604052809291908181526020018280546127c990619492565b80156128165780601f106127eb57610100808354040283529160200191612816565b820191906000526020600020905b8154815290600101906020018083116127f957829003601f168201915b5050505050908060020160009054906101000a900460ff16908060030160405180606001604052908160008201805461284e90619492565b80601f016020809104026020016040519081016040528092919081815260200182805461287a90619492565b80156128c75780601f1061289c576101008083540402835291602001916128c7565b820191906000526020600020905b8154815290600101906020018083116128aa57829003601f168201915b505050505081526020016001820180546128e090619492565b80601f016020809104026020016040519081016040528092919081815260200182805461290c90619492565b80156129595780601f1061292e57610100808354040283529160200191612959565b820191906000526020600020905b81548152906001019060200180831161293c57829003601f168201915b505050505081526020016002820160405180602001604052908160008201805461298290619492565b80601f01602080910402602001604051908101604052809291908181526020018280546129ae90619492565b80156129fb5780601f106129d0576101008083540402835291602001916129fb565b820191906000526020600020905b8154815290600101906020018083116129de57829003601f168201915b505050919092525050509052506006909101546001600160401b031684565b60408051808201909152600080825260208201526000612a6f84848080601f0160208091040260200160405190810160405280939291908181526020018383808284376000920191909152506172e292505050565b6001600160a01b031663329681d085856040518363ffffffff1660e01b8152600401612a9c92919061950b565b606060405180830381865afa158015612ab9573d6000803e3d6000fd5b505050506040513d601f19601f82011682018060405250810190612add919061952f565b915091509250929050565b60606014805480602002602001604051908101604052809291908181526020016000905b82821015612d4e576000848152602090206040805160e08101909152600684029091018054608083019081526001820154839190839060a084019060ff166002811115612b5b57612b5b618234565b6002811115612b6c57612b6c618234565b8152602001600282018054612b8090619492565b80601f0160208091040260200160405190810160405280929190818152602001828054612bac90619492565b8015612bf95780601f10612bce57610100808354040283529160200191612bf9565b820191906000526020600020905b815481529060010190602001808311612bdc57829003601f168201915b5050509190925250505081526040805180820191829052602090920191906003840190600290826000855b82829054906101000a90046001600160401b03166001600160401b031681526020019060080190602082600701049283019260010382029150808411612c24575050509284525050604080518082019182905260209093019291506004840190600290826000855b82829054906101000a90046001600160401b03166001600160401b031681526020019060080190602082600701049283019260010382029150808411612c8c575050509284525050604080518082019182905260209093019291506005840190600290826000855b82829054906101000a90046001600160401b03166001600160401b031681526020019060080190602082600701049283019260010382029150808411612cf457905050505050508152505081526020019060010190612b0c565b50505050905090565b60608282604051602001612d6c9291906195ae565b604051602081830303815290604052905092915050565b60048181548110612d9357600080fd5b906000526020600020016000915090508054611d6190619492565b612e42612e3d612dc16020840184618e6a565b8080601f016020809104026020016040519081016040528093929190818152602001838380828437600092019190915250612e03925050506040850185618e6a565b8080601f016020809104026020016040519081016040528093929190818152602001838380828437600092019190915250612d5792505050565b617320565b612ea75760405162461bcd60e51b815260206004820152602b60248201527f6368616e6e656c206361706162696c697479206661696c6564206f6e2061757460448201526a3432b73a34b1b0ba34b7b760a91b60648201526084015b60405180910390fd5b6000807f00000000000000000000000000000000000000000000000000000000000000006001600160a01b03166340835e4460e01b84604051602401612eed919061913c565b60408051601f198184030181529181526020820180516001600160e01b03166001600160e01b0319909416939093179092529051612f2b9190618ccd565b600060405180830381855af49150503d8060008114612f66576040519150601f19603f3d011682016040523d82523d6000602084013e612f6b565b606091505b5091509150612fb082826040518060400160405280600a81526020017f73656e645061636b657400000000000000000000000000000000000000000000815250616efc565b7fe701f25bda8992b211749f81adb9a8ea6e8cf8a3c9f2e29ed496e6c5f059154c83604051612fdf919061913c565b60405180910390a1505050565b601454600090815b60145481101561327457600060148281548110613013576130136194c6565b600091825260209091206040805160e081019091526006909202018054608083019081526001820154839190839060a084019060ff16600281111561305a5761305a618234565b600281111561306b5761306b618234565b815260200160028201805461307f90619492565b80601f01602080910402602001604051908101604052809291908181526020018280546130ab90619492565b80156130f85780601f106130cd576101008083540402835291602001916130f8565b820191906000526020600020905b8154815290600101906020018083116130db57829003601f168201915b5050509190925250505081526040805180820191829052602090920191906003840190600290826000855b82829054906101000a90046001600160401b03166001600160401b031681526020019060080190602082600701049283019260010382029150808411613123575050509284525050604080518082019182905260209093019291506004840190600290826000855b82829054906101000a90046001600160401b03166001600160401b03168152602001906008019060208260070104928301926001038202915080841161318b575050509284525050604080518082019182905260209093019291506005840190600290826000855b82829054906101000a90046001600160401b03166001600160401b0316815260200190600801906020826007010492830192600103820291508084116131f357905050505050508152505090506132538561324d9061968b565b826173d1565b156132615781925050613274565b508061326c816194f2565b915050612ff4565b5060145481036132875750600092915050565b6014805460018101825560009190915283906006027fce6d7b5282bd9a3661ae061feed1dbda4e52ab073b1f9285be6e155d9c38d4ec016132c882826198c7565b50507fc405bf94685f6b7d3e713ae05d7d1012f00a9f952f884bbc53275b269c88a1c4836040516132f991906199ca565b60405180910390a150600192915050565b6060600060078484604051613320929190619482565b9081526020016040518091039020805480602002602001604051908101604052809291908181526020016000905b828210156133fa57838290600052602060002001805461336d90619492565b80601f016020809104026020016040519081016040528092919081815260200182805461339990619492565b80156133e65780601f106133bb576101008083540402835291602001916133e6565b820191906000526020600020905b8154815290600101906020018083116133c957829003601f168201915b50505050508152602001906001019061334e565b505050509050600081516001600160401b0381111561341b5761341b617c2e565b60405190808252806020026020018201604052801561345457816020015b613441617992565b8152602001906001900390816134395790505b5090506000805b83518110156139b1576000848281518110613478576134786194c6565b6020026020010151905060006006826040516134949190618ccd565b9081526020016040518091039020805480602002602001604051908101604052809291908181526020016000905b8282101561356e5783829060005260206000200180546134e190619492565b80601f016020809104026020016040519081016040528092919081815260200182805461350d90619492565b801561355a5780601f1061352f5761010080835404028352916020019161355a565b820191906000526020600020905b81548152906001019060200180831161353d57829003601f168201915b5050505050815260200190600101906134c2565b50505050905060005b815181101561399b576000828281518110613594576135946194c6565b602002602001015190506000600c856040516135b09190618ccd565b9081526020016040518091039020826040516135cc9190618ccd565b9081526040805191829003602001822060a083019091528054829060ff1660048111156135fb576135fb618234565b600481111561360c5761360c618234565b81528154602090910190610100900460ff16600281111561362f5761362f618234565b600281111561364057613640618234565b81526020016001820160405180604001604052908160008201805461366490619492565b80601f016020809104026020016040519081016040528092919081815260200182805461369090619492565b80156136dd5780601f106136b2576101008083540402835291602001916136dd565b820191906000526020600020905b8154815290600101906020018083116136c057829003601f168201915b505050505081526020016001820180546136f690619492565b80601f016020809104026020016040519081016040528092919081815260200182805461372290619492565b801561376f5780601f106137445761010080835404028352916020019161376f565b820191906000526020600020905b81548152906001019060200180831161375257829003601f168201915b505050505081525050815260200160038201805480602002602001604051908101604052809291908181526020016000905b8282101561384d5783829060005260206000200180546137c090619492565b80601f01602080910402602001604051908101604052809291908181526020018280546137ec90619492565b80156138395780601f1061380e57610100808354040283529160200191613839565b820191906000526020600020905b81548152906001019060200180831161381c57829003601f168201915b5050505050815260200190600101906137a1565b50505050815260200160048201805461386590619492565b80601f016020809104026020016040519081016040528092919081815260200182805461389190619492565b80156138de5780601f106138b3576101008083540402835291602001916138de565b820191906000526020600020905b8154815290600101906020018083116138c157829003601f168201915b50505050508152505090506040518060e001604052808260000151600481111561390a5761390a618234565b81526020018260200151600281111561392557613925618234565b81526020018260400151815260200182606001518152602001826080015181526020018681526020018381525088886001600160401b03168151811061396d5761396d6194c6565b6020026020010181905250868061398390619a5f565b97505050508080613993906194f2565b915050613577565b50505080806139a9906194f2565b91505061345b565b509095945050505050565b6060600080600c87876040516139d3929190619482565b908152602001604051809103902085856040516139f1929190619482565b9081526040805191829003602001822060a083019091528054829060ff166004811115613a2057613a20618234565b6004811115613a3157613a31618234565b81528154602090910190610100900460ff166002811115613a5457613a54618234565b6002811115613a6557613a65618234565b815260200160018201604051806040016040529081600082018054613a8990619492565b80601f0160208091040260200160405190810160405280929190818152602001828054613ab590619492565b8015613b025780601f10613ad757610100808354040283529160200191613b02565b820191906000526020600020905b815481529060010190602001808311613ae557829003601f168201915b50505050508152602001600182018054613b1b90619492565b80601f0160208091040260200160405190810160405280929190818152602001828054613b4790619492565b8015613b945780601f10613b6957610100808354040283529160200191613b94565b820191906000526020600020905b815481529060010190602001808311613b7757829003601f168201915b505050505081525050815260200160038201805480602002602001604051908101604052809291908181526020016000905b82821015613c72578382906000526020600020018054613be590619492565b80601f0160208091040260200160405190810160405280929190818152602001828054613c1190619492565b8015613c5e5780601f10613c3357610100808354040283529160200191613c5e565b820191906000526020600020905b815481529060010190602001808311613c4157829003601f168201915b505050505081526020019060010190613bc6565b505050508152602001600482018054613c8a90619492565b80601f0160208091040260200160405190810160405280929190818152602001828054613cb690619492565b8015613d035780601f10613cd857610100808354040283529160200191613d03565b820191906000526020600020905b815481529060010190602001808311613ce657829003601f168201915b505050505081525050905060008160600151600081518110613d2757613d276194c6565b602002602001015190506000600b82604051613d439190618ccd565b90815260200160405180910390206040518060a0016040529081600082018054613d6c90619492565b80601f0160208091040260200160405190810160405280929190818152602001828054613d9890619492565b8015613de55780601f10613dba57610100808354040283529160200191613de5565b820191906000526020600020905b815481529060010190602001808311613dc857829003601f168201915b5050505050815260200160018201805480602002602001604051908101604052809291908181526020016000905b82821015613fb05783829060005260206000209060020201604051806040016040529081600082018054613e4690619492565b80601f0160208091040260200160405190810160405280929190818152602001828054613e7290619492565b8015613ebf5780601f10613e9457610100808354040283529160200191613ebf565b820191906000526020600020905b815481529060010190602001808311613ea257829003601f168201915b5050505050815260200160018201805480602002602001604051908101604052809291908181526020016000905b82821015613f99578382906000526020600020018054613f0c90619492565b80601f0160208091040260200160405190810160405280929190818152602001828054613f3890619492565b8015613f855780601f10613f5a57610100808354040283529160200191613f85565b820191906000526020600020905b815481529060010190602001808311613f6857829003601f168201915b505050505081526020019060010190613eed565b505050508152505081526020019060010190613e13565b50505090825250600282015460209091019060ff166003811115613fd657613fd6618234565b6003811115613fe757613fe7618234565b81526020016003820160405180606001604052908160008201805461400b90619492565b80601f016020809104026020016040519081016040528092919081815260200182805461403790619492565b80156140845780601f1061405957610100808354040283529160200191614084565b820191906000526020600020905b81548152906001019060200180831161406757829003601f168201915b5050505050815260200160018201805461409d90619492565b80601f01602080910402602001604051908101604052809291908181526020018280546140c990619492565b80156141165780601f106140eb57610100808354040283529160200191614116565b820191906000526020600020905b8154815290600101906020018083116140f957829003601f168201915b505050505081526020016002820160405180602001604052908160008201805461413f90619492565b80601f016020809104026020016040519081016040528092919081815260200182805461416b90619492565b80156141b85780601f1061418d576101008083540402835291602001916141b8565b820191906000526020600020905b81548152906001019060200180831161419b57829003601f168201915b505050919092525050509052508152600691909101546001600160401b031660209091015280519091506141eb906172e2565b81516040517f76c81c420000000000000000000000000000000000000000000000000000000081526001600160a01b0392909216916376c81c4291614232916004016180c9565b600060405180830381865afa15801561424f573d6000803e3d6000fd5b505050506040513d6000823e601f3d908101601f191682016040526142779190810190619a85565b9450945050505094509492505050565b81516020818401810180516003825292820191850191909120919052805482908110611d4557600080fd5b60058181548110612d9357600080fd5b6000600d85856040516142d6929190619482565b908152602001604051809103902083836040516142f4929190619482565b908152604051908190036020019020546001600160401b031690505b949350505050565b60006143846143278380618e53565b614335906020810190618e6a565b8080601f0160208091040260200160405190810160405280939291908181526020018383808284376000920191909152506143769250869150819050618e53565b610fe3906040810190618e6a565b90506001600160a01b03811663fb8b532e61439f8480618e53565b6143ac6020860186618e6a565b336040518563ffffffff1660e01b81526004016143cc9493929190619ac9565b600060405180830381600087803b1580156143e657600080fd5b505af11580156143fa573d6000803e3d6000fd5b505050506000807f00000000000000000000000000000000000000000000000000000000000000006001600160a01b03166359f3797660e01b856040516024016144449190619b0a565b60408051601f198184030181529181526020820180516001600160e01b03166001600160e01b03199094169390931790925290516144829190618ccd565b600060405180830381855af49150503d80600081146144bd576040519150601f19603f3d011682016040523d82523d6000602084013e6144c2565b606091505b509150915061450782826040518060400160405280601181526020017f61636b6e6f776c656467655061636b6574000000000000000000000000000000815250616efc565b7f47471450765e6e1b0b055ba2a1de04d4ce71f778c92b306e725083eb120dfd896145328580618e53565b61453f6020870187618e6a565b60405161454e93929190619b92565b60405180910390a150505050565b600060108686604051614570929190619482565b9081526020016040518091039020848460405161458e929190619482565b908152604080519182900360209081019092206001600160401b0385166000908152925290205460ff16600114905095945050505050565b8151602081840181018051600c825292820194820194909420919093528151808301840180519281529084019290930191909120915280546040805180820190915260018301805460ff8085169561010090950416939291908290829061462c90619492565b80601f016020809104026020016040519081016040528092919081815260200182805461465890619492565b80156146a55780601f1061467a576101008083540402835291602001916146a5565b820191906000526020600020905b81548152906001019060200180831161468857829003601f168201915b505050505081526020016001820180546146be90619492565b80601f01602080910402602001604051908101604052809291908181526020018280546146ea90619492565b80156147375780601f1061470c57610100808354040283529160200191614737565b820191906000526020600020905b81548152906001019060200180831161471a57829003601f168201915b5050505050815250509080600401805461475090619492565b80601f016020809104026020016040519081016040528092919081815260200182805461477c90619492565b80156147c95780601f1061479e576101008083540402835291602001916147c9565b820191906000526020600020905b8154815290600101906020018083116147ac57829003601f168201915b5050505050905084565b6148056040518060a0016040528060608152602001606081526020016060815260200160608152602001606081525090565b6000807f00000000000000000000000000000000000000000000000000000000000000006001600160a01b0316635bd51b6260e01b8560405160240161484b9190619448565b60408051601f198184030181529181526020820180516001600160e01b03166001600160e01b03199094169390931790925290516148899190618ccd565b600060405180830381855af49150503d80600081146148c4576040519150601f19603f3d011682016040523d82523d6000602084013e6148c9565b606091505b509150915061490e82826040518060400160405280601281526020017f6368616e6e656c4f70656e436f6e6669726d0000000000000000000000000000815250616efc565b80806020019051810190614922919061922a565b92506149316114b78580618e6a565b6001600160a01b031663a113e4116149498680618e6a565b6149566020890189618e6a565b6040518563ffffffff1660e01b8152600401614975949392919061945b565b600060405180830381600087803b15801561498f57600080fd5b505af11580156149a3573d6000803e3d6000fd5b505050507fb2b38f1a3f2342db58b968031409c2b47987d6604c584798230dcd3371650e5983600001518460400151856020015186606001518760800151604051610db7959493929190619362565b6000806000806000610f508a8a8080601f01602080910402602001604051908101604052809392919081815260200183838082843760009201919091525050604080516020601f8e018190048102820181019092528c815292508c91508b90819084018382808284376000920191909152508b925061751a915050565b614a9a6040518060800160405280606081526020016060815260200160608152602001606081525090565b6000807f00000000000000000000000000000000000000000000000000000000000000006001600160a01b0316636a728f2c60e01b85604051602401614ae09190619bb8565b60408051601f198184030181529181526020820180516001600160e01b03166001600160e01b0319909416939093179092529051614b1e9190618ccd565b600060405180830381855af49150503d8060008114614b59576040519150601f19603f3d011682016040523d82523d6000602084013e614b5e565b606091505b5091509150614ba382826040518060400160405280601581526020017f636f6e6e656374696f6e4f70656e436f6e6669726d0000000000000000000000815250616efc565b80806020019051810190614bb79190618d2e565b92507f651ff677aa39f2804d4c0eae6e78ee5fc17be1a45d199eb6a51ba4e1475a76048360000151846020015185604001518660600151604051610db79493929190618e06565b6000600e85856040516142d6929190619482565b60606000614c5585858080601f0160208091040260200160405190810160405280939291908181526020018383808284376000920191909152506172e292505050565b6001600160a01b0316636cf44bf48686866040518463ffffffff1660e01b8152600401614c8493929190619bed565b600060405180830381865afa158015614ca1573d6000803e3d6000fd5b505050506040513d6000823e601f3d908101601f19168201604052614cc99190810190619a85565b91509150935093915050565b614cdd616f74565b614ce76000617542565b565b60028181548110612d9357600080fd5b60018181548110612d9357600080fd5b60606000614d4c84848080601f0160208091040260200160405190810160405280939291908181526020018383808284376000920191909152506172e292505050565b6001600160a01b03166376c81c4285856040518363ffffffff1660e01b8152600401614d7992919061950b565b600060405180830381865afa158015614d96573d6000803e3d6000fd5b505050506040513d6000823e601f3d908101601f19168201604052612add9190810190619a85565b6001546060906000906001600160401b03811115614dde57614dde617c2e565b604051908082528060200260200182016040528015614e1157816020015b6060815260200190600190039081614dfc5790505b50905060005b6001548110156123e557600060018281548110614e3657614e366194c6565b906000526020600020018054614e4b90619492565b80601f0160208091040260200160405190810160405280929190818152602001828054614e7790619492565b8015614ec45780601f10614e9957610100808354040283529160200191614ec4565b820191906000526020600020905b815481529060010190602001808311614ea757829003601f168201915b50505050509050614ed4816172e2565b6001600160a01b03166376c81c42826040518263ffffffff1660e01b8152600401614eff91906180c9565b600060405180830381865afa158015614f1c573d6000803e3d6000fd5b505050506040513d6000823e601f3d908101601f19168201604052614f449190810190619a85565b50838381518110614f5757614f576194c6565b6020026020010181905250508080614f6e906194f2565b915050614e17565b6013546060906000906001600160401b03600160c01b909104811690811115614fa157614fa1617c2e565b604051908082528060200260200182016040528015614fda57816020015b614fc7617992565b815260200190600190039081614fbf5790505b5090506000805b6004548110156155c457600060048281548110615000576150006194c6565b90600052602060002001805461501590619492565b80601f016020809104026020016040519081016040528092919081815260200182805461504190619492565b801561508e5780601f106150635761010080835404028352916020019161508e565b820191906000526020600020905b81548152906001019060200180831161507157829003601f168201915b5050505050905060006006826040516150a79190618ccd565b9081526020016040518091039020805480602002602001604051908101604052809291908181526020016000905b828210156151815783829060005260206000200180546150f490619492565b80601f016020809104026020016040519081016040528092919081815260200182805461512090619492565b801561516d5780601f106151425761010080835404028352916020019161516d565b820191906000526020600020905b81548152906001019060200180831161515057829003601f168201915b5050505050815260200190600101906150d5565b50505050905060005b81518110156155ae5760008282815181106151a7576151a76194c6565b602002602001015190506000600c856040516151c39190618ccd565b9081526020016040518091039020826040516151df9190618ccd565b9081526040805191829003602001822060a083019091528054829060ff16600481111561520e5761520e618234565b600481111561521f5761521f618234565b81528154602090910190610100900460ff16600281111561524257615242618234565b600281111561525357615253618234565b81526020016001820160405180604001604052908160008201805461527790619492565b80601f01602080910402602001604051908101604052809291908181526020018280546152a390619492565b80156152f05780601f106152c5576101008083540402835291602001916152f0565b820191906000526020600020905b8154815290600101906020018083116152d357829003601f168201915b5050505050815260200160018201805461530990619492565b80601f016020809104026020016040519081016040528092919081815260200182805461533590619492565b80156153825780601f1061535757610100808354040283529160200191615382565b820191906000526020600020905b81548152906001019060200180831161536557829003601f168201915b505050505081525050815260200160038201805480602002602001604051908101604052809291908181526020016000905b828210156154605783829060005260206000200180546153d390619492565b80601f01602080910402602001604051908101604052809291908181526020018280546153ff90619492565b801561544c5780601f106154215761010080835404028352916020019161544c565b820191906000526020600020905b81548152906001019060200180831161542f57829003601f168201915b5050505050815260200190600101906153b4565b50505050815260200160048201805461547890619492565b80601f01602080910402602001604051908101604052809291908181526020018280546154a490619492565b80156154f15780601f106154c6576101008083540402835291602001916154f1565b820191906000526020600020905b8154815290600101906020018083116154d457829003601f168201915b50505050508152505090506040518060e001604052808260000151600481111561551d5761551d618234565b81526020018260200151600281111561553857615538618234565b81526020018260400151815260200182606001518152602001826080015181526020018681526020018381525088886001600160401b031681518110615580576155806194c6565b6020026020010181905250868061559690619a5f565b975050505080806155a6906194f2565b91505061518a565b50505080806155bc906194f2565b915050614fe1565b509092915050565b6060600383836040516155e0929190619482565b9081526020016040518091039020805480602002602001604051908101604052809291908181526020016000905b828210156156ba57838290600052602060002001805461562d90619492565b80601f016020809104026020016040519081016040528092919081815260200182805461565990619492565b80156156a65780601f1061567b576101008083540402835291602001916156a6565b820191906000526020600020905b81548152906001019060200180831161568957829003601f168201915b50505050508152602001906001019061560e565b50505050905092915050565b6156f86040518060a0016040528060608152602001606081526020016060815260200160608152602001606081525090565b6000807f00000000000000000000000000000000000000000000000000000000000000006001600160a01b031663a06cb3a260e01b8560405160240161573e9190619c51565b60408051601f198184030181529181526020820180516001600160e01b03166001600160e01b031990941693909317909252905161577c9190618ccd565b600060405180830381855af49150503d80600081146157b7576040519150601f19603f3d011682016040523d82523d6000602084013e6157bc565b606091505b509150915061580182826040518060400160405280601081526020017f6368616e6e656c436c6f7365496e697400000000000000000000000000000000815250616efc565b80806020019051810190615815919061922a565b92506158246114b78580618e6a565b6001600160a01b031663e74a1ac261583c8680618e6a565b6158496020890189618e6a565b6040518563ffffffff1660e01b8152600401615868949392919061945b565b600060405180830381600087803b15801561588257600080fd5b505af1158015615896573d6000803e3d6000fd5b505050507f137b8ff3192f46fcef631884ddc627cd49d32b825d053165a5415801a22af70483600001518460400151856020015186606001518760800151604051610db7959493929190619362565b81516020818401810180516006825292820191850191909120919052805482908110611d4557600080fd5b61593b6040518060800160405280606081526020016060815260200160608152602001606081525090565b6000807f00000000000000000000000000000000000000000000000000000000000000006001600160a01b031663b531861f60e01b856040516024016159819190619d53565b60408051601f198184030181529181526020820180516001600160e01b03166001600160e01b03199094169390931790925290516159bf9190618ccd565b600060405180830381855af49150503d80600081146159fa576040519150601f19603f3d011682016040523d82523d6000602084013e6159ff565b606091505b5091509150615a4482826040518060400160405280601181526020017f636f6e6e656374696f6e4f70656e41636b000000000000000000000000000000815250616efc565b80806020019051810190615a589190618d2e565b92507f05ee18b1fcf32f67c7300cb5e5f857de4796f66895e061dd299f262de9a0372d8360000151846020015185604001518660600151604051610db79493929190618e06565b805160208183018101805160098252928201919093012091528054611d6190619492565b601454600090815b601454811015615d4557600060148281548110615aea57615aea6194c6565b600091825260209091206040805160e081019091526006909202018054608083019081526001820154839190839060a084019060ff166002811115615b3157615b31618234565b6002811115615b4257615b42618234565b8152602001600282018054615b5690619492565b80601f0160208091040260200160405190810160405280929190818152602001828054615b8290619492565b8015615bcf5780601f10615ba457610100808354040283529160200191615bcf565b820191906000526020600020905b815481529060010190602001808311615bb257829003601f168201915b5050509190925250505081526040805180820191829052602090920191906003840190600290826000855b82829054906101000a90046001600160401b03166001600160401b031681526020019060080190602082600701049283019260010382029150808411615bfa575050509284525050604080518082019182905260209093019291506004840190600290826000855b82829054906101000a90046001600160401b03166001600160401b031681526020019060080190602082600701049283019260010382029150808411615c62575050509284525050604080518082019182905260209093019291506005840190600290826000855b82829054906101000a90046001600160401b03166001600160401b031681526020019060080190602082600701049283019260010382029150808411615cca5790505050505050815250509050615d248561324d9061968b565b15615d325781925050615d45565b5080615d3d816194f2565b915050615acb565b506014548103615d585750600092915050565b60148054615d6890600190619e8f565b81548110615d7857615d786194c6565b906000526020600020906006020160148281548110615d9957615d996194c6565b60009182526020909120825460069092020190815560018083015481830180548593859360ff16929160ff191690836002811115615dd957615dd9618234565b02179055506002820181600201908054615df290619492565b615dfd9291906179eb565b50615e1391505060038281019084016002617a66565b50615e2660048281019084016002617a66565b50615e3960058281019084016002617a66565b509050506014805480615e4e57615e4e619ea6565b60008281526020812060066000199093019283020181815560018101805460ff19169055908181615e826002830182617a98565b5050600060038301556000600483015560006005830155505090557fb3f4b5449e7002f58954420f56ccbfb4b9d74ad00db5c24c645481ee1959df10836040516132f991906199ca565b6000615edb6060850185618e6a565b8080601f0160208091040260200160405190810160405280939291908181526020018383808284376000920182905250939450615f1f925050506080860186618e6a565b8080601f016020809104026020016040519081016040528093929190818152602001838380828437600092019190915250929350615f669250612e3d915084905083612d57565b615fc65760405162461bcd60e51b815260206004820152602b60248201527f6368616e6e656c206361706162696c697479206661696c6564206f6e2061757460448201526a3432b73a34b1b0ba34b7b760a91b6064820152608401612e9e565b6000806001600160a01b037f000000000000000000000000000000000000000000000000000000000000000016635ab73cef60e11b858561600a60208c018c61818e565b8a8a604051602401616020959493929190619ebc565b60408051601f198184030181529181526020820180516001600160e01b03166001600160e01b031990941693909317909252905161605e9190618ccd565b600060405180830381855af49150503d8060008114616099576040519150601f19603f3d011682016040523d82523d6000602084013e61609e565b606091505b50915091506160e382826040518060400160405280601481526020017f777269746541636b6e6f776c656467656d656e74000000000000000000000000815250616efc565b7f778788131273c1769406f3b42a241a266d9c5c1ca39b2b33a3b1a8efb1080bc587878760405161611693929190619b92565b60405180910390a150505050505050565b8151602081840181018051601282529282019185019190912091905280548290811061615257600080fd5b6000918252602090912001546001600160401b0380821693506801000000000000000090910416905082565b60606000807f00000000000000000000000000000000000000000000000000000000000000006001600160a01b031663d5a2448160e01b856040516024016161c69190619f05565b60408051601f198184030181529181526020820180516001600160e01b03166001600160e01b03199094169390931790925290516162049190618ccd565b600060405180830381855af49150503d806000811461623f576040519150601f19603f3d011682016040523d82523d6000602084013e616244565b606091505b509150915061628982826040518060400160405280600c81526020017f637265617465436c69656e740000000000000000000000000000000000000000815250616efc565b8080602001905181019061629d9190619017565b92507f99c72989fdc811e2ff3a5265b08f636a887faf5cbc61a014d2ac521a77421e8a836162cb8680618e6a565b604051610db793929190619f7b565b60606000600d86866040516162f0929190619482565b9081526020016040518091039020848460405161630e929190619482565b908152604051908190036020019020546001600160401b039081169150600090829081111561633f5761633f617c2e565b604051908082528060200260200182016040528015616368578160200160208202803683370190505b5090506000805b836001600160401b0316816001600160401b03161015616466576040517f23402a3300000000000000000000000000000000000000000000000000000000815260009030906323402a33906163d0908d908d908d908d908990600401619f8e565b6040805180830381865afa1580156163ec573d6000803e3d6000fd5b505050506040513d601f19601f820116820180604052508101906164109190619fd1565b9150508084836001600160401b03168151811061642f5761642f6194c6565b91151560209283029190910190910152801561645357616450600184619ff4565b92505b508061645e81619a5f565b91505061636f565b506000816001600160401b0381111561648157616481617c2e565b6040519080825280602002602001820160405280156164aa578160200160208202803683370190505b5090506000805b856001600160401b0316816001600160401b031610156165445784816001600160401b0316815181106164e6576164e66194c6565b602002602001015115616532578083836164ff816194f2565b945081518110616511576165116194c6565b60200260200101906001600160401b031690816001600160401b0316815250505b8061653c81619a5f565b9150506164b1565b50909998505050505050505050565b60007f00000000000000000000000000000000000000000000000000000000000000006001600160a01b031663da6cea5560e01b83604051602401616598919061a00c565b60408051601f198184030181529181526020820180516001600160e01b03166001600160e01b03199094169390931790925290516165d69190618ccd565b600060405180830381855af49150503d8060008114616611576040519150601f19603f3d011682016040523d82523d6000602084013e616616565b606091505b5050905061666981604051806020016040528060008152506040518060400160405280600c81526020017f757064617465436c69656e740000000000000000000000000000000000000000815250616efc565b7f8322bb4cdc3e8461799fe6dd6f266b50ccf3d16c0107279bf849d571cd0a41c06166948380618e6a565b6166a16020860186618e6a565b6040516166b1949392919061945b565b60405180910390a15050565b6166ef6040518060a0016040528060608152602001606081526020016060815260200160608152602001606081525090565b6000807f00000000000000000000000000000000000000000000000000000000000000006001600160a01b031663dd3469fc60e01b85604051602401616735919061a10d565b60408051601f198184030181529181526020820180516001600160e01b03166001600160e01b03199094169390931790925290516167739190618ccd565b600060405180830381855af49150503d80600081146167ae576040519150601f19603f3d011682016040523d82523d6000602084013e6167b3565b606091505b50915091506167f882826040518060400160405280600f81526020017f6368616e6e656c4f70656e496e69740000000000000000000000000000000000815250616efc565b8080602001905181019061680c919061922a565b604081015190935060006168236114b78780618e6a565b90506001600160a01b0381166344dd9638616841602089018961a158565b61685290604081019060200161a16e565b61685f60208a018a61a158565b61686d90606081019061a18b565b6168778b80618e6a565b8861688560208f018f61a158565b61689390604081019061a1d4565b8e80602001906168a3919061a158565b6168b1906080810190618e6a565b6040518a63ffffffff1660e01b81526004016168d59998979695949392919061a1ea565b600060405180830381600087803b1580156168ef57600080fd5b505af1158015616903573d6000803e3d6000fd5b5061695c9250616956915061691a90508880618e6a565b8080601f016020809104026020016040519081016040528093929190818152602001838380828437600092019190915250879250612d57915050565b826175a1565b61697261696c61691a8880618e6a565b336175a1565b7f9ddcc8c582e3bc79ee7442846c4fc363193ebd8c95f963eb9cbf80b4ef52480a856000015186604001518760200151886060015189608001516040516169bd959493929190619362565b60405180910390a150505050919050565b815160208184018101805160118252928201918501919091209190528054829081106169f957600080fd5b6000918252602090912001546001600160a01b03169150829050565b616a406040518060800160405280606081526020016060815260200160608152602001606081525090565b6000807f00000000000000000000000000000000000000000000000000000000000000006001600160a01b031663de31034160e01b85604051602401616a86919061a2b9565b60408051601f198184030181529181526020820180516001600160e01b03166001600160e01b0319909416939093179092529051616ac49190618ccd565b600060405180830381855af49150503d8060008114616aff576040519150601f19603f3d011682016040523d82523d6000602084013e616b04565b606091505b5091509150616b4982826040518060400160405280601181526020017f636f6e6e656374696f6e4f70656e547279000000000000000000000000000000815250616efc565b80806020019051810190616b5d9190618d2e565b92507f6076804265ce6ac0b356acca212c481b0b863754a046d4d9844d3692543f0b958360000151846020015185604001518660600151604051610db79493929190618e06565b616bd66040518060a0016040528060608152602001606081526020016060815260200160608152602001606081525090565b6000807f00000000000000000000000000000000000000000000000000000000000000006001600160a01b031663ec6260a960e01b85604051602401616c1c919061a43a565b60408051601f198184030181529181526020820180516001600160e01b03166001600160e01b0319909416939093179092529051616c5a9190618ccd565b600060405180830381855af49150503d8060008114616c95576040519150601f19603f3d011682016040523d82523d6000602084013e616c9a565b606091505b5091509150616cdf82826040518060400160405280600e81526020017f6368616e6e656c4f70656e547279000000000000000000000000000000000000815250616efc565b80806020019051810190616cf3919061922a565b6040810151909350915060009050616d0e6114b78580618e6a565b90506001600160a01b03811663981389f2616d2c604087018761a158565b616d3d90604081019060200161a16e565b616d4a604088018861a158565b616d5890606081019061a18b565b616d628980618e6a565b88616d7060408d018d61a158565b616d7e90604081019061a1d4565b616d8b60408e018e61a158565b616d99906080810190618e6a565b8e8060600190616da99190618e6a565b6040518c63ffffffff1660e01b8152600401616dcf9b9a9998979695949392919061a4ad565b600060405180830381600087803b158015616de957600080fd5b505af1158015616dfd573d6000803e3d6000fd5b50616e149250616956915061691a90508680618e6a565b616e2461696c61691a8680618e6a565b7f0553a407d392b80f3b238a973d79e5085b9f98b08c089f184cf15fd0919be51783600001518460400151856020015186606001518760800151604051610db7959493929190619362565b616e77616f74565b6001600160a01b038116616ef35760405162461bcd60e51b815260206004820152602660248201527f4f776e61626c653a206e6577206f776e657220697320746865207a65726f206160448201527f64647265737300000000000000000000000000000000000000000000000000006064820152608401612e9e565b61183081617542565b82610ece578151600003616f415780604051602001616f1b919061a547565b60408051601f198184030181529082905262461bcd60e51b8252612e9e916004016180c9565b60048201915081806020019051810190616f5b9190619017565b60405162461bcd60e51b8152600401612e9e91906180c9565b6015546001600160a01b03163314614ce75760405162461bcd60e51b815260206004820181905260248201527f4f776e61626c653a2063616c6c6572206973206e6f7420746865206f776e65726044820152606401612e9e565b8160028110801590616fe1575060808111155b61702d5760405162461bcd60e51b815260206004820152601660248201527f696e76616c696420706f7274206964206c656e677468000000000000000000006044820152606401612e9e565b610eb561706f85858080601f0160208091040260200160405190810160405280939291908181526020018383808284376000920191909152506115c192505050565b836175a1565b60007f00000000000000000000000000000000000000000000000000000000000000006001600160a01b03166318c1987060e01b8585856040516024016170be9392919061a588565b60408051601f198184030181529181526020820180516001600160e01b03166001600160e01b03199094169390931790925290516170fc9190618ccd565b600060405180830381855af49150503d8060008114617137576040519150601f19603f3d011682016040523d82523d6000602084013e61713c565b606091505b50509050610eb581604051806020016040528060008152506040518060400160405280600e81526020017f7265676973746572436c69656e74000000000000000000000000000000000000815250616efc565b606083836171a5846001600160401b03166176a1565b6040516020016171b79392919061a5b5565b60405160208183030381529060405290509392505050565b60008060006171e66171e18686612d57565b617741565b915091508084866040516020016171fe92919061a650565b6040516020818303038152906040529061722b5760405162461bcd60e51b8152600401612e9e91906180c9565b508160008154811061723f5761723f6194c6565b6000918252602090912001546001600160a01b031695945050505050565b600080600061726e6171e1856115c1565b915091508084604051602001617284919061a6d1565b604051602081830303815290604052906172b15760405162461bcd60e51b8152600401612e9e91906180c9565b50816000815481106172c5576172c56194c6565b6000918252602090912001546001600160a01b0316949350505050565b600080600a836040516172f59190618ccd565b908152604051908190036020019020546001600160a01b031690508061731a57600080fd5b92915050565b600033815b6011846040516173359190618ccd565b9081526040519081900360200190205463ffffffff821610156173c757816001600160a01b031660118560405161736c9190618ccd565b90815260200160405180910390208263ffffffff1681548110617391576173916194c6565b6000918252602090912001546001600160a01b0316036173b5575060019392505050565b806173bf8161a716565b915050617325565b5060009392505050565b805151825151600091148015617412575081516020015160028111156173f9576173f9618234565b835160200151600281111561741057617410618234565b145b80156174365750815160409081015180516020918201208551909201518051910120145b801561745857506020828101515190840151516001600160401b039081169116145b801561747f575060208281015181015184820151909101516001600160401b039081169116145b80156174a157506040828101515190840151516001600160401b039081169116145b80156174c957506040828101516020908101519185015101516001600160401b039081169116145b80156174eb57506060828101515190840151516001600160401b039081169116145b801561751357506060828101516020908101519185015101516001600160401b039081169116145b9392505050565b60608383617530846001600160401b03166176a1565b6040516020016171b79392919061a72f565b601580546001600160a01b0383811673ffffffffffffffffffffffffffffffffffffffff19831681179093556040519116919082907f8be0079c531659141344cd1fd0a4f28419497f9722a3daafe3b4186f6b6457e090600090a35050565b60005b6011836040516175b49190618ccd565b9081526040519081900360200190205463ffffffff8216101561764157816001600160a01b03166011846040516175eb9190618ccd565b90815260200160405180910390208263ffffffff1681548110617610576176106194c6565b6000918252602090912001546001600160a01b03160361762f57600080fd5b806176398161a716565b9150506175a4565b506011826040516176529190618ccd565b908152604051602091819003820190208054600181018255600091825291902001805473ffffffffffffffffffffffffffffffffffffffff19166001600160a01b039290921691909117905550565b606060006176ae8361778f565b60010190506000816001600160401b038111156176cd576176cd617c2e565b6040519080825280601f01601f1916602001820160405280156176f7576020820181803683370190505b5090508181016020015b600019017f3031323334353637383961626364656600000000000000000000000000000000600a86061a8153600a8504945084617701575b509392505050565b6000806011836040516177549190618ccd565b908152602001604051809103902060006011856040516177749190618ccd565b90815260405190819003602001902054919591119350915050565b6000807a184f03e93ff9f4daa797ed6e38ed64bf6a1f01000000000000000083106177d8577a184f03e93ff9f4daa797ed6e38ed64bf6a1f010000000000000000830492506040015b6d04ee2d6d415b85acef81000000008310617804576d04ee2d6d415b85acef8100000000830492506020015b662386f26fc10000831061782257662386f26fc10000830492506010015b6305f5e100831061783a576305f5e100830492506008015b612710831061784e57612710830492506004015b60648310617860576064830492506002015b600a831061731a5760010192915050565b82805461787d90619492565b90600052602060002090601f01602090048101928261789f57600085556178e5565b82601f106178b85782800160ff198235161785556178e5565b828001600101855582156178e5579182015b828111156178e55782358255916020019190600101906178ca565b506178f1929150617ace565b5090565b6040805160a081018252606080825260208201529081016000815260200161791b617ae3565b8152600060209091015290565b6040518060400160405280606081526020016179426178f5565b905290565b6040805160a0810190915280600081526020016000815260200161797e604051806040016040528060608152602001606081525090565b815260200160608152602001606081525090565b6040805160e081019091528060008152602001600081526020016179c9604051806040016040528060608152602001606081525090565b8152602001606081526020016060815260200160608152602001606081525090565b8280546179f790619492565b90600052602060002090601f016020900481019282617a1957600085556178e5565b82601f10617a2a57805485556178e5565b828001600101855582156178e557600052602060002091601f016020900482015b828111156178e5578254825591600101919060010190617a4b565b6001830191839082156178e55791600301600490048201828111156178e5578254825591600101919060010190617a4b565b508054617aa490619492565b6000825580601f10617ab4575050565b601f01602090049060005260206000209081019061183091905b5b808211156178f15760008155600101617acf565b604051806060016040528060608152602001606081526020016179426040518060200160405280606081525090565b6000606082840312156123e557600080fd5b600060208284031215617b3657600080fd5b81356001600160401b03811115617b4c57600080fd5b61431084828501617b12565b60005b83811015617b73578181015183820152602001617b5b565b83811115610eb55750506000910152565b60008151808452617b9c816020860160208601617b58565b601f01601f19169290920160200192915050565b602081526000825160806020840152617bcc60a0840182617b84565b90506020840151601f1980858403016040860152617bea8383617b84565b92506040860151915080858403016060860152617c078383617b84565b9250606086015191508085840301608086015250617c258282617b84565b95945050505050565b634e487b7160e01b600052604160045260246000fd5b604051608081016001600160401b0381118282101715617c6657617c66617c2e565b60405290565b60405160a081016001600160401b0381118282101715617c6657617c66617c2e565b604051606081016001600160401b0381118282101715617c6657617c66617c2e565b604051601f8201601f191681016001600160401b0381118282101715617cd857617cd8617c2e565b604052919050565b60006001600160401b03821115617cf957617cf9617c2e565b50601f01601f191660200190565b600082601f830112617d1857600080fd5b8135617d2b617d2682617ce0565b617cb0565b818152846020838601011115617d4057600080fd5b816020850160208301376000918101602001919091529392505050565b600060208284031215617d6f57600080fd5b81356001600160401b03811115617d8557600080fd5b61431084828501617d07565b602080825282518282018190526000919060409081850190868401855b82811015617de757617dd784835180516001600160401b03908116835260209182015116910152565b9284019290850190600101617dae565b5091979650505050505050565b60008083601f840112617e0657600080fd5b5081356001600160401b03811115617e1d57600080fd5b602083019150836020828501011115611d1357600080fd5b6001600160a01b038116811461183057600080fd5b600080600060408486031215617e5f57600080fd5b83356001600160401b03811115617e7557600080fd5b617e8186828701617df4565b9094509250506020840135617e9581617e35565b809150509250925092565b60008060408385031215617eb357600080fd5b82356001600160401b0380821115617eca57600080fd5b617ed686838701617d07565b93506020850135915080821115617eec57600080fd5b50617ef985828601617d07565b9150509250929050565b6001600160401b038116811461183057600080fd5b8035617f2381617f03565b919050565b600080600080600060608688031215617f4057600080fd5b85356001600160401b0380821115617f5757600080fd5b617f6389838a01617df4565b90975095506020880135915080821115617f7c57600080fd5b50617f8988828901617df4565b9094509250506040860135617f9d81617f03565b809150509295509295909350565b6000608082840312156123e557600080fd5b600060208284031215617fcf57600080fd5b81356001600160401b03811115617fe557600080fd5b61431084828501617fab565b600060e082840312156123e557600080fd5b60006020828403121561801557600080fd5b81356001600160401b0381111561802b57600080fd5b61431084828501617ff1565b602081526000825160a0602084015261805360c0840182617b84565b90506020840151601f19808584030160408601526180718383617b84565b9250604086015191508085840301606086015261808e8383617b84565b925060608601519150808584030160808601526180ab8383617b84565b925060808601519150808584030160a086015250617c258282617b84565b6020815260006175136020830184617b84565b600060a082840312156123e557600080fd5b60006020828403121561810057600080fd5b81356001600160401b0381111561811657600080fd5b614310848285016180dc565b60008060006060848603121561813757600080fd5b83356001600160401b038082111561814e57600080fd5b61815a87838801617d07565b9450602086013591508082111561817057600080fd5b5061817d86828701617d07565b9250506040840135617e9581617f03565b6000602082840312156181a057600080fd5b813561751381617f03565b600080602083850312156181be57600080fd5b82356001600160401b038111156181d457600080fd5b6181e085828601617df4565b90969095509350505050565b600081518084526020808501808196508360051b8101915082860160005b85811015617de7578284038952618222848351617b84565b9885019893509084019060010161820a565b634e487b7160e01b600052602160045260246000fd5b6004811061825a5761825a618234565b9052565b60008151606084526182736060850182617b84565b90506020830151848203602086015261828c8282617b84565b915050604083015184820360408601528051905060208252617c256020830182617b84565b6000815160a084526182c660a0850182617b84565b9050602080840151858303828701528281518085528385019150838160051b860101848401935060005b8281101561834457601f1987830301845284516040815181855261831682860182617b84565b9150508782015191508381038885015261833081836181ec565b9688019695880195935050506001016182f0565b506040880151955061835960408a018761824a565b6060880151955088810360608a0152618372818761825e565b95505050505050608083015161773960808601826001600160401b03169052565b6040815260006183a660408301856182b1565b905082151560208301529392505050565b600080604083850312156183ca57600080fd5b82356001600160401b038111156183e057600080fd5b6183ec85828601617d07565b95602094909401359450505050565b60006020808301818452808551808352604092508286019150828160051b87010184880160005b8381101561847257888303603f190185528151805187855261844688860182617b84565b91890151858303868b015291905061845e81836182b1565b968901969450505090860190600101618422565b509098975050505050505050565b6000806000806040858703121561849657600080fd5b84356001600160401b03808211156184ad57600080fd5b6184b988838901617df4565b909650945060208701359150808211156184d257600080fd5b506184df87828801617df4565b95989497509550505050565b6005811061825a5761825a618234565b6003811061183057611830618234565b60008151604084526185206040850182617b84565b905060208301518482036020860152617c258282617b84565b6040815261854b6040820184516184eb565b6000602084015161855b816184fb565b6060830152604084015160a0608084015261857960e084018261850b565b90506060850151603f19808584030160a086015261859783836181ec565b925060808701519150808584030160c0860152506185b58282617b84565b9250505082151560208301529392505050565b6080815260006185db6080830187617b84565b6185e8602084018761824a565b82810360408401526185fa818661825e565b9150506001600160401b038316606083015295945050505050565b60608101618639828580516001600160401b03908116835260209182015116910152565b82151560408301529392505050565b8060005b6002811015610eb55781516001600160401b031684526020938401939091019060010161864c565b60006020808301818452808551808352604092508286019150828160051b87010184880160005b8381101561847257888303603f190185528151805160e080865281519086015288810151906186c9826184fb565b610100860191909152870151606061012086018190526186ed610140870183617b84565b9150898301516186ff8b880182618648565b508883015161871082880182618648565b5091909101519061872460a0860183618648565b958801959350509086019060010161869b565b60006020828403121561874957600080fd5b5035919050565b600061012082840312156123e557600080fd5b60006020828403121561877557600080fd5b81356001600160401b0381111561878b57600080fd5b61431084828501618750565b60006020808301818452808551808352604092508286019150828160051b87010184880160005b8381101561847257603f19898403018552815160e06187de8583516184eb565b888201516187eb816184fb565b858a0152818801518886018290526188058287018261850b565b9150506060808301518683038288015261881f83826181ec565b925050506080808301518683038288015261883a8382617b84565b9250505060a080830151868303828801526188558382617b84565b9250505060c080830151925085820381870152506188738183617b84565b9689019694505050908601906001016187be565b6040815260006183a66040830185617b84565b6188a481866184eb565b6188ad846184fb565b8360208201526080604082015260006188c9608083018561850b565b82810360608401526188db8185617b84565b979650505050505050565b6000604082840312156123e557600080fd5b60008060006060848603121561890d57600080fd5b83356001600160401b0381111561892357600080fd5b61892f86828701617df4565b9094509250618943905085602086016188e6565b90509250925092565b6000602080830181845280855180835260408601915060408160051b870101925083870160005b828110156189a157603f1988860301845261898f858351617b84565b94509285019290850190600101618973565b5092979650505050505050565b60208152600061751360208301846181ec565b6000602082840312156189d357600080fd5b81356001600160401b038111156189e957600080fd5b614310848285016188e6565b600060208284031215618a0757600080fd5b81356001600160401b03811115618a1d57600080fd5b8201610160818503121561751357600080fd5b600080600060408486031215618a4557600080fd5b83356001600160401b0380821115618a5c57600080fd5b618a6887838801618750565b94506020860135915080821115618a7e57600080fd5b50618a8b86828701617df4565b9497909650939450505050565b6020808252825182820181905260009190848201906040850190845b81811015618ad95783516001600160401b031683529284019291840191600101618ab4565b50909695505050505050565b600060208284031215618af757600080fd5b81356001600160401b03811115618b0d57600080fd5b82016101a0818503121561751357600080fd5b600060208284031215618b3257600080fd5b813561751381617e35565b6000808335601e19843603018112618b5457600080fd5b83016020810192503590506001600160401b03811115618b7357600080fd5b803603831315611d1357600080fd5b81835281816020850137506000828201602090810191909152601f909101601f19169091010190565b60008235605e19833603018112618bc157600080fd5b90910192915050565b6000618bd68283618b3d565b60608552618be8606086018284618b82565b915050618bf86020840184618b3d565b8583036020870152618c0b838284618b82565b925050506040830135601e19843603018112618c2657600080fd5b84820360408601528301618c3a8180618b3d565b915060208352618c4e602084018383618b82565b9695505050505050565b602081526000618c688384618b3d565b60606020850152618c7d608085018284618b82565b915050618c8d6020850185618bab565b838203601f19016040850152618ca38282618bca565b9150506040840135618cb481617f03565b6001600160401b03166060939093019290925250919050565b60008251618cdf818460208701617b58565b9190910192915050565b600082601f830112618cfa57600080fd5b8151618d08617d2682617ce0565b818152846020838601011115618d1d57600080fd5b614310826020830160208701617b58565b600060208284031215618d4057600080fd5b81516001600160401b0380821115618d5757600080fd5b9083019060808286031215618d6b57600080fd5b618d73617c44565b825182811115618d8257600080fd5b618d8e87828601618ce9565b825250602083015182811115618da357600080fd5b618daf87828601618ce9565b602083015250604083015182811115618dc757600080fd5b618dd387828601618ce9565b604083015250606083015182811115618deb57600080fd5b618df787828601618ce9565b60608301525095945050505050565b608081526000618e196080830187617b84565b8281036020840152618e2b8187617b84565b90508281036040840152618e3f8186617b84565b905082810360608401526188db8185617b84565b6000823561011e19833603018112618cdf57600080fd5b6000808335601e19843603018112618e8157600080fd5b8301803591506001600160401b03821115618e9b57600080fd5b602001915036819003821315611d1357600080fd5b8035618ebb81617f03565b6001600160401b039081168352602082013590618ed782617f03565b808216602085015250505050565b6000610120618f0484618ef785617f18565b6001600160401b03169052565b618f116020840184618b3d565b826020870152618f248387018284618b82565b92505050618f356040840184618b3d565b8583036040870152618f48838284618b82565b92505050618f596060840184618b3d565b8583036060870152618f6c838284618b82565b92505050618f7d6080840184618b3d565b8583036080870152618f90838284618b82565b92505050618fa160a0840184618b3d565b85830360a0870152618fb4838284618b82565b92505050618fc860c0850160c08501618eb0565b610100618fd6818501617f18565b6001600160401b03169401939093525090919050565b604081526000618fff6040830185618ee5565b90506001600160a01b03831660208301529392505050565b60006020828403121561902957600080fd5b81516001600160401b0381111561903f57600080fd5b61431084828501618ce9565b6000823561011e19833603018112618bc157600080fd5b602081526000619072838461904b565b6080602084015261908660a0840182618ee5565b90506190956020850185618b3d565b848303601f190160408601526190ac838284618b82565b925050506175136060840160408601618eb0565b6080815260006190d460808301888a618b82565b82810360208401526190e7818789618b82565b90506001600160401b0385166040840152828103606084015261910a8185617b84565b9998505050505050505050565b60408152600061912a6040830185618ee5565b8281036020840152617c258185617b84565b6020815260006175136020830184618ee5565b60208152600061915f8384618b3d565b60e0602085015261917561010085018284618b82565b9150506191856020850185618b3d565b601f198086850301604087015261919d848385618b82565b93506191ac6040880188618b3d565b93509150808685030160608701526191c5848484618b82565b93506191d46060880188618b3d565b93509150808685030160808701526191ed848484618b82565b93506191fc6080880188618b3d565b93509150808685030160a087015250619216838383618b82565b9250505061751360c0840160a08601618eb0565b60006020828403121561923c57600080fd5b81516001600160401b038082111561925357600080fd5b9083019060a0828603121561926757600080fd5b61926f617c6c565b82518281111561927e57600080fd5b61928a87828601618ce9565b82525060208301518281111561929f57600080fd5b6192ab87828601618ce9565b6020830152506040830151828111156192c357600080fd5b6192cf87828601618ce9565b6040830152506060830151828111156192e757600080fd5b6192f387828601618ce9565b60608301525060808301518281111561930b57600080fd5b61931787828601618ce9565b60808301525095945050505050565b60608152600061933a60608301888a618b82565b828103602084015261934d818789618b82565b9050828103604084015261910a818587618b82565b60a08152600061937560a0830188617b84565b82810360208401526193878188617b84565b9050828103604084015261939b8187617b84565b905082810360608401526193af8186617b84565b905082810360808401526193c38185617b84565b98975050505050505050565b60006193db8283618b3d565b60a085526193ed60a086018284618b82565b9150506193fd6020840184618b3d565b8583036020870152619410838284618b82565b925050506194216040840184618b3d565b8583036040870152619434838284618b82565b925050506175136060850160608501618eb0565b60208152600061751360208301846193cf565b60408152600061946f604083018688618b82565b82810360208401526188db818587618b82565b8183823760009101908152919050565b600181811c908216806194a657607f821691505b6020821081036123e557634e487b7160e01b600052602260045260246000fd5b634e487b7160e01b600052603260045260246000fd5b634e487b7160e01b600052601160045260246000fd5b600060018201619504576195046194dc565b5060010190565b602081526000614310602083018486618b82565b80518015158114617f2357600080fd5b600080828403606081121561954357600080fd5b604081121561955157600080fd5b50604051604081018181106001600160401b038211171561957457619574617c2e565b604052835161958281617f03565b8152602084015161959281617f03565b602082015291506195a56040840161951f565b90509250929050565b600083516195c0818460208801617b58565b7f2f0000000000000000000000000000000000000000000000000000000000000090830190815283516195fa816001840160208801617b58565b01600101949350505050565b6003811061183057600080fd5b600082601f83011261962457600080fd5b604051604081018181106001600160401b038211171561964657619646617c2e565b806040525080604084018581111561965d57600080fd5b845b8181101561968057803561967281617f03565b83526020928301920161965f565b509195945050505050565b600060e0823603121561969d57600080fd5b6196a5617c44565b82356001600160401b03808211156196bc57600080fd5b8185019150606082360312156196d157600080fd5b6196d9617c8e565b8235815260208301356196eb81619606565b602082015260408301358281111561970257600080fd5b61970e36828601617d07565b60408301525083525061972690503660208501619613565b60208201526197383660608501619613565b604082015261974a3660a08501619613565b606082015292915050565b601f821115610ece57600081815260208120601f850160051c8101602086101561977c5750805b601f850160051c820191505b8181101561979b57828155600101619788565b505050505050565b6001600160401b038311156197ba576197ba617c2e565b6197ce836197c88354619492565b83619755565b6000601f84116001811461980257600085156197ea5750838201355b600019600387901b1c1916600186901b17835561985c565b600083815260209020601f19861690835b828110156198335786850135825560209485019460019092019101619813565b50868210156198505760001960f88860031b161c19848701351681555b505060018560011b0183555b5050505050565b81816000805b600281101561979b57833561987d81617f03565b83546001600160401b03600385901b81811b801990931693909116901b161783556020939093019260089091019060188211156198bf57600091506001830192505b600101619869565b8135605e198336030181126198db57600080fd5b8201803582556001820160208201356198f381619606565b6198fc816184fb565b60ff1982541660ff8216811783555050506040810135601e1982360301811261992457600080fd5b0180356001600160401b0381111561993b57600080fd5b60208201915080360382131561995057600080fd5b61995e8183600286016197a3565b50506199706020830160038301619863565b6199806060830160048301619863565b61999060a0830160058301619863565b5050565b8060005b6002811015610eb55781356199ac81617f03565b6001600160401b031684526020938401939190910190600101619998565b6020815260006199da8384618bab565b60e06020840152803561010084015260208101356199f781619606565b619a00816184fb565b610120840152619a136040820182618b3d565b91506060610140850152619a2c61016085018383618b82565b915050619a3f6040840160208601619994565b619a4f6080840160608601619994565b61751360c0840160a08601619994565b60006001600160401b03808316818103619a7b57619a7b6194dc565b6001019392505050565b60008060408385031215619a9857600080fd5b82516001600160401b03811115619aae57600080fd5b619aba85828601618ce9565b9250506195a56020840161951f565b606081526000619adc6060830187618ee5565b8281036020840152619aef818688618b82565b9150506001600160a01b038316604083015295945050505050565b602081526000619b1a838461904b565b60a06020840152619b2e60c0840182618ee5565b9050619b3d6020850185618b3d565b601f1980868503016040870152619b55848385618b82565b9350619b646040880188618b3d565b935091508086850301606087015250619b7e838383618b82565b925050506175136080840160608601618eb0565b604081526000619ba56040830186618ee5565b8281036020840152618c4e818587618b82565b602081526000619bc88384618b3d565b60806020850152619bdd60a085018284618b82565b9150506190956020850185618b3d565b606081526000619c01606083018587618b82565b90506143106020830184618eb0565b6000619c1c8283618b3d565b60408552619c2e604086018284618b82565b915050619c3e6020840184618b3d565b8583036020870152618c4e838284618b82565b6020815260006175136020830184619c10565b60008235603e19833603018112618bc157600080fd5b6000808335601e19843603018112619c9157600080fd5b83016020810192503590506001600160401b03811115619cb057600080fd5b8060051b3603831315611d1357600080fd5b81835260006020808501808196508560051b810191508460005b87811015617de7578284038952619cf38288618b3d565b619cfe868284618b82565b9a87019a9550505090840190600101619cdc565b6000619d1e8283618b3d565b60408552619d30604086018284618b82565b915050619d406020840184619c7a565b8583036020870152618c4e838284619cc2565b602081526000619d638384618b3d565b6101606020850152619d7a61018085018284618b82565b915050619d8a6020850185618b3d565b601f1980868503016040870152619da2848385618b82565b9350619db16040880188619c64565b925080868503016060870152619dc78484619d12565b9350619dd66060880188618b3d565b9350915080868503016080870152619def848484618b82565b9350619dfe6080880188618b3d565b93509150808685030160a0870152619e17848484618b82565b9350619e2660a0880188618b3d565b93509150808685030160c0870152619e3f848484618b82565b9350619e4e60c0880188618b3d565b93509150808685030160e087015250619e68838383618b82565b92505050619e7d610100840160e08601618eb0565b61751361014084016101208601618eb0565b600082821015619ea157619ea16194dc565b500390565b634e487b7160e01b600052603160045260246000fd5b608081526000619ecf6080830188617b84565b8281036020840152619ee18188617b84565b90506001600160401b038616604084015282810360608401526193c3818587618b82565b602081526000619f158384618b3d565b60606020850152619f2a608085018284618b82565b915050619f3a6020850185618b3d565b601f1980868503016040870152619f52848385618b82565b9350619f616040880188618b3d565b935091508086850301606087015250618c4e838383618b82565b604081526000619ba56040830186617b84565b606081526000619fa2606083018789618b82565b8281036020840152619fb5818688618b82565b9150506001600160401b03831660408301529695505050505050565b60008060408385031215619fe457600080fd5b825191506195a56020840161951f565b6000821982111561a0075761a0076194dc565b500190565b60208152600061a01c8384618b3d565b6040602085015261a031606085018284618b82565b91505061a0416020850185618b3d565b848303601f19016040860152618c4e838284618b82565b60008235609e19833603018112618bc157600080fd5b600081356005811061a07f57600080fd5b61a08984826184eb565b50602082013561a09881619606565b61a0a1816184fb565b602084015261a0b36040830183619c64565b60a0604085015261a0c760a0850182619c10565b905061a0d66060840184619c7a565b858303606087015261a0e9838284619cc2565b9250505061a0fa6080840184618b3d565b8583036080870152618c4e838284618b82565b60208152600061a11d8384618b3d565b6040602085015261a132606085018284618b82565b91505061a142602085018561a058565b838203601f19016040850152617c25828261a06e565b60008235609e19833603018112618cdf57600080fd5b60006020828403121561a18057600080fd5b813561751381619606565b6000808335601e1984360301811261a1a257600080fd5b8301803591506001600160401b0382111561a1bc57600080fd5b6020019150600581901b3603821315611d1357600080fd5b60008235603e19833603018112618cdf57600080fd5b61a1f38a6184fb565b89815260c06020820152600061a20d60c083018a8c619cc2565b828103604084015261a22081898b618b82565b9050828103606084015261a2348188617b84565b9050828103608084015261a2488187619c10565b905082810360a084015261a25d818587618b82565b9c9b505050505050505050505050565b81835260006020808501808196508560051b810191508460005b87811015617de757828403895261a2a78461a2a2848a619c64565b619d12565b9885019893509084019060010161a287565b60208152600061a2c98384618b3d565b6101a0602085015261a2e06101c085018284618b82565b91505061a2f06020850185618bab565b601f198085840301604086015261a3078383618bca565b925061a31560408701617f18565b6001600160401b0381166060870152915061a3336060870187618b3d565b92508186850301608087015261a34a848483618b82565b93505061a35a6080870187618b3d565b9250818685030160a087015261a371848483618b82565b93505061a38160a0870187619c7a565b9250818685030160c087015261a39884848361a26d565b93505061a3a860c0870187618b3d565b9250818685030160e087015261a3bf848483618b82565b93505061a3cf60e0870187618b3d565b925061010082878603018188015261a3e8858584618b82565b945061a3f681890189618b3d565b945091505061012082878603018188015261a412858584618b82565b945061a4246101408801828a01618eb0565b5050505061751361018084016101608601618eb0565b60208152600061a44a8384618b3d565b60e0602085015261a46061010085018284618b82565b91505061a4706020850185618b3d565b601f198086850301604087015261a488848385618b82565b935061a497604088018861a058565b9250808685030160608701526191c5848461a06e565b61a4b68c6184fb565b8b815260e06020820152600061a4d060e083018c8e619cc2565b828103604084015261a4e3818b8d618b82565b9050828103606084015261a4f7818a617b84565b9050828103608084015261a50b8189619c10565b905082810360a084015261a520818789618b82565b905082810360c084015261a535818587618b82565b9e9d5050505050505050505050505050565b6000825161a559818460208701617b58565b7f2064656c656761746563616c6c206572726f7200000000000000000000000000920191825250601301919050565b60408152600061a59c604083018587618b82565b90506001600160a01b0383166020830152949350505050565b7f636f6d6d69746d656e74732f706f7274732f000000000000000000000000000081526000845161a5ed816012850160208901617b58565b692f6368616e6e656c732f60b01b601291840191820152845161a61781601c840160208901617b58565b6a2f73657175656e6365732f60a81b601c9290910191820152835161a643816027840160208801617b58565b0160270195945050505050565b7f6e6f206d6f64756c652066696e6420756e646572206368616e6e656c2000000081526000835161a68881601d850160208801617b58565b7f20616e6420706f72742000000000000000000000000000000000000000000000601d91840191820152835161a6c5816027840160208801617b58565b01602701949350505050565b7f6e6f206d6f64756c652066696e6420756e64657220706f72742000000000000081526000825161a70981601a850160208701617b58565b91909101601a0192915050565b600063ffffffff808316818103619a7b57619a7b6194dc565b7f61636b732f706f7274732f00000000000000000000000000000000000000000081526000845161a76781600b850160208901617b58565b692f6368616e6e656c732f60b01b600b91840191820152845161a791816015840160208901617b58565b8082019150506a2f73657175656e6365732f60a81b6015820152835161a7be816020840160208801617b58565b016020019594505050505056fea2646970667358221220f87aa22de924e0c2080efcfb36ddfa51695b33ecd3de56b1382bd40f93f8b60e64736f6c634300080d0033",
  "immutableReferences": {
    "4243": [
      {
        "length": 32,
        "start": 5008
      },
      {
        "length": 32,
        "start": 5665
      },
      {
        "length": 32,
        "start": 18442
      },
      {
        "length": 32,
        "start": 22269
      },
      {
        "length": 32,
        "start": 26356
      },
      {
        "length": 32,
        "start": 27611
      }
    ],
    "4841": [
      {
        "length": 32,
        "start": 24965
      },
      {
        "length": 32,
        "start": 25943
      },
      {
        "length": 32,
        "start": 28793
      }
    ],
    "4992": [
      {
        "length": 32,
        "start": 3160
      },
      {
        "length": 32,
        "start": 19103
      },
      {
        "length": 32,
        "start": 22848
      },
      {
        "length": 32,
        "start": 27205
      }
    ],
    "5542": [
      {
        "length": 32,
        "start": 4262
      },
      {
        "length": 32,
        "start": 4539
      },
      {
        "length": 32,
        "start": 11948
      },
      {
        "length": 32,
        "start": 17411
      },
      {
        "length": 32,
        "start": 24531
      }
    ]
  },
  "source": "// SPDX-License-Identifier: Apache-2.0\npragma solidity ^0.8.9;\n\nimport \"@openzeppelin/contracts/access/Ownable.sol\";\nimport \"./25-handler/IBCHandler.sol\";\n\n/**\n * @dev OwnableIBCHandler is a contract that implements [ICS-25](https://github.com/cosmos/ibc/tree/main/spec/core/ics-025-handler-interface).\n */\ncontract OwnableIBCHandler is IBCHandler, Ownable {\n    /**\n     * @dev The arguments of constructor must satisfy the followings:\n     * @param ibcClient is the address of a contract that implements `IIBCClient`.\n     * @param ibcConnection is the address of a contract that implements `IIBCConnectionHandshake`.\n     * @param ibcChannel is the address of a contract that implements `IIBCChannelHandshake`.\n     * @param ibcPacket is the address of a contract that implements `IIBCPacket`.\n     */\n    constructor(address ibcClient, address ibcConnection, address ibcChannel, address ibcPacket)\n        IBCHandler(ibcClient, ibcConnection, ibcChannel, ibcPacket)\n    {}\n\n    /**\n     * @dev registerClient registers a new client type into the client registry\n     */\n    function registerClient(string calldata clientType, ILightClient client) public override onlyOwner {\n        super.registerClient(clientType, client);\n    }\n\n    /**\n     * @dev bindPort binds to an unallocated port, failing if the port has already been allocated.\n     */\n    function bindPort(string calldata portId, address moduleAddress) public override onlyOwner {\n        super.bindPort(portId, moduleAddress);\n        portIds.push(portId);\n    }\n\n    /**\n     * @dev setExpectedTimePerBlock sets expected time per block.\n     */\n    function setExpectedTimePerBlock(uint64 expectedTimePerBlock_) public override onlyOwner {\n        super.setExpectedTimePerBlock(expectedTimePerBlock_);\n    }\n}\n",
  "sourcePath": "/Users/vimchain/Cryptape/forcerelay/ibc-solidity-contract/contracts/core/OwnableIBCHandler.sol",
  "compiler": {
    "name": "solc",
    "version": "0.8.13+commit.abaa5c0e.Emscripten.clang"
  },
  "schemaVersion": "3.4.14",
  "updatedAt": "2023-07-25T09:06:54.269Z",
  "devdoc": {
    "details": "OwnableIBCHandler is a contract that implements [ICS-25](https://github.com/cosmos/ibc/tree/main/spec/core/ics-025-handler-interface).",
    "kind": "dev",
    "methods": {
      "bindPort(string,address)": {
        "details": "bindPort binds to an unallocated port, failing if the port has already been allocated."
      },
      "channelCapabilityPath(string,string)": {
        "details": "channelCapabilityPath returns the path under which module address associated with a port and channel should be stored."
      },
      "constructor": {
        "details": "The arguments of constructor must satisfy the followings:",
        "params": {
          "ibcChannel": "is the address of a contract that implements `IIBCChannelHandshake`.",
          "ibcClient": "is the address of a contract that implements `IIBCClient`.",
          "ibcConnection": "is the address of a contract that implements `IIBCConnectionHandshake`.",
          "ibcPacket": "is the address of a contract that implements `IIBCPacket`."
        }
      },
      "createClient((string,bytes,bytes))": {
        "details": "createClient creates a new client state and populates it with a given consensus state"
      },
      "owner()": {
        "details": "Returns the address of the current owner."
      },
      "portCapabilityPath(string)": {
        "details": "portCapabilityPath returns the path under which owner module address associated with a port should be stored."
      },
      "registerClient(string,address)": {
        "details": "registerClient registers a new client type into the client registry"
      },
      "renounceOwnership()": {
        "details": "Leaves the contract without owner. It will not be possible to call `onlyOwner` functions. Can only be called by the current owner. NOTE: Renouncing ownership will leave the contract without an owner, thereby disabling any functionality that is only available to the owner."
      },
      "setExpectedTimePerBlock(uint64)": {
        "details": "setExpectedTimePerBlock sets expected time per block."
      },
      "transferOwnership(address)": {
        "details": "Transfers ownership of the contract to a new account (`newOwner`). Can only be called by the current owner."
      },
      "updateClient((string,bytes))": {
        "details": "updateClient updates the consensus state and the state root from a provided header"
      }
    },
    "version": 1
  },
  "userdoc": {
    "kind": "user",
    "methods": {},
    "version": 1
  }
}