{
  "contractName": "OwnableIBCHandler",
  "abi": [
    {
      "inputs": [
        {
          "internalType": "address",
          "name": "ibcClient",
          "type": "address"
        },
        {
          "internalType": "address",
          "name": "ibcConnection",
          "type": "address"
        },
        {
          "internalType": "address",
          "name": "ibcChannel",
          "type": "address"
        },
        {
          "internalType": "address",
          "name": "ibcPacket",
          "type": "address"
        }
      ],
      "stateMutability": "nonpayable",
      "type": "constructor"
    },
    {
      "anonymous": false,
      "inputs": [
        {
          "components": [
            {
              "internalType": "uint64",
              "name": "sequence",
              "type": "uint64"
            },
            {
              "internalType": "string",
              "name": "sourcePort",
              "type": "string"
            },
            {
              "internalType": "string",
              "name": "sourceChannel",
              "type": "string"
            },
            {
              "internalType": "string",
              "name": "destinationPort",
              "type": "string"
            },
            {
              "internalType": "string",
              "name": "destinationChannel",
              "type": "string"
            },
            {
              "internalType": "bytes",
              "name": "data",
              "type": "bytes"
            },
            {
              "components": [
                {
                  "internalType": "uint64",
                  "name": "revisionNumber",
                  "type": "uint64"
                },
                {
                  "internalType": "uint64",
                  "name": "revisionHeight",
                  "type": "uint64"
                }
              ],
              "internalType": "struct Height.Data",
              "name": "timeoutHeight",
              "type": "tuple"
            },
            {
              "internalType": "uint64",
              "name": "timeoutTimestamp",
              "type": "uint64"
            }
          ],
          "indexed": false,
          "internalType": "struct Packet.Data",
          "name": "packet",
          "type": "tuple"
        },
        {
          "indexed": false,
          "internalType": "bytes",
          "name": "acknowledgement",
          "type": "bytes"
        }
      ],
      "name": "AcknowledgePacket",
      "type": "event"
    },
    {
      "anonymous": false,
      "inputs": [
        {
          "indexed": false,
          "internalType": "string",
          "name": "portId",
          "type": "string"
        },
        {
          "indexed": false,
          "internalType": "string",
          "name": "channelId",
          "type": "string"
        },
        {
          "indexed": false,
          "internalType": "string",
          "name": "connectionId",
          "type": "string"
        },
        {
          "indexed": false,
          "internalType": "string",
          "name": "counterpartyPortId",
          "type": "string"
        },
        {
          "indexed": false,
          "internalType": "string",
          "name": "counterpartyChannelId",
          "type": "string"
        }
      ],
      "name": "CloseConfirmChannel",
      "type": "event"
    },
    {
      "anonymous": false,
      "inputs": [
        {
          "indexed": false,
          "internalType": "string",
          "name": "portId",
          "type": "string"
        },
        {
          "indexed": false,
          "internalType": "string",
          "name": "channelId",
          "type": "string"
        },
        {
          "indexed": false,
          "internalType": "string",
          "name": "connectionId",
          "type": "string"
        },
        {
          "indexed": false,
          "internalType": "string",
          "name": "counterpartyPortId",
          "type": "string"
        },
        {
          "indexed": false,
          "internalType": "string",
          "name": "counterpartyChannelId",
          "type": "string"
        }
      ],
      "name": "CloseInitChannel",
      "type": "event"
    },
    {
      "anonymous": false,
      "inputs": [
        {
          "indexed": false,
          "internalType": "string",
          "name": "clientId",
          "type": "string"
        },
        {
          "indexed": false,
          "internalType": "string",
          "name": "clientType",
          "type": "string"
        }
      ],
      "name": "CreateClient",
      "type": "event"
    },
    {
      "anonymous": false,
      "inputs": [
        {
          "indexed": false,
          "internalType": "string",
          "name": "portId",
          "type": "string"
        },
        {
          "indexed": false,
          "internalType": "string",
          "name": "channelId",
          "type": "string"
        },
        {
          "indexed": false,
          "internalType": "string",
          "name": "connectionId",
          "type": "string"
        },
        {
          "indexed": false,
          "internalType": "string",
          "name": "counterpartyPortId",
          "type": "string"
        },
        {
          "indexed": false,
          "internalType": "string",
          "name": "counterpartyChannelId",
          "type": "string"
        }
      ],
      "name": "OpenAckChannel",
      "type": "event"
    },
    {
      "anonymous": false,
      "inputs": [
        {
          "indexed": false,
          "internalType": "string",
          "name": "connectionId",
          "type": "string"
        },
        {
          "indexed": false,
          "internalType": "string",
          "name": "clientId",
          "type": "string"
        },
        {
          "indexed": false,
          "internalType": "string",
          "name": "counterpartyConnectionId",
          "type": "string"
        },
        {
          "indexed": false,
          "internalType": "string",
          "name": "counterpartyClientId",
          "type": "string"
        }
      ],
      "name": "OpenAckConnection",
      "type": "event"
    },
    {
      "anonymous": false,
      "inputs": [
        {
          "indexed": false,
          "internalType": "string",
          "name": "portId",
          "type": "string"
        },
        {
          "indexed": false,
          "internalType": "string",
          "name": "channelId",
          "type": "string"
        },
        {
          "indexed": false,
          "internalType": "string",
          "name": "connectionId",
          "type": "string"
        },
        {
          "indexed": false,
          "internalType": "string",
          "name": "counterpartyPortId",
          "type": "string"
        },
        {
          "indexed": false,
          "internalType": "string",
          "name": "counterpartyChannelId",
          "type": "string"
        }
      ],
      "name": "OpenConfirmChannel",
      "type": "event"
    },
    {
      "anonymous": false,
      "inputs": [
        {
          "indexed": false,
          "internalType": "string",
          "name": "connectionId",
          "type": "string"
        },
        {
          "indexed": false,
          "internalType": "string",
          "name": "clientId",
          "type": "string"
        },
        {
          "indexed": false,
          "internalType": "string",
          "name": "counterpartyConnectionId",
          "type": "string"
        },
        {
          "indexed": false,
          "internalType": "string",
          "name": "counterpartyClientId",
          "type": "string"
        }
      ],
      "name": "OpenConfirmConnection",
      "type": "event"
    },
    {
      "anonymous": false,
      "inputs": [
        {
          "indexed": false,
          "internalType": "string",
          "name": "portId",
          "type": "string"
        },
        {
          "indexed": false,
          "internalType": "string",
          "name": "channelId",
          "type": "string"
        },
        {
          "indexed": false,
          "internalType": "string",
          "name": "connectionId",
          "type": "string"
        },
        {
          "indexed": false,
          "internalType": "string",
          "name": "counterpartyPortId",
          "type": "string"
        },
        {
          "indexed": false,
          "internalType": "string",
          "name": "counterpartyChannelId",
          "type": "string"
        }
      ],
      "name": "OpenInitChannel",
      "type": "event"
    },
    {
      "anonymous": false,
      "inputs": [
        {
          "indexed": false,
          "internalType": "string",
          "name": "connectionId",
          "type": "string"
        },
        {
          "indexed": false,
          "internalType": "string",
          "name": "clientId",
          "type": "string"
        },
        {
          "indexed": false,
          "internalType": "string",
          "name": "counterpartyConnectionId",
          "type": "string"
        },
        {
          "indexed": false,
          "internalType": "string",
          "name": "counterpartyClientId",
          "type": "string"
        }
      ],
      "name": "OpenInitConnection",
      "type": "event"
    },
    {
      "anonymous": false,
      "inputs": [
        {
          "indexed": false,
          "internalType": "string",
          "name": "portId",
          "type": "string"
        },
        {
          "indexed": false,
          "internalType": "string",
          "name": "channelId",
          "type": "string"
        },
        {
          "indexed": false,
          "internalType": "string",
          "name": "connectionId",
          "type": "string"
        },
        {
          "indexed": false,
          "internalType": "string",
          "name": "counterpartyPortId",
          "type": "string"
        },
        {
          "indexed": false,
          "internalType": "string",
          "name": "counterpartyChannelId",
          "type": "string"
        }
      ],
      "name": "OpenTryChannel",
      "type": "event"
    },
    {
      "anonymous": false,
      "inputs": [
        {
          "indexed": false,
          "internalType": "string",
          "name": "connectionId",
          "type": "string"
        },
        {
          "indexed": false,
          "internalType": "string",
          "name": "clientId",
          "type": "string"
        },
        {
          "indexed": false,
          "internalType": "string",
          "name": "counterpartyConnectionId",
          "type": "string"
        },
        {
          "indexed": false,
          "internalType": "string",
          "name": "counterpartyClientId",
          "type": "string"
        }
      ],
      "name": "OpenTryConnection",
      "type": "event"
    },
    {
      "anonymous": false,
      "inputs": [
        {
          "indexed": true,
          "internalType": "address",
          "name": "previousOwner",
          "type": "address"
        },
        {
          "indexed": true,
          "internalType": "address",
          "name": "newOwner",
          "type": "address"
        }
      ],
      "name": "OwnershipTransferred",
      "type": "event"
    },
    {
      "anonymous": false,
      "inputs": [
        {
          "components": [
            {
              "internalType": "uint64",
              "name": "sequence",
              "type": "uint64"
            },
            {
              "internalType": "string",
              "name": "sourcePort",
              "type": "string"
            },
            {
              "internalType": "string",
              "name": "sourceChannel",
              "type": "string"
            },
            {
              "internalType": "string",
              "name": "destinationPort",
              "type": "string"
            },
            {
              "internalType": "string",
              "name": "destinationChannel",
              "type": "string"
            },
            {
              "internalType": "bytes",
              "name": "data",
              "type": "bytes"
            },
            {
              "components": [
                {
                  "internalType": "uint64",
                  "name": "revisionNumber",
                  "type": "uint64"
                },
                {
                  "internalType": "uint64",
                  "name": "revisionHeight",
                  "type": "uint64"
                }
              ],
              "internalType": "struct Height.Data",
              "name": "timeoutHeight",
              "type": "tuple"
            },
            {
              "internalType": "uint64",
              "name": "timeoutTimestamp",
              "type": "uint64"
            }
          ],
          "indexed": false,
          "internalType": "struct Packet.Data",
          "name": "packet",
          "type": "tuple"
        }
      ],
      "name": "ReceivePacket",
      "type": "event"
    },
    {
      "anonymous": false,
      "inputs": [
        {
          "components": [
            {
              "components": [
                {
                  "internalType": "bytes32",
                  "name": "codeHash",
                  "type": "bytes32"
                },
                {
                  "internalType": "enum CellEmitter.ScriptHashType",
                  "name": "hashType",
                  "type": "uint8"
                },
                {
                  "internalType": "bytes",
                  "name": "args",
                  "type": "bytes"
                }
              ],
              "internalType": "struct CellEmitter.Script",
              "name": "script",
              "type": "tuple"
            },
            {
              "internalType": "enum CellEmitter.ScriptType",
              "name": "scriptType",
              "type": "uint8"
            },
            {
              "internalType": "enum CellEmitter.ScriptSearchMode",
              "name": "scriptSearchMode",
              "type": "uint8"
            },
            {
              "components": [
                {
                  "components": [
                    {
                      "internalType": "bytes32",
                      "name": "codeHash",
                      "type": "bytes32"
                    },
                    {
                      "internalType": "enum CellEmitter.ScriptHashType",
                      "name": "hashType",
                      "type": "uint8"
                    },
                    {
                      "internalType": "bytes",
                      "name": "args",
                      "type": "bytes"
                    }
                  ],
                  "internalType": "struct CellEmitter.Script",
                  "name": "script",
                  "type": "tuple"
                },
                {
                  "internalType": "uint64[2]",
                  "name": "scriptLenRange",
                  "type": "uint64[2]"
                },
                {
                  "internalType": "uint64[2]",
                  "name": "outputDataLenRange",
                  "type": "uint64[2]"
                },
                {
                  "internalType": "uint64[2]",
                  "name": "outputDataCapacityRange",
                  "type": "uint64[2]"
                }
              ],
              "internalType": "struct CellEmitter.Filter[]",
              "name": "filter",
              "type": "tuple[]"
            },
            {
              "internalType": "bool",
              "name": "withData",
              "type": "bool"
            },
            {
              "internalType": "bool",
              "name": "groupByTransaction",
              "type": "bool"
            }
          ],
          "indexed": false,
          "internalType": "struct CellEmitter.SearchKey",
          "name": "filter",
          "type": "tuple"
        }
      ],
      "name": "RegisterCellEmitterFilter",
      "type": "event"
    },
    {
      "anonymous": false,
      "inputs": [
        {
          "components": [
            {
              "components": [
                {
                  "internalType": "bytes32",
                  "name": "codeHash",
                  "type": "bytes32"
                },
                {
                  "internalType": "enum CellEmitter.ScriptHashType",
                  "name": "hashType",
                  "type": "uint8"
                },
                {
                  "internalType": "bytes",
                  "name": "args",
                  "type": "bytes"
                }
              ],
              "internalType": "struct CellEmitter.Script",
              "name": "script",
              "type": "tuple"
            },
            {
              "internalType": "enum CellEmitter.ScriptType",
              "name": "scriptType",
              "type": "uint8"
            },
            {
              "internalType": "enum CellEmitter.ScriptSearchMode",
              "name": "scriptSearchMode",
              "type": "uint8"
            },
            {
              "components": [
                {
                  "components": [
                    {
                      "internalType": "bytes32",
                      "name": "codeHash",
                      "type": "bytes32"
                    },
                    {
                      "internalType": "enum CellEmitter.ScriptHashType",
                      "name": "hashType",
                      "type": "uint8"
                    },
                    {
                      "internalType": "bytes",
                      "name": "args",
                      "type": "bytes"
                    }
                  ],
                  "internalType": "struct CellEmitter.Script",
                  "name": "script",
                  "type": "tuple"
                },
                {
                  "internalType": "uint64[2]",
                  "name": "scriptLenRange",
                  "type": "uint64[2]"
                },
                {
                  "internalType": "uint64[2]",
                  "name": "outputDataLenRange",
                  "type": "uint64[2]"
                },
                {
                  "internalType": "uint64[2]",
                  "name": "outputDataCapacityRange",
                  "type": "uint64[2]"
                }
              ],
              "internalType": "struct CellEmitter.Filter[]",
              "name": "filter",
              "type": "tuple[]"
            },
            {
              "internalType": "bool",
              "name": "withData",
              "type": "bool"
            },
            {
              "internalType": "bool",
              "name": "groupByTransaction",
              "type": "bool"
            }
          ],
          "indexed": false,
          "internalType": "struct CellEmitter.SearchKey",
          "name": "filter",
          "type": "tuple"
        }
      ],
      "name": "RemoveCellEmitterFilter",
      "type": "event"
    },
    {
      "anonymous": false,
      "inputs": [
        {
          "components": [
            {
              "internalType": "uint64",
              "name": "sequence",
              "type": "uint64"
            },
            {
              "internalType": "string",
              "name": "sourcePort",
              "type": "string"
            },
            {
              "internalType": "string",
              "name": "sourceChannel",
              "type": "string"
            },
            {
              "internalType": "string",
              "name": "destinationPort",
              "type": "string"
            },
            {
              "internalType": "string",
              "name": "destinationChannel",
              "type": "string"
            },
            {
              "internalType": "bytes",
              "name": "data",
              "type": "bytes"
            },
            {
              "components": [
                {
                  "internalType": "uint64",
                  "name": "revisionNumber",
                  "type": "uint64"
                },
                {
                  "internalType": "uint64",
                  "name": "revisionHeight",
                  "type": "uint64"
                }
              ],
              "internalType": "struct Height.Data",
              "name": "timeoutHeight",
              "type": "tuple"
            },
            {
              "internalType": "uint64",
              "name": "timeoutTimestamp",
              "type": "uint64"
            }
          ],
          "indexed": false,
          "internalType": "struct Packet.Data",
          "name": "packet",
          "type": "tuple"
        }
      ],
      "name": "SendPacket",
      "type": "event"
    },
    {
      "anonymous": false,
      "inputs": [
        {
          "indexed": false,
          "internalType": "string",
          "name": "clientId",
          "type": "string"
        },
        {
          "indexed": false,
          "internalType": "bytes",
          "name": "clientMessage",
          "type": "bytes"
        }
      ],
      "name": "UpdateClient",
      "type": "event"
    },
    {
      "anonymous": false,
      "inputs": [
        {
          "components": [
            {
              "internalType": "uint64",
              "name": "sequence",
              "type": "uint64"
            },
            {
              "internalType": "string",
              "name": "sourcePort",
              "type": "string"
            },
            {
              "internalType": "string",
              "name": "sourceChannel",
              "type": "string"
            },
            {
              "internalType": "string",
              "name": "destinationPort",
              "type": "string"
            },
            {
              "internalType": "string",
              "name": "destinationChannel",
              "type": "string"
            },
            {
              "internalType": "bytes",
              "name": "data",
              "type": "bytes"
            },
            {
              "components": [
                {
                  "internalType": "uint64",
                  "name": "revisionNumber",
                  "type": "uint64"
                },
                {
                  "internalType": "uint64",
                  "name": "revisionHeight",
                  "type": "uint64"
                }
              ],
              "internalType": "struct Height.Data",
              "name": "timeoutHeight",
              "type": "tuple"
            },
            {
              "internalType": "uint64",
              "name": "timeoutTimestamp",
              "type": "uint64"
            }
          ],
          "indexed": false,
          "internalType": "struct Packet.Data",
          "name": "packet",
          "type": "tuple"
        },
        {
          "indexed": false,
          "internalType": "bytes",
          "name": "acknowledgement",
          "type": "bytes"
        }
      ],
      "name": "WriteAcknowledgement",
      "type": "event"
    },
    {
      "inputs": [
        {
          "components": [
            {
              "components": [
                {
                  "internalType": "uint64",
                  "name": "sequence",
                  "type": "uint64"
                },
                {
                  "internalType": "string",
                  "name": "sourcePort",
                  "type": "string"
                },
                {
                  "internalType": "string",
                  "name": "sourceChannel",
                  "type": "string"
                },
                {
                  "internalType": "string",
                  "name": "destinationPort",
                  "type": "string"
                },
                {
                  "internalType": "string",
                  "name": "destinationChannel",
                  "type": "string"
                },
                {
                  "internalType": "bytes",
                  "name": "data",
                  "type": "bytes"
                },
                {
                  "components": [
                    {
                      "internalType": "uint64",
                      "name": "revisionNumber",
                      "type": "uint64"
                    },
                    {
                      "internalType": "uint64",
                      "name": "revisionHeight",
                      "type": "uint64"
                    }
                  ],
                  "internalType": "struct Height.Data",
                  "name": "timeoutHeight",
                  "type": "tuple"
                },
                {
                  "internalType": "uint64",
                  "name": "timeoutTimestamp",
                  "type": "uint64"
                }
              ],
              "internalType": "struct Packet.Data",
              "name": "packet",
              "type": "tuple"
            },
            {
              "internalType": "bytes",
              "name": "acknowledgement",
              "type": "bytes"
            },
            {
              "internalType": "bytes",
              "name": "proof",
              "type": "bytes"
            },
            {
              "components": [
                {
                  "internalType": "uint64",
                  "name": "revisionNumber",
                  "type": "uint64"
                },
                {
                  "internalType": "uint64",
                  "name": "revisionHeight",
                  "type": "uint64"
                }
              ],
              "internalType": "struct Height.Data",
              "name": "proofHeight",
              "type": "tuple"
            }
          ],
          "internalType": "struct IBCMsgs.MsgPacketAcknowledgement",
          "name": "msg_",
          "type": "tuple"
        }
      ],
      "name": "acknowledgePacket",
      "outputs": [],
      "stateMutability": "nonpayable",
      "type": "function"
    },
    {
      "inputs": [
        {
          "internalType": "bytes",
          "name": "",
          "type": "bytes"
        },
        {
          "internalType": "uint256",
          "name": "",
          "type": "uint256"
        }
      ],
      "name": "capabilities",
      "outputs": [
        {
          "internalType": "address",
          "name": "",
          "type": "address"
        }
      ],
      "stateMutability": "view",
      "type": "function"
    },
    {
      "inputs": [
        {
          "internalType": "string",
          "name": "portId",
          "type": "string"
        },
        {
          "internalType": "string",
          "name": "channelId",
          "type": "string"
        }
      ],
      "name": "channelCapabilityPath",
      "outputs": [
        {
          "internalType": "bytes",
          "name": "",
          "type": "bytes"
        }
      ],
      "stateMutability": "pure",
      "type": "function"
    },
    {
      "inputs": [
        {
          "components": [
            {
              "internalType": "string",
              "name": "portId",
              "type": "string"
            },
            {
              "internalType": "string",
              "name": "channelId",
              "type": "string"
            },
            {
              "internalType": "bytes",
              "name": "proofInit",
              "type": "bytes"
            },
            {
              "components": [
                {
                  "internalType": "uint64",
                  "name": "revisionNumber",
                  "type": "uint64"
                },
                {
                  "internalType": "uint64",
                  "name": "revisionHeight",
                  "type": "uint64"
                }
              ],
              "internalType": "struct Height.Data",
              "name": "proofHeight",
              "type": "tuple"
            }
          ],
          "internalType": "struct IBCMsgs.MsgChannelCloseConfirm",
          "name": "msg_",
          "type": "tuple"
        }
      ],
      "name": "channelCloseConfirm",
      "outputs": [
        {
          "components": [
            {
              "internalType": "string",
              "name": "portId",
              "type": "string"
            },
            {
              "internalType": "string",
              "name": "connectionId",
              "type": "string"
            },
            {
              "internalType": "string",
              "name": "channelId",
              "type": "string"
            },
            {
              "internalType": "string",
              "name": "counterpartyPortId",
              "type": "string"
            },
            {
              "internalType": "string",
              "name": "counterpartyChannelId",
              "type": "string"
            }
          ],
          "internalType": "struct Channel.Attributes",
          "name": "attr",
          "type": "tuple"
        }
      ],
      "stateMutability": "nonpayable",
      "type": "function"
    },
    {
      "inputs": [
        {
          "components": [
            {
              "internalType": "string",
              "name": "portId",
              "type": "string"
            },
            {
              "internalType": "string",
              "name": "channelId",
              "type": "string"
            }
          ],
          "internalType": "struct IBCMsgs.MsgChannelCloseInit",
          "name": "msg_",
          "type": "tuple"
        }
      ],
      "name": "channelCloseInit",
      "outputs": [
        {
          "components": [
            {
              "internalType": "string",
              "name": "portId",
              "type": "string"
            },
            {
              "internalType": "string",
              "name": "connectionId",
              "type": "string"
            },
            {
              "internalType": "string",
              "name": "channelId",
              "type": "string"
            },
            {
              "internalType": "string",
              "name": "counterpartyPortId",
              "type": "string"
            },
            {
              "internalType": "string",
              "name": "counterpartyChannelId",
              "type": "string"
            }
          ],
          "internalType": "struct Channel.Attributes",
          "name": "attr",
          "type": "tuple"
        }
      ],
      "stateMutability": "nonpayable",
      "type": "function"
    },
    {
      "inputs": [
        {
          "internalType": "uint256",
          "name": "",
          "type": "uint256"
        }
      ],
      "name": "channelIds",
      "outputs": [
        {
          "internalType": "string",
          "name": "",
          "type": "string"
        }
      ],
      "stateMutability": "view",
      "type": "function"
    },
    {
      "inputs": [
        {
          "components": [
            {
              "internalType": "string",
              "name": "portId",
              "type": "string"
            },
            {
              "internalType": "string",
              "name": "channelId",
              "type": "string"
            },
            {
              "internalType": "string",
              "name": "counterpartyVersion",
              "type": "string"
            },
            {
              "internalType": "string",
              "name": "counterpartyChannelId",
              "type": "string"
            },
            {
              "internalType": "bytes",
              "name": "proofTry",
              "type": "bytes"
            },
            {
              "components": [
                {
                  "internalType": "uint64",
                  "name": "revisionNumber",
                  "type": "uint64"
                },
                {
                  "internalType": "uint64",
                  "name": "revisionHeight",
                  "type": "uint64"
                }
              ],
              "internalType": "struct Height.Data",
              "name": "proofHeight",
              "type": "tuple"
            }
          ],
          "internalType": "struct IBCMsgs.MsgChannelOpenAck",
          "name": "msg_",
          "type": "tuple"
        }
      ],
      "name": "channelOpenAck",
      "outputs": [
        {
          "components": [
            {
              "internalType": "string",
              "name": "portId",
              "type": "string"
            },
            {
              "internalType": "string",
              "name": "connectionId",
              "type": "string"
            },
            {
              "internalType": "string",
              "name": "channelId",
              "type": "string"
            },
            {
              "internalType": "string",
              "name": "counterpartyPortId",
              "type": "string"
            },
            {
              "internalType": "string",
              "name": "counterpartyChannelId",
              "type": "string"
            }
          ],
          "internalType": "struct Channel.Attributes",
          "name": "attr",
          "type": "tuple"
        }
      ],
      "stateMutability": "nonpayable",
      "type": "function"
    },
    {
      "inputs": [
        {
          "components": [
            {
              "internalType": "string",
              "name": "portId",
              "type": "string"
            },
            {
              "internalType": "string",
              "name": "channelId",
              "type": "string"
            },
            {
              "internalType": "bytes",
              "name": "proofAck",
              "type": "bytes"
            },
            {
              "components": [
                {
                  "internalType": "uint64",
                  "name": "revisionNumber",
                  "type": "uint64"
                },
                {
                  "internalType": "uint64",
                  "name": "revisionHeight",
                  "type": "uint64"
                }
              ],
              "internalType": "struct Height.Data",
              "name": "proofHeight",
              "type": "tuple"
            }
          ],
          "internalType": "struct IBCMsgs.MsgChannelOpenConfirm",
          "name": "msg_",
          "type": "tuple"
        }
      ],
      "name": "channelOpenConfirm",
      "outputs": [
        {
          "components": [
            {
              "internalType": "string",
              "name": "portId",
              "type": "string"
            },
            {
              "internalType": "string",
              "name": "connectionId",
              "type": "string"
            },
            {
              "internalType": "string",
              "name": "channelId",
              "type": "string"
            },
            {
              "internalType": "string",
              "name": "counterpartyPortId",
              "type": "string"
            },
            {
              "internalType": "string",
              "name": "counterpartyChannelId",
              "type": "string"
            }
          ],
          "internalType": "struct Channel.Attributes",
          "name": "attr",
          "type": "tuple"
        }
      ],
      "stateMutability": "nonpayable",
      "type": "function"
    },
    {
      "inputs": [
        {
          "components": [
            {
              "internalType": "string",
              "name": "portId",
              "type": "string"
            },
            {
              "components": [
                {
                  "internalType": "enum Channel.State",
                  "name": "state",
                  "type": "uint8"
                },
                {
                  "internalType": "enum Channel.Order",
                  "name": "ordering",
                  "type": "uint8"
                },
                {
                  "components": [
                    {
                      "internalType": "string",
                      "name": "portId",
                      "type": "string"
                    },
                    {
                      "internalType": "string",
                      "name": "channelId",
                      "type": "string"
                    }
                  ],
                  "internalType": "struct ChannelCounterparty.Data",
                  "name": "counterparty",
                  "type": "tuple"
                },
                {
                  "internalType": "string[]",
                  "name": "connectionHops",
                  "type": "string[]"
                },
                {
                  "internalType": "string",
                  "name": "version",
                  "type": "string"
                }
              ],
              "internalType": "struct Channel.Data",
              "name": "channel",
              "type": "tuple"
            }
          ],
          "internalType": "struct IBCMsgs.MsgChannelOpenInit",
          "name": "msg_",
          "type": "tuple"
        }
      ],
      "name": "channelOpenInit",
      "outputs": [
        {
          "components": [
            {
              "internalType": "string",
              "name": "portId",
              "type": "string"
            },
            {
              "internalType": "string",
              "name": "connectionId",
              "type": "string"
            },
            {
              "internalType": "string",
              "name": "channelId",
              "type": "string"
            },
            {
              "internalType": "string",
              "name": "counterpartyPortId",
              "type": "string"
            },
            {
              "internalType": "string",
              "name": "counterpartyChannelId",
              "type": "string"
            }
          ],
          "internalType": "struct Channel.Attributes",
          "name": "attr",
          "type": "tuple"
        }
      ],
      "stateMutability": "nonpayable",
      "type": "function"
    },
    {
      "inputs": [
        {
          "components": [
            {
              "internalType": "string",
              "name": "portId",
              "type": "string"
            },
            {
              "internalType": "string",
              "name": "previousChannelId",
              "type": "string"
            },
            {
              "components": [
                {
                  "internalType": "enum Channel.State",
                  "name": "state",
                  "type": "uint8"
                },
                {
                  "internalType": "enum Channel.Order",
                  "name": "ordering",
                  "type": "uint8"
                },
                {
                  "components": [
                    {
                      "internalType": "string",
                      "name": "portId",
                      "type": "string"
                    },
                    {
                      "internalType": "string",
                      "name": "channelId",
                      "type": "string"
                    }
                  ],
                  "internalType": "struct ChannelCounterparty.Data",
                  "name": "counterparty",
                  "type": "tuple"
                },
                {
                  "internalType": "string[]",
                  "name": "connectionHops",
                  "type": "string[]"
                },
                {
                  "internalType": "string",
                  "name": "version",
                  "type": "string"
                }
              ],
              "internalType": "struct Channel.Data",
              "name": "channel",
              "type": "tuple"
            },
            {
              "internalType": "string",
              "name": "counterpartyVersion",
              "type": "string"
            },
            {
              "internalType": "bytes",
              "name": "proofInit",
              "type": "bytes"
            },
            {
              "components": [
                {
                  "internalType": "uint64",
                  "name": "revisionNumber",
                  "type": "uint64"
                },
                {
                  "internalType": "uint64",
                  "name": "revisionHeight",
                  "type": "uint64"
                }
              ],
              "internalType": "struct Height.Data",
              "name": "proofHeight",
              "type": "tuple"
            }
          ],
          "internalType": "struct IBCMsgs.MsgChannelOpenTry",
          "name": "msg_",
          "type": "tuple"
        }
      ],
      "name": "channelOpenTry",
      "outputs": [
        {
          "components": [
            {
              "internalType": "string",
              "name": "portId",
              "type": "string"
            },
            {
              "internalType": "string",
              "name": "connectionId",
              "type": "string"
            },
            {
              "internalType": "string",
              "name": "channelId",
              "type": "string"
            },
            {
              "internalType": "string",
              "name": "counterpartyPortId",
              "type": "string"
            },
            {
              "internalType": "string",
              "name": "counterpartyChannelId",
              "type": "string"
            }
          ],
          "internalType": "struct Channel.Attributes",
          "name": "attr",
          "type": "tuple"
        }
      ],
      "stateMutability": "nonpayable",
      "type": "function"
    },
    {
      "inputs": [
        {
          "internalType": "string",
          "name": "",
          "type": "string"
        },
        {
          "internalType": "string",
          "name": "",
          "type": "string"
        }
      ],
      "name": "channels",
      "outputs": [
        {
          "internalType": "enum Channel.State",
          "name": "state",
          "type": "uint8"
        },
        {
          "internalType": "enum Channel.Order",
          "name": "ordering",
          "type": "uint8"
        },
        {
          "components": [
            {
              "internalType": "string",
              "name": "portId",
              "type": "string"
            },
            {
              "internalType": "string",
              "name": "channelId",
              "type": "string"
            }
          ],
          "internalType": "struct ChannelCounterparty.Data",
          "name": "counterparty",
          "type": "tuple"
        },
        {
          "internalType": "string",
          "name": "version",
          "type": "string"
        }
      ],
      "stateMutability": "view",
      "type": "function"
    },
    {
      "inputs": [
        {
          "internalType": "string",
          "name": "",
          "type": "string"
        },
        {
          "internalType": "uint256",
          "name": "",
          "type": "uint256"
        }
      ],
      "name": "clientConnectionIds",
      "outputs": [
        {
          "internalType": "string",
          "name": "",
          "type": "string"
        }
      ],
      "stateMutability": "view",
      "type": "function"
    },
    {
      "inputs": [
        {
          "internalType": "uint256",
          "name": "",
          "type": "uint256"
        }
      ],
      "name": "clientIds",
      "outputs": [
        {
          "internalType": "string",
          "name": "",
          "type": "string"
        }
      ],
      "stateMutability": "view",
      "type": "function"
    },
    {
      "inputs": [
        {
          "internalType": "string",
          "name": "",
          "type": "string"
        }
      ],
      "name": "clientImpls",
      "outputs": [
        {
          "internalType": "address",
          "name": "",
          "type": "address"
        }
      ],
      "stateMutability": "view",
      "type": "function"
    },
    {
      "inputs": [
        {
          "internalType": "string",
          "name": "",
          "type": "string"
        }
      ],
      "name": "clientRegistry",
      "outputs": [
        {
          "internalType": "address",
          "name": "",
          "type": "address"
        }
      ],
      "stateMutability": "view",
      "type": "function"
    },
    {
      "inputs": [
        {
          "internalType": "string",
          "name": "",
          "type": "string"
        }
      ],
      "name": "clientTypes",
      "outputs": [
        {
          "internalType": "string",
          "name": "",
          "type": "string"
        }
      ],
      "stateMutability": "view",
      "type": "function"
    },
    {
      "inputs": [
        {
          "internalType": "bytes32",
          "name": "",
          "type": "bytes32"
        }
      ],
      "name": "commitments",
      "outputs": [
        {
          "internalType": "bytes32",
          "name": "",
          "type": "bytes32"
        }
      ],
      "stateMutability": "view",
      "type": "function"
    },
    {
      "inputs": [
        {
          "internalType": "uint256",
          "name": "",
          "type": "uint256"
        }
      ],
      "name": "connectionIds",
      "outputs": [
        {
          "internalType": "string",
          "name": "",
          "type": "string"
        }
      ],
      "stateMutability": "view",
      "type": "function"
    },
    {
      "inputs": [
        {
          "components": [
            {
              "internalType": "string",
              "name": "connectionId",
              "type": "string"
            },
            {
              "internalType": "bytes",
              "name": "clientState",
              "type": "bytes"
            },
            {
              "components": [
                {
                  "internalType": "string",
                  "name": "identifier",
                  "type": "string"
                },
                {
                  "internalType": "string[]",
                  "name": "features",
                  "type": "string[]"
                }
              ],
              "internalType": "struct Version.Data",
              "name": "version",
              "type": "tuple"
            },
            {
              "internalType": "string",
              "name": "counterpartyConnectionId",
              "type": "string"
            },
            {
              "internalType": "bytes",
              "name": "proofTry",
              "type": "bytes"
            },
            {
              "internalType": "bytes",
              "name": "proofClient",
              "type": "bytes"
            },
            {
              "internalType": "bytes",
              "name": "proofConsensus",
              "type": "bytes"
            },
            {
              "components": [
                {
                  "internalType": "uint64",
                  "name": "revisionNumber",
                  "type": "uint64"
                },
                {
                  "internalType": "uint64",
                  "name": "revisionHeight",
                  "type": "uint64"
                }
              ],
              "internalType": "struct Height.Data",
              "name": "proofHeight",
              "type": "tuple"
            },
            {
              "components": [
                {
                  "internalType": "uint64",
                  "name": "revisionNumber",
                  "type": "uint64"
                },
                {
                  "internalType": "uint64",
                  "name": "revisionHeight",
                  "type": "uint64"
                }
              ],
              "internalType": "struct Height.Data",
              "name": "consensusHeight",
              "type": "tuple"
            }
          ],
          "internalType": "struct IBCMsgs.MsgConnectionOpenAck",
          "name": "msg_",
          "type": "tuple"
        }
      ],
      "name": "connectionOpenAck",
      "outputs": [
        {
          "components": [
            {
              "internalType": "string",
              "name": "connectionId",
              "type": "string"
            },
            {
              "internalType": "string",
              "name": "clientId",
              "type": "string"
            },
            {
              "internalType": "string",
              "name": "counterpartyConnectionId",
              "type": "string"
            },
            {
              "internalType": "string",
              "name": "counterpartyClientId",
              "type": "string"
            }
          ],
          "internalType": "struct ConnectionEnd.Attributes",
          "name": "attr",
          "type": "tuple"
        }
      ],
      "stateMutability": "nonpayable",
      "type": "function"
    },
    {
      "inputs": [
        {
          "components": [
            {
              "internalType": "string",
              "name": "connectionId",
              "type": "string"
            },
            {
              "internalType": "bytes",
              "name": "proofAck",
              "type": "bytes"
            },
            {
              "components": [
                {
                  "internalType": "uint64",
                  "name": "revisionNumber",
                  "type": "uint64"
                },
                {
                  "internalType": "uint64",
                  "name": "revisionHeight",
                  "type": "uint64"
                }
              ],
              "internalType": "struct Height.Data",
              "name": "proofHeight",
              "type": "tuple"
            }
          ],
          "internalType": "struct IBCMsgs.MsgConnectionOpenConfirm",
          "name": "msg_",
          "type": "tuple"
        }
      ],
      "name": "connectionOpenConfirm",
      "outputs": [
        {
          "components": [
            {
              "internalType": "string",
              "name": "connectionId",
              "type": "string"
            },
            {
              "internalType": "string",
              "name": "clientId",
              "type": "string"
            },
            {
              "internalType": "string",
              "name": "counterpartyConnectionId",
              "type": "string"
            },
            {
              "internalType": "string",
              "name": "counterpartyClientId",
              "type": "string"
            }
          ],
          "internalType": "struct ConnectionEnd.Attributes",
          "name": "attr",
          "type": "tuple"
        }
      ],
      "stateMutability": "nonpayable",
      "type": "function"
    },
    {
      "inputs": [
        {
          "components": [
            {
              "internalType": "string",
              "name": "clientId",
              "type": "string"
            },
            {
              "components": [
                {
                  "internalType": "string",
                  "name": "clientId",
                  "type": "string"
                },
                {
                  "internalType": "string",
                  "name": "connectionId",
                  "type": "string"
                },
                {
                  "components": [
                    {
                      "internalType": "bytes",
                      "name": "keyPrefix",
                      "type": "bytes"
                    }
                  ],
                  "internalType": "struct MerklePrefix.Data",
                  "name": "prefix",
                  "type": "tuple"
                }
              ],
              "internalType": "struct Counterparty.Data",
              "name": "counterparty",
              "type": "tuple"
            },
            {
              "internalType": "uint64",
              "name": "delayPeriod",
              "type": "uint64"
            }
          ],
          "internalType": "struct IBCMsgs.MsgConnectionOpenInit",
          "name": "msg_",
          "type": "tuple"
        }
      ],
      "name": "connectionOpenInit",
      "outputs": [
        {
          "components": [
            {
              "internalType": "string",
              "name": "connectionId",
              "type": "string"
            },
            {
              "internalType": "string",
              "name": "clientId",
              "type": "string"
            },
            {
              "internalType": "string",
              "name": "counterpartyConnectionId",
              "type": "string"
            },
            {
              "internalType": "string",
              "name": "counterpartyClientId",
              "type": "string"
            }
          ],
          "internalType": "struct ConnectionEnd.Attributes",
          "name": "attr",
          "type": "tuple"
        }
      ],
      "stateMutability": "nonpayable",
      "type": "function"
    },
    {
      "inputs": [
        {
          "components": [
            {
              "internalType": "string",
              "name": "previousConnectionId",
              "type": "string"
            },
            {
              "components": [
                {
                  "internalType": "string",
                  "name": "clientId",
                  "type": "string"
                },
                {
                  "internalType": "string",
                  "name": "connectionId",
                  "type": "string"
                },
                {
                  "components": [
                    {
                      "internalType": "bytes",
                      "name": "keyPrefix",
                      "type": "bytes"
                    }
                  ],
                  "internalType": "struct MerklePrefix.Data",
                  "name": "prefix",
                  "type": "tuple"
                }
              ],
              "internalType": "struct Counterparty.Data",
              "name": "counterparty",
              "type": "tuple"
            },
            {
              "internalType": "uint64",
              "name": "delayPeriod",
              "type": "uint64"
            },
            {
              "internalType": "string",
              "name": "clientId",
              "type": "string"
            },
            {
              "internalType": "bytes",
              "name": "clientState",
              "type": "bytes"
            },
            {
              "components": [
                {
                  "internalType": "string",
                  "name": "identifier",
                  "type": "string"
                },
                {
                  "internalType": "string[]",
                  "name": "features",
                  "type": "string[]"
                }
              ],
              "internalType": "struct Version.Data[]",
              "name": "counterpartyVersions",
              "type": "tuple[]"
            },
            {
              "internalType": "bytes",
              "name": "proofInit",
              "type": "bytes"
            },
            {
              "internalType": "bytes",
              "name": "proofClient",
              "type": "bytes"
            },
            {
              "internalType": "bytes",
              "name": "proofConsensus",
              "type": "bytes"
            },
            {
              "components": [
                {
                  "internalType": "uint64",
                  "name": "revisionNumber",
                  "type": "uint64"
                },
                {
                  "internalType": "uint64",
                  "name": "revisionHeight",
                  "type": "uint64"
                }
              ],
              "internalType": "struct Height.Data",
              "name": "proofHeight",
              "type": "tuple"
            },
            {
              "components": [
                {
                  "internalType": "uint64",
                  "name": "revisionNumber",
                  "type": "uint64"
                },
                {
                  "internalType": "uint64",
                  "name": "revisionHeight",
                  "type": "uint64"
                }
              ],
              "internalType": "struct Height.Data",
              "name": "consensusHeight",
              "type": "tuple"
            }
          ],
          "internalType": "struct IBCMsgs.MsgConnectionOpenTry",
          "name": "msg_",
          "type": "tuple"
        }
      ],
      "name": "connectionOpenTry",
      "outputs": [
        {
          "components": [
            {
              "internalType": "string",
              "name": "connectionId",
              "type": "string"
            },
            {
              "internalType": "string",
              "name": "clientId",
              "type": "string"
            },
            {
              "internalType": "string",
              "name": "counterpartyConnectionId",
              "type": "string"
            },
            {
              "internalType": "string",
              "name": "counterpartyClientId",
              "type": "string"
            }
          ],
          "internalType": "struct ConnectionEnd.Attributes",
          "name": "attr",
          "type": "tuple"
        }
      ],
      "stateMutability": "nonpayable",
      "type": "function"
    },
    {
      "inputs": [
        {
          "internalType": "string",
          "name": "",
          "type": "string"
        },
        {
          "internalType": "uint256",
          "name": "",
          "type": "uint256"
        }
      ],
      "name": "connectionPortIds",
      "outputs": [
        {
          "internalType": "string",
          "name": "",
          "type": "string"
        }
      ],
      "stateMutability": "view",
      "type": "function"
    },
    {
      "inputs": [
        {
          "internalType": "string",
          "name": "",
          "type": "string"
        }
      ],
      "name": "connections",
      "outputs": [
        {
          "internalType": "string",
          "name": "clientId",
          "type": "string"
        },
        {
          "internalType": "enum ConnectionEnd.State",
          "name": "state",
          "type": "uint8"
        },
        {
          "components": [
            {
              "internalType": "string",
              "name": "clientId",
              "type": "string"
            },
            {
              "internalType": "string",
              "name": "connectionId",
              "type": "string"
            },
            {
              "components": [
                {
                  "internalType": "bytes",
                  "name": "keyPrefix",
                  "type": "bytes"
                }
              ],
              "internalType": "struct MerklePrefix.Data",
              "name": "prefix",
              "type": "tuple"
            }
          ],
          "internalType": "struct Counterparty.Data",
          "name": "counterparty",
          "type": "tuple"
        },
        {
          "internalType": "uint64",
          "name": "delayPeriod",
          "type": "uint64"
        }
      ],
      "stateMutability": "view",
      "type": "function"
    },
    {
      "inputs": [
        {
          "internalType": "string",
          "name": "",
          "type": "string"
        },
        {
          "internalType": "uint256",
          "name": "",
          "type": "uint256"
        }
      ],
      "name": "consensusHeights",
      "outputs": [
        {
          "internalType": "uint64",
          "name": "revisionNumber",
          "type": "uint64"
        },
        {
          "internalType": "uint64",
          "name": "revisionHeight",
          "type": "uint64"
        }
      ],
      "stateMutability": "view",
      "type": "function"
    },
    {
      "inputs": [
        {
          "components": [
            {
              "internalType": "string",
              "name": "clientType",
              "type": "string"
            },
            {
              "internalType": "bytes",
              "name": "clientState",
              "type": "bytes"
            },
            {
              "internalType": "bytes",
              "name": "consensusState",
              "type": "bytes"
            }
          ],
          "internalType": "struct IBCMsgs.MsgCreateClient",
          "name": "msg_",
          "type": "tuple"
        }
      ],
      "name": "createClient",
      "outputs": [
        {
          "internalType": "string",
          "name": "clientId",
          "type": "string"
        }
      ],
      "stateMutability": "nonpayable",
      "type": "function"
    },
    {
      "inputs": [],
      "name": "expectedTimePerBlock",
      "outputs": [
        {
          "internalType": "uint64",
          "name": "",
          "type": "uint64"
        }
      ],
      "stateMutability": "view",
      "type": "function"
    },
    {
      "inputs": [
        {
          "internalType": "string",
          "name": "portId",
          "type": "string"
        },
        {
          "internalType": "string",
          "name": "channelId",
          "type": "string"
        }
      ],
      "name": "getChannel",
      "outputs": [
        {
          "components": [
            {
              "internalType": "enum Channel.State",
              "name": "state",
              "type": "uint8"
            },
            {
              "internalType": "enum Channel.Order",
              "name": "ordering",
              "type": "uint8"
            },
            {
              "components": [
                {
                  "internalType": "string",
                  "name": "portId",
                  "type": "string"
                },
                {
                  "internalType": "string",
                  "name": "channelId",
                  "type": "string"
                }
              ],
              "internalType": "struct ChannelCounterparty.Data",
              "name": "counterparty",
              "type": "tuple"
            },
            {
              "internalType": "string[]",
              "name": "connectionHops",
              "type": "string[]"
            },
            {
              "internalType": "string",
              "name": "version",
              "type": "string"
            }
          ],
          "internalType": "struct Channel.Data",
          "name": "",
          "type": "tuple"
        },
        {
          "internalType": "bool",
          "name": "",
          "type": "bool"
        }
      ],
      "stateMutability": "view",
      "type": "function"
    },
    {
      "inputs": [
        {
          "internalType": "string",
          "name": "portId",
          "type": "string"
        },
        {
          "internalType": "string",
          "name": "channelId",
          "type": "string"
        }
      ],
      "name": "getChannelClientState",
      "outputs": [
        {
          "internalType": "bytes",
          "name": "",
          "type": "bytes"
        },
        {
          "internalType": "bool",
          "name": "",
          "type": "bool"
        }
      ],
      "stateMutability": "view",
      "type": "function"
    },
    {
      "inputs": [],
      "name": "getChannels",
      "outputs": [
        {
          "components": [
            {
              "internalType": "enum Channel.State",
              "name": "state",
              "type": "uint8"
            },
            {
              "internalType": "enum Channel.Order",
              "name": "ordering",
              "type": "uint8"
            },
            {
              "components": [
                {
                  "internalType": "string",
                  "name": "portId",
                  "type": "string"
                },
                {
                  "internalType": "string",
                  "name": "channelId",
                  "type": "string"
                }
              ],
              "internalType": "struct ChannelCounterparty.Data",
              "name": "counterparty",
              "type": "tuple"
            },
            {
              "internalType": "string[]",
              "name": "connectionHops",
              "type": "string[]"
            },
            {
              "internalType": "string",
              "name": "version",
              "type": "string"
            },
            {
              "internalType": "string",
              "name": "portId",
              "type": "string"
            },
            {
              "internalType": "string",
              "name": "channelId",
              "type": "string"
            }
          ],
          "internalType": "struct IdentifiedChannel.Data[]",
          "name": "",
          "type": "tuple[]"
        }
      ],
      "stateMutability": "view",
      "type": "function"
    },
    {
      "inputs": [
        {
          "internalType": "string",
          "name": "clientId",
          "type": "string"
        }
      ],
      "name": "getClientConnections",
      "outputs": [
        {
          "internalType": "string[]",
          "name": "",
          "type": "string[]"
        }
      ],
      "stateMutability": "view",
      "type": "function"
    },
    {
      "inputs": [
        {
          "internalType": "string",
          "name": "clientId",
          "type": "string"
        }
      ],
      "name": "getClientState",
      "outputs": [
        {
          "internalType": "bytes",
          "name": "",
          "type": "bytes"
        },
        {
          "internalType": "bool",
          "name": "",
          "type": "bool"
        }
      ],
      "stateMutability": "view",
      "type": "function"
    },
    {
      "inputs": [],
      "name": "getClientStates",
      "outputs": [
        {
          "internalType": "bytes[]",
          "name": "",
          "type": "bytes[]"
        }
      ],
      "stateMutability": "view",
      "type": "function"
    },
    {
      "inputs": [
        {
          "internalType": "string",
          "name": "connectionId",
          "type": "string"
        }
      ],
      "name": "getConnection",
      "outputs": [
        {
          "components": [
            {
              "internalType": "string",
              "name": "clientId",
              "type": "string"
            },
            {
              "components": [
                {
                  "internalType": "string",
                  "name": "identifier",
                  "type": "string"
                },
                {
                  "internalType": "string[]",
                  "name": "features",
                  "type": "string[]"
                }
              ],
              "internalType": "struct Version.Data[]",
              "name": "versions",
              "type": "tuple[]"
            },
            {
              "internalType": "enum ConnectionEnd.State",
              "name": "state",
              "type": "uint8"
            },
            {
              "components": [
                {
                  "internalType": "string",
                  "name": "clientId",
                  "type": "string"
                },
                {
                  "internalType": "string",
                  "name": "connectionId",
                  "type": "string"
                },
                {
                  "components": [
                    {
                      "internalType": "bytes",
                      "name": "keyPrefix",
                      "type": "bytes"
                    }
                  ],
                  "internalType": "struct MerklePrefix.Data",
                  "name": "prefix",
                  "type": "tuple"
                }
              ],
              "internalType": "struct Counterparty.Data",
              "name": "counterparty",
              "type": "tuple"
            },
            {
              "internalType": "uint64",
              "name": "delayPeriod",
              "type": "uint64"
            }
          ],
          "internalType": "struct ConnectionEnd.Data",
          "name": "",
          "type": "tuple"
        },
        {
          "internalType": "bool",
          "name": "",
          "type": "bool"
        }
      ],
      "stateMutability": "view",
      "type": "function"
    },
    {
      "inputs": [
        {
          "internalType": "string",
          "name": "connectionId",
          "type": "string"
        }
      ],
      "name": "getConnectionChannels",
      "outputs": [
        {
          "components": [
            {
              "internalType": "enum Channel.State",
              "name": "state",
              "type": "uint8"
            },
            {
              "internalType": "enum Channel.Order",
              "name": "ordering",
              "type": "uint8"
            },
            {
              "components": [
                {
                  "internalType": "string",
                  "name": "portId",
                  "type": "string"
                },
                {
                  "internalType": "string",
                  "name": "channelId",
                  "type": "string"
                }
              ],
              "internalType": "struct ChannelCounterparty.Data",
              "name": "counterparty",
              "type": "tuple"
            },
            {
              "internalType": "string[]",
              "name": "connectionHops",
              "type": "string[]"
            },
            {
              "internalType": "string",
              "name": "version",
              "type": "string"
            },
            {
              "internalType": "string",
              "name": "portId",
              "type": "string"
            },
            {
              "internalType": "string",
              "name": "channelId",
              "type": "string"
            }
          ],
          "internalType": "struct IdentifiedChannel.Data[]",
          "name": "",
          "type": "tuple[]"
        }
      ],
      "stateMutability": "view",
      "type": "function"
    },
    {
      "inputs": [],
      "name": "getConnections",
      "outputs": [
        {
          "components": [
            {
              "internalType": "string",
              "name": "connectionId",
              "type": "string"
            },
            {
              "components": [
                {
                  "internalType": "string",
                  "name": "clientId",
                  "type": "string"
                },
                {
                  "components": [
                    {
                      "internalType": "string",
                      "name": "identifier",
                      "type": "string"
                    },
                    {
                      "internalType": "string[]",
                      "name": "features",
                      "type": "string[]"
                    }
                  ],
                  "internalType": "struct Version.Data[]",
                  "name": "versions",
                  "type": "tuple[]"
                },
                {
                  "internalType": "enum ConnectionEnd.State",
                  "name": "state",
                  "type": "uint8"
                },
                {
                  "components": [
                    {
                      "internalType": "string",
                      "name": "clientId",
                      "type": "string"
                    },
                    {
                      "internalType": "string",
                      "name": "connectionId",
                      "type": "string"
                    },
                    {
                      "components": [
                        {
                          "internalType": "bytes",
                          "name": "keyPrefix",
                          "type": "bytes"
                        }
                      ],
                      "internalType": "struct MerklePrefix.Data",
                      "name": "prefix",
                      "type": "tuple"
                    }
                  ],
                  "internalType": "struct Counterparty.Data",
                  "name": "counterparty",
                  "type": "tuple"
                },
                {
                  "internalType": "uint64",
                  "name": "delayPeriod",
                  "type": "uint64"
                }
              ],
              "internalType": "struct ConnectionEnd.Data",
              "name": "connectionEnd",
              "type": "tuple"
            }
          ],
          "internalType": "struct IdentifiedConnectionEnd.Data[]",
          "name": "",
          "type": "tuple[]"
        }
      ],
      "stateMutability": "view",
      "type": "function"
    },
    {
      "inputs": [
        {
          "internalType": "string",
          "name": "clientId",
          "type": "string"
        }
      ],
      "name": "getConsensusHeights",
      "outputs": [
        {
          "components": [
            {
              "internalType": "uint64",
              "name": "revisionNumber",
              "type": "uint64"
            },
            {
              "internalType": "uint64",
              "name": "revisionHeight",
              "type": "uint64"
            }
          ],
          "internalType": "struct Height.Data[]",
          "name": "",
          "type": "tuple[]"
        }
      ],
      "stateMutability": "view",
      "type": "function"
    },
    {
      "inputs": [
        {
          "internalType": "string",
          "name": "clientId",
          "type": "string"
        },
        {
          "components": [
            {
              "internalType": "uint64",
              "name": "revisionNumber",
              "type": "uint64"
            },
            {
              "internalType": "uint64",
              "name": "revisionHeight",
              "type": "uint64"
            }
          ],
          "internalType": "struct Height.Data",
          "name": "height",
          "type": "tuple"
        }
      ],
      "name": "getConsensusState",
      "outputs": [
        {
          "internalType": "bytes",
          "name": "consensusState",
          "type": "bytes"
        },
        {
          "internalType": "bool",
          "name": "",
          "type": "bool"
        }
      ],
      "stateMutability": "view",
      "type": "function"
    },
    {
      "inputs": [],
      "name": "getExpectedTimePerBlock",
      "outputs": [
        {
          "internalType": "uint64",
          "name": "",
          "type": "uint64"
        }
      ],
      "stateMutability": "view",
      "type": "function"
    },
    {
      "inputs": [
        {
          "internalType": "string",
          "name": "portId",
          "type": "string"
        },
        {
          "internalType": "string",
          "name": "channelId",
          "type": "string"
        },
        {
          "internalType": "uint64",
          "name": "sequence",
          "type": "uint64"
        }
      ],
      "name": "getHashedPacketAcknowledgementCommitment",
      "outputs": [
        {
          "internalType": "bytes32",
          "name": "",
          "type": "bytes32"
        },
        {
          "internalType": "bool",
          "name": "",
          "type": "bool"
        }
      ],
      "stateMutability": "view",
      "type": "function"
    },
    {
      "inputs": [
        {
          "internalType": "string",
          "name": "portId",
          "type": "string"
        },
        {
          "internalType": "string",
          "name": "channelId",
          "type": "string"
        },
        {
          "internalType": "uint64",
          "name": "sequence",
          "type": "uint64"
        }
      ],
      "name": "getHashedPacketCommitment",
      "outputs": [
        {
          "internalType": "bytes32",
          "name": "",
          "type": "bytes32"
        },
        {
          "internalType": "bool",
          "name": "",
          "type": "bool"
        }
      ],
      "stateMutability": "view",
      "type": "function"
    },
    {
      "inputs": [
        {
          "internalType": "string",
          "name": "portId",
          "type": "string"
        },
        {
          "internalType": "string",
          "name": "channelId",
          "type": "string"
        }
      ],
      "name": "getHashedPacketCommitmentSequences",
      "outputs": [
        {
          "internalType": "uint64[]",
          "name": "",
          "type": "uint64[]"
        }
      ],
      "stateMutability": "view",
      "type": "function"
    },
    {
      "inputs": [
        {
          "internalType": "string",
          "name": "clientId",
          "type": "string"
        }
      ],
      "name": "getLatestHeight",
      "outputs": [
        {
          "components": [
            {
              "internalType": "uint64",
              "name": "revisionNumber",
              "type": "uint64"
            },
            {
              "internalType": "uint64",
              "name": "revisionHeight",
              "type": "uint64"
            }
          ],
          "internalType": "struct Height.Data",
          "name": "",
          "type": "tuple"
        },
        {
          "internalType": "bool",
          "name": "",
          "type": "bool"
        }
      ],
      "stateMutability": "view",
      "type": "function"
    },
    {
      "inputs": [
        {
          "internalType": "string",
          "name": "portId",
          "type": "string"
        },
        {
          "internalType": "string",
          "name": "channelId",
          "type": "string"
        }
      ],
      "name": "getNextSequenceRecvs",
      "outputs": [
        {
          "internalType": "uint64",
          "name": "",
          "type": "uint64"
        }
      ],
      "stateMutability": "view",
      "type": "function"
    },
    {
      "inputs": [
        {
          "internalType": "string",
          "name": "portId",
          "type": "string"
        },
        {
          "internalType": "string",
          "name": "channelId",
          "type": "string"
        }
      ],
      "name": "getNextSequenceSend",
      "outputs": [
        {
          "internalType": "uint64",
          "name": "",
          "type": "uint64"
        }
      ],
      "stateMutability": "view",
      "type": "function"
    },
    {
      "inputs": [
        {
          "internalType": "string",
          "name": "portId",
          "type": "string"
        },
        {
          "internalType": "string",
          "name": "channelId",
          "type": "string"
        },
        {
          "internalType": "uint64",
          "name": "sequence",
          "type": "uint64"
        }
      ],
      "name": "hasPacketReceipt",
      "outputs": [
        {
          "internalType": "bool",
          "name": "",
          "type": "bool"
        }
      ],
      "stateMutability": "view",
      "type": "function"
    },
    {
      "inputs": [],
      "name": "nextChannelSequence",
      "outputs": [
        {
          "internalType": "uint64",
          "name": "",
          "type": "uint64"
        }
      ],
      "stateMutability": "view",
      "type": "function"
    },
    {
      "inputs": [],
      "name": "nextClientSequence",
      "outputs": [
        {
          "internalType": "uint64",
          "name": "",
          "type": "uint64"
        }
      ],
      "stateMutability": "view",
      "type": "function"
    },
    {
      "inputs": [],
      "name": "nextConnectionSequence",
      "outputs": [
        {
          "internalType": "uint64",
          "name": "",
          "type": "uint64"
        }
      ],
      "stateMutability": "view",
      "type": "function"
    },
    {
      "inputs": [
        {
          "internalType": "string",
          "name": "",
          "type": "string"
        },
        {
          "internalType": "string",
          "name": "",
          "type": "string"
        }
      ],
      "name": "nextSequenceAcks",
      "outputs": [
        {
          "internalType": "uint64",
          "name": "",
          "type": "uint64"
        }
      ],
      "stateMutability": "view",
      "type": "function"
    },
    {
      "inputs": [
        {
          "internalType": "string",
          "name": "",
          "type": "string"
        },
        {
          "internalType": "string",
          "name": "",
          "type": "string"
        }
      ],
      "name": "nextSequenceRecvs",
      "outputs": [
        {
          "internalType": "uint64",
          "name": "",
          "type": "uint64"
        }
      ],
      "stateMutability": "view",
      "type": "function"
    },
    {
      "inputs": [
        {
          "internalType": "string",
          "name": "",
          "type": "string"
        },
        {
          "internalType": "string",
          "name": "",
          "type": "string"
        }
      ],
      "name": "nextSequenceSends",
      "outputs": [
        {
          "internalType": "uint64",
          "name": "",
          "type": "uint64"
        }
      ],
      "stateMutability": "view",
      "type": "function"
    },
    {
      "inputs": [],
      "name": "owner",
      "outputs": [
        {
          "internalType": "address",
          "name": "",
          "type": "address"
        }
      ],
      "stateMutability": "view",
      "type": "function"
    },
    {
      "inputs": [
        {
          "internalType": "string",
          "name": "",
          "type": "string"
        },
        {
          "internalType": "string",
          "name": "",
          "type": "string"
        },
        {
          "internalType": "uint64",
          "name": "",
          "type": "uint64"
        }
      ],
      "name": "packetReceipts",
      "outputs": [
        {
          "internalType": "uint8",
          "name": "",
          "type": "uint8"
        }
      ],
      "stateMutability": "view",
      "type": "function"
    },
    {
      "inputs": [
        {
          "internalType": "string",
          "name": "portId",
          "type": "string"
        }
      ],
      "name": "portCapabilityPath",
      "outputs": [
        {
          "internalType": "bytes",
          "name": "",
          "type": "bytes"
        }
      ],
      "stateMutability": "pure",
      "type": "function"
    },
    {
      "inputs": [
        {
          "internalType": "string",
          "name": "",
          "type": "string"
        },
        {
          "internalType": "uint256",
          "name": "",
          "type": "uint256"
        }
      ],
      "name": "portChannelIds",
      "outputs": [
        {
          "internalType": "string",
          "name": "",
          "type": "string"
        }
      ],
      "stateMutability": "view",
      "type": "function"
    },
    {
      "inputs": [
        {
          "internalType": "uint256",
          "name": "",
          "type": "uint256"
        }
      ],
      "name": "portIds",
      "outputs": [
        {
          "internalType": "string",
          "name": "",
          "type": "string"
        }
      ],
      "stateMutability": "view",
      "type": "function"
    },
    {
      "inputs": [
        {
          "components": [
            {
              "components": [
                {
                  "internalType": "uint64",
                  "name": "sequence",
                  "type": "uint64"
                },
                {
                  "internalType": "string",
                  "name": "sourcePort",
                  "type": "string"
                },
                {
                  "internalType": "string",
                  "name": "sourceChannel",
                  "type": "string"
                },
                {
                  "internalType": "string",
                  "name": "destinationPort",
                  "type": "string"
                },
                {
                  "internalType": "string",
                  "name": "destinationChannel",
                  "type": "string"
                },
                {
                  "internalType": "bytes",
                  "name": "data",
                  "type": "bytes"
                },
                {
                  "components": [
                    {
                      "internalType": "uint64",
                      "name": "revisionNumber",
                      "type": "uint64"
                    },
                    {
                      "internalType": "uint64",
                      "name": "revisionHeight",
                      "type": "uint64"
                    }
                  ],
                  "internalType": "struct Height.Data",
                  "name": "timeoutHeight",
                  "type": "tuple"
                },
                {
                  "internalType": "uint64",
                  "name": "timeoutTimestamp",
                  "type": "uint64"
                }
              ],
              "internalType": "struct Packet.Data",
              "name": "packet",
              "type": "tuple"
            },
            {
              "internalType": "bytes",
              "name": "proof",
              "type": "bytes"
            },
            {
              "components": [
                {
                  "internalType": "uint64",
                  "name": "revisionNumber",
                  "type": "uint64"
                },
                {
                  "internalType": "uint64",
                  "name": "revisionHeight",
                  "type": "uint64"
                }
              ],
              "internalType": "struct Height.Data",
              "name": "proofHeight",
              "type": "tuple"
            }
          ],
          "internalType": "struct IBCMsgs.MsgPacketRecv",
          "name": "msg_",
          "type": "tuple"
        }
      ],
      "name": "recvPacket",
      "outputs": [],
      "stateMutability": "nonpayable",
      "type": "function"
    },
    {
      "inputs": [
        {
          "components": [
            {
              "components": [
                {
                  "internalType": "bytes32",
                  "name": "codeHash",
                  "type": "bytes32"
                },
                {
                  "internalType": "enum CellEmitter.ScriptHashType",
                  "name": "hashType",
                  "type": "uint8"
                },
                {
                  "internalType": "bytes",
                  "name": "args",
                  "type": "bytes"
                }
              ],
              "internalType": "struct CellEmitter.Script",
              "name": "script",
              "type": "tuple"
            },
            {
              "internalType": "enum CellEmitter.ScriptType",
              "name": "scriptType",
              "type": "uint8"
            },
            {
              "internalType": "enum CellEmitter.ScriptSearchMode",
              "name": "scriptSearchMode",
              "type": "uint8"
            },
            {
              "components": [
                {
                  "components": [
                    {
                      "internalType": "bytes32",
                      "name": "codeHash",
                      "type": "bytes32"
                    },
                    {
                      "internalType": "enum CellEmitter.ScriptHashType",
                      "name": "hashType",
                      "type": "uint8"
                    },
                    {
                      "internalType": "bytes",
                      "name": "args",
                      "type": "bytes"
                    }
                  ],
                  "internalType": "struct CellEmitter.Script",
                  "name": "script",
                  "type": "tuple"
                },
                {
                  "internalType": "uint64[2]",
                  "name": "scriptLenRange",
                  "type": "uint64[2]"
                },
                {
                  "internalType": "uint64[2]",
                  "name": "outputDataLenRange",
                  "type": "uint64[2]"
                },
                {
                  "internalType": "uint64[2]",
                  "name": "outputDataCapacityRange",
                  "type": "uint64[2]"
                }
              ],
              "internalType": "struct CellEmitter.Filter[]",
              "name": "filter",
              "type": "tuple[]"
            },
            {
              "internalType": "bool",
              "name": "withData",
              "type": "bool"
            },
            {
              "internalType": "bool",
              "name": "groupByTransaction",
              "type": "bool"
            }
          ],
          "internalType": "struct CellEmitter.SearchKey",
          "name": "filter",
          "type": "tuple"
        }
      ],
      "name": "registerCellEmitterFilter",
      "outputs": [],
      "stateMutability": "nonpayable",
      "type": "function"
    },
    {
      "inputs": [
        {
          "components": [
            {
              "components": [
                {
                  "internalType": "bytes32",
                  "name": "codeHash",
                  "type": "bytes32"
                },
                {
                  "internalType": "enum CellEmitter.ScriptHashType",
                  "name": "hashType",
                  "type": "uint8"
                },
                {
                  "internalType": "bytes",
                  "name": "args",
                  "type": "bytes"
                }
              ],
              "internalType": "struct CellEmitter.Script",
              "name": "script",
              "type": "tuple"
            },
            {
              "internalType": "enum CellEmitter.ScriptType",
              "name": "scriptType",
              "type": "uint8"
            },
            {
              "internalType": "enum CellEmitter.ScriptSearchMode",
              "name": "scriptSearchMode",
              "type": "uint8"
            },
            {
              "components": [
                {
                  "components": [
                    {
                      "internalType": "bytes32",
                      "name": "codeHash",
                      "type": "bytes32"
                    },
                    {
                      "internalType": "enum CellEmitter.ScriptHashType",
                      "name": "hashType",
                      "type": "uint8"
                    },
                    {
                      "internalType": "bytes",
                      "name": "args",
                      "type": "bytes"
                    }
                  ],
                  "internalType": "struct CellEmitter.Script",
                  "name": "script",
                  "type": "tuple"
                },
                {
                  "internalType": "uint64[2]",
                  "name": "scriptLenRange",
                  "type": "uint64[2]"
                },
                {
                  "internalType": "uint64[2]",
                  "name": "outputDataLenRange",
                  "type": "uint64[2]"
                },
                {
                  "internalType": "uint64[2]",
                  "name": "outputDataCapacityRange",
                  "type": "uint64[2]"
                }
              ],
              "internalType": "struct CellEmitter.Filter[]",
              "name": "filter",
              "type": "tuple[]"
            },
            {
              "internalType": "bool",
              "name": "withData",
              "type": "bool"
            },
            {
              "internalType": "bool",
              "name": "groupByTransaction",
              "type": "bool"
            }
          ],
          "internalType": "struct CellEmitter.SearchKey",
          "name": "filter",
          "type": "tuple"
        }
      ],
      "name": "removeCellEmitterFilter",
      "outputs": [],
      "stateMutability": "nonpayable",
      "type": "function"
    },
    {
      "inputs": [],
      "name": "renounceOwnership",
      "outputs": [],
      "stateMutability": "nonpayable",
      "type": "function"
    },
    {
      "inputs": [
        {
          "components": [
            {
              "internalType": "uint64",
              "name": "sequence",
              "type": "uint64"
            },
            {
              "internalType": "string",
              "name": "sourcePort",
              "type": "string"
            },
            {
              "internalType": "string",
              "name": "sourceChannel",
              "type": "string"
            },
            {
              "internalType": "string",
              "name": "destinationPort",
              "type": "string"
            },
            {
              "internalType": "string",
              "name": "destinationChannel",
              "type": "string"
            },
            {
              "internalType": "bytes",
              "name": "data",
              "type": "bytes"
            },
            {
              "components": [
                {
                  "internalType": "uint64",
                  "name": "revisionNumber",
                  "type": "uint64"
                },
                {
                  "internalType": "uint64",
                  "name": "revisionHeight",
                  "type": "uint64"
                }
              ],
              "internalType": "struct Height.Data",
              "name": "timeoutHeight",
              "type": "tuple"
            },
            {
              "internalType": "uint64",
              "name": "timeoutTimestamp",
              "type": "uint64"
            }
          ],
          "internalType": "struct Packet.Data",
          "name": "packet",
          "type": "tuple"
        }
      ],
      "name": "sendPacket",
      "outputs": [],
      "stateMutability": "nonpayable",
      "type": "function"
    },
    {
      "inputs": [
        {
          "internalType": "address",
          "name": "newOwner",
          "type": "address"
        }
      ],
      "name": "transferOwnership",
      "outputs": [],
      "stateMutability": "nonpayable",
      "type": "function"
    },
    {
      "inputs": [
        {
          "components": [
            {
              "internalType": "string",
              "name": "clientId",
              "type": "string"
            },
            {
              "internalType": "bytes",
              "name": "clientMessage",
              "type": "bytes"
            }
          ],
          "internalType": "struct IBCMsgs.MsgUpdateClient",
          "name": "msg_",
          "type": "tuple"
        }
      ],
      "name": "updateClient",
      "outputs": [],
      "stateMutability": "nonpayable",
      "type": "function"
    },
    {
      "inputs": [
        {
          "components": [
            {
              "internalType": "uint64",
              "name": "sequence",
              "type": "uint64"
            },
            {
              "internalType": "string",
              "name": "sourcePort",
              "type": "string"
            },
            {
              "internalType": "string",
              "name": "sourceChannel",
              "type": "string"
            },
            {
              "internalType": "string",
              "name": "destinationPort",
              "type": "string"
            },
            {
              "internalType": "string",
              "name": "destinationChannel",
              "type": "string"
            },
            {
              "internalType": "bytes",
              "name": "data",
              "type": "bytes"
            },
            {
              "components": [
                {
                  "internalType": "uint64",
                  "name": "revisionNumber",
                  "type": "uint64"
                },
                {
                  "internalType": "uint64",
                  "name": "revisionHeight",
                  "type": "uint64"
                }
              ],
              "internalType": "struct Height.Data",
              "name": "timeoutHeight",
              "type": "tuple"
            },
            {
              "internalType": "uint64",
              "name": "timeoutTimestamp",
              "type": "uint64"
            }
          ],
          "internalType": "struct Packet.Data",
          "name": "packet",
          "type": "tuple"
        },
        {
          "internalType": "bytes",
          "name": "acknowledgement",
          "type": "bytes"
        }
      ],
      "name": "writeAcknowledgement",
      "outputs": [],
      "stateMutability": "nonpayable",
      "type": "function"
    },
    {
      "inputs": [
        {
          "internalType": "string",
          "name": "clientType",
          "type": "string"
        },
        {
          "internalType": "contract ILightClient",
          "name": "client",
          "type": "address"
        }
      ],
      "name": "registerClient",
      "outputs": [],
      "stateMutability": "nonpayable",
      "type": "function"
    },
    {
      "inputs": [
        {
          "internalType": "string",
          "name": "portId",
          "type": "string"
        },
        {
          "internalType": "address",
          "name": "moduleAddress",
          "type": "address"
        }
      ],
      "name": "bindPort",
      "outputs": [],
      "stateMutability": "nonpayable",
      "type": "function"
    },
    {
      "inputs": [
        {
          "internalType": "uint64",
          "name": "expectedTimePerBlock_",
          "type": "uint64"
        }
      ],
      "name": "setExpectedTimePerBlock",
      "outputs": [],
      "stateMutability": "nonpayable",
      "type": "function"
    }
  ],
  "bytecode": "0x6101006040523480156200001257600080fd5b5060405162009b4d38038062009b4d8339810160408190526200003591620000d8565b6001600160a01b0384811660805283811660a05282811660c052811660e0526200005f3362000069565b5050505062000135565b601480546001600160a01b038381166001600160a01b0319831681179093556040519116919082907f8be0079c531659141344cd1fd0a4f28419497f9722a3daafe3b4186f6b6457e090600090a35050565b80516001600160a01b0381168114620000d357600080fd5b919050565b60008060008060808587031215620000ef57600080fd5b620000fa85620000bb565b93506200010a60208601620000bb565b92506200011a60408601620000bb565b91506200012a60608601620000bb565b905092959194509250565b60805160a05160c05160e05161997c620001d1600039600081816110760152818161118b01528181612c0d01528181613e56015261561d015260008181611360015281816115f10152818161425d0152818161515001528181615d78015261628e015260008181610c28015281816144f20152818161539301526160c901526000818161580901528181615bdb0152616701015261997c6000f3fe608060405234801561001057600080fd5b506004361061043c5760003560e01c8063715018a611610235578063c930b1b011610135578063da6cea55116100c8578063df72bf2f11610097578063ec6260a91161007c578063ec6260a914610bc1578063ec75d82914610bd4578063f2fde38b14610be557600080fd5b8063df72bf2f14610b8f578063e1b17b4314610ba257600080fd5b8063da6cea5514610b43578063dd3469fc14610b56578063dd5b9f4d14610b69578063de31034114610b7c57600080fd5b8063d31407fe11610104578063d31407fe14610aca578063d39445df14610add578063d5a2448114610b10578063d634b73414610b2357600080fd5b8063c930b1b014610a1f578063ca95666714610a70578063ccaff10814610a83578063d1297b8d14610a9657600080fd5b80638da5cb5b116101c8578063a049e67711610197578063b50bb5c61161017c578063b50bb5c6146109e6578063b531861f146109f9578063c238010514610a0c57600080fd5b8063a049e677146109ac578063a06cb3a2146109d357600080fd5b80638da5cb5b1461092b5780639575f6ac14610950578063990491a51461095857806399aea9861461098c57600080fd5b80637926b8a9116102045780637926b8a91461087d578063821cb5d014610897578063829fc4f9146108e8578063839df945146108fd57600080fd5b8063715018a61461083c57806373702aa21461084457806374af494e1461085757806376c81c421461086a57600080fd5b8063329681d011610340578063582418b6116102d35780635bd51b62116102a25780636a728f2c116102875780636a728f2c146108035780636a9c5646146108165780636cf44bf41461082957600080fd5b80635bd51b62146107dd5780635be164ee146107f057600080fd5b8063582418b61461077157806359f37976146107845780635a9afac3146107975780635b3de260146107ba57600080fd5b80634e7bc2611161030f5780634e7bc2611461070a5780634f57683b1461072a578063533c7c2f1461074b57806357abd3d81461075e57600080fd5b8063329681d0146106b05780633bc3339f146106d15780633dd6db04146106e457806340835e44146106f757600080fd5b80632570dae0116103d357806327711a69116103a25780632d945dd3116103875780632d945dd3146106575780633000217a1461066c57806331973f001461068d57600080fd5b806327711a6914610623578063285bd03c1461064457600080fd5b80632570dae01461057657806325cbc3a61461059657806326078437146105a957806327184c131461061057600080fd5b806318c198701161040f57806318c198701461050857806323402a331461051b578063236ebd7014610543578063256c41991461055657600080fd5b806301c6400f1461044157806310e8aa6d1461046a578063117e886a1461048a5780631390d28d1461049f575b600080fd5b61045461044f366004616f80565b610bf8565b604051610461919061700c565b60405180910390f35b61047d6104783660046171a6565b610d96565b60405161046191906171da565b61049d610498366004617293565b610e35565b005b6104f06104ad3660046172e9565b8151602081840181018051600f8252928201948201949094209190935281518083018401805192815290840192909301919091209152546001600160401b031681565b6040516001600160401b039091168152602001610461565b61049d610516366004617293565b610e8b565b61052e610529366004617371565b610ea3565b60408051928352901515602083015201610461565b61049d610551366004617406565b610f47565b61056961056436600461744c565b611329565b6040516104619190617480565b6105896105843660046171a6565b611591565b6040516104619190617512565b6105696105a4366004617537565b6115ba565b6105fe6105b736600461756b565b825160208185018101805160108252928201958201959095209190945282518084018501805192815290850193850193909320925291526000908152604090205460ff1681565b60405160ff9091168152602001610461565b61049d61061e3660046175d7565b6117d9565b6106366106313660046175f4565b611803565b6040516104619291906177dc565b610589610652366004617800565b611cea565b61065f611db2565b6040516104619190617844565b61067f61067a3660046178c9565b6123bb565b604051610461929190617982565b6106a061069b3660046171a6565b612747565b6040516104619493929190617a11565b6106c36106be3660046175f4565b6129ea565b604051610461929190617a5e565b6105896106df3660046172e9565b612ab8565b6105896106f2366004617a91565b612ae4565b61049d610705366004617abd565b612b0f565b61071d6107183660046175f4565b612d4d565b6040516104619190617af1565b61073d6107383660046178c9565b61340f565b604051610461929190617be1565b610589610759366004617800565b613cda565b61058961076c366004617a91565b613d05565b6104f061077f3660046178c9565b613d15565b61049d610792366004617537565b613d6b565b6107aa6107a5366004617371565b613faf565b6040519015158152602001610461565b6107cd6107c83660046172e9565b614019565b6040516104619493929190617bf4565b6105696107eb366004617537565b614226565b61052e6107fe366004617371565b614445565b610454610811366004617406565b6144c2565b6104f06108243660046178c9565b614651565b61073d610837366004617c52565b614665565b61049d614728565b610589610852366004617a91565b61473c565b610589610865366004617a91565b61474c565b61073d6108783660046175f4565b61475c565b6013546104f090600160c01b90046001600160401b031681565b6104f06108a53660046172e9565b8151602081840181018051600d8252928201948201949094209190935281518083018401805192815290840192909301919091209152546001600160401b031681565b6108f0614811565b6040516104619190617ca6565b61091d61090b366004617a91565b60006020819052908152604090205481565b604051908152602001610461565b6014546001600160a01b03165b6040516001600160a01b039091168152602001610461565b61071d6149c9565b6109386109663660046171a6565b80516020818301810180516008825292820191909301209152546001600160a01b031681565b61099f61099a3660046175f4565b61501f565b6040516104619190617d08565b6013546104f09070010000000000000000000000000000000090046001600160401b031681565b6105696109e1366004617d1b565b615119565b6105896109f4366004617800565b615338565b610454610a07366004617d4f565b615363565b610589610a1a3660046171a6565b6154f2565b6104f0610a2d3660046172e9565b8151602081840181018051600e8252928201948201949094209190935281518083018401805192815290840192909301919091209152546001600160401b031681565b61049d610a7e366004617d8a565b615516565b61049d610a91366004617df2565b615771565b610938610aa43660046171a6565b8051602081830181018051600a825292820191909301209152546001600160a01b031681565b6013546104f0906001600160401b031681565b610af0610aeb366004617800565b6157ab565b604080516001600160401b03938416815292909116602083015201610461565b610589610b1e366004616f80565b615802565b610b36610b313660046178c9565b61595e565b6040516104619190617e2c565b61049d610b51366004617d1b565b615bd7565b610569610b64366004617d1b565b615d41565b610938610b77366004617e79565b616052565b610454610b8a366004617ec2565b616099565b61049d610b9d366004617df2565b616228565b6013546104f0906801000000000000000090046001600160401b031681565b610569610bcf36600461744c565b616257565b6013546001600160401b03166104f0565b61049d610bf3366004617efd565b616522565b610c236040518060800160405280606081526020016060815260200160608152602001606081525090565b6000807f00000000000000000000000000000000000000000000000000000000000000006001600160a01b03166301c6400f60e01b85604051602401610c699190618035565b60408051601f198184030181529181526020820180516001600160e01b03166001600160e01b0319909416939093179092529051610ca791906180aa565b600060405180830381855af49150503d8060008114610ce2576040519150601f19603f3d011682016040523d82523d6000602084013e610ce7565b606091505b5091509150610d2c82826040518060400160405280601281526020017f636f6e6e656374696f6e4f70656e496e697400000000000000000000000000008152506165af565b80806020019051810190610d40919061810b565b92507f6355ae836fe98f9330ac4cba9411c34badbf9a1ac7ca2723e4a4ed03b14de0288360000151846020015185604001518660600151604051610d8794939291906181e3565b60405180910390a15050919050565b60606000601283604051610daa91906180aa565b9081526020016040518091039020905080805480602002602001604051908101604052809291908181526020016000905b82821015610e2957600084815260209081902060408051808201909152908401546001600160401b038082168352680100000000000000009091041681830152825260019092019101610ddb565b50505050915050919050565b610e3d6165fc565b610e48838383616656565b60048054600181018255600091909152610e85907f8a35acfbc15ff81a39ae7d344fd709f28e8600b4aa8c65c6b64bfe7fe36bd19b018484616db0565b50505050565b610e936165fc565b610e9e8383836166fd565b505050565b6000806000806000610f208a8a8080601f01602080910402602001604051908101604052809392919081815260200183838082843760009201919091525050604080516020601f8e018190048102820181019092528c815292508c91508b90819084018382808284376000920191909152508b9250616817915050565b80516020918201208252810191909152604001600020549889151598509650505050505050565b6000610fed610f568380618230565b610f64906060810190618247565b8080601f016020809104026020016040519081016040528093929190818152602001838380828437600092019190915250610fa59250869150819050618230565b610fb3906080810190618247565b8080601f01602080910402602001604051908101604052809392919081815260200183838082843760009201919091525061685792505050565b905060006001600160a01b038216632301c6f561100a8580618230565b336040518363ffffffff1660e01b81526004016110289291906183c9565b6000604051808303816000875af1158015611047573d6000803e3d6000fd5b505050506040513d6000823e601f3d908101601f1916820160405261106f91908101906183f4565b90506000807f00000000000000000000000000000000000000000000000000000000000000006001600160a01b031663236ebd7060e01b866040516024016110b7919061843f565b60408051601f198184030181529181526020820180516001600160e01b03166001600160e01b03199094169390931790925290516110f591906180aa565b600060405180830381855af49150503d8060008114611130576040519150601f19603f3d011682016040523d82523d6000602084013e611135565b606091505b509150915061117a82826040518060400160405280600a81526020017f726563765061636b6574000000000000000000000000000000000000000000008152506165af565b8251156112e2576001600160a01b037f000000000000000000000000000000000000000000000000000000000000000016635ab73cef60e11b6111bd8780618230565b6111cb906060810190618247565b6111d58980618230565b6111e3906080810190618247565b6111ed8b80618230565b6111fb9060208101906175d7565b896040516024016112119695949392919061849d565b60408051601f198184030181529181526020820180516001600160e01b03166001600160e01b031990941693909317909252905161124f91906180aa565b600060405180830381855af49150503d806000811461128a576040519150601f19603f3d011682016040523d82523d6000602084013e61128f565b606091505b5050809250508161129f57600080fd5b7f778788131273c1769406f3b42a241a266d9c5c1ca39b2b33a3b1a8efb1080bc56112ca8680618230565b846040516112d99291906184f4565b60405180910390a15b7fcd0facba13702ea05e05e3cdd72d0d075cbe94aa17a18d8215755eedd2a5981961130d8680618230565b60405161131a9190618519565b60405180910390a15050505050565b61135b6040518060a0016040528060608152602001606081526020016060815260200160608152602001606081525090565b6000807f00000000000000000000000000000000000000000000000000000000000000006001600160a01b031663256c419960e01b856040516024016113a1919061852c565b60408051601f198184030181529181526020820180516001600160e01b03166001600160e01b03199094169390931790925290516113df91906180aa565b600060405180830381855af49150503d806000811461141a576040519150601f19603f3d011682016040523d82523d6000602084013e61141f565b606091505b509150915061146482826040518060400160405280600e81526020017f6368616e6e656c4f70656e41636b0000000000000000000000000000000000008152506165af565b808060200190518101906114789190618607565b92506114c16114878580618247565b8080601f0160208091040260200160405190810160405280939291908181526020018383808284376000920191909152506168e592505050565b6001600160a01b0316634942d1ac6114d98680618247565b6114e66020890189618247565b6114f360408b018b618247565b6040518763ffffffff1660e01b815260040161151496959493929190618703565b600060405180830381600087803b15801561152e57600080fd5b505af1158015611542573d6000803e3d6000fd5b505050507fe44c2c1598a2959dde639770f57626a57d286f504be90961f9cd81e7020ba1f183600001518460400151856020015186606001518760800151604051610d8795949392919061873f565b6060816040516020016115a491906180aa565b6040516020818303038152906040529050919050565b6115ec6040518060a0016040528060608152602001606081526020016060815260200160608152602001606081525090565b6000807f00000000000000000000000000000000000000000000000000000000000000006001600160a01b03166325cbc3a660e01b856040516024016116329190618825565b60408051601f198184030181529181526020820180516001600160e01b03166001600160e01b031990941693909317909252905161167091906180aa565b600060405180830381855af49150503d80600081146116ab576040519150601f19603f3d011682016040523d82523d6000602084013e6116b0565b606091505b50915091506116f582826040518060400160405280601381526020017f6368616e6e656c436c6f7365436f6e6669726d000000000000000000000000008152506165af565b808060200190518101906117099190618607565b92506117186114878580618247565b6001600160a01b031663ef4776d26117308680618247565b61173d6020890189618247565b6040518563ffffffff1660e01b815260040161175c9493929190618838565b600060405180830381600087803b15801561177657600080fd5b505af115801561178a573d6000803e3d6000fd5b505050507f1f264d6d27cfa930ad8902af09103b8db59e3c4569605ed8698d8618b4ea138483600001518460400151856020015186606001518760800151604051610d8795949392919061873f565b6117e16165fc565b6013805467ffffffffffffffff19166001600160401b03831617905550565b50565b61180b616e34565b600080600b858560405161182092919061885f565b9081526040519081900360200190209050806000600283015460ff16600381111561184d5761184d61767d565b1415816040518060a001604052908160008201805461186b9061886f565b80601f01602080910402602001604051908101604052809291908181526020018280546118979061886f565b80156118e45780601f106118b9576101008083540402835291602001916118e4565b820191906000526020600020905b8154815290600101906020018083116118c757829003601f168201915b5050505050815260200160018201805480602002602001604051908101604052809291908181526020016000905b82821015611aaf57838290600052602060002090600202016040518060400160405290816000820180546119459061886f565b80601f01602080910402602001604051908101604052809291908181526020018280546119719061886f565b80156119be5780601f10611993576101008083540402835291602001916119be565b820191906000526020600020905b8154815290600101906020018083116119a157829003601f168201915b5050505050815260200160018201805480602002602001604051908101604052809291908181526020016000905b82821015611a98578382906000526020600020018054611a0b9061886f565b80601f0160208091040260200160405190810160405280929190818152602001828054611a379061886f565b8015611a845780601f10611a5957610100808354040283529160200191611a84565b820191906000526020600020905b815481529060010190602001808311611a6757829003601f168201915b5050505050815260200190600101906119ec565b505050508152505081526020019060010190611912565b50505090825250600282015460209091019060ff166003811115611ad557611ad561767d565b6003811115611ae657611ae661767d565b815260200160038201604051806060016040529081600082018054611b0a9061886f565b80601f0160208091040260200160405190810160405280929190818152602001828054611b369061886f565b8015611b835780601f10611b5857610100808354040283529160200191611b83565b820191906000526020600020905b815481529060010190602001808311611b6657829003601f168201915b50505050508152602001600182018054611b9c9061886f565b80601f0160208091040260200160405190810160405280929190818152602001828054611bc89061886f565b8015611c155780601f10611bea57610100808354040283529160200191611c15565b820191906000526020600020905b815481529060010190602001808311611bf857829003601f168201915b5050505050815260200160028201604051806020016040529081600082018054611c3e9061886f565b80601f0160208091040260200160405190810160405280929190818152602001828054611c6a9061886f565b8015611cb75780601f10611c8c57610100808354040283529160200191611cb7565b820191906000526020600020905b815481529060010190602001808311611c9a57829003601f168201915b505050919092525050509052508152600691909101546001600160401b03166020909101529450925050505b9250929050565b81516020818401810180516007825292820191850191909120919052805482908110611d1557600080fd5b90600052602060002001600091509150508054611d319061886f565b80601f0160208091040260200160405190810160405280929190818152602001828054611d5d9061886f565b8015611daa5780601f10611d7f57610100808354040283529160200191611daa565b820191906000526020600020905b815481529060010190602001808311611d8d57829003601f168201915b505050505081565b6002546060906000906001600160401b03811115611dd257611dd261708a565b604051908082528060200260200182016040528015611e0b57816020015b611df8616e67565b815260200190600190039081611df05790505b50905060005b6002548110156123b557600060028281548110611e3057611e306188a3565b906000526020600020018054611e459061886f565b80601f0160208091040260200160405190810160405280929190818152602001828054611e719061886f565b8015611ebe5780601f10611e9357610100808354040283529160200191611ebe565b820191906000526020600020905b815481529060010190602001808311611ea157829003601f168201915b505050505090506040518060400160405280828152602001600b83604051611ee691906180aa565b90815260200160405180910390206040518060a0016040529081600082018054611f0f9061886f565b80601f0160208091040260200160405190810160405280929190818152602001828054611f3b9061886f565b8015611f885780601f10611f5d57610100808354040283529160200191611f88565b820191906000526020600020905b815481529060010190602001808311611f6b57829003601f168201915b5050505050815260200160018201805480602002602001604051908101604052809291908181526020016000905b828210156121535783829060005260206000209060020201604051806040016040529081600082018054611fe99061886f565b80601f01602080910402602001604051908101604052809291908181526020018280546120159061886f565b80156120625780601f1061203757610100808354040283529160200191612062565b820191906000526020600020905b81548152906001019060200180831161204557829003601f168201915b5050505050815260200160018201805480602002602001604051908101604052809291908181526020016000905b8282101561213c5783829060005260206000200180546120af9061886f565b80601f01602080910402602001604051908101604052809291908181526020018280546120db9061886f565b80156121285780601f106120fd57610100808354040283529160200191612128565b820191906000526020600020905b81548152906001019060200180831161210b57829003601f168201915b505050505081526020019060010190612090565b505050508152505081526020019060010190611fb6565b50505090825250600282015460209091019060ff1660038111156121795761217961767d565b600381111561218a5761218a61767d565b8152602001600382016040518060600160405290816000820180546121ae9061886f565b80601f01602080910402602001604051908101604052809291908181526020018280546121da9061886f565b80156122275780601f106121fc57610100808354040283529160200191612227565b820191906000526020600020905b81548152906001019060200180831161220a57829003601f168201915b505050505081526020016001820180546122409061886f565b80601f016020809104026020016040519081016040528092919081815260200182805461226c9061886f565b80156122b95780601f1061228e576101008083540402835291602001916122b9565b820191906000526020600020905b81548152906001019060200180831161229c57829003601f168201915b50505050508152602001600282016040518060200160405290816000820180546122e29061886f565b80601f016020809104026020016040519081016040528092919081815260200182805461230e9061886f565b801561235b5780601f106123305761010080835404028352916020019161235b565b820191906000526020600020905b81548152906001019060200180831161233e57829003601f168201915b505050919092525050509052508152600691909101546001600160401b031660209091015290528351849084908110612396576123966188a3565b60200260200101819052505080806123ad906188cf565b915050611e11565b50919050565b6123c3616e86565b600080600c87876040516123d892919061885f565b908152602001604051809103902085856040516123f692919061885f565b9081526040519081900360200190209050806000825460ff1660048111156124205761242061767d565b6040805160a0810190915283549290911415918390829060ff16600481111561244b5761244b61767d565b600481111561245c5761245c61767d565b81528154602090910190610100900460ff16600281111561247f5761247f61767d565b60028111156124905761249061767d565b8152602001600182016040518060400160405290816000820180546124b49061886f565b80601f01602080910402602001604051908101604052809291908181526020018280546124e09061886f565b801561252d5780601f106125025761010080835404028352916020019161252d565b820191906000526020600020905b81548152906001019060200180831161251057829003601f168201915b505050505081526020016001820180546125469061886f565b80601f01602080910402602001604051908101604052809291908181526020018280546125729061886f565b80156125bf5780601f10612594576101008083540402835291602001916125bf565b820191906000526020600020905b8154815290600101906020018083116125a257829003601f168201915b505050505081525050815260200160038201805480602002602001604051908101604052809291908181526020016000905b8282101561269d5783829060005260206000200180546126109061886f565b80601f016020809104026020016040519081016040528092919081815260200182805461263c9061886f565b80156126895780601f1061265e57610100808354040283529160200191612689565b820191906000526020600020905b81548152906001019060200180831161266c57829003601f168201915b5050505050815260200190600101906125f1565b5050505081526020016004820180546126b59061886f565b80601f01602080910402602001604051908101604052809291908181526020018280546126e19061886f565b801561272e5780601f106127035761010080835404028352916020019161272e565b820191906000526020600020905b81548152906001019060200180831161271157829003601f168201915b5050505050815250509150925092505094509492505050565b8051602081830181018051600b8252928201919093012091528054819061276d9061886f565b80601f01602080910402602001604051908101604052809291908181526020018280546127999061886f565b80156127e65780601f106127bb576101008083540402835291602001916127e6565b820191906000526020600020905b8154815290600101906020018083116127c957829003601f168201915b5050505050908060020160009054906101000a900460ff16908060030160405180606001604052908160008201805461281e9061886f565b80601f016020809104026020016040519081016040528092919081815260200182805461284a9061886f565b80156128975780601f1061286c57610100808354040283529160200191612897565b820191906000526020600020905b81548152906001019060200180831161287a57829003601f168201915b505050505081526020016001820180546128b09061886f565b80601f01602080910402602001604051908101604052809291908181526020018280546128dc9061886f565b80156129295780601f106128fe57610100808354040283529160200191612929565b820191906000526020600020905b81548152906001019060200180831161290c57829003601f168201915b50505050508152602001600282016040518060200160405290816000820180546129529061886f565b80601f016020809104026020016040519081016040528092919081815260200182805461297e9061886f565b80156129cb5780601f106129a0576101008083540402835291602001916129cb565b820191906000526020600020905b8154815290600101906020018083116129ae57829003601f168201915b505050919092525050509052506006909101546001600160401b031684565b60408051808201909152600080825260208201526000612a3f84848080601f01602080910402602001604051908101604052809392919081815260200183838082843760009201919091525061696a92505050565b6001600160a01b031663329681d085856040518363ffffffff1660e01b8152600401612a6c9291906188e8565b606060405180830381865afa158015612a89573d6000803e3d6000fd5b505050506040513d601f19601f82011682018060405250810190612aad919061890a565b915091509250929050565b60608282604051602001612acd92919061898e565b604051602081830303815290604052905092915050565b60048181548110612af457600080fd5b906000526020600020016000915090508054611d319061886f565b612ba3612b9e612b226020840184618247565b8080601f016020809104026020016040519081016040528093929190818152602001838380828437600092019190915250612b64925050506040850185618247565b8080601f016020809104026020016040519081016040528093929190818152602001838380828437600092019190915250612ab892505050565b6169a8565b612c085760405162461bcd60e51b815260206004820152602b60248201527f6368616e6e656c206361706162696c697479206661696c6564206f6e2061757460448201526a3432b73a34b1b0ba34b7b760a91b60648201526084015b60405180910390fd5b6000807f00000000000000000000000000000000000000000000000000000000000000006001600160a01b03166340835e4460e01b84604051602401612c4e9190618519565b60408051601f198184030181529181526020820180516001600160e01b03166001600160e01b0319909416939093179092529051612c8c91906180aa565b600060405180830381855af49150503d8060008114612cc7576040519150601f19603f3d011682016040523d82523d6000602084013e612ccc565b606091505b5091509150612d1182826040518060400160405280600a81526020017f73656e645061636b6574000000000000000000000000000000000000000000008152506165af565b7fe701f25bda8992b211749f81adb9a8ea6e8cf8a3c9f2e29ed496e6c5f059154c83604051612d409190618519565b60405180910390a1505050565b6060600060078484604051612d6392919061885f565b9081526020016040518091039020805480602002602001604051908101604052809291908181526020016000905b82821015612e3d578382906000526020600020018054612db09061886f565b80601f0160208091040260200160405190810160405280929190818152602001828054612ddc9061886f565b8015612e295780601f10612dfe57610100808354040283529160200191612e29565b820191906000526020600020905b815481529060010190602001808311612e0c57829003601f168201915b505050505081526020019060010190612d91565b50505050905060006005805490508251612e5791906189e6565b6001600160401b03811115612e6e57612e6e61708a565b604051908082528060200260200182016040528015612ea757816020015b612e94616ed1565b815260200190600190039081612e8c5790505b5090506000805b8351811015613404576000848281518110612ecb57612ecb6188a3565b602002602001015190506000600682604051612ee791906180aa565b9081526020016040518091039020805480602002602001604051908101604052809291908181526020016000905b82821015612fc1578382906000526020600020018054612f349061886f565b80601f0160208091040260200160405190810160405280929190818152602001828054612f609061886f565b8015612fad5780601f10612f8257610100808354040283529160200191612fad565b820191906000526020600020905b815481529060010190602001808311612f9057829003601f168201915b505050505081526020019060010190612f15565b50505050905060005b81518110156133ee576000828281518110612fe757612fe76188a3565b602002602001015190506000600c8560405161300391906180aa565b90815260200160405180910390208260405161301f91906180aa565b9081526040805191829003602001822060a083019091528054829060ff16600481111561304e5761304e61767d565b600481111561305f5761305f61767d565b81528154602090910190610100900460ff1660028111156130825761308261767d565b60028111156130935761309361767d565b8152602001600182016040518060400160405290816000820180546130b79061886f565b80601f01602080910402602001604051908101604052809291908181526020018280546130e39061886f565b80156131305780601f1061310557610100808354040283529160200191613130565b820191906000526020600020905b81548152906001019060200180831161311357829003601f168201915b505050505081526020016001820180546131499061886f565b80601f01602080910402602001604051908101604052809291908181526020018280546131759061886f565b80156131c25780601f10613197576101008083540402835291602001916131c2565b820191906000526020600020905b8154815290600101906020018083116131a557829003601f168201915b505050505081525050815260200160038201805480602002602001604051908101604052809291908181526020016000905b828210156132a05783829060005260206000200180546132139061886f565b80601f016020809104026020016040519081016040528092919081815260200182805461323f9061886f565b801561328c5780601f106132615761010080835404028352916020019161328c565b820191906000526020600020905b81548152906001019060200180831161326f57829003601f168201915b5050505050815260200190600101906131f4565b5050505081526020016004820180546132b89061886f565b80601f01602080910402602001604051908101604052809291908181526020018280546132e49061886f565b80156133315780601f1061330657610100808354040283529160200191613331565b820191906000526020600020905b81548152906001019060200180831161331457829003601f168201915b50505050508152505090506040518060e001604052808260000151600481111561335d5761335d61767d565b8152602001826020015160028111156133785761337861767d565b81526020018260400151815260200182606001518152602001826080015181526020018681526020018381525088886001600160401b0316815181106133c0576133c06188a3565b602002602001018190525086806133d690618a05565b975050505080806133e6906188cf565b915050612fca565b50505080806133fc906188cf565b915050612eae565b509095945050505050565b6060600080600c878760405161342692919061885f565b9081526020016040518091039020858560405161344492919061885f565b9081526040805191829003602001822060a083019091528054829060ff1660048111156134735761347361767d565b60048111156134845761348461767d565b81528154602090910190610100900460ff1660028111156134a7576134a761767d565b60028111156134b8576134b861767d565b8152602001600182016040518060400160405290816000820180546134dc9061886f565b80601f01602080910402602001604051908101604052809291908181526020018280546135089061886f565b80156135555780601f1061352a57610100808354040283529160200191613555565b820191906000526020600020905b81548152906001019060200180831161353857829003601f168201915b5050505050815260200160018201805461356e9061886f565b80601f016020809104026020016040519081016040528092919081815260200182805461359a9061886f565b80156135e75780601f106135bc576101008083540402835291602001916135e7565b820191906000526020600020905b8154815290600101906020018083116135ca57829003601f168201915b505050505081525050815260200160038201805480602002602001604051908101604052809291908181526020016000905b828210156136c55783829060005260206000200180546136389061886f565b80601f01602080910402602001604051908101604052809291908181526020018280546136649061886f565b80156136b15780601f10613686576101008083540402835291602001916136b1565b820191906000526020600020905b81548152906001019060200180831161369457829003601f168201915b505050505081526020019060010190613619565b5050505081526020016004820180546136dd9061886f565b80601f01602080910402602001604051908101604052809291908181526020018280546137099061886f565b80156137565780601f1061372b57610100808354040283529160200191613756565b820191906000526020600020905b81548152906001019060200180831161373957829003601f168201915b50505050508152505090506000816060015160008151811061377a5761377a6188a3565b602002602001015190506000600b8260405161379691906180aa565b90815260200160405180910390206040518060a00160405290816000820180546137bf9061886f565b80601f01602080910402602001604051908101604052809291908181526020018280546137eb9061886f565b80156138385780601f1061380d57610100808354040283529160200191613838565b820191906000526020600020905b81548152906001019060200180831161381b57829003601f168201915b5050505050815260200160018201805480602002602001604051908101604052809291908181526020016000905b82821015613a0357838290600052602060002090600202016040518060400160405290816000820180546138999061886f565b80601f01602080910402602001604051908101604052809291908181526020018280546138c59061886f565b80156139125780601f106138e757610100808354040283529160200191613912565b820191906000526020600020905b8154815290600101906020018083116138f557829003601f168201915b5050505050815260200160018201805480602002602001604051908101604052809291908181526020016000905b828210156139ec57838290600052602060002001805461395f9061886f565b80601f016020809104026020016040519081016040528092919081815260200182805461398b9061886f565b80156139d85780601f106139ad576101008083540402835291602001916139d8565b820191906000526020600020905b8154815290600101906020018083116139bb57829003601f168201915b505050505081526020019060010190613940565b505050508152505081526020019060010190613866565b50505090825250600282015460209091019060ff166003811115613a2957613a2961767d565b6003811115613a3a57613a3a61767d565b815260200160038201604051806060016040529081600082018054613a5e9061886f565b80601f0160208091040260200160405190810160405280929190818152602001828054613a8a9061886f565b8015613ad75780601f10613aac57610100808354040283529160200191613ad7565b820191906000526020600020905b815481529060010190602001808311613aba57829003601f168201915b50505050508152602001600182018054613af09061886f565b80601f0160208091040260200160405190810160405280929190818152602001828054613b1c9061886f565b8015613b695780601f10613b3e57610100808354040283529160200191613b69565b820191906000526020600020905b815481529060010190602001808311613b4c57829003601f168201915b5050505050815260200160028201604051806020016040529081600082018054613b929061886f565b80601f0160208091040260200160405190810160405280929190818152602001828054613bbe9061886f565b8015613c0b5780601f10613be057610100808354040283529160200191613c0b565b820191906000526020600020905b815481529060010190602001808311613bee57829003601f168201915b505050919092525050509052508152600691909101546001600160401b03166020909101528051909150613c3e9061696a565b81516040517f76c81c420000000000000000000000000000000000000000000000000000000081526001600160a01b0392909216916376c81c4291613c8591600401617512565b600060405180830381865afa158015613ca2573d6000803e3d6000fd5b505050506040513d6000823e601f3d908101601f19168201604052613cca9190810190618a2b565b9450945050505094509492505050565b81516020818401810180516003825292820191850191909120919052805482908110611d1557600080fd5b60058181548110612af457600080fd5b6000600d8585604051613d2992919061885f565b90815260200160405180910390208383604051613d4792919061885f565b908152604051908190036020019020546001600160401b031690505b949350505050565b6000613dd7613d7a8380618230565b613d88906020810190618247565b8080601f016020809104026020016040519081016040528093929190818152602001838380828437600092019190915250613dc99250869150819050618230565b610fb3906040810190618247565b90506001600160a01b03811663fb8b532e613df28480618230565b613dff6020860186618247565b336040518563ffffffff1660e01b8152600401613e1f9493929190618a71565b600060405180830381600087803b158015613e3957600080fd5b505af1158015613e4d573d6000803e3d6000fd5b505050506000807f00000000000000000000000000000000000000000000000000000000000000006001600160a01b03166359f3797660e01b85604051602401613e979190618ab2565b60408051601f198184030181529181526020820180516001600160e01b03166001600160e01b0319909416939093179092529051613ed591906180aa565b600060405180830381855af49150503d8060008114613f10576040519150601f19603f3d011682016040523d82523d6000602084013e613f15565b606091505b5091509150613f5a82826040518060400160405280601181526020017f61636b6e6f776c656467655061636b65740000000000000000000000000000008152506165af565b7f47471450765e6e1b0b055ba2a1de04d4ce71f778c92b306e725083eb120dfd89613f858580618230565b613f926020870187618247565b604051613fa193929190618b3a565b60405180910390a150505050565b600060108686604051613fc392919061885f565b90815260200160405180910390208484604051613fe192919061885f565b908152604080519182900360209081019092206001600160401b0385166000908152925290205460ff16600114905095945050505050565b8151602081840181018051600c825292820194820194909420919093528151808301840180519281529084019290930191909120915280546040805180820190915260018301805460ff8085169561010090950416939291908290829061407f9061886f565b80601f01602080910402602001604051908101604052809291908181526020018280546140ab9061886f565b80156140f85780601f106140cd576101008083540402835291602001916140f8565b820191906000526020600020905b8154815290600101906020018083116140db57829003601f168201915b505050505081526020016001820180546141119061886f565b80601f016020809104026020016040519081016040528092919081815260200182805461413d9061886f565b801561418a5780601f1061415f5761010080835404028352916020019161418a565b820191906000526020600020905b81548152906001019060200180831161416d57829003601f168201915b505050505081525050908060040180546141a39061886f565b80601f01602080910402602001604051908101604052809291908181526020018280546141cf9061886f565b801561421c5780601f106141f15761010080835404028352916020019161421c565b820191906000526020600020905b8154815290600101906020018083116141ff57829003601f168201915b5050505050905084565b6142586040518060a0016040528060608152602001606081526020016060815260200160608152602001606081525090565b6000807f00000000000000000000000000000000000000000000000000000000000000006001600160a01b0316635bd51b6260e01b8560405160240161429e9190618825565b60408051601f198184030181529181526020820180516001600160e01b03166001600160e01b03199094169390931790925290516142dc91906180aa565b600060405180830381855af49150503d8060008114614317576040519150601f19603f3d011682016040523d82523d6000602084013e61431c565b606091505b509150915061436182826040518060400160405280601281526020017f6368616e6e656c4f70656e436f6e6669726d00000000000000000000000000008152506165af565b808060200190518101906143759190618607565b92506143846114878580618247565b6001600160a01b031663a113e41161439c8680618247565b6143a96020890189618247565b6040518563ffffffff1660e01b81526004016143c89493929190618838565b600060405180830381600087803b1580156143e257600080fd5b505af11580156143f6573d6000803e3d6000fd5b505050507fb2b38f1a3f2342db58b968031409c2b47987d6604c584798230dcd3371650e5983600001518460400151856020015186606001518760800151604051610d8795949392919061873f565b6000806000806000610f208a8a8080601f01602080910402602001604051908101604052809392919081815260200183838082843760009201919091525050604080516020601f8e018190048102820181019092528c815292508c91508b90819084018382808284376000920191909152508b9250616a59915050565b6144ed6040518060800160405280606081526020016060815260200160608152602001606081525090565b6000807f00000000000000000000000000000000000000000000000000000000000000006001600160a01b0316636a728f2c60e01b856040516024016145339190618b60565b60408051601f198184030181529181526020820180516001600160e01b03166001600160e01b031990941693909317909252905161457191906180aa565b600060405180830381855af49150503d80600081146145ac576040519150601f19603f3d011682016040523d82523d6000602084013e6145b1565b606091505b50915091506145f682826040518060400160405280601581526020017f636f6e6e656374696f6e4f70656e436f6e6669726d00000000000000000000008152506165af565b8080602001905181019061460a919061810b565b92507f651ff677aa39f2804d4c0eae6e78ee5fc17be1a45d199eb6a51ba4e1475a76048360000151846020015185604001518660600151604051610d8794939291906181e3565b6000600e8585604051613d2992919061885f565b606060006146a885858080601f01602080910402602001604051908101604052809392919081815260200183838082843760009201919091525061696a92505050565b6001600160a01b0316636cf44bf48686866040518463ffffffff1660e01b81526004016146d793929190618b95565b600060405180830381865afa1580156146f4573d6000803e3d6000fd5b505050506040513d6000823e601f3d908101601f1916820160405261471c9190810190618a2b565b91509150935093915050565b6147306165fc565b61473a6000616a81565b565b60028181548110612af457600080fd5b60018181548110612af457600080fd5b6060600061479f84848080601f01602080910402602001604051908101604052809392919081815260200183838082843760009201919091525061696a92505050565b6001600160a01b03166376c81c4285856040518363ffffffff1660e01b81526004016147cc9291906188e8565b600060405180830381865afa1580156147e9573d6000803e3d6000fd5b505050506040513d6000823e601f3d908101601f19168201604052612aad9190810190618a2b565b6001546060906000906001600160401b038111156148315761483161708a565b60405190808252806020026020018201604052801561486457816020015b606081526020019060019003908161484f5790505b50905060005b6001548110156123b557600060018281548110614889576148896188a3565b90600052602060002001805461489e9061886f565b80601f01602080910402602001604051908101604052809291908181526020018280546148ca9061886f565b80156149175780601f106148ec57610100808354040283529160200191614917565b820191906000526020600020905b8154815290600101906020018083116148fa57829003601f168201915b505050505090506149278161696a565b6001600160a01b03166376c81c42826040518263ffffffff1660e01b81526004016149529190617512565b600060405180830381865afa15801561496f573d6000803e3d6000fd5b505050506040513d6000823e601f3d908101601f191682016040526149979190810190618a2b565b508383815181106149aa576149aa6188a3565b60200260200101819052505080806149c1906188cf565b91505061486a565b6013546060906000906001600160401b03600160c01b9091048116908111156149f4576149f461708a565b604051908082528060200260200182016040528015614a2d57816020015b614a1a616ed1565b815260200190600190039081614a125790505b5090506000805b60045481101561501757600060048281548110614a5357614a536188a3565b906000526020600020018054614a689061886f565b80601f0160208091040260200160405190810160405280929190818152602001828054614a949061886f565b8015614ae15780601f10614ab657610100808354040283529160200191614ae1565b820191906000526020600020905b815481529060010190602001808311614ac457829003601f168201915b505050505090506000600682604051614afa91906180aa565b9081526020016040518091039020805480602002602001604051908101604052809291908181526020016000905b82821015614bd4578382906000526020600020018054614b479061886f565b80601f0160208091040260200160405190810160405280929190818152602001828054614b739061886f565b8015614bc05780601f10614b9557610100808354040283529160200191614bc0565b820191906000526020600020905b815481529060010190602001808311614ba357829003601f168201915b505050505081526020019060010190614b28565b50505050905060005b8151811015615001576000828281518110614bfa57614bfa6188a3565b602002602001015190506000600c85604051614c1691906180aa565b908152602001604051809103902082604051614c3291906180aa565b9081526040805191829003602001822060a083019091528054829060ff166004811115614c6157614c6161767d565b6004811115614c7257614c7261767d565b81528154602090910190610100900460ff166002811115614c9557614c9561767d565b6002811115614ca657614ca661767d565b815260200160018201604051806040016040529081600082018054614cca9061886f565b80601f0160208091040260200160405190810160405280929190818152602001828054614cf69061886f565b8015614d435780601f10614d1857610100808354040283529160200191614d43565b820191906000526020600020905b815481529060010190602001808311614d2657829003601f168201915b50505050508152602001600182018054614d5c9061886f565b80601f0160208091040260200160405190810160405280929190818152602001828054614d889061886f565b8015614dd55780601f10614daa57610100808354040283529160200191614dd5565b820191906000526020600020905b815481529060010190602001808311614db857829003601f168201915b505050505081525050815260200160038201805480602002602001604051908101604052809291908181526020016000905b82821015614eb3578382906000526020600020018054614e269061886f565b80601f0160208091040260200160405190810160405280929190818152602001828054614e529061886f565b8015614e9f5780601f10614e7457610100808354040283529160200191614e9f565b820191906000526020600020905b815481529060010190602001808311614e8257829003601f168201915b505050505081526020019060010190614e07565b505050508152602001600482018054614ecb9061886f565b80601f0160208091040260200160405190810160405280929190818152602001828054614ef79061886f565b8015614f445780601f10614f1957610100808354040283529160200191614f44565b820191906000526020600020905b815481529060010190602001808311614f2757829003601f168201915b50505050508152505090506040518060e0016040528082600001516004811115614f7057614f7061767d565b815260200182602001516002811115614f8b57614f8b61767d565b81526020018260400151815260200182606001518152602001826080015181526020018681526020018381525088886001600160401b031681518110614fd357614fd36188a3565b60200260200101819052508680614fe990618a05565b97505050508080614ff9906188cf565b915050614bdd565b505050808061500f906188cf565b915050614a34565b509092915050565b60606003838360405161503392919061885f565b9081526020016040518091039020805480602002602001604051908101604052809291908181526020016000905b8282101561510d5783829060005260206000200180546150809061886f565b80601f01602080910402602001604051908101604052809291908181526020018280546150ac9061886f565b80156150f95780601f106150ce576101008083540402835291602001916150f9565b820191906000526020600020905b8154815290600101906020018083116150dc57829003601f168201915b505050505081526020019060010190615061565b50505050905092915050565b61514b6040518060a0016040528060608152602001606081526020016060815260200160608152602001606081525090565b6000807f00000000000000000000000000000000000000000000000000000000000000006001600160a01b031663a06cb3a260e01b856040516024016151919190618bf9565b60408051601f198184030181529181526020820180516001600160e01b03166001600160e01b03199094169390931790925290516151cf91906180aa565b600060405180830381855af49150503d806000811461520a576040519150601f19603f3d011682016040523d82523d6000602084013e61520f565b606091505b509150915061525482826040518060400160405280601081526020017f6368616e6e656c436c6f7365496e6974000000000000000000000000000000008152506165af565b808060200190518101906152689190618607565b92506152776114878580618247565b6001600160a01b031663e74a1ac261528f8680618247565b61529c6020890189618247565b6040518563ffffffff1660e01b81526004016152bb9493929190618838565b600060405180830381600087803b1580156152d557600080fd5b505af11580156152e9573d6000803e3d6000fd5b505050507f137b8ff3192f46fcef631884ddc627cd49d32b825d053165a5415801a22af70483600001518460400151856020015186606001518760800151604051610d8795949392919061873f565b81516020818401810180516006825292820191850191909120919052805482908110611d1557600080fd5b61538e6040518060800160405280606081526020016060815260200160608152602001606081525090565b6000807f00000000000000000000000000000000000000000000000000000000000000006001600160a01b031663b531861f60e01b856040516024016153d49190618cfb565b60408051601f198184030181529181526020820180516001600160e01b03166001600160e01b031990941693909317909252905161541291906180aa565b600060405180830381855af49150503d806000811461544d576040519150601f19603f3d011682016040523d82523d6000602084013e615452565b606091505b509150915061549782826040518060400160405280601181526020017f636f6e6e656374696f6e4f70656e41636b0000000000000000000000000000008152506165af565b808060200190518101906154ab919061810b565b92507f05ee18b1fcf32f67c7300cb5e5f857de4796f66895e061dd299f262de9a0372d8360000151846020015185604001518660600151604051610d8794939291906181e3565b805160208183018101805160098252928201919093012091528054611d319061886f565b60006155256060850185618247565b8080601f0160208091040260200160405190810160405280939291908181526020018383808284376000920182905250939450615569925050506080860186618247565b8080601f0160208091040260200160405190810160405280939291908181526020018383808284376000920191909152509293506155b09250612b9e915084905083612ab8565b6156105760405162461bcd60e51b815260206004820152602b60248201527f6368616e6e656c206361706162696c697479206661696c6564206f6e2061757460448201526a3432b73a34b1b0ba34b7b760a91b6064820152608401612bff565b6000806001600160a01b037f000000000000000000000000000000000000000000000000000000000000000016635ab73cef60e11b858561565460208c018c6175d7565b8a8a60405160240161566a959493929190618e37565b60408051601f198184030181529181526020820180516001600160e01b03166001600160e01b03199094169390931790925290516156a891906180aa565b600060405180830381855af49150503d80600081146156e3576040519150601f19603f3d011682016040523d82523d6000602084013e6156e8565b606091505b509150915061572d82826040518060400160405280601481526020017f777269746541636b6e6f776c656467656d656e740000000000000000000000008152506165af565b7f778788131273c1769406f3b42a241a266d9c5c1ca39b2b33a3b1a8efb1080bc587878760405161576093929190618b3a565b60405180910390a150505050505050565b7f94d0025b8862b1f746f2b47a528fc7b60405cf70252a03606d828868b2f7291e816040516157a09190618f2f565b60405180910390a150565b815160208184018101805160128252928201918501919091209190528054829081106157d657600080fd5b6000918252602090912001546001600160401b0380821693506801000000000000000090910416905082565b60606000807f00000000000000000000000000000000000000000000000000000000000000006001600160a01b031663d5a2448160e01b8560405160240161584a919061907e565b60408051601f198184030181529181526020820180516001600160e01b03166001600160e01b031990941693909317909252905161588891906180aa565b600060405180830381855af49150503d80600081146158c3576040519150601f19603f3d011682016040523d82523d6000602084013e6158c8565b606091505b509150915061590d82826040518060400160405280600c81526020017f637265617465436c69656e7400000000000000000000000000000000000000008152506165af565b8080602001905181019061592191906183f4565b92507f99c72989fdc811e2ff3a5265b08f636a887faf5cbc61a014d2ac521a77421e8a8361594f8680618247565b604051610d87939291906190f4565b60606000600d868660405161597492919061885f565b9081526020016040518091039020848460405161599292919061885f565b908152604051908190036020019020546001600160401b03908116915060009082908111156159c3576159c361708a565b6040519080825280602002602001820160405280156159ec578160200160208202803683370190505b5090506000805b836001600160401b0316816001600160401b03161015615aea576040517f23402a3300000000000000000000000000000000000000000000000000000000815260009030906323402a3390615a54908d908d908d908d908990600401619107565b6040805180830381865afa158015615a70573d6000803e3d6000fd5b505050506040513d601f19601f82011682018060405250810190615a94919061914a565b9150508084836001600160401b031681518110615ab357615ab36188a3565b911515602092830291909101909101528015615ad757615ad460018461916f565b92505b5080615ae281618a05565b9150506159f3565b506000816001600160401b03811115615b0557615b0561708a565b604051908082528060200260200182016040528015615b2e578160200160208202803683370190505b5090506000805b856001600160401b0316816001600160401b03161015615bc85784816001600160401b031681518110615b6a57615b6a6188a3565b602002602001015115615bb657808383615b83816188cf565b945081518110615b9557615b956188a3565b60200260200101906001600160401b031690816001600160401b0316815250505b80615bc081618a05565b915050615b35565b50909998505050505050505050565b60007f00000000000000000000000000000000000000000000000000000000000000006001600160a01b031663da6cea5560e01b83604051602401615c1c9190619187565b60408051601f198184030181529181526020820180516001600160e01b03166001600160e01b0319909416939093179092529051615c5a91906180aa565b600060405180830381855af49150503d8060008114615c95576040519150601f19603f3d011682016040523d82523d6000602084013e615c9a565b606091505b50509050615ced81604051806020016040528060008152506040518060400160405280600c81526020017f757064617465436c69656e7400000000000000000000000000000000000000008152506165af565b7f8322bb4cdc3e8461799fe6dd6f266b50ccf3d16c0107279bf849d571cd0a41c0615d188380618247565b615d256020860186618247565b604051615d359493929190618838565b60405180910390a15050565b615d736040518060a0016040528060608152602001606081526020016060815260200160608152602001606081525090565b6000807f00000000000000000000000000000000000000000000000000000000000000006001600160a01b031663dd3469fc60e01b85604051602401615db99190619288565b60408051601f198184030181529181526020820180516001600160e01b03166001600160e01b0319909416939093179092529051615df791906180aa565b600060405180830381855af49150503d8060008114615e32576040519150601f19603f3d011682016040523d82523d6000602084013e615e37565b606091505b5091509150615e7c82826040518060400160405280600f81526020017f6368616e6e656c4f70656e496e697400000000000000000000000000000000008152506165af565b80806020019051810190615e909190618607565b60408101519093506000615ea76114878780618247565b90506001600160a01b0381166344dd9638615ec560208901896192d3565b615ed69060408101906020016192e9565b615ee360208a018a6192d3565b615ef1906060810190619306565b615efb8b80618247565b88615f0960208f018f6192d3565b615f1790604081019061934f565b8e8060200190615f2791906192d3565b615f35906080810190618247565b6040518a63ffffffff1660e01b8152600401615f5999989796959493929190619365565b600060405180830381600087803b158015615f7357600080fd5b505af1158015615f87573d6000803e3d6000fd5b50615fe09250615fda9150615f9e90508880618247565b8080601f016020809104026020016040519081016040528093929190818152602001838380828437600092019190915250879250612ab8915050565b82616ae0565b615ff6615ff0615f9e8880618247565b33616ae0565b7f9ddcc8c582e3bc79ee7442846c4fc363193ebd8c95f963eb9cbf80b4ef52480a8560000151866040015187602001518860600151896080015160405161604195949392919061873f565b60405180910390a150505050919050565b8151602081840181018051601182529282019185019190912091905280548290811061607d57600080fd5b6000918252602090912001546001600160a01b03169150829050565b6160c46040518060800160405280606081526020016060815260200160608152602001606081525090565b6000807f00000000000000000000000000000000000000000000000000000000000000006001600160a01b031663de31034160e01b8560405160240161610a9190619434565b60408051601f198184030181529181526020820180516001600160e01b03166001600160e01b031990941693909317909252905161614891906180aa565b600060405180830381855af49150503d8060008114616183576040519150601f19603f3d011682016040523d82523d6000602084013e616188565b606091505b50915091506161cd82826040518060400160405280601181526020017f636f6e6e656374696f6e4f70656e5472790000000000000000000000000000008152506165af565b808060200190518101906161e1919061810b565b92507f6076804265ce6ac0b356acca212c481b0b863754a046d4d9844d3692543f0b958360000151846020015185604001518660600151604051610d8794939291906181e3565b7f77af16d8f335f4fea9e6447a84032e559c2a8ec14e8e9f44f86fab517d6c14bd816040516157a09190618f2f565b6162896040518060a0016040528060608152602001606081526020016060815260200160608152602001606081525090565b6000807f00000000000000000000000000000000000000000000000000000000000000006001600160a01b031663ec6260a960e01b856040516024016162cf91906195b5565b60408051601f198184030181529181526020820180516001600160e01b03166001600160e01b031990941693909317909252905161630d91906180aa565b600060405180830381855af49150503d8060008114616348576040519150601f19603f3d011682016040523d82523d6000602084013e61634d565b606091505b509150915061639282826040518060400160405280600e81526020017f6368616e6e656c4f70656e5472790000000000000000000000000000000000008152506165af565b808060200190518101906163a69190618607565b60408101519093509150600090506163c16114878580618247565b90506001600160a01b03811663981389f26163df60408701876192d3565b6163f09060408101906020016192e9565b6163fd60408801886192d3565b61640b906060810190619306565b6164158980618247565b8861642360408d018d6192d3565b61643190604081019061934f565b61643e60408e018e6192d3565b61644c906080810190618247565b8e806060019061645c9190618247565b6040518c63ffffffff1660e01b81526004016164829b9a99989796959493929190619628565b600060405180830381600087803b15801561649c57600080fd5b505af11580156164b0573d6000803e3d6000fd5b506164c79250615fda9150615f9e90508680618247565b6164d7615ff0615f9e8680618247565b7f0553a407d392b80f3b238a973d79e5085b9f98b08c089f184cf15fd0919be51783600001518460400151856020015186606001518760800151604051610d8795949392919061873f565b61652a6165fc565b6001600160a01b0381166165a65760405162461bcd60e51b815260206004820152602660248201527f4f776e61626c653a206e6577206f776e657220697320746865207a65726f206160448201527f64647265737300000000000000000000000000000000000000000000000000006064820152608401612bff565b61180081616a81565b82610e9e5781516000036165f457806040516020016165ce91906196c2565b60408051601f198184030181529082905262461bcd60e51b8252612bff91600401617512565b815182602001fd5b6014546001600160a01b0316331461473a5760405162461bcd60e51b815260206004820181905260248201527f4f776e61626c653a2063616c6c6572206973206e6f7420746865206f776e65726044820152606401612bff565b8160028110801590616669575060808111155b6166b55760405162461bcd60e51b815260206004820152601660248201527f696e76616c696420706f7274206964206c656e677468000000000000000000006044820152606401612bff565b610e856166f785858080601f01602080910402602001604051908101604052809392919081815260200183838082843760009201919091525061159192505050565b83616ae0565b60007f00000000000000000000000000000000000000000000000000000000000000006001600160a01b03166318c1987060e01b85858560405160240161674693929190619703565b60408051601f198184030181529181526020820180516001600160e01b03166001600160e01b031990941693909317909252905161678491906180aa565b600060405180830381855af49150503d80600081146167bf576040519150601f19603f3d011682016040523d82523d6000602084013e6167c4565b606091505b50509050610e8581604051806020016040528060008152506040518060400160405280600e81526020017f7265676973746572436c69656e740000000000000000000000000000000000008152506165af565b6060838361682d846001600160401b0316616be0565b60405160200161683f93929190619730565b60405160208183030381529060405290509392505050565b600080600061686e6168698686612ab8565b616c80565b915091508084866040516020016168869291906197cb565b604051602081830303815290604052906168b35760405162461bcd60e51b8152600401612bff9190617512565b50816000815481106168c7576168c76188a3565b6000918252602090912001546001600160a01b031695945050505050565b60008060006168f661686985611591565b91509150808460405160200161690c919061984c565b604051602081830303815290604052906169395760405162461bcd60e51b8152600401612bff9190617512565b508160008154811061694d5761694d6188a3565b6000918252602090912001546001600160a01b0316949350505050565b600080600a8360405161697d91906180aa565b908152604051908190036020019020546001600160a01b03169050806169a257600080fd5b92915050565b600033815b6011846040516169bd91906180aa565b9081526040519081900360200190205463ffffffff82161015616a4f57816001600160a01b03166011856040516169f491906180aa565b90815260200160405180910390208263ffffffff1681548110616a1957616a196188a3565b6000918252602090912001546001600160a01b031603616a3d575060019392505050565b80616a4781619891565b9150506169ad565b5060009392505050565b60608383616a6f846001600160401b0316616be0565b60405160200161683f939291906198aa565b601480546001600160a01b0383811673ffffffffffffffffffffffffffffffffffffffff19831681179093556040519116919082907f8be0079c531659141344cd1fd0a4f28419497f9722a3daafe3b4186f6b6457e090600090a35050565b60005b601183604051616af391906180aa565b9081526040519081900360200190205463ffffffff82161015616b8057816001600160a01b0316601184604051616b2a91906180aa565b90815260200160405180910390208263ffffffff1681548110616b4f57616b4f6188a3565b6000918252602090912001546001600160a01b031603616b6e57600080fd5b80616b7881619891565b915050616ae3565b50601182604051616b9191906180aa565b908152604051602091819003820190208054600181018255600091825291902001805473ffffffffffffffffffffffffffffffffffffffff19166001600160a01b039290921691909117905550565b60606000616bed83616cce565b60010190506000816001600160401b03811115616c0c57616c0c61708a565b6040519080825280601f01601f191660200182016040528015616c36576020820181803683370190505b5090508181016020015b600019017f3031323334353637383961626364656600000000000000000000000000000000600a86061a8153600a8504945084616c40575b509392505050565b600080601183604051616c9391906180aa565b90815260200160405180910390206000601185604051616cb391906180aa565b90815260405190819003602001902054919591119350915050565b6000807a184f03e93ff9f4daa797ed6e38ed64bf6a1f0100000000000000008310616d17577a184f03e93ff9f4daa797ed6e38ed64bf6a1f010000000000000000830492506040015b6d04ee2d6d415b85acef81000000008310616d43576d04ee2d6d415b85acef8100000000830492506020015b662386f26fc100008310616d6157662386f26fc10000830492506010015b6305f5e1008310616d79576305f5e100830492506008015b6127108310616d8d57612710830492506004015b60648310616d9f576064830492506002015b600a83106169a25760010192915050565b828054616dbc9061886f565b90600052602060002090601f016020900481019282616dde5760008555616e24565b82601f10616df75782800160ff19823516178555616e24565b82800160010185558215616e24579182015b82811115616e24578235825591602001919060010190616e09565b50616e30929150616f2a565b5090565b6040805160a0810182526060808252602082015290810160008152602001616e5a616f3f565b8152600060209091015290565b604051806040016040528060608152602001616e81616e34565b905290565b6040805160a08101909152806000815260200160008152602001616ebd604051806040016040528060608152602001606081525090565b815260200160608152602001606081525090565b6040805160e08101909152806000815260200160008152602001616f08604051806040016040528060608152602001606081525090565b8152602001606081526020016060815260200160608152602001606081525090565b5b80821115616e305760008155600101616f2b565b60405180606001604052806060815260200160608152602001616e816040518060200160405280606081525090565b6000606082840312156123b557600080fd5b600060208284031215616f9257600080fd5b81356001600160401b03811115616fa857600080fd5b613d6384828501616f6e565b60005b83811015616fcf578181015183820152602001616fb7565b83811115610e855750506000910152565b60008151808452616ff8816020860160208601616fb4565b601f01601f19169290920160200192915050565b60208152600082516080602084015261702860a0840182616fe0565b90506020840151601f19808584030160408601526170468383616fe0565b925060408601519150808584030160608601526170638383616fe0565b92506060860151915080858403016080860152506170818282616fe0565b95945050505050565b634e487b7160e01b600052604160045260246000fd5b604051608081016001600160401b03811182821017156170c2576170c261708a565b60405290565b60405160a081016001600160401b03811182821017156170c2576170c261708a565b604051601f8201601f191681016001600160401b03811182821017156171125761711261708a565b604052919050565b60006001600160401b038211156171335761713361708a565b50601f01601f191660200190565b600061715461714f8461711a565b6170ea565b905082815283838301111561716857600080fd5b828260208301376000602084830101529392505050565b600082601f83011261719057600080fd5b61719f83833560208501617141565b9392505050565b6000602082840312156171b857600080fd5b81356001600160401b038111156171ce57600080fd5b613d638482850161717f565b602080825282518282018190526000919060409081850190868401855b828110156172305761722084835180516001600160401b03908116835260209182015116910152565b92840192908501906001016171f7565b5091979650505050505050565b60008083601f84011261724f57600080fd5b5081356001600160401b0381111561726657600080fd5b602083019150836020828501011115611ce357600080fd5b6001600160a01b038116811461180057600080fd5b6000806000604084860312156172a857600080fd5b83356001600160401b038111156172be57600080fd5b6172ca8682870161723d565b90945092505060208401356172de8161727e565b809150509250925092565b600080604083850312156172fc57600080fd5b82356001600160401b038082111561731357600080fd5b61731f8683870161717f565b9350602085013591508082111561733557600080fd5b506173428582860161717f565b9150509250929050565b6001600160401b038116811461180057600080fd5b803561736c8161734c565b919050565b60008060008060006060868803121561738957600080fd5b85356001600160401b03808211156173a057600080fd5b6173ac89838a0161723d565b909750955060208801359150808211156173c557600080fd5b506173d28882890161723d565b90945092505060408601356173e68161734c565b809150509295509295909350565b6000608082840312156123b557600080fd5b60006020828403121561741857600080fd5b81356001600160401b0381111561742e57600080fd5b613d63848285016173f4565b600060e082840312156123b557600080fd5b60006020828403121561745e57600080fd5b81356001600160401b0381111561747457600080fd5b613d638482850161743a565b602081526000825160a0602084015261749c60c0840182616fe0565b90506020840151601f19808584030160408601526174ba8383616fe0565b925060408601519150808584030160608601526174d78383616fe0565b925060608601519150808584030160808601526174f48383616fe0565b925060808601519150808584030160a0860152506170818282616fe0565b60208152600061719f6020830184616fe0565b600060a082840312156123b557600080fd5b60006020828403121561754957600080fd5b81356001600160401b0381111561755f57600080fd5b613d6384828501617525565b60008060006060848603121561758057600080fd5b83356001600160401b038082111561759757600080fd5b6175a38783880161717f565b945060208601359150808211156175b957600080fd5b506175c68682870161717f565b92505060408401356172de8161734c565b6000602082840312156175e957600080fd5b813561719f8161734c565b6000806020838503121561760757600080fd5b82356001600160401b0381111561761d57600080fd5b6176298582860161723d565b90969095509350505050565b600081518084526020808501808196508360051b8101915082860160005b8581101561723057828403895261766b848351616fe0565b98850198935090840190600101617653565b634e487b7160e01b600052602160045260246000fd5b600481106176a3576176a361767d565b9052565b60008151606084526176bc6060850182616fe0565b9050602083015184820360208601526176d58282616fe0565b9150506040830151848203604086015280519050602082526170816020830182616fe0565b6000815160a0845261770f60a0850182616fe0565b9050602080840151858303828701528281518085528385019150838160051b860101848401935060005b8281101561778d57601f1987830301845284516040815181855261775f82860182616fe0565b915050878201519150838103888501526177798183617635565b968801969588019593505050600101617739565b50604088015195506177a260408a0187617693565b6060880151955088810360608a01526177bb81876176a7565b955050505050506080830151616c7860808601826001600160401b03169052565b6040815260006177ef60408301856176fa565b905082151560208301529392505050565b6000806040838503121561781357600080fd5b82356001600160401b0381111561782957600080fd5b6178358582860161717f565b95602094909401359450505050565b60006020808301818452808551808352604092508286019150828160051b87010184880160005b838110156178bb57888303603f190185528151805187855261788f88860182616fe0565b91890151858303868b01529190506178a781836176fa565b96890196945050509086019060010161786b565b509098975050505050505050565b600080600080604085870312156178df57600080fd5b84356001600160401b03808211156178f657600080fd5b6179028883890161723d565b9096509450602087013591508082111561791b57600080fd5b506179288782880161723d565b95989497509550505050565b600581106176a3576176a361767d565b600381106118005761180061767d565b60008151604084526179696040850182616fe0565b9050602083015184820360208601526170818282616fe0565b60408152617994604082018451617934565b600060208401516179a481617944565b6060830152604084015160a060808401526179c260e0840182617954565b90506060850151603f19808584030160a08601526179e08383617635565b925060808701519150808584030160c0860152506179fe8282616fe0565b9250505082151560208301529392505050565b608081526000617a246080830187616fe0565b617a316020840187617693565b8281036040840152617a4381866176a7565b9150506001600160401b038316606083015295945050505050565b60608101617a82828580516001600160401b03908116835260209182015116910152565b82151560408301529392505050565b600060208284031215617aa357600080fd5b5035919050565b600061012082840312156123b557600080fd5b600060208284031215617acf57600080fd5b81356001600160401b03811115617ae557600080fd5b613d6384828501617aaa565b60006020808301818452808551808352604092508286019150828160051b87010184880160005b838110156178bb57603f19898403018552815160e0617b38858351617934565b88820151617b4581617944565b858a015281880151888601829052617b5f82870182617954565b91505060608083015186830382880152617b798382617635565b9250505060808083015186830382880152617b948382616fe0565b9250505060a08083015186830382880152617baf8382616fe0565b9250505060c08083015192508582038187015250617bcd8183616fe0565b968901969450505090860190600101617b18565b6040815260006177ef6040830185616fe0565b617bfe8186617934565b617c0784617944565b836020820152608060408201526000617c236080830185617954565b8281036060840152617c358185616fe0565b979650505050505050565b6000604082840312156123b557600080fd5b600080600060608486031215617c6757600080fd5b83356001600160401b03811115617c7d57600080fd5b617c898682870161723d565b9094509250617c9d90508560208601617c40565b90509250925092565b6000602080830181845280855180835260408601915060408160051b870101925083870160005b82811015617cfb57603f19888603018452617ce9858351616fe0565b94509285019290850190600101617ccd565b5092979650505050505050565b60208152600061719f6020830184617635565b600060208284031215617d2d57600080fd5b81356001600160401b03811115617d4357600080fd5b613d6384828501617c40565b600060208284031215617d6157600080fd5b81356001600160401b03811115617d7757600080fd5b8201610160818503121561719f57600080fd5b600080600060408486031215617d9f57600080fd5b83356001600160401b0380821115617db657600080fd5b617dc287838801617aaa565b94506020860135915080821115617dd857600080fd5b50617de58682870161723d565b9497909650939450505050565b600060208284031215617e0457600080fd5b81356001600160401b03811115617e1a57600080fd5b820160c0818503121561719f57600080fd5b6020808252825182820181905260009190848201906040850190845b81811015617e6d5783516001600160401b031683529284019291840191600101617e48565b50909695505050505050565b60008060408385031215617e8c57600080fd5b82356001600160401b03811115617ea257600080fd5b8301601f81018513617eb357600080fd5b61783585823560208401617141565b600060208284031215617ed457600080fd5b81356001600160401b03811115617eea57600080fd5b82016101a0818503121561719f57600080fd5b600060208284031215617f0f57600080fd5b813561719f8161727e565b6000808335601e19843603018112617f3157600080fd5b83016020810192503590506001600160401b03811115617f5057600080fd5b803603831315611ce357600080fd5b81835281816020850137506000828201602090810191909152601f909101601f19169091010190565b60008235605e19833603018112617f9e57600080fd5b90910192915050565b6000617fb38283617f1a565b60608552617fc5606086018284617f5f565b915050617fd56020840184617f1a565b8583036020870152617fe8838284617f5f565b925050506040830135601e1984360301811261800357600080fd5b848203604086015283016180178180617f1a565b91506020835261802b602084018383617f5f565b9695505050505050565b6020815260006180458384617f1a565b6060602085015261805a608085018284617f5f565b91505061806a6020850185617f88565b838203601f190160408501526180808282617fa7565b91505060408401356180918161734c565b6001600160401b03166060939093019290925250919050565b600082516180bc818460208701616fb4565b9190910192915050565b600082601f8301126180d757600080fd5b81516180e561714f8261711a565b8181528460208386010111156180fa57600080fd5b613d63826020830160208701616fb4565b60006020828403121561811d57600080fd5b81516001600160401b038082111561813457600080fd5b908301906080828603121561814857600080fd5b6181506170a0565b82518281111561815f57600080fd5b61816b878286016180c6565b82525060208301518281111561818057600080fd5b61818c878286016180c6565b6020830152506040830151828111156181a457600080fd5b6181b0878286016180c6565b6040830152506060830151828111156181c857600080fd5b6181d4878286016180c6565b60608301525095945050505050565b6080815260006181f66080830187616fe0565b82810360208401526182088187616fe0565b9050828103604084015261821c8186616fe0565b90508281036060840152617c358185616fe0565b6000823561011e198336030181126180bc57600080fd5b6000808335601e1984360301811261825e57600080fd5b8301803591506001600160401b0382111561827857600080fd5b602001915036819003821315611ce357600080fd5b80356182988161734c565b6001600160401b0390811683526020820135906182b48261734c565b808216602085015250505050565b60006101206182e1846182d485617361565b6001600160401b03169052565b6182ee6020840184617f1a565b8260208701526183018387018284617f5f565b925050506183126040840184617f1a565b8583036040870152618325838284617f5f565b925050506183366060840184617f1a565b8583036060870152618349838284617f5f565b9250505061835a6080840184617f1a565b858303608087015261836d838284617f5f565b9250505061837e60a0840184617f1a565b85830360a0870152618391838284617f5f565b925050506183a560c0850160c0850161828d565b6101006183b3818501617361565b6001600160401b03169401939093525090919050565b6040815260006183dc60408301856182c2565b90506001600160a01b03831660208301529392505050565b60006020828403121561840657600080fd5b81516001600160401b0381111561841c57600080fd5b613d63848285016180c6565b6000823561011e19833603018112617f9e57600080fd5b60208152600061844f8384618428565b6080602084015261846360a08401826182c2565b90506184726020850185617f1a565b848303601f19016040860152618489838284617f5f565b9250505061719f606084016040860161828d565b6080815260006184b160808301888a617f5f565b82810360208401526184c4818789617f5f565b90506001600160401b038516604084015282810360608401526184e78185616fe0565b9998505050505050505050565b60408152600061850760408301856182c2565b82810360208401526170818185616fe0565b60208152600061719f60208301846182c2565b60208152600061853c8384617f1a565b60e0602085015261855261010085018284617f5f565b9150506185626020850185617f1a565b601f198086850301604087015261857a848385617f5f565b93506185896040880188617f1a565b93509150808685030160608701526185a2848484617f5f565b93506185b16060880188617f1a565b93509150808685030160808701526185ca848484617f5f565b93506185d96080880188617f1a565b93509150808685030160a0870152506185f3838383617f5f565b9250505061719f60c0840160a0860161828d565b60006020828403121561861957600080fd5b81516001600160401b038082111561863057600080fd5b9083019060a0828603121561864457600080fd5b61864c6170c8565b82518281111561865b57600080fd5b618667878286016180c6565b82525060208301518281111561867c57600080fd5b618688878286016180c6565b6020830152506040830151828111156186a057600080fd5b6186ac878286016180c6565b6040830152506060830151828111156186c457600080fd5b6186d0878286016180c6565b6060830152506080830151828111156186e857600080fd5b6186f4878286016180c6565b60808301525095945050505050565b60608152600061871760608301888a617f5f565b828103602084015261872a818789617f5f565b905082810360408401526184e7818587617f5f565b60a08152600061875260a0830188616fe0565b82810360208401526187648188616fe0565b905082810360408401526187788187616fe0565b9050828103606084015261878c8186616fe0565b905082810360808401526187a08185616fe0565b98975050505050505050565b60006187b88283617f1a565b60a085526187ca60a086018284617f5f565b9150506187da6020840184617f1a565b85830360208701526187ed838284617f5f565b925050506187fe6040840184617f1a565b8583036040870152618811838284617f5f565b9250505061719f606085016060850161828d565b60208152600061719f60208301846187ac565b60408152600061884c604083018688617f5f565b8281036020840152617c35818587617f5f565b8183823760009101908152919050565b600181811c9082168061888357607f821691505b6020821081036123b557634e487b7160e01b600052602260045260246000fd5b634e487b7160e01b600052603260045260246000fd5b634e487b7160e01b600052601160045260246000fd5b6000600182016188e1576188e16188b9565b5060010190565b602081526000613d63602083018486617f5f565b801515811461180057600080fd5b600080828403606081121561891e57600080fd5b604081121561892c57600080fd5b50604051604081018181106001600160401b038211171561894f5761894f61708a565b604052835161895d8161734c565b8152602084015161896d8161734c565b60208201526040840151909250618983816188fc565b809150509250929050565b600083516189a0818460208801616fb4565b7f2f0000000000000000000000000000000000000000000000000000000000000090830190815283516189da816001840160208801616fb4565b01600101949350505050565b6000816000190483118215151615618a0057618a006188b9565b500290565b60006001600160401b03808316818103618a2157618a216188b9565b6001019392505050565b60008060408385031215618a3e57600080fd5b82516001600160401b03811115618a5457600080fd5b618a60858286016180c6565b9250506020830151618983816188fc565b606081526000618a8460608301876182c2565b8281036020840152618a97818688617f5f565b9150506001600160a01b038316604083015295945050505050565b602081526000618ac28384618428565b60a06020840152618ad660c08401826182c2565b9050618ae56020850185617f1a565b601f1980868503016040870152618afd848385617f5f565b9350618b0c6040880188617f1a565b935091508086850301606087015250618b26838383617f5f565b9250505061719f608084016060860161828d565b604081526000618b4d60408301866182c2565b828103602084015261802b818587617f5f565b602081526000618b708384617f1a565b60806020850152618b8560a085018284617f5f565b9150506184726020850185617f1a565b606081526000618ba9606083018587617f5f565b9050613d63602083018461828d565b6000618bc48283617f1a565b60408552618bd6604086018284617f5f565b915050618be66020840184617f1a565b858303602087015261802b838284617f5f565b60208152600061719f6020830184618bb8565b60008235603e19833603018112617f9e57600080fd5b6000808335601e19843603018112618c3957600080fd5b83016020810192503590506001600160401b03811115618c5857600080fd5b8060051b3603831315611ce357600080fd5b81835260006020808501808196508560051b810191508460005b87811015617230578284038952618c9b8288617f1a565b618ca6868284617f5f565b9a87019a9550505090840190600101618c84565b6000618cc68283617f1a565b60408552618cd8604086018284617f5f565b915050618ce86020840184618c22565b858303602087015261802b838284618c6a565b602081526000618d0b8384617f1a565b6101606020850152618d2261018085018284617f5f565b915050618d326020850185617f1a565b601f1980868503016040870152618d4a848385617f5f565b9350618d596040880188618c0c565b925080868503016060870152618d6f8484618cba565b9350618d7e6060880188617f1a565b9350915080868503016080870152618d97848484617f5f565b9350618da66080880188617f1a565b93509150808685030160a0870152618dbf848484617f5f565b9350618dce60a0880188617f1a565b93509150808685030160c0870152618de7848484617f5f565b9350618df660c0880188617f1a565b93509150808685030160e087015250618e10838383617f5f565b92505050618e25610100840160e0860161828d565b61719f6101408401610120860161828d565b608081526000618e4a6080830188616fe0565b8281036020840152618e5c8188616fe0565b90506001600160401b038616604084015282810360608401526187a0818587617f5f565b6003811061180057600080fd5b8035825260006020820135618ea181618e80565b618eaa81617944565b6020840152618ebc6040830183617f1a565b60606040860152617081606086018284617f5f565b6002811061180057600080fd5b600281106118005761180061767d565b8060005b6002811015610e85578135618f068161734c565b6001600160401b031684526020938401939190910190600101618ef2565b803561736c816188fc565b6000602080835260e0618f428586617f88565b60c083860152618f5482860182618e8d565b905082860135618f6381618ed1565b618f6c81618ede565b806040870152506040860135618f8181618ed1565b6060618f8c82618ede565b8181880152618f9d81890189618c22565b601f19898603810160808b0152818652909350868501600585901b86018801836000805b8881101561904057858a8503018552823560de19883603018112618fe3578283fd5b8701618fef8180617f88565b8c8652618ffe8d870182618e8d565b905061900e8e87018f8401618eee565b61901c8a87018b8401618eee565b60a061902c818801828501618eee565b50958d0195945050918b0191600101618fc1565b50505061904f60808d01618f24565b80151560a08d0152985061906560a08d01618f24565b80151560c08d015298509b9a5050505050505050505050565b60208152600061908e8384617f1a565b606060208501526190a3608085018284617f5f565b9150506190b36020850185617f1a565b601f19808685030160408701526190cb848385617f5f565b93506190da6040880188617f1a565b93509150808685030160608701525061802b838383617f5f565b604081526000618b4d6040830186616fe0565b60608152600061911b606083018789617f5f565b828103602084015261912e818688617f5f565b9150506001600160401b03831660408301529695505050505050565b6000806040838503121561915d57600080fd5b825191506020830151618983816188fc565b60008219821115619182576191826188b9565b500190565b6020815260006191978384617f1a565b604060208501526191ac606085018284617f5f565b9150506191bc6020850185617f1a565b848303601f1901604086015261802b838284617f5f565b60008235609e19833603018112617f9e57600080fd5b60008135600581106191fa57600080fd5b6192048482617934565b50602082013561921381618e80565b61921c81617944565b602084015261922e6040830183618c0c565b60a0604085015261924260a0850182618bb8565b90506192516060840184618c22565b8583036060870152619264838284618c6a565b925050506192756080840184617f1a565b858303608087015261802b838284617f5f565b6020815260006192988384617f1a565b604060208501526192ad606085018284617f5f565b9150506192bd60208501856191d3565b838203601f1901604085015261708182826191e9565b60008235609e198336030181126180bc57600080fd5b6000602082840312156192fb57600080fd5b813561719f81618e80565b6000808335601e1984360301811261931d57600080fd5b8301803591506001600160401b0382111561933757600080fd5b6020019150600581901b3603821315611ce357600080fd5b60008235603e198336030181126180bc57600080fd5b61936e8a617944565b89815260c06020820152600061938860c083018a8c618c6a565b828103604084015261939b81898b617f5f565b905082810360608401526193af8188616fe0565b905082810360808401526193c38187618bb8565b905082810360a08401526193d8818587617f5f565b9c9b505050505050505050505050565b81835260006020808501808196508560051b810191508460005b878110156172305782840389526194228461941d848a618c0c565b618cba565b98850198935090840190600101619402565b6020815260006194448384617f1a565b6101a0602085015261945b6101c085018284617f5f565b91505061946b6020850185617f88565b601f19808584030160408601526194828383617fa7565b925061949060408701617361565b6001600160401b038116606087015291506194ae6060870187617f1a565b9250818685030160808701526194c5848483617f5f565b9350506194d56080870187617f1a565b9250818685030160a08701526194ec848483617f5f565b9350506194fc60a0870187618c22565b9250818685030160c08701526195138484836193e8565b93505061952360c0870187617f1a565b9250818685030160e087015261953a848483617f5f565b93505061954a60e0870187617f1a565b9250610100828786030181880152619563858584617f5f565b945061957181890189617f1a565b945091505061012082878603018188015261958d858584617f5f565b945061959f6101408801828a0161828d565b5050505061719f6101808401610160860161828d565b6020815260006195c58384617f1a565b60e060208501526195db61010085018284617f5f565b9150506195eb6020850185617f1a565b601f1980868503016040870152619603848385617f5f565b935061961260408801886191d3565b9250808685030160608701526185a284846191e9565b6196318c617944565b8b815260e06020820152600061964b60e083018c8e618c6a565b828103604084015261965e818b8d617f5f565b90508281036060840152619672818a616fe0565b905082810360808401526196868189618bb8565b905082810360a084015261969b818789617f5f565b905082810360c08401526196b0818587617f5f565b9e9d5050505050505050505050505050565b600082516196d4818460208701616fb4565b7f2064656c656761746563616c6c206572726f7200000000000000000000000000920191825250601301919050565b604081526000619717604083018587617f5f565b90506001600160a01b0383166020830152949350505050565b7f636f6d6d69746d656e74732f706f7274732f0000000000000000000000000000815260008451619768816012850160208901616fb4565b692f6368616e6e656c732f60b01b601291840191820152845161979281601c840160208901616fb4565b6a2f73657175656e6365732f60a81b601c929091019182015283516197be816027840160208801616fb4565b0160270195945050505050565b7f6e6f206d6f64756c652066696e6420756e646572206368616e6e656c2000000081526000835161980381601d850160208801616fb4565b7f20616e6420706f72742000000000000000000000000000000000000000000000601d918401918201528351619840816027840160208801616fb4565b01602701949350505050565b7f6e6f206d6f64756c652066696e6420756e64657220706f72742000000000000081526000825161988481601a850160208701616fb4565b91909101601a0192915050565b600063ffffffff808316818103618a2157618a216188b9565b7f61636b732f706f7274732f0000000000000000000000000000000000000000008152600084516198e281600b850160208901616fb4565b692f6368616e6e656c732f60b01b600b91840191820152845161990c816015840160208901616fb4565b8082019150506a2f73657175656e6365732f60a81b60158201528351619939816020840160208801616fb4565b016020019594505050505056fea264697066735822122072b2a0d4138588426231aa608c029003d91b1981d3ae411d0c20d4d4c91c70bd64736f6c634300080d0033",
  "immutableReferences": {
    "10353": [
      {
        "length": 32,
        "start": 4960
      },
      {
        "length": 32,
        "start": 5617
      },
      {
        "length": 32,
        "start": 16989
      },
      {
        "length": 32,
        "start": 20816
      },
      {
        "length": 32,
        "start": 23928
      },
      {
        "length": 32,
        "start": 25230
      }
    ],
    "10951": [
      {
        "length": 32,
        "start": 22537
      },
      {
        "length": 32,
        "start": 23515
      },
      {
        "length": 32,
        "start": 26369
      }
    ],
    "11102": [
      {
        "length": 32,
        "start": 3112
      },
      {
        "length": 32,
        "start": 17650
      },
      {
        "length": 32,
        "start": 21395
      },
      {
        "length": 32,
        "start": 24777
      }
    ],
    "11652": [
      {
        "length": 32,
        "start": 4214
      },
      {
        "length": 32,
        "start": 4491
      },
      {
        "length": 32,
        "start": 11277
      },
      {
        "length": 32,
        "start": 15958
      },
      {
        "length": 32,
        "start": 22045
      }
    ]
  },
  "source": "// SPDX-License-Identifier: Apache-2.0\npragma solidity ^0.8.9;\n\nimport \"@openzeppelin/contracts/access/Ownable.sol\";\nimport \"./25-handler/IBCHandler.sol\";\n\n/**\n * @dev OwnableIBCHandler is a contract that implements [ICS-25](https://github.com/cosmos/ibc/tree/main/spec/core/ics-025-handler-interface).\n */\ncontract OwnableIBCHandler is IBCHandler, Ownable {\n    /**\n     * @dev The arguments of constructor must satisfy the followings:\n     * @param ibcClient is the address of a contract that implements `IIBCClient`.\n     * @param ibcConnection is the address of a contract that implements `IIBCConnectionHandshake`.\n     * @param ibcChannel is the address of a contract that implements `IIBCChannelHandshake`.\n     * @param ibcPacket is the address of a contract that implements `IIBCPacket`.\n     */\n    constructor(address ibcClient, address ibcConnection, address ibcChannel, address ibcPacket)\n        IBCHandler(ibcClient, ibcConnection, ibcChannel, ibcPacket)\n    {}\n\n    /**\n     * @dev registerClient registers a new client type into the client registry\n     */\n    function registerClient(string calldata clientType, ILightClient client) public override onlyOwner {\n        super.registerClient(clientType, client);\n    }\n\n    /**\n     * @dev bindPort binds to an unallocated port, failing if the port has already been allocated.\n     */\n    function bindPort(string calldata portId, address moduleAddress) public override onlyOwner {\n        super.bindPort(portId, moduleAddress);\n        portIds.push(portId);\n    }\n\n    /**\n     * @dev setExpectedTimePerBlock sets expected time per block.\n     */\n    function setExpectedTimePerBlock(uint64 expectedTimePerBlock_) public override onlyOwner {\n        super.setExpectedTimePerBlock(expectedTimePerBlock_);\n    }\n}\n",
  "sourcePath": "/Users/vimchain/Cryptape/forcerelay/ibc-solidity-contract/contracts/core/OwnableIBCHandler.sol",
  "compiler": {
    "name": "solc",
    "version": "0.8.13+commit.abaa5c0e.Emscripten.clang"
  },
  "schemaVersion": "3.4.14",
  "updatedAt": "2023-11-03T06:25:43.646Z",
  "devdoc": {
    "details": "OwnableIBCHandler is a contract that implements [ICS-25](https://github.com/cosmos/ibc/tree/main/spec/core/ics-025-handler-interface).",
    "kind": "dev",
    "methods": {
      "bindPort(string,address)": {
        "details": "bindPort binds to an unallocated port, failing if the port has already been allocated."
      },
      "channelCapabilityPath(string,string)": {
        "details": "channelCapabilityPath returns the path under which module address associated with a port and channel should be stored."
      },
      "constructor": {
        "details": "The arguments of constructor must satisfy the followings:",
        "params": {
          "ibcChannel": "is the address of a contract that implements `IIBCChannelHandshake`.",
          "ibcClient": "is the address of a contract that implements `IIBCClient`.",
          "ibcConnection": "is the address of a contract that implements `IIBCConnectionHandshake`.",
          "ibcPacket": "is the address of a contract that implements `IIBCPacket`."
        }
      },
      "createClient((string,bytes,bytes))": {
        "details": "createClient creates a new client state and populates it with a given consensus state"
      },
      "owner()": {
        "details": "Returns the address of the current owner."
      },
      "portCapabilityPath(string)": {
        "details": "portCapabilityPath returns the path under which owner module address associated with a port should be stored."
      },
      "registerClient(string,address)": {
        "details": "registerClient registers a new client type into the client registry"
      },
      "renounceOwnership()": {
        "details": "Leaves the contract without owner. It will not be possible to call `onlyOwner` functions. Can only be called by the current owner. NOTE: Renouncing ownership will leave the contract without an owner, thereby disabling any functionality that is only available to the owner."
      },
      "setExpectedTimePerBlock(uint64)": {
        "details": "setExpectedTimePerBlock sets expected time per block."
      },
      "transferOwnership(address)": {
        "details": "Transfers ownership of the contract to a new account (`newOwner`). Can only be called by the current owner."
      },
      "updateClient((string,bytes))": {
        "details": "updateClient updates the consensus state and the state root from a provided header"
      }
    },
    "version": 1
  },
  "userdoc": {
    "kind": "user",
    "methods": {},
    "version": 1
  }
}